:020000041000EA
:1000000000B5324B212058609868022188439860DF
:10001000D860186158612E4B002199600221596106
:100020000121F02299502B49196001219960352056
:1000300000F044F80222904214D00621196600F024
:1000400034F8196E01211966002018661A6600F04E
:100050002CF8196E196E196E052000F02FF8012189
:100060000842F9D1002199601B49196000215960AB
:100070001A491B48016001219960EB211966A021F2
:10008000196600F012F800219960164914480160C1
:100090000121996001BC002800D000471248134993
:1000A000086003C880F30888084703B5996A0420EC
:1000B0000142FBD001200142F8D103BD02B5186610
:1000C0001866FFF7F2FF186E186E02BD00000240BE
:1000D000000000180000070000035F00212200005C
:1000E000F4000018222000A00001001008ED00E03C
:1000F00000000000000000000000000074B24E7A12
:1001000000200420F7010010C3010010C5010010F9
:10011000C1010010C1010010C1010010C101001097
:10012000C1010010C1010010C1010010C701001081
:10013000C1010010C1010010C9010010CB01001065
:10014000CD010010CD010010CD010010CD01001037
:10015000CD010010CD010010CD010010CD01001027
:10016000CD010010CD010010CD010010CD01001017
:10017000CD010010CD010010CD010010CD01001007
:10018000CD010010CD010010CD010010CD010010F7
:10019000CD010010CD010010CD010010CD010010E7
:1001A000CD010010CD010010CD010010CD010010D7
:1001B000CD010010CD010010CD010010CD010010C7
:1001C00000BE00BE00BE00BE00BE00BEEFF3058054
:1001D000103800BEF2EB88712CCA08104CCA081007
:1001E0003402001090A31AE700201F49086006C8D7
:1001F00081F3088810471D48006800282FD10DA4FE
:100200000ECC002902D000F012F8F9E71849194A7B
:10021000002000E001C19142FCD1174988471749ED
:1002200088471749884700BEFDE701C901C29A42C5
:10023000FBD370474CCA0810C000002088BD0020C6
:1002400014870910000004200000042014870910FE
:10025000001004200010042000000000704709482E
:1002600006F01EF80047000008ED00E0000000D096
:1002700088BD00209442032055490010D50F00107E
:10028000894A00105756000006005250ABB3605325
:1002900054A2021006005250861C030264A20210EF
:1002A000060052505422A29D78A20210050052501E
:1002B000DE65F46814870910F8B5C046044B10B524
:1002C000002B03D00349044800E000BF10BDC04626
:1002D00000000000A4D80220309B0210904AF0B524
:1002E00057469246DE464E464546D346E0B516682A
:1002F0008C4A89B002928C4A8C4C04928C4A2368B6
:1003000007928C4A0592B34209D15D460120002133
:1003100003F0B4FC23682E68B342F7D0AB467200FA
:100320009219D2000299921BD2018A580132EAD066
:100330000023A2461F0003F06BFD1622002300904D
:100340000191009C019DA4185D415B461E68029AC4
:10035000730099469B19DB009B1B5B01DB199B001B
:10036000D3589846002B70DD049B1B680393013B18
:10037000312B00D97FE042461304180C84469B0BB6
:1003800063449A009B180690580207F089F86A495E
:1003900007F02BF8039B8046580007F081F8011CFA
:1003A000404607F036F8654907F01FF807F0CCF82B
:1003B000039B81B2069888465843322105F0A2FF7C
:1003C000FE23079A9B0580B21360059B1B68022BD6
:1003D00000D195E0022B36DC002B00D19AE0012BF6
:1003E0000DD1574B1B68574A1B0C1B041360564B0F
:1003F0001A68030453401B0C544A1B041360019BEE
:100400009D4231D903F004FD0E00804600210120F9
:1004100003F034FCB542F5D801D14445F2D85B462F
:100420001E68730099464B469B19DB009B1B0137E6
:100430005B01029ADB199B00D358013300D07AE7A5
:10044000544623685FE7032BD9D13D4B1B683D4AD7
:100450001B0C1B0413603C4B3C4A1B681B0C1B040D
:100460001360019B9D42CDD8009A019B9D42DAD139
:100470009442C7D8D7E7039B322B47DD323B1800A5
:1004800007F00EF8324906F0C4FF324906F0ADFF1E
:10049000314906F0A7FF079A039010604246100406
:1004A000000C06F0FDFF039906F0B3FF2B498046D0
:1004B00006F0AFFF204906F098FF07F061F90390BE
:1004C000404607F05DF90690039807F03DF8C82212
:1004D000031C80B29201904200D9131C9BB2069873
:1004E000984607F031F8A022031C80B2D200904257
:1004F00000D9131C98B2059B1B68022B00D069E73A
:100500000F4B1A6843461B0453406CE7002300203E
:1005100098465AE70A4B1A6843461B04534096E72D
:1005200068CB022068B402206CAF00206CCB0220A4
:1005300068AC0020A0D802200000A0440000C842FF
:1005400070000540701005400C0005400C1005407F
:1005500048E13A4000004842713D8A3F0000484669
:1005600003784E2B01D0002070474378452BFAD1F9
:100570008378532BF7D1C3781A2BF4D1084B8179A8
:100580001A680909501CEED0083305E008331A0038
:10059000083A1268501CE6D08A42F7D10120E3E7FE
:1005A00010B30020F0B54746CE4680B52F4B05006E
:1005B00043600B780E00170085B04E2B37D02C4BC4
:1005C00030001900984600F069FE010028612948B2
:1005D00007F0C4FC2B69002B15DD274B002499463E
:1005E0006E61320043462100684600F02BFF029AFC
:1005F000002A15D0039B4846019907F0AFFC2B69F0
:100600000134A342EDDC7A1C07D0002B05D0EF604B
:1006100005B0C0BCB946B046F0BD0123AB60F7E7FA
:100620002B690134A342DCDC7A1CEED1F5E74B7870
:10063000452BC4D18B78532BC1D1CB781A2BBED18B
:100640000E4B8A791C681209611CB8D0083305E08A
:100650000833190008390C68611CB0D0A242F7D1E8
:100660002E60074807F0EAFAD2E7C04628A3021036
:1006700061050010309B0210549B021010B3002043
:10068000649B0210F0B5D6464F464646C0B54E4C68
:1006900084B0A368002B12D12368002B0CD09B7967
:1006A0009B0725D4494807F0C9FA002004B0E0BCF4
:1006B000BA46B146A846F0BD2369002B21D1636834
:1006C000002BF2D0A368002B24D06368002BECD061
:1006D000A568002D2DD063689B799B076FD53C489A
:1006E00007F0ACFA00213B4807F038FC3A48DDE758
:1006F0003A4807F0A3FA0121364807F02FFC3848A2
:10070000D4E76E46374B30006269E16800F09AFE2C
:10071000B368D5E72368002BC1D12369002BD4D05F
:100720006E46304B30006269E16800F08BFEB368C2
:10073000CCE79B799B07B5D52368002BD8D1E1681E
:10074000002938DB274B0127994602236E469A463B
:1007500003E0E1680135A9422DDB4B4662692900BF
:10076000300000F06FFE5246B3689B791A42F0D019
:10077000E1687B1C98468D4201D01F00EAE70133F7
:1007800019D042462900184807F0E8FB4346002BE1
:1007900000DA8AE741460F4807F0E0FB104B780388
:1007A0009C46124B6044984200D87FE7414610486F
:1007B00007F0D4FB79E70F4807F0D0FB75E70E4848
:1007C00007F03CFA71E7C046B0AD0220DC9B021096
:1007D000709B02109C9B021000200D10089C0210C0
:1007E00000400D10610500107C9C0210FFFF1010EE
:1007F000B09C0210449C0210AC9B0210F0B5C6469F
:10080000050000B533480E0007F018FA324B1B788C
:10081000002B03D1314B1B78002B55D0304807F00B
:100820000DFA07F003FEEFF3108772B6FFF72AFF09
:10083000011E34D12B4C2C4807F000FA53238021A1
:10084000D020237001336370133BA37015336371A1
:10085000073BA371033BE371244BE57026711B68D2
:1008600089012372224B00031B686372214B1B78A2
:10087000A37229F0EDF88022D0202100920100031C
:1008800029F0AEF81C4807F0D9F91C4807F0D6F952
:1008900087F310880121642003F0FCFFFEE7F023BA
:1008A0001B06984680444246154807F057FB8021B6
:1008B0004046890129F0CCF880220A4C40462100AC
:1008C000920129F08DF8B6E70E4807F0B7F980BC21
:1008D000B846F0BDE49C02108442032091420320FC
:1008E000349D02105C8D02206C9D0210A0D8022065
:1008F0006CAF002054AC0020A09D0210A89D0210F7
:10090000489D0210009D0210F8B5CE46474680B5BE
:1009100001F0D8FF162001F0B1FE0400152001F00F
:10092000ADFEA401C00120438146172001F0A6FEC0
:100930008046142001F0A2FE0700102001F09EFE68
:100940000600112001F09AFE0500122001F096FE2B
:100950004C46434604431B0113201C4301F08EFE0A
:100960007F013C43B6003443ED002C43400020435C
:10097000C0BCB946B046F8BDF0B54E46DE46454669
:100980005746E0B583B016000500FFF7BDFFBF4A2C
:100990000400136801331360BD4A914600224946A2
:1009A0000A7002009B0702D5BA4B1B689A432A6063
:1009B0002500B94F3B689D43230719D5EB0700D5A8
:1009C000B1E0042323401A000193B44B9A461B78EC
:1009D000002B12D19846002A00D0ADE043463C607F
:1009E000336003B0F0BCBB46B246A946A046F0BD9A
:1009F00000239846002CF1D0E3E71022A84B9B4639
:100A00001B68224208D03968114205D1002B00DC56
:100A10002AE15A46013B13602022224208D039685D
:100A2000114205D15A1C032A00D813005A461360FC
:100A3000A20702D5002251460A700122224200D0AC
:100A400095E000229046032B00D1E8E0019B002BAB
:100A5000C4D06B0674D5934B98469B68002B00D08E
:100A6000DBE04346187B2D21FFF7C8FE00234246FA
:100A700093601368002B00D1BEE02B0600D5A1E0E7
:100A800001239846EB060DD5864BFF2098469B68C0
:100A9000002B69D04221FFF7B1FE0123424693604B
:100AA00001239846AB060FD503227F490B6801331B
:100AB000D817800F1B1813401B1A0B607B4B753225
:100AC0001A607B4B773A1A702B0702D501235246E6
:100AD0001370EB0711D57749774A0B6812689B189A
:100AE000642B00D9642378220B60744B1A60744B1A
:100AF0004D3A1A706E4B2A3A1A70AD0700D46DE762
:100B00006C4A6D49136809685B1AD943C9170B40D1
:100B100013607822694B1A60694B4B3A1A70644B28
:100B20002C3A1A705AE70122664B674819785140EF
:100B3000197007F013FA44E7002398466B068AD42D
:100B40002B069FD5574BFF2098469B68002B39D02A
:100B50002B21FFF753FE002342469360136899460A
:100B6000002B32D0EB069BD54346187B92E73968C1
:100B7000080010408046114200D062E7012B75D07A
:100B8000022B73D0002B00D05DE749460A70524615
:100B90001370444B9A68002A75D1187B5221FFF7D5
:100BA0002DFE4A4B4A4A1B681B0C1B041360494B21
:100BB000494A1B681B0C1B0413605B4601221B681F
:100BC000904640E74346187BC2E71369002BC9D023
:100BD000D16842480131D16007F0C0F94346DA6874
:100BE0001B699A4200D04BE743464A4600213C48E5
:100BF000DA6007F0B3F943E71369002B00D13CE753
:100C0000D16838480139D16007F0A8F94346DB685C
:100C1000002B30DB0123984692E7FF2023E73D338A
:100C200023420DD03A681A420AD12F4B1A78101C71
:100C3000092A00D80A200A38C0B2187001F01EFE36
:100C40008023234200D101E73A681A4200D0FDE632
:100C5000254B1A78101C5A2A00D95A200A30C0B2E3
:100C6000187001F00BFEF1E60123D2E6094A116883
:100C70004B401360EAE6434619691C480139D960C4
:100C800007F06CF9C6E7FF2088E7C04688AD022070
:100C90008742032080AD022074AD022090420320E1
:100CA0009CD80220B0AD0220A0D80220D032032070
:100CB000914203206CAF002068AF0020D4320320A3
:100CC00064AF00208E420320C89D021070000540D2
:100CD000701005400C0005400C1005400C9E0210E1
:100CE000289E0210D89D021054AC0020F49D0210E2
:100CF0000FB430B583B006AC20CC084807F02EF90D
:100D000021002800019407F0BFF80A2006F04AFFEE
:100D100003B030BC08BC04B01847C046409E021067
:100D20000FB400B5064883B007F018F905AB0A20E8
:100D3000019306F037FF03B008BC04B01847C04663
:100D4000489E0210F0B5C646254C01000600102250
:100D5000200000B506F098FE23784E2B03D000202B
:100D600080BCB846F0BD6378452BF8D1A378532BEF
:100D7000F5D1E3781A2BF2D11A4BA7791A683D09FD
:100D8000511CECD0083305E008331A00083A126809
:100D9000511CE4D09542F7D180223500124B00213E
:100DA000180092019846103506F068FE7F070BD4B4
:100DB0000E4A237915606279002A03D00C4A9B03FE
:100DC000EB1813600120CBE780208022400129002E
:100DD0004044920006F058FE84239B00F518E7E794
:100DE000902A022010B300205C8D0220488C022043
:100DF00064AD02200022024B1A60024B1A60704759
:100E0000488C022064AD02207047C0460020704725
:100E10007047C046F0B5DE46574645464E46E0B5FB
:100E200083B00C9CA4460D9CA046234CA24624688B
:100E3000A34600283BDD64002600204FA1465C4607
:100E400000933B005E44F600361B5D46F601BE197A
:100E5000002467469C4601950D5D009BAB46155DE1
:100E6000AB441D5D4346AB441B5D3D5D01345D44B9
:100E70009B465D4420C6A042EED1019B67469B463F
:100E80004B465A465B44DB009B1A01225B011B1850
:100E90009B005242FA505A4601239B1A5246136055
:100EA00003B0F0BCBB46B246A946A046F0BD630005
:100EB00000209946014FE3E76CCB022068B4022082
:100EC000114B70B51C68621C1A6001F033FC01F014
:100ED000E1FB0E4D0E4E2968411A0E4805F03AFA14
:100EE0000130306001F0D6FB0B4A28601368002BFC
:100EF00001DD013B1360094A1368002B01DD013B52
:100F00001360200070BDC04694AD022084AD022065
:100F100090AD02203F420F00D4320320D032032094
:100F200010B5234B84B01B78002B2AD121498B6844
:100F3000002B15D04868002831D0FFF703FF0028A8
:100F40001CD0FFF79FFB041E1ED100221A4B1A7003
:100F500021F004F803000020002B24DB04B010BDB6
:100F600008680028E9D10B69002BE3D068464A697C
:100F7000124BC96800F066FA0298DCE7104806F0E8
:100F80005DFE01204042E9E721000E4806F0E6FF41
:100F90008022210092010C4806F076FDD5E70B482F
:100FA00006F04CFEEDE70A4806F048FEE9E7C046C9
:100FB00090420320B0AD022084420320610500105E
:100FC000149F0210B89D02105C8D0220FC9E02103E
:100FD0002C9F0210F0B5DE464E464546574600248B
:100FE000E0B58E4B8DB01C708D4B1C7004AB1C702B
:100FF000994601F06FFC0122B8218A4B5242090147
:101000001A605A50884B89481C60894B1C6007F055
:1010100061FA884D287801F031FCB4220021920158
:10102000854806F02BFDB42200219201834806F08A
:1010300025FD06F09FFF824806F000FE8022814CCD
:1010400081492000920106F01FFDA07A002800D0FF
:10105000A1E07E4B1A78562A03D15A784F2A00D144
:101060008BE003F05BFC002802D02378532B4AD09E
:10107000774C002220007749FFF794FA0022494676
:10108000744801F071F82369002B04DD002802DBAD
:10109000984200DA83E0704B704E9846704B714D69
:1010A0009B46714B714F9A46A3683900002B06D1BD
:1010B000E16843466846626900F0C4F9019930006E
:1010C00006F04CFF21F002F82B78002BECD05B46A9
:1010D00052461B6849461B0C1B041360644B654A4F
:1010E0001B685C481B0C1B041360002201F03CF8D9
:1010F0002369002BD8DD0028D6DB9842D4DA002300
:10110000E060A360D0E76378542BB1D1A3781F00CF
:10111000413F412BACD10326A6575748310006F07A
:101120001DFF2579731C3ED0494C320020004949EF
:10113000FFF738FA002E40DB522D42D02B2D55D030
:101140002D2D4ED12368A760002B11D12369002BD0
:101150000ED0E16849480139E16006F0FFFEE3681E
:10116000002B05DA216946480139E16006F0F6FEF8
:101170000122444B52421A608DE79B784C2B00D0E1
:101180006FE7217A404B41481960627A404B1A6000
:1011900006F0E4FE65E7287001F070FB59E70023D4
:1011A000E060A36077E72A00523A53425A41284C44
:1011B000284920005242FFF7F5F9422D13D0522D55
:1011C000D6D101224946234800F0CEFF2369002BE7
:1011D000CEDD0028CCDB9842CADA0023E060A360B1
:1011E000C6E7422DC4D10123A360C1E72368A760ED
:1011F000002BBDD12369002BBAD0E168254801310D
:10120000E16006F0ABFEE26823699A42B0D10021AA
:101210002148E16006F0A2FEAAE7C0469042032002
:101220009142032068B4022068CB0220DD02001046
:101230006CCB022054AC0020CCD80220CC0503207B
:10124000409F02105C8D022000000D10618D022075
:10125000B0AD02200000111061050010889F02103F
:10126000700005408742032070100540989F0210CF
:101270000C0005400C100540709F0210D89D021014
:10128000F49D021074AD0220A0D80220509F0210DD
:101290006CAF00200C9E0210289E02100023F0B5B7
:1012A00046469846634B4F46D64699467C23C0B582
:1012B00005000F009A46202680222B00D200A91894
:1012C00001335A1E1278002A07D19942F8D14046BC
:1012D000E0BCBA46B146A846F0BDA91C0522484666
:1012E000FF3127F09DFC002800D097E05346EC5CCE
:1012F0002300B34300D19BE0303CE3B2072B00D97D
:1013000092E07D23EB5C1A00B24375D0303BDAB239
:10131000072A00D988E0E4001C437E23EB5C1A0016
:10132000B24369D0303BDAB2072A00D97CE0E4004E
:101330001C437F23EB5C1A00B2435DD0303BDAB232
:10134000072A71D8E4001C438023EB5C1A00B243E7
:1013500052D0303BDAB2072A66D8E4001C4381231E
:10136000EB5C1A00B24347D0303BDAB2072A5BD8B5
:10137000E4001C438223EB5C1A00B2433CD0303BB8
:10138000DAB2072A50D8E4001C438323EB5C1A002E
:10139000B24331D0303BDAB2072A45D8E4001C43CF
:1013A0008423EB5C1A00B24326D0303BDAB2072A22
:1013B0003AD8E4001C438523EB5C1A00B2431BD0EF
:1013C000303BDAB2072A2FD8E4001C438623EB5CBB
:1013D0001A00B24310D0303BDAB2072A24D8E40016
:1013E0001C438723EB5C1A00B24305D0303BDAB2D2
:1013F000072A19D8E4001C43002F05D080239B0046
:10140000E818B847002802D001239C46E0440A4B64
:101410009C466444640A64022D194DE7074806F0AF
:101420000DFC0023984652E7054806F007FCF8E754
:101430000024E1E7A89F0210FF030000B09F021004
:10144000C89F0210F0B54E4699460023454698467F
:10145000704BDE4657469A467C23E0B59B46150006
:10146000202683B00190009180222B00D200A91881
:1014700001335A1E1278002A12D19942F8D1002461
:10148000002700250020019B18605D609F60DC60E4
:10149000019803B0F0BCBB46B246A946A046F0BDD9
:1014A000A91C05225046FF3127F0BAFB002800D0C6
:1014B0009EE05B46EC5C2300B34300D1A3E0303CEC
:1014C000E3B2072B00D99CE07D23EB5C1A00B2430A
:1014D00000D176E0303BDAB2072A00D991E0E4008F
:1014E0001C437E23EB5C1A00B2436AD0303BDAB275
:1014F000072A00D985E0E4001C437F23EB5C1A0037
:10150000B2435ED0303BDAB2072A00D979E0E4007A
:101510001C438023EB5C1A00B24352D0303BDAB25A
:10152000072A6ED8E4001C438123EB5C1A00B24307
:1015300047D0303BDAB2072A63D8E4001C43822349
:10154000EB5C1A00B2433CD0303BDAB2072A58D8E1
:10155000E4001C438323EB5C1A00B24331D0303BE0
:10156000DAB2072A4DD8E4001C438423EB5C1A004E
:10157000B24326D0303BDAB2072A42D8E4001C43FB
:101580008523EB5C1A00B2431BD0303BDAB2072A4A
:1015900037D8E4001C438623EB5C1A00B24310D01A
:1015A000303BDAB2072A2CD8E4001C438723EB5CDB
:1015B0001A00B24305D0303BDAB2072A21D8E40042
:1015C0001C4380239B00EF184B46002B03D03800B0
:1015D000C847002805D0009B984516D001239C469B
:1015E000E0440D4B9C466444640A64022D193BE7B9
:1015F0000A4806F023FB10220021019806F03EFA6B
:1016000046E70748F5E70024DBE7280027F050FC11
:1016100039E7C046A89F0210FF030000B09F0210E8
:10162000C89F0210014B18607047C0466CAD022085
:10163000F0B5DE4657464E464546A022E0B5484D39
:1016400085B02C680600019192000021200006F070
:1016500015FA07231900F2171140520F8919B6180D
:1016600033409B1A5A00D2185201D31AC910203B9A
:1016700000934B015B1A99463A4B4A461F68F82380
:101680005B009B46384B52009A46384BBF18B84611
:10169000A3440293039509E001339C460133E144DE
:1016A0009C46E6811034E044A3454ED04346514663
:1016B0005F781B7848461A071B095B00D20ECD5A8B
:1016C0008E5A1F2104F01EFE019B834202D02B0084
:1016D00035001E00029B01219C46009B6744FB5C79
:1016E0003200194200D02A00022122802A00194229
:1016F00000D13200042162802A00194200D1320058
:101700000821A2802A00194200D132001021E28073
:101710002A00194200D13200202122812A001942D8
:1017200000D13200402162812A00194200D13200EA
:10173000A281DB09B0D001239C460133E1449C46E1
:10174000E5811034E044A345B0D15B46039D2B6096
:1017500005B0F0BCBB46B246A946A046F0BDC046A7
:101760006CAD02207CAD0220A810002074AF0020D8
:10177000F0B5DE46574645464E46E0B5B9B00F00D7
:10178000824600F027FF504B0F251C689B464F4BAD
:10179000E11823001A782A401A7002338B42F9D1DB
:1017A00023000F251A78AA431A7002338B42F9D10D
:1017B000474A631CA11820221A7002338B42FBD1C6
:1017C000260043210F25434AA31C2C3602E0023396
:1017D0009E4205D00132597011781D700029F6D152
:1017E0003D4AE1239446DB00E31841210F253B4AA3
:1017F000644402E00233A34205D0013259701178EB
:101800001D700029F6D16C2381467B439944344BEB
:1018100050460093334B0226019300F0DDFEB842A0
:1018200043D9192E38DC6C2249461DA806F02CF944
:101830006C21642302AA5218D35C03AD002B3BD069
:101840002800019A1DAB043904F0E0FC7301280064
:101850009C1B984627F02CFB013402001E2800D95F
:101860001E202B78002B16D0002A14D05A4611685F
:101870004246921B640012180C1952000231521891
:101880000F2102E00234A24205D0013563702170BD
:101890002B78002BF6D101366C239C46504601373D
:1018A000E14400F099FEB842BBD839B0F0BCBB4669
:1018B000B246A946A046F0BD68212800009A1DAB9B
:1018C00004F0A4FCC2E7C0467CAD0220440700003F
:1018D00045070000E09F021042070000F89F021039
:1018E00020A0021018A00210F0B5C6464F4B05000C
:1018F0001C684F4B0F20E118230000B51A780240F6
:101900001A7002338B42F9D123000F201A788243D8
:101910001A7002338B42F9D1464A631CA118202267
:101920001A7002338B42FBD1E27263220F234521EE
:101930006F20E27362741232E274103A23706170A5
:10194000A3702D312371A3712372A3722373A37328
:101950002374A3742375A375E2752376013AA376E5
:101960002B33E1706171E071617260736175627651
:10197000E376002D19D0280027F09AFA01001F28DD
:1019800052D82A78002A10D000280ED0230049000F
:10199000BA330F20591802E002338B4205D00135CB
:1019A0005A7018702A78002AF6D1234A234B94469D
:1019B000E31850210F20224A644402E00233A3427C
:1019C00005D001325970117818700029F6D11D4BDD
:1019D000002798461C4E1D4DFFF772FA0024200088
:1019E00027F0D6FF012120004942FFF721FE200009
:1019F0000121013428F044F8F02CF0D1FEF784FFE7
:101A000002002B6837609A4308D043461B68306059
:101A10002860002BE0D080BCB846F0BD43461B6870
:101A20002860002BD8D0F6E71F21AAE77CAD022062
:101A30004407000045070000440600000E060000B1
:101A400028A00210A82A0220A42A022078AD022091
:101A5000F0B54546DE4657464E46E0B5C94DCA4B41
:101A60002C680F20E11823008BB01A7802401A70FE
:101A700002338B42F9D123000F201A7882431A7067
:101A800002338B42F9D1C14A631CA11820221A707B
:101A900002338B42FBD102AB1900BD4AC1CAC1C19E
:101AA000126826000A602200502019000F27883291
:101AB000A63602E00232964205D001315070087815
:101AC00017700028F6D1A6220621A154583A727048
:101AD00004315A32A15422003B31A8325170AA225B
:101AE0004339A15422005131AA3251701900A94A38
:101AF000270041CA41C112785D370A7022004D3279
:101B0000452019000F26FF32FF3702E00232BA42A9
:101B100005D001315070087816700028F6D11900F0
:101B20009D4AC1CAC1C1128827000A802200A1377C
:101B30008732402019000C26FF32FF3702E00232C4
:101B4000BA4205D001315070087816700028F6D1DD
:101B50001900924A41CA41C1128850200A8091223C
:101B60008F49920067180F261900A21802E002326E
:101B7000BA4205D001315070087816700028F6D1AD
:101B80001900884AC1CAC1C1126840200A609F2258
:101B90008549920067180C261900A21802E002324B
:101BA000BA4205D001315070087816700028F6D17D
:101BB00019007E4AC1CAC1C1126850200A60D521ED
:101BC0007B4A890067180F261900A21802E002322A
:101BD000BA4205D001315070087816700028F6D14D
:101BE0001900744AC1CAC1C1128840200A80E42188
:101BF000714A890067180C261900A21802E0023207
:101C0000BA4205D001315070087816700028F6D11C
:101C100019006A4AC1CAC1C110680F2608609288BB
:101C200053208A806649674A6718A218190002E0A3
:101C30000232BA4205D0013150700878167000287F
:101C4000F6D11900604AC1CAC1C1C1CAC1C1126876
:101C500053200A608C225D49D20067180C261900B7
:101C6000A21802E00232BA4205D001315070087861
:101C700016700028F6D1564A56490292564A6718FD
:101C8000612019000F26A21802E00232BA4205D0E4
:101C900001315070087816700028F6D119004F4AAB
:101CA00041CA41C1128840200A80A0214C4AC90083
:101CB00067180C261900A21802E00232BA4205D0B9
:101CC00001315070087816700028F6D11900454A85
:101CD00041CA41C110880F260880927876208A7008
:101CE0004149424A6718A218190002E0023297429D
:101CF00005D001315070087816700028F6D119000F
:101D00003B4AC1CAC1C141CA41C1C821394AC900FF
:101D10006718682019000C26A21802E002329742C8
:101D200005D001315070087816700028F6D11900DE
:101D3000314AC1CAC1C1128866200A80CF212F4A08
:101D4000C90067180C261900A21802E00232BA4234
:101D500005D001315070087816700028F6D11900AE
:101D6000274AC1CAC1C110680860908888809279EA
:101D70000C208A712349244A8C46A21850216444BD
:101D800047E0C0467CAD0220440700004507000044
:101D900044A0021054A0021060A0021070A0021013
:101DA000560200007CA002109A0200008CA00210D3
:101DB000360300009CA0021076030000ACA00210C5
:101DC0004E0400002C040000C0A002109604000085
:101DD000616E6400BC040000B6040000DCA00210C8
:101DE000EE040000E8A00210BA050000A6050000FD
:101DF000F4A002101A06000008A102105E060000FE
:101E000018A10210BA0600009606000002329442A1
:101E100005D001335170197810700029F6D10123D3
:101E20005B4298469B4B9B469B4B0193FFF748F8C0
:101E3000434606000090013301D04346009300243E
:101E4000200027F0A5FD012120004942FFF7F0FB0B
:101E500020000121013427F013FEF02CF0D1FEF711
:101E600053FD5B460022070001991A600A680300CF
:101E7000974331D1FA22009B0860F31A5200934233
:101E80002EDC1E21300004F03DFA002900D19FE035
:101E90004346013300D198E000239A46FFF710F83B
:101EA00000240600200027F073FD01212000494294
:101EB000FFF7BEFB20000121013427F0E1FDF02CEB
:101EC000F0D1FEF721FD5B465246070001991A60EA
:101ED0000A68030097430AD05946019A0B601360C1
:101EE0000BB0F0BCBB46B246A946A046F0BDFA22F4
:101EF000009B0860F31A52009342F1DC1E2130006F
:101F000004F000FA0029C9D120239846E13C25F0CD
:101F10002BFD43462E683F21F619737004F0F2F949
:101F200022000A40110033781201A3430B432340DF
:101F30001343337025F018FD584B2E68FB18F61824
:101F400043463F21737004F0DDF922000A4011007E
:101F500033781201A3430B432340134302373370FA
:101F60003E2FD4D120239846E123DB000F2499464D
:101F7000023725F0F9FC43462E683F21F6197370AD
:101F800004F0C0F922000A40110033781201A34383
:101F90000B4323401343337025F0E6FC3B002E68CF
:101FA0003A33F61843463F21737004F0ABF9220030
:101FB0000A40110033781201A3430B43234013431B
:101FC0003E3733704F45D4D168E7009B98462DE7E4
:101FD00020230F24994625F0C7FC4B462E683F214D
:101FE000F619737004F08EF922000A40110033785C
:101FF0001201A3430B4323401343337025F0B4FC79
:10200000264B2E68FB18F6184B463F21737004F0E0
:1020100079F922000A40110033781201A3430B43DF
:1020200023401343023733703E2FD4D120239946E7
:10203000E123DB000F249A46023725F095FC4B463E
:102040002E683F21F619737004F05CF922000A40F3
:10205000110033781201A3430B4323401343337021
:1020600025F082FC3B002E683A33F6184B463F21A0
:10207000737004F047F922000A401100337812010E
:10208000A3430B43234013433E3733705745D4D10A
:10209000FEE6C046A82A022078AD0220060700000E
:1020A0000023F0B546464F46D6469846C0B52B4F5E
:1020B0002B4EFEF705FF002485B2200027F068FCB8
:1020C000012120004942FFF7B3FA20000121013429
:1020D00027F0D6FCF02CF0D1FEF716FC43460200A8
:1020E0003B6033689A4306D038603060E0BCBA4643
:1020F000B146A846F0BD30600321280004F02AF95B
:1021000089B20029D5D125F02FFC814625F02CFC81
:10211000050025F029FC1E218246280004F0F2F873
:102120004D016D1A50461F2104F0ECF820230D4C90
:102130006D1824686D00641963703F21484604F0EF
:10214000E1F80F23180008400100227800019A43AB
:102150000A43134003432370ABE7C046A82A02207A
:1021600078AD02207CAD0220F0B5DE464E464546F5
:102170005746E0B50600C9B0CE480C00150005F082
:102180005DFD0AA81FF008FECB4B18600BA8089352
:102190001FF012FE310002000B9B0CA800F008FAA1
:1021A0000CA800F01BFA0CA800F016FA002800D1C9
:1021B000F3E12278002A00D0D8E1C04B1978002939
:1021C00003D01A70002D00D1DCE178220CA92AA8D6
:1021D00005F05AFC00212AA8FFF7CAFA2AA800F045
:1021E000F7F9012300265B42039300230224350004
:1021F00001930493B24B9B46B24B9846B24B9A461E
:10220000B24B0993FEF75CFE019B049E9C468146FF
:1022100066440CA8059600F0DDF90CAB06900700AB
:10222000180000F0D9F90023002803D0BC466C3315
:10223000734363445A4600261360300027F0A8FB1E
:1022400030002100FFF7F4F930000121013627F0BA
:1022500017FCF02EF1D143461B680293FEF754FBA6
:10226000534600221A60434602001B68070006001E
:102270009A4357D1434618605B461E68002E32D001
:102280001E21484604F03EF80F1E2CD1701926F08E
:102290000FFE1C2801D96F1CF61963011D1B3000AD
:1022A0000793033526F004FE1C2800D91C20884B18
:1022B0009D4217DC079A089BA11A864A1B68944620
:1022C0006D0061445B1971180F25301807E08642D4
:1022D00008D001365A701D7002338E4202D0327817
:1022E000002AF4D13D00039A531C00D1B5E04B46BF
:1022F0009B1A9622D200934284DD099805F09EFC39
:10230000FFF7CEFE78220CA92AA805F0BDFB0199A3
:102310002AA8FFF72DFA2AA800F05AF901235B42F8
:1023200003936FE753461860434618605B461D6889
:10233000002D2AD0630107931B1B0333280003934E
:1023400026F0B6FD01001C2800D91C21604B039A21
:102350009A4200DD95E0089B52001B6869189B18A3
:10236000079AA01A5B4A94460F22604428189446A4
:1023700008E08D4209D05A70624601351A70023366
:10238000854202D02A78002AF3D110233B4235D06F
:10239000029A134232D1022C7ADC019D002D79DCA5
:1023A000402333423FD0029A13423CD1019B183B59
:1023B00000D591E001930CA978222AA805F064FBCE
:1023C00001992AA8FFF7D4F92AA800F001F9534689
:1023D00002241E680223334203D0029A134200D122
:1023E00098E00123334203D0029A134200D194E0D3
:1023F0004B460393A31E002504933DE720233B4255
:10240000CED0029A1342CBD1182C2FDC0CA800F0AE
:10241000E3F8059B0138984228D953461E684023AB
:1024200001343342BFD180233342D3D0029A1342C6
:10243000D0D1019B0CA818331C0000F0CDF8A446A5
:1024400023008445804103401C000CA978222AA85F
:10245000019305F019FB2100B3E74B460393D1E646
:1024600020233B429CD0029A134299D10CA800F041
:10247000B3F8059B0138984200D974E053461E68B2
:102480008EE710233B42EBD0029A134200D07CE04F
:10249000013C85E7013D78220CA92AA8019505F0A9
:1024A000F3FA2AA82900FFF763F92AA800F090F8A8
:1024B000E4E7C0462CA102107CAD022070AF0020E2
:1024C0008CAD022078AD0220A82A02203CA1021087
:1024D000A10300009F0300000CA800F07DF8040099
:1024E0000CA800F079F80500200004F0D4FF2C4976
:1024F00004F07BFF04F0F6FF44002418E4002B1BDB
:102500000CA8002B39DD00F067F8641B013C231890
:10251000019350E701235B420593FEF7D1FC0024B1
:10252000200027F035FA012120004942FFF780F80A
:1025300020000121013427F0A3FAF02CF0D1059AF4
:10254000531C2AD06C235343069A944663449C6ED2
:102550000CA800F03DF8200049B0F0BCBB46B246E4
:10256000A946A046F0BD019D013594E72000FFF784
:10257000BBF900220B4B1A7027E600F02DF8183833
:10258000019018E7FFF764FA1FE620233B4200D1D1
:1025900006E7134200D003E768E701246442D7E767
:1025A0000000C04170AF002010B526F0B5FA10BD94
:1025B00070B50400180000230D0063666C212367CA
:1025C000E26603F0C7FE6567A066200070BDC046E6
:1025D0007047C046C06E7047006F7047F0B5464602
:1025E000D6464F46C0B5184B06001900406F84B060
:1025F0009846FEF753FE011E30671AD064239A46B0
:10260000002300270025994653464A46F46E2900C8
:10261000E419A5666846E2544346726FFEF712FF5E
:102620000199200026F002FC316F01356C37A94278
:10263000EAD86C22054BF06E25F012FC04B0E0BC29
:10264000BA46B146A846F0BD61050010A9250010A4
:10265000074B10B51C680123A021A340054AC905FA
:102660008858034203D08B500022034B1A7010BDD0
:1026700098AD02200C04000088420320012383400F
:10268000034A1068184043425841C0B27047C046E0
:102690009CAD022010B501F0BBFB10BDE0211D4A2E
:1026A000C901136810B50B401B490B6004211B4B7B
:1026B0001960FC3113680B42FCD0506880B204F002
:1026C000EAFEE621890504F0A4FE154904F0A1FE06
:1026D000144904F09EFE144904F081FE134904F0ED
:1026E00084FEFE218905041C04F0CAFE002801D1E5
:1026F000642010BD0021201C04F0C8FE002801D178
:102700000020F6E70A49201C04F083FE04F01CFFB9
:10271000EFE7C04600C0044000D0044000E00440A1
:102720003333534000004040333333406666A63FA6
:102730000000C842D021012209064B681B0A1A4238
:10274000FBD1D021012209064B681B0A1A42FBD09B
:102750007047C046014B18787047C0468842032036
:102760000122064B1A70A022D2059446044B1B6826
:102770009B0163441860D9617047C04688420320BA
:1027800098AD0220F0B5CE46474680B5334B87B0B2
:1027900004000D0018683249984605F0EDFB8023CF
:1027A0005B020293C0231B030493030080270833BA
:1027B000C2011B0313432B4AFF0513403B43039302
:1027C00001230600994629002000009307220133C7
:1027D000059705F0F1FC244B244A0293049B290041
:1027E00013400493059A224B20001A40214B1343B7
:1027F00005930022C02305F037FCC02229002000E9
:10280000C02305F085FC049B07209B009B081F4309
:1028100043461968184B04979C4661444B1E9941E6
:10282000063100F099FC43461968134B06209C467C
:1028300061444B1E9941063100F08EFC320002AB20
:102840002900200005F00CFD4B46AB4022681343E5
:10285000236007B0C0BCB946B046F0BD6CB20020E2
:1028600038A30810FFFFFF9F00010200FFFFF5C122
:10287000E0830FFC071810000000E0AF10B504F073
:102880000AFE0B4904F0B1FD0A4904F09BFF0A4B14
:102890000A491C6804F0BDFDFC21890504F0A2FD75
:1028A00004F052FE6040064B0004000C186010BD9E
:1028B0000000C842333333408400054000FF7F47A7
:1028C00084100540D0231B065A68014B1A607047DC
:1028D0009CAD0220F0B5DE4657464E4645460022E6
:1028E00088218024E0B51A4B1A4887B058509A675F
:1028F0001A5104341A5110325850DA670F3A843999
:102900009A670C2000F028FC134B144A1B680D201A
:102910001B041B0C136001F0A7FF0A2001F0C2F991
:102920000F4805AB04AA03A900F002FB002803D15D
:102930000C480B4902F0ACF8059A0499039800F092
:10294000BBFAD0231B0600240126172798460EE069
:1029500000000540FFFF0000840005408410054092
:1029600090D0030054A102100134202C13D0350064
:10297000A5402F42F8D00521280000F0EDFB3300E0
:102980004246AB400121936228000022013400F04E
:10299000FBFB202CEBD1D026002404253606012C8D
:1029A00006D10521022000F0D7FB01347562B56124
:1029B0000134E4B2202CF2D105F014FD1F211A20BD
:1029C00000F0CAFB002200211A2000F0DDFB0021EC
:1029D0001A2000F0EBFB9C23FD4FFE4D9A46FD5064
:1029E000002398468C2642464146BB519433FA5008
:1029F0009832B95051467D508C39894648468031CD
:102A000078500F388346B8518C390D3000F0A4FB54
:102A1000404688238022FD50B867B8500432B85031
:102A20004846FD50F86758460421B8670C3000F05E
:102A300093FB504694233D5040469822B851F8509D
:102A40005346B8509021FD504B467B505B468C3925
:102A5000BB510F3000F080FBDF49E04805F04CFC33
:102A6000D0250521042000F077FB4B462D066B6234
:102A70006420AB6101F016F94B467536FF366B6189
:102A80000521092000F068FB6E620521052000F099
:102A900063FB6C620121062000F05EFB0121072030
:102AA00000F05AFB5A4602AB6C6105A91A73CB4879
:102AB000AC61AE6126F0D4FF6C61052001F0F2F844
:102AC000362302AA137305A9AC610122AE61C34883
:102AD00026F0C6FF6E610122C149C04826F0C0FF42
:102AE000352302AA6C6105A91373BC48AC610122AD
:102AF000AE6126F0B5FFBB4B6E6119000122B748ED
:102B00009A4626F0ADFFB22302AA6C6105A91373A1
:102B1000B248AC610122AE6126F0A2FF53466E615D
:102B2000191D0522AD4826F09BFF3A2302AA6C61CD
:102B300005A91373A948AC610122AE6126F090FF8C
:102B40006E610122A849A54826F08AFF262302AA21
:102B50006C6105A91373A148AC610122AE6126F036
:102B60007FFFA24B6E61190001229C48019326F061
:102B700077FFB72302AA6C61137305AB1900AC6130
:102B80000122AE61954826F06BFF6E6101229849E3
:102B9000924826F065FFBB2302AA6C61137305AB54
:102BA0001900AC610122AE618C4826F059FF6E61BC
:102BB00001229049894826F053FFC02302AA6C6184
:102BC000137305AB1900AC610122AE61834826F096
:102BD00047FF6E6101228849804826F041FFC223E9
:102BE00002AA6C61137305AB1900AC610122AE61DE
:102BF0007A4826F035FF01996E610122774826F068
:102C00002FFFC32302AA6C6105A913737348AC613B
:102C10000122AE6126F024FF6E61012277496F48E0
:102C200026F01EFFC42302AA6C6105A913736B482A
:102C3000AC610122AE6126F013FF6E610122704982
:102C4000664826F00DFFD02302AA6C6105A9137314
:102C50006248AC610122AE6126F002FF6E61022281
:102C600068495E4826F0FCFEC62302AA6C6105A9ED
:102C700013735A48AC610122AE6126F0F1FE6E6119
:102C800001226149554826F0EBFEE02302AA6C615F
:102C900005A913735148AC610122AE6126F0E0FE34
:102CA0006E610E2259494D4826F0DAFEE12302AA50
:102CB0006C6105A913734948AC610122AE6126F02D
:102CC000CFFE6E610E225249444826F0C9FE2123F0
:102CD00002AA6C6105A913734048AC610122AE6180
:102CE00026F0BEFE6C61732000F0DCFF112302AA07
:102CF000137305A9AC610122AE61384826F0B0FE1D
:102D0000292302AA6C6105A913733448AC6101221E
:102D1000AE6126F0A5FE2A2302AA6C6105A91373F1
:102D20002E48AC610122AE6126F09AFE0C239C462F
:102D3000E24451466E610422284826F091FE2B237E
:102D400002AA6C6105A913732448AC610122AE612B
:102D500026F086FE51466E610422204826F080FE51
:102D60002C2302AA6C6105A913731C480122AC61D3
:102D7000AE6126F075FE6C610820AC616E6100F0FA
:102D800029FA80235B00234CAB62234D216828681D
:102D9000FFF7F8FC4246214B29681A60204A236855
:102DA0008818421E9041C000C0181E4CC203144334
:102DB000A022454604339B00D205C9181560516016
:102DC000956014615A46184B01211A602EE0C046E6
:102DD00000000540FFFF000000127A0000C0034021
:102DE00088A1021054A308108CA1021090A1021017
:102DF00094A1021098A102109CA10210A0A102109F
:102E0000A4A10210A8A10210ACA10210B0A102104E
:102E1000C0A10210A0AD02206CB2002098AD02202B
:102E20000000E0AF190040000424005000F04AFA0E
:102E30000B201A4900F06CFA01210B2000F042FA35
:102E400004210B2000F088F9154B164A1B68042159
:102E50001B0C1B041360012000F07EF9124B134A77
:102E60001B681B0C1B041360114B3D60BD60FD60B3
:102E70003B614B467B605B463B600E4B7D66FD666F
:102E80003D677B674B46BB665B467B6607B0F0BC25
:102E9000BB46B246A946A046F0BDC046512600102A
:102EA00070000540701005400C0005400C100540F6
:102EB000FF040000FF310000F0B583B005000E00F4
:102EC000140000F0A5F9002801D003B0F0BD154FA3
:102ED00001223B0001210097053001F087FA330001
:102EE0002A0000940121104801F068FC210028000C
:102EF000714303F02FFA04000C4B002200930221CF
:102F0000042001F073FA230000220121009405201F
:102F100001F06CFA3B00022200210097062001F02C
:102F200065FAD2E7006CDC0200800240001BB700AB
:102F3000F0B5DE464E4645465746E0B5060085B03C
:102F400004209A468B46019201F032FCFA21890056
:102F500003F000FA3223FF3398467D4B85009946F3
:102F60005B460293534682462D18AD010393794B7D
:102F7000EB184B450AD901235B429C465346E0447B
:102F8000ED1A4346002BF2D100208BE031212800BE
:102F900003F0E0F907243127864263D0671EA34679
:102FA00034003E005F4677432800390003F0D2F931
:102FB00084424CD0731E0093012E00D1B1E05B46D9
:102FC000FF1A3900280003F0C5F9844256D0B31E19
:102FD0000093022E00D1AFE05B46FF1A39002800B3
:102FE00003F0B8F9844264D0F31E0093032E66D038
:102FF0005B46FF1A3900280003F0ACF9844269D01F
:10300000331F0093042E6BD05B46FF1A3900280053
:1030100003F0A0F984426BD0052E6DD02800F91F73
:1030200003F098F9844200D171E00623242128009E
:103030009B46242703F08EF9844211D005265F4673
:1030400077432800390003F085F98442B2D1002982
:10305000B0D1029B5F469B46039B34009A4615E025
:1030600026005C463900280003F074F9002995D148
:10307000029B27009B46039B9A4607E00029A6D1A6
:10308000029B5F469B46039B009C9A465B466A01F7
:10309000521B92005219D2001A60019B01201F603E
:1030A00053461C6005B0F0BCBB46B246A946A046DC
:1030B000F0BD0029E4D0F31E0093032E98D1032322
:1030C000092128009B46092703F044F98442C7D010
:1030D000022667E70029D3D0331F0093042E93D133
:1030E000042310279B462B099C42B9D0032659E79D
:1030F0000029C5D0052E91D119212800192703F0E8
:1031000029F9A04221D0052304269B464AE700293D
:1031100000D08AE7029B5F469B46039B01249A46A8
:10312000B4E72600AC4200D025E7029B01279B466E
:10313000039B01249A46A9E7022304279B46AB0878
:103140009C4200D18CE701262CE72600052489E764
:1031500050F80C00508EF4FF094A10B594464024F4
:10316000830063441A68C0006240803414408022A7
:10317000520113431C60034B9C466044416010BDE8
:1031800004C0014000400140074B80009C46604461
:103190000368C90092000A435A400C231A40802356
:1031A0005B0103431A60704704C00140084B800074
:1031B0009C466044002905D0802340229B010343A4
:1031C0001A607047C02340229B0103431A60F8E74E
:1031D00004C001400123D022834012069362936110
:1031E000094A40219446830063441A68C0004A405B
:1031F000803111408022520113431960034B9C46D9
:10320000052360444360704704C001400040014012
:10321000024B18688007C00F7047C04600C00640C8
:10322000EFF3108072B6034A1368002BFCD0BFF393
:103230005F8F70472C0100D0BFF35F8F0022024BDD
:103240001A6080F3108870472C0100D070B5EFF33E
:10325000108C72B60D4D2B68002BFCD0BFF35F8F26
:103260000724CB08C618C05C01230C40A3401C00F7
:103270000440034207D118433070BFF35F8F2C60C6
:103280008CF3108870BD100001F002FC2C0100D0FE
:103290000021044B044ABFF35F8F02C39342FAD16B
:1032A0007047C046000100D0800100D0044A107869
:1032B000431CDBB2172B00D9102313707047C04694
:1032C00070B2002001238340002904D0034A136018
:1032D000034A13607047034A1360FBE780E200E093
:1032E00000E100E080E100E001228240034B1B6826
:1032F00013405A1E9341D8B27047C04600E100E027
:10330000024B10309B688000C058704700ED00E011
:1033100070B50D00EFF3108672B60F4A1368002BDC
:10332000FCD0BFF35F8F0D4B10309B6884001B599E
:103330000B4A934203D09D4201D001F0C1FB074BE1
:103340009B681D51BFF35F8FBFF35F8F0022024B5D
:103350001A6086F3108870BD240100D000ED00E0F3
:10336000CD010010F0B5DE4657464E464546E0B565
:103370000C0083B0EFF3108872B65D4A1368002B1F
:10338000FCD0BFF35F8F5B4B5B499A68030010333F
:103390009F00D5598D4239D0A5424AD0574EAA1B1D
:1033A0002F2A33D801229246824091464846544AF9
:1033B0001268104001904846524A1060BFF35F8F78
:1033C000EFF305829346002A35D0934201D001F0F5
:1033D00077FB2A0053469A439068844208D175E0EF
:1033E0004B005B189B00F3189868A04234D01A0079
:1033F000062151560029F3DA844253D0019B002B59
:1034000026D04A46404B1A603D4B1A60394B9B68A8
:10341000DD51BFF35F8FBFF35F8F0022344B1A6023
:1034200088F3108803B0F0BCBB46B246A946A0465C
:10343000F0BD0D00EAE72A0053469A4390688442A3
:10344000D6D1062010561300002809DA0D0031E00D
:103450004A462C4B1A60D9E706201856002822DB72
:1034600042001118890074188A46A1689960E179B0
:10347000D971062161569971002925DBA488F11ABA
:103480006405241554440919E0240905490D240252
:103490002143998013181D4A9B001178F3189971E4
:1034A0001070ABE713005946002914D1FF31917118
:1034B0001749918015490A789A71164A9B1B5B41FE
:1034C0005A43120D0A7099E71349E2E70620105695
:1034D00013000028C4DA114A1149D21A083A5002DE
:1034E000400D014399800F4952080A43DA8085E76D
:1034F000240100D000ED00E0CD01001074B20020E6
:1035000000E100E080E100E080E200E08F42032083
:1035100001BDFFFFAAAA000001BD0000AEB200205D
:1035200000F0FFFF00F8FFFF70B5EFF30581012405
:103530000443EFF3108C72B6214A1368002BFCD0C1
:10354000BFF35F8F1F4B05001F4AED1A6D416A43A1
:10355000120D1E4D8900AE6852B27658A6421CD09C
:103560000621595691421CD012215956914222D01F
:103570001E215956914220D02A21595603249142A6
:1035800010D0134B19781A708171BFF35F8F00222E
:103590000B4B1A608CF3108870BDAB680D4C5C50FF
:1035A000EFE700246100091989005B18FF21997178
:1035B00009499980E5E70124F4E70224F2E7C046CF
:1035C000240100D074B20020AAAA000000ED00E09F
:1035D0008F420320CD01001001BDFFFF054B064ABD
:1035E0001360064A136053609360D36013615361A4
:1035F000936170478080808000E400E004E400E094
:10360000024B9C46614489000160704740000034D1
:1036100010B50400FFF74AFE01002000FFF7F0FF9D
:10362000FF232371BFF35F8F10BDC04610B50400A8
:10363000FFF73CFE01002000FFF7E2FFFF23A3801D
:10364000BFF35F8F10BDC04683680B4810B584463A
:10365000614462441201090159189B185C684A6868
:103660000120944201D802D00020C0B210BD1A68D7
:103670000B689A42F9D8F7E7FFFFFF0F0A4B19686A
:10368000EFF3108072B60A68002AFCD0BFF35F8F98
:103690001B68BFF35F8F00221A6080F3108840BF61
:1036A000002000217047C046D8320320F8B55746A5
:1036B00045464E46DE46E0B598460CAB1C780DAB51
:1036C0001B78070091469A460568002C59D1AC7BBF
:1036D000002C3BD0660029683619033E89194B78C7
:1036E000AB73002B00D1EB7300238B704B700B700E
:1036F0002D4BE218BB6812019B184A461A604246DD
:103700005A600A9A9A600B9ADA6000238B704B70A9
:103710000B706B7B9B46002B26D022006B685946B2
:10372000A86898475B465B005B442A68033B002817
:1037300012D058469619B070D118D35C002B00D027
:1037400073705B460C706B735C450ED0F0BCBB466F
:10375000B246A946A046F8BDD3189C709119925D57
:10376000002A1CD15B460B706C734A464346387D79
:1037700000F0E2FB051E0AD10E9B002BE6D01D7067
:10378000E4E7660029683619033E8919B0E7534615
:10379000002BF1D12100386800F0ECFDECE75A7005
:1037A0005B460B706C73E0E7FFFFFF0FF0B5DE4682
:1037B00057464E4645460023E0B58BB00893674B0D
:1037C0008200D45800239B46099000F021FB0200A0
:1037D0000B006068EFF3108A72B656460168002944
:1037E000FCD0B246BFF35F8F21684F7B8C46002F21
:1037F0002ED0A5685A49A946791809018944494635
:103800000868496805000E00AD1A9E41002E5FDD74
:1038100002000B00099800F08FFB0023002299465C
:10382000002306920793002398466368BFF35F8FD7
:103830005A461A608AF310884346002B12D100289A
:10384000C3D10BB0F0BCBB46B246A946A046F0BD02
:1038500000230022994600230692079300230020AC
:103860009846E2E7089B494618023843C047626819
:1038700005000E00EFF3108A72B61368002BFCD01F
:10388000BFF35F8F002E40DB2B00334302D0236950
:10389000002B55D12368D97B002905D01A68480030
:1038A00041185218033A57709A7B002A00D19F732F
:1038B000DF73E268013FD35D0133D3555B4623617B
:1038C0006368BFF35F8F5A461A608AF310887CE7FB
:1038D000002E01D1002D9BD10021604600F0C8FCD4
:1038E0004B461A685B68069207934B469B6898465E
:1038F0004B46DB689946E368DB19013B1B7808936C
:103900001B020343236100208FE72369002BC1D0F2
:10391000069A079B8021521BB34109068B4202D3B2
:103920000122104B5242002104910131039149467A
:1039300001914146200002970091FFF7B7FEBDE7D5
:1039400000F066FA2A00330012184B418021090664
:103950008B42E8D30122034B5242E4E7BCD8022059
:10396000FFFFFF0FFFFFFF7F10B5144C6368002BB4
:1039700004D00A211248FFF743FE10BD2300114A6C
:103980001021206800F090FB032000F035FA03209E
:1039900000F040FB03200C4900F088FAFFF786FC9A
:1039A0000A4B9C4603232375D0231B061B686044E7
:1039B0006375074B80006060DC60DAE7BCB2002012
:1039C000D832032049360010AD37001040000034D3
:1039D000BCD80220F0B557464E464546DE46E0B517
:1039E00085B0019310AB1B780600039300239A4621
:1039F000984600927268EFF3108B72B61368002B32
:103A0000FCD0BFF35F8F3568AC7B002C00D16DE03C
:103A100067002B683F19033FDB195A78AA73002A05
:103A200000D1EA73484AA118B268090152180098F7
:103A30000199106051600E9991600F99D1604246D2
:103A40009A705A701A706B7B9946002B6BD02200CB
:103A50006B684946A86898474B465B004B442A6808
:103A6000033B002856D04846D719B870D118D35C0C
:103A7000002B00D07B704B460C706B734C4553D0C1
:103A8000F3681B19013B18787368BFF35F8F4246D8
:103A90001A608BF310885346002B08D10002204394
:103AA00005B0F0BCBB46B246A946A046F0BD039B9C
:103AB000002B46D00E9B00200F99984703000B4324
:103AC0003FD004000D1E1ADA009A019B121BAB4175
:103AD0000092019380221206934204D301231B4CCF
:103AE0005B4200930194039B9A4683E77368BFF39C
:103AF0005F8F1C608BF3108801204042D0E700F0FC
:103B000087F98022001969411206009001919142C3
:103B1000E9D3E3E7D3189C70D119D25D002A00D015
:103B20005A704B460B706C73307D009A019B00F00D
:103B300003FA82460028A3D02100306800F01AFC66
:103B40009EE70020ACE7C046FFFFFF0FFFFFFF7FAF
:103B5000F8B50B0004004168EFF3108572B60A68EF
:103B6000002AFCD0BFF35F8FFF222068D9B2467BCA
:103B70001A408E4207D006685700BF18F619033E58
:103B8000B678002E10D0E6681B0AB218013A1278F7
:103B9000DBB29A420DD000206368BFF35F8F002232
:103BA0001A6085F31088F8BD22699A42F3D1266124
:103BB000F1E700F0DFFBEFE7F0B504000D000626AB
:103BC0007642F717C64636196F4100B584B08F426A
:103BD00014D811D000F01CF932003B00121A8B41AE
:103BE000002B15DC002B3ED02000290000F04EF900
:103BF00004B080BCB846F0BD8642EBD90026002751
:103C000000F006F932003B00121A8B41002BE9DD6F
:103C1000002302930193154B3200009314483B009C
:103C2000FFF7D8FE0028DFDB00239846BC46114A88
:103C3000114F7B6A9C4504D8B96A8E42D4D99C4501
:103C4000D2D11168EFF3108072B60B68002BFCD054
:103C5000BFF35F8F1368BFF35F8F4146196080F336
:103C6000108820BFE5E7002ABED0D1E77D360010DE
:103C7000BCB20020D83203200040054070B50400DB
:103C80000D0000F0C5F88023001969411B06994218
:103C900002D3012002494042FFF78EFF70BDC046AB
:103CA000FFFFFF7F70B5060000F0B2F8FA220400B3
:103CB0000D00002330000021920003F073FB8023ED
:103CC000001969411B06994202D301200249404272
:103CD000FFF772FF70BDC046FFFFFF7F70B5EFF3C7
:103CE000058305000C0084B0002B0FD0104A002083
:103CF000536AA34203D3926A0130AA4201D304B0AB
:103D000070BD1B1B5A1E9341D8B2F8E7094E0293AF
:103D10000193094B0200009330000B00FFF75AFE9D
:103D2000011EE3DD20BF3000FFF712FFDEE7C046D3
:103D300000400540BCB200207D360010F0B5EFF326
:103D40000582D6464F4646461000C0B51038EFF300
:103D5000108872B6214C2368002BFCD0BFF35F8F14
:103D60000123190081401E4D1F006963AA461D4DA5
:103D700029601D4D2E78AC463500C5402F402B42A2
:103D800015D053465F6A194B8500EB589F4218D3F4
:103D90006246174B8E43EB581670BFF35F8F0022BD
:103DA000226088F31088002B06D0984704E0BFF308
:103DB0005F8F276088F31088E0BCBA46B146A846FA
:103DC000F0BD0C4B92009C46624413681360BFF335
:103DD0005F8F0023236088F31088EDE7280100D06F
:103DE000004005403C70054093420320DC32032034
:103DF00008B30220D03F054010B5034B0100180066
:103E0000024AFFF723FA10BD8C420320D0A1021012
:103E1000034B596A0A00986A596A8A42FAD1704774
:103E20000040054070B504000D00174A536A1900A0
:103E3000966A536A8B42FAD13000190024184D411A
:103E4000AB4216D813D0104B2A005B6A9D4203D9AF
:103E50000D494B6A9342FCD3934207D10A4A02E0D0
:103E6000516A994202D1916AA142F9D370BDA6422A
:103E7000E9D9054B5B6A1C005A1CEFD001220124D2
:103E80006442E5175242E3E700400540064A536AA0
:103E90009942FCD807D1044B02E05A6A914202D100
:103EA0009A6A8242F9D370470040054070B5040019
:103EB0000D00EFF3108672B61A4A1368002BFCD07F
:103EC000BFF35F8F002D1BD02000FFF719FA1649B2
:103ED00081420AD02000FFF71BFA01212000FFF7E2
:103EE000F1F90123A340114A1360114BA400E550DE
:103EF000BFF35F8F00220B4B1A6086F3108870BDF2
:103F00000121A1400A4BA200D5500A4B20001A788B
:103F10008A4305491A70FFF725FA00212000FFF7B0
:103F2000D1F9E5E7280100D03D3D0010386005409B
:103F300008B3022093420320F0B54F46D6464646CA
:103F4000C0B507002E4C616A0D00A66A616AA942DD
:103F5000FAD18B4208D805D00120E0BCBA46B14660
:103F6000A846F0BDB242F7D9EFF3108A72B62548E1
:103F700001680029FCD0BFF35F8F0125BD402249B5
:103F80001F4C8846097889462943C9B28C46414668
:103F900060460870391D890065630A511B49B800E5
:103FA0004350216A0020294219D0616A0800A66A9C
:103FB000616A8142FAD18B4219D801D1B24216D836
:103FC000CC450BD00E4B1F221D625D6301233A408E
:103FD00093400F4A136043464A461A700120BFF3CC
:103FE0005F8F0022074B1A608AF31088B5E7002024
:103FF000BFF35F8F0022034B1A608AF31088ACE78F
:1040000000400540280100D093420320DC32032009
:1040100080E200E0EFF3108C72B60A490B68002BC7
:10402000FCD0BFF35F8F01238340074A0748136228
:1040300002789A430270BFF35F8F00230B608CF30A
:1040400010887047280100D00040054093420320AB
:1040500070B506000D00140000291DD0002A12D0F2
:1040600073688068984762006B0012195B193168A9
:10407000033A033B002808D08A189570C818CB5C17
:10408000002B0BD10470280070BDCB189C708818D1
:104090008A5C002A05D105702000F5E75370047092
:1040A000F1E75A700570F7E710B583600023CCB2D2
:1040B00043730133426004738373C4730068421C0A
:1040C000012C05D90133DBB2137003329C42F9D1C4
:1040D000FF230B405A00D318C01800230338437045
:1040E00010BDC04670B505000C1E07D06300016806
:1040F0001B19033BCB185A78002A01D1200070BD50
:10410000500080180338091800204E7848702100AC
:1041100058702800FFF79CFF310004002800FFF7CB
:10412000E1FF0600002C20D00028E7D0320021005B
:104130006B68A86898477200630092191B19296878
:10414000033A033B002808D08A189470C818CB5C47
:10415000002B00D053700670D0E7CB189E708818E3
:104160008A5C002A00D05A7004703400C6E7C0464A
:10417000F0B557464546DE464E46E0B50D006F00A9
:1041800001687F19033F0400C85D83B00192CA191A
:10419000002850D043001B18033BCB185E78B44670
:1041A000002E1AD1019E002E42D0E67B002E04D0B4
:1041B00073009B19CB18033B5D70A37B002B00D1D0
:1041C000A573E57300282FD10023537003B0F0BC12
:1041D000BB46B246A946A046F0BD72006244033A0F
:1041E0008A185178884600215170894659703200EA
:1041F00001002000FFF72CFF43468246002B07D02A
:104200005B0021684344033BCB185A78002A16D13F
:10421000424651462000FFF71BFF2168019BCA1947
:10422000002BC2D10028CFD043001B18033BCB1872
:1042300000219970C8E7019B002BB6D1C4E750005C
:1042400080180338091848788346484648705870E3
:1042500041462000FFF7FCFE594680462000FFF74C
:1042600041FF414602002000FFF7F2FE8046CFE703
:10427000F0B557464546DE464E46E0B583B001915F
:10428000457B04006F0000687F19033FC15DC219C0
:10429000002952D04B005B18033BC3185E78B4462C
:1042A000002E1CD1019E002E44D0E67B002E04D0AF
:1042B00073009B19C318033B5D70A37B002B00D1D7
:1042C000A573E573002931D1002328005370617371
:1042D00003B0F0BCBB46B246A946A046F0BD720092
:1042E0006244033A8218507880460020507081461C
:1042F000587032002000FFF7ABFE43468246002B89
:1043000007D05B0021684344033BCB185A78002A4E
:1043100017D1424651462000FFF79AFE019B01004B
:104320002068C219002BC0D10029CDD04B005B18EA
:10433000033BC31800209870C6E7019B002BB4D143
:10434000C2E7500080180338091848788346484669
:104350004870587041462000FFF77AFE5946804663
:104360002000FFF7BFFE414602002000FFF770FE6D
:104370008046CEE770B5050000292CD0437B8B42E8
:104380002ED04C0000686418033C0419A278002A5F
:1043900021D053009B18033BC25CC6188A4202D14D
:1043A0001BE0002A08D053009B18033BC3185A781F
:1043B0008A42F6D162785A70002301222800A37045
:1043C0006370FFF7D5FE697B02002800FFF740FE0F
:1043D0006873012000E0002070BD63783370EBE764
:1043E00001221900FFF7C4FEF2E7C046F0B54546CA
:1043F0004E46DE465746E0B583B016000C9A0500DF
:1044000088469A4200D973E01A0E93461B021800A0
:104410000193594600230C9A01F0DAFF354B6C00EA
:104420009C466419A400644463680700834200D278
:1044300060602B1FDBB29946012B34D9C023802248
:104440009B01234312011A602B4BAD0059599A4628
:10445000002905D0586901F07DFF01300138FDD1F8
:10446000226873015340E0221A4080235B012343FA
:104470001A604A46012A2ED9802380229B012343B9
:1044800012011A60594600233A000198676001F052
:104490009FFF53465851012003B0F0BCBB46B246C3
:1044A000A946A046F0BD4346012BC7D1C023032235
:1044B0009B0123431A60023AA3681A42FCD0226887
:1044C00073015340E0221A4080235B0123431A60AA
:1044D000094AAD00924642462168514003220A40F3
:1044E0001A60012243469A40A3681A42FCD0C3E7EF
:1044F0000020D1E700800040A8BD002010B50C20AE
:1045000082B000F0BFF9FEF783FE002810D0864B82
:1045100086488649864A186059609860D960186153
:1045200059619861D961186259625A6202B010BD2E
:10453000804CA06700F0FAF901227F4B1A60636C8F
:10454000012BFCD103227D4B1A607A4A936B012B1D
:10455000FCD1013301217A4A7A480093043300F0F8
:104560002DF90523784A00930121784800F026F9B7
:10457000774B5A68FF2A02D8802252005A60802264
:104580006E4B694C12011A602169002905D06069DF
:1045900001F0E0FE01300138FDD1E0226C4B6D48A6
:1045A00019680A40026002221968514001320A402B
:1045B000042102609A681142FCD08021664A0901F8
:1045C0001160802252005A60644B2361644B596829
:1045D000FF2900D85A6003220121574B1A60604A14
:1045E00093681942FCD0E023106803405D480360E3
:1045F000126803234A4002211340594A036093681A
:104600001942FCD08021584B090119608021574B79
:10461000490051606361564B5A68FF2A00D85960BF
:104620008022544B12011A60E169002905D06069AB
:1046300001F090FE01300138FDD1E0234C4A1168B1
:104640000B404D490B6080214C4B090119608021C2
:10465000364B49005160E361494B5A68FF2A00D844
:1046600059608022474B12011A60216A002905D047
:10467000606901F06FFE01300138FDD1E023404A4E
:1046800011680B4040490B608021404B09011960C3
:1046900080235B0053608022244BD20223623C4B78
:1046A0005968914200D25A6080223A4B12011A6036
:1046B000616A002905D0606901F04CFE01300138C3
:1046C000FDD1E023324A11680B4033490B60802151
:1046D000324B090119608023DB025360144B636283
:1046E0002F4B5A68FF2A02D8802252005A6080223B
:1046F0002C4B12011A60A169002905D0606901F0F4
:1047000029FE01300138FDD1E023254A11680B4014
:1047100025490B608021254B0901196080235B002E
:104720005360124BA36101E7A8BD0020006CDC02BE
:104730001BB70000008000403CB0004030B000409B
:10474000002F685900800240008C864700C002405C
:10475000308000403090004030A00040001BB70087
:104760003C8000403C9000403CA000404059730712
:104770005480004054B000405490004054A0004089
:104780006080004060B000406090004060A0004049
:104790006C8000406CB000406C9000406CA0004009
:1047A0004880004048B000404890004048A0004089
:1047B000014B8000C0587047A8BD0020F8B5040028
:1047C0000C2017001E000D0001F0C4FD43011B1A50
:1047D0009901C91AC90009188901380001F0BAFD08
:1047E000069B37041B031F432368002B22DB1A4B55
:1047F0001A4EE218531E9A4180239B019C46524256
:10480000120B174B120362441A60164B1A60130006
:10481000B1688B43FBD1C023221D9B01134321228E
:104820002560A0601A602268002AFCDA0822E7608E
:104830001A60F8BD3F2322681340AB42D7D1A3686A
:104840001B051B0D8342D2D1EE22E368D202134036
:10485000BB42CCD1EDE7C0460040FDBF00C00040E8
:1048600000E0004000F00040044B00011B68044AD7
:104870005840F023034013607047C0460040064094
:10488000005006408023024A9B000343D3627047D6
:1048900000800540194B1A4A10B5DA618022194B85
:1048A000D2051A60184C194A146000290AD0E02277
:1048B000174BD2041A60002809D18022144B12062B
:1048C0001A6010BDE022D2041A600028F5D043011E
:1048D0001B1A9B001818802300015B04984209D220
:1048E00003000C4A13608022044BD2055860084B29
:1048F0001A60E6E7084B1800F3E7C0460080054061
:104900002131B76A00B00540FCFF010008200140DA
:1049100000A0054098D80220FFFFFF00024B9868D6
:10492000431E9841C0B2704700800540AA23064A42
:104930001B0113602F230549D360054B1960536891
:10494000002BFCDA7047C0460040024000B0FA007D
:10495000006002402C4B2D4A70B51A602C4A2D4B3A
:104960002D491A6014008B689C43FBD12B4D2C4EB3
:10497000B54208D2013E761BB60808CD9847230001
:104980000134B342F9D1FFF7B9FD264A214B1A6031
:10499000214A9368DB43DB01DD09002BF9D140227A
:1049A000214B224C224E9A675A671A67DA66B44244
:1049B00008D223682000002B20D00834FEF736FEF2
:1049C000B442F6D31B4C1C4EC022B168200003F049
:1049D0005BF8B460FEF75CFCFEF700FEFEF7C4FF78
:1049E000164C174EB44208D2013E361BB60808CC0E
:1049F00098472B0001359E42F9D170BD0834FEF76F
:104A000007FEB442D5D3DDE700E00040BFCDFBFE9A
:104A1000FE7F3C0000F0004000C000406CBD002064
:104A20007CBD0020FFFFFF0100F001405CBD0020C5
:104A30006CBD00200000002000ED00E07CBD0020E7
:104A400088BD002000BEFDE7094A03001068002869
:104A500005D00849C3188B4207D813607047064831
:104A60000449C31810608B42F7D901204042F5E792
:104A700078D80220000004209442032000207047D0
:104A8000012040427047C04610B5FFF7DBFFC0462B
:104A90000FB400B5084883B003F0D0F8049B002B96
:104AA00007D005A91800019101F0D4FB034803F0D9
:104AB000C5F80120FFF7C6FFF4A1021004A20210FE
:104AC00010B50148FFF7E4FF08A202109A4200D295
:104AD000885470477047C046F8B55746DE464E4684
:104AE0004546E0B599460A9B07009A460D9B8846C5
:104AF00093460B9C9B073BD10C9B9C423DD21E1BBB
:104B00000B9415000C005E442A004B460135210031
:104B10002020B847B542F7D1A0460B9C002C20D0EE
:104B2000454636195346321B013C185D29004B4659
:104B3000B847002CF6D12B00350098460D9B9B07FB
:104B40000FD55B46EC1A0C9BA3420AD94646984601
:104B50002A004B46310020200134B8470135444536
:104B6000F6D32800F0BCBB46B246A946A046F8BD25
:104B700016001500002CD3D1E0E71600002CCFD191
:104B80001500EEE7F0B54F464646D646C0B584B0B0
:104B900098460EAB1B7894469946129B0D9C109F2D
:104BA000119E9A0725D4002E65D1BC4221D2012244
:104BB0001A409246202C00D1E9E00C9A551E302272
:104BC00002E0202C00D17BE001342A55A742F8D81E
:104BD0005246002A0DD0B4420BD20C9A551E3022F8
:104BE000202C02D171E0202C2DD001342A55B44262
:104BF000F9D1DA063CD55A052ED4002C28D10F9ACB
:104C0000102A00D1B6E0022A00D1BCE030220C9C70
:104C1000227001244A46002A65D15A0700D499E03F
:104C20002B220C9D2A55013403930C9B6246009362
:104C3000029643460194FFF74FFF04B0E0BCBA462A
:104C4000B146A846F0BD2024DA06EDD55A0503D4B6
:104C5000A74266D0B44264D00F9A102A71D0022ABB
:104C600057D0202CE0D02200013430250C9FBD54B9
:104C7000202CD9D0CEE7012215001D40AA461A42A9
:104C800036D04A46002A4AD10C321A4247D1BC4299
:104C9000A1D2202C91D1202E17D82024DA06C3D5FA
:104CA0005A051BD4202F01D0202ED5D11F220F9DB5
:104CB000102D6FD0022DD8D162250C9FBD54D0E7A6
:104CC0005246002A79D0202EBDD92024DA06ABD551
:104CD0005A0503D4202FE9D0202EE7D00F9A102AAE
:104CE000A2D12024A0E72D220C9D2A5501349BE758
:104CF000BC4200D37DE7202C00D05EE7DA06F0D579
:104D00005A05EED4202F62D0202EEAD134001F2283
:104D1000CDE7202C00D187E722000134CCE7013E0B
:104D2000B5E7621E012CC2D10F9A102A00D06AE7A3
:104D30009A063BD558220C9C2270283A62700224B5
:104D400068E79A060ED4202CCBD078220C9D2A55E9
:104D5000013486E71A0700D466E720220C9D2A5505
:104D6000013461E7202CBCD058250C9A121915701B
:104D7000013476E79A0608D558220C9C227030221E
:104D80006270022446E76032F7E77822F5E7002AEE
:104D900083D1B3E7A21E013C9D0603D478250C9F66
:104DA000BD5460E758250C9FBD545CE778220C9CED
:104DB0002270483A627002242CE7DA0600D433E706
:104DC0005A058BD4202F00D044E71F226FE73C0008
:104DD0001F226CE710B5002800D110BD02F0E2FEE2
:104DE000FBE7C0460B0010B5002802D049681B68DD
:104DF000984710BDF0B557464E464546DE46E0B5ED
:104E000099B08246894690460893229A239B1000C7
:104E1000190001F060FD002800D0CDE02298239910
:104E20000122D94B524201F051FD002800D0C3E0CD
:104E3000229823990122D54B524201F039FD0028D6
:104E400000D0B9E0229823990022002301F030FD20
:104E5000002800D0F1E1229E239F8023269ADB00C8
:104E60001A400D92269A1A4201D1062324938023D8
:104E7000269A1B011A403B0093460996334300D003
:104E8000B3E0002A00D0C2E1002300240A930B946F
:104E9000002304250993259B0024AB4200D95C1B09
:104EA0000223269A1A400C92269A134203D06B4290
:104EB0006B415B421C40099B002B07D00A9A0B9B5D
:104EC0003000390001F093FC06000F00229823996E
:104ED0000022002301F0ECFC002803D08021090609
:104EE0007B181F00269AAA4B009601971340089E34
:104EF0000493249B03940293424633004946504650
:104F000000F0AAF90400002D67D02020269A494617
:104F1000024013005A4253415B42621C18400A92FD
:104F2000330022004530D047099A6F1ED317D4189A
:104F30005C40D30F9B46002501E0202D13D008AA2A
:104F400094461F23200063440A2101355E1901F0B5
:104F500001FA3031317020000A2101F0FBF92600FE
:104F60000400092EE9D805230693002304930A338D
:104F700003935B46089E029310AB0A9A009349463E
:104F80003300504605970195FFF7FCFD0C9A04008D
:104F9000002A22D04246851A259AAA421DD9B04637
:104FA0005746160022004346494620200135B8479F
:104FB0000134AE42F6D810E0269B42460493259B6E
:104FC00049460393249B50460293229B239C0093C3
:104FD0000194089B00F040F90400200019B0F0BCD7
:104FE000BB46B246A946A046F0BD6A4B78009C4637
:104FF000400D604401F082FC674A684B01F015FCEB
:10500000674A684B01F0EAFB674A3B031B0B1A43F4
:1050100004000D0009981100644B002201F0D5FB3B
:10502000634A644B01F001FC02000B0020002900E0
:1050300001F0D4FB01F07AFC099001F05FFC5E4ABC
:105040005E4B04000D0001F0F0FB00225C4B01F010
:10505000C5FB01F06BFC5B4A5B4B29000C90200008
:1050600001F0E3FB04000C980D0001F047FC574AE7
:10507000574B01F0DAFB02000B002000290001F081
:10508000A4FB04000D0002000B000A940B9501F034
:10509000CCFB04000D000A980B9902000B0001F0F4
:1050A0009DFB00220E900F914A4B2000290001F039
:1050B0009EFB0022484B01F091FB02000B002000F8
:1050C000290001F094FB0022444B01F087FB020011
:1050D0000B002000290001F08AFB0A9A0B9B0D00AF
:1050E00080210400C905002001F06FFB02000B00C5
:1050F0002000290001F072FB02000B000E980F99AE
:1051000001F075FB0022284B01F068FB344B0C9C2E
:105110009C4664442305002201F087FB04000D0037
:1051200002000B00300039000A940B9501F0C0FB1F
:1051300000285DD123002A00C625099963318D42DC
:10514000AD4159466D420435002900D1A3E6134311
:1051500063D030003900234A234B01F0AFFB002815
:1051600007D0002230003900204B01F0A1FB0028BD
:1051700053D1249B002B00D18DE60D9B5A1E9341E9
:10518000249AD31A249386E6FFFFEF7FFFFFEFFFF9
:10519000FFF7FFFF01FCFFFFFB799F501344D33F54
:1051A000B3C8608B288AC63F0000F03F0000F83F7C
:1051B00061436F63A787D23F71A379094F930A4078
:1051C0000000E03F1655B5BBB16B0240EF39FAFE67
:1051D000422EE63F00002C40000024400000184012
:1051E000FF0300002D431CEBE2361A3F80842E4162
:1051F000099B0022013B09932000164B290001F076
:10520000F6FA0A00010003000A910B9294E70023CA
:1052100000240A930B9400230993249A099B9A4231
:1052200014DDD31A013B24938023269ADB001A4312
:1052300000230025269209932DE68022120694462B
:10524000229B1E00239B63441F0006E60023249339
:10525000EAE7C04600002440F0B54546DE464E462B
:105260005746E0B595B08B46904699461E9A1F9BCF
:105270000A9019001000209D01F02DFB002800D09D
:10528000B0E11E981F990122C74B524201F010FB5A
:10529000002800D037E11E981F990122C34B5242CB
:1052A00001F014FB002800D0A7E01E981F990022EF
:1052B000BF4B01F00BFB002800D088E01E981F991F
:1052C0000022BC4B01F0F4FA002800D07FE01E98C9
:1052D0001F990022002301F0EBFA002800D0FAE029
:1052E00000230B938023229C229ADB001C401A424D
:1052F00000D102E1092D00D87CE106A98C462C00E2
:10530000172200233021093C62440133D154EF1AA3
:10531000202B00D132E1A342F7D10022A44B069208
:1053200007931E981F9901F001FB050001F0E6FAB2
:1053300002000B001E981F9901F047FA069A079B7E
:1053400001F073FA0890099101F014FB060001F0D6
:10535000D1FA02000B000898099901F036FA0022F0
:10536000954B0890099101F0B1FA002800D1D2E0E4
:105370000136300001F0BEFA069A079B01F09EFA52
:10538000002801D000260135AA46002F00D098E061
:10539000280001F0B3FA02000B001E981F9901F0DB
:1053A00014FA854B002206000F0001F081FA0CABC5
:1053B0009A46002845D10022300039007E4B01F08A
:1053C00085FA00283DD1EB073BD5013539E0229B1A
:1053D00042460493219B594603930A981E9B1F9CA7
:1053E0000295009301944B46FFF704FD15B0F0BC05
:1053F000BB46B246A946A046F0BD229B5B0767D4D8
:1054000003226E4B229901920391219902910093FC
:1054100042464B4659460A98FFF75EFBE6E706AA66
:1054200094461723280063440A2101341E1900F012
:1054300069FF3031280031700A2100F063FF051E3A
:1054400076D0202CEBD10323229A1340012B1DD1BF
:10545000219B002B1AD00B9B002B00D0BBE0229A83
:105460000C33134200D0B6E0219BA34200D887E062
:1054700006AB9C4617223023624404E02199013494
:1054800013558C4259D0202CF8D12024229B019412
:105490000393219B02935346B9E706AA9446172328
:1054A0000A216344300001341D1900F053FF3031EC
:1054B000297030000A21013F00F04CFF092E46D927
:1054C0000600202CE9D155460CAB20249A46B8E7BB
:1054D00004223B4B96E71E9A1F9B0020002101F0FF
:1054E00074F901230B938023229C229ADB001E90E7
:1054F0001F911C401A4200D0FCE60022314B0627C7
:10550000069207930DE7229B0393219B02930423AA
:1055100001932D4B7BE7002208980999264B01F057
:10552000C7F9002800D02FE7002E4FD101362BE716
:105530000323229A1340012B66D0202CA6D00B9B6C
:10554000002B1FD02D235246135501349EE755469C
:10555000202CB9D030233A19002F08D0172006A9E3
:10556000013409180B55202CAED09442F6D10CAB67
:105570009A462E2352461355013462E72024CCE686
:10558000202C83D0229B5B0708D4229B1B0700D4CE
:105590007CE7202352461355013477E72B235246EC
:1055A0001355013472E7C046FFFFEFFFFFFFEF7FA7
:1055B00065CDCD4165CDCDC10000E03F1CA20210FC
:1055C00014A2021080842E4124A20210F30700D4FA
:1055D000DAE60136D8E6219B013B2193A34200D9AC
:1055E00046E7AAE7229B0393219B0293032301939F
:1055F000074B0CE7074BEA009B185C681B682F0001
:105600000693079400248CE6219B002B95D022E77B
:1056100020A2021010A50810F0B55746DE464E46EF
:105620004546E0B5A5B01F002E9B91460D93CA4A92
:10563000CA4B82468B461A60002900D129E200231A
:1056400038789846002800D12BE2C54B44460C938D
:10565000C44B55464E460E930AE0631C9846220002
:1056600033005946A84744463878002800D187E0DF
:1056700001372528F1D108239A46043B9946023B7D
:105680009846013B00229C460B943878791C030015
:10569000203BDBB2102B03D80C9C9B00E3589F46A9
:1056A0000300303B0B9C0B92092B3AD90023984600
:1056B0002A2800D1DDE000239A462E284BD0030093
:1056C000683BDBB2122B1ED80E9A9B00D3589F4624
:1056D00063460F001A43D8E743460F001A43D4E746
:1056E0004B460F001A43D0E710230F001A43CCE7B4
:1056F00053460F001A43C8E780235B000B9A787863
:105700001A430B9201310F0067284FD82428A4D9DF
:105710000300253BDBB2422B9FD893499B00CB581B
:105720009F46002398460B9B47469C4600E001316C
:10573000BB00DB195B001F180878303F0300303BCB
:10574000092BF4D963460B930023B8469A460F0001
:1057500001312E28B3D180200B9AC00002430B9256
:1057600030225242944678780B0084446246092ADB
:1057700000D8AAE12A2800D1B9E10F0001319EE743
:10578000A046AA46B146C84503D301235B424B4419
:1057900098464B46424659460020D047200025B047
:1057A000F0BCBB46B246A946A046F0BD010069392F
:1057B000C9B20F2900D950E701238B409C466B4B9F
:1057C000994663464A4613400F9362464B461A4237
:1057D00000D068E10A2956D0072900D03DE70D9B8B
:1057E00002CB9846002900D092E10B9B10211A00B1
:1057F0008A43100011310843814680201A00C000FE
:105800000240110003421CD114AB9C461F220F23FF
:1058100062440D959C4615000F9B0B9402E0202BD3
:105820000CD0110064460C4020003730092C00D801
:1058300007380133E8540A090F29F0D80B9C0D9D55
:105840000F934B4608220693534605920832039263
:10585000002204930F9B029201931CAB2200009341
:10586000594633002800FFF78DF9434604000D9395
:10587000FAE60D9B04CB9046002A79DB78780D93ED
:105880000F00013117E70D9B02CB14930B789C4658
:1058900018005346002B00D134E1002815D05346A0
:1058A000013B013399460D940B9C89444A460B00F9
:1058B000A14601E0934203D05C780133002CF9D17A
:1058C0004A465B1A0D9C0B920F938023DB0099468E
:1058D0000B9A13400D934B461A4204D00F9B53452D
:1058E00001D953460F93022399460B9A13400B9309
:1058F0004B46134200D1F5E16346002B00D1D6E1BF
:105900000D9B002B00D182E10B1BD14631009A4642
:105910003B00A1442E005F464D4622009B4689462F
:1059200009E04B463900541CB0475346185D002827
:1059300000D192E122009542F3D14B465A46A94646
:10594000BB46350017001E004C460B9B002B00D0B9
:10595000ADE1149B0D9387E61956001090D80220F4
:1059600070A30810B4A3081000A408104190000010
:105970000B9A283802430B9242465242787890465E
:105980000F000D93013196E678786C2800D15DE127
:1059900080230B9A5B001A430B920131B3E68023FC
:1059A0009B00ABE67878682800D148E180230B9A09
:1059B00001311A430B92A6E6672800D1B2E04728CE
:1059C00000D11AE1452800D11CE10B9A072104926D
:1059D00042460D9B0392073352468B4319000292B5
:1059E0000CC92800009201930D9122003300594602
:1059F000FFF700FA040037E6462800D18DE00B9A45
:105A00000721049242460D9B0392073352468B4373
:105A1000190002920CC92800009201930D912200F6
:105A200033005946FFF718FC04001DE6631C984636
:105A30002200330059462520A847444614E60D9B12
:105A400004330F93631C99460B9B9A0700D40AE119
:105A50000D9B2200187859463300A847434644441A
:105A6000012B00D86FE1B0462E0025004C46B94608
:105A70005F4622004346013439002020B047AC4243
:105A8000F7D12C00BB4635004F4646460F9B0D9381
:105A9000EAE5D64B38789A4600239846002800D08D
:105AA000D3E500246FE66F2842D000D8FDE1102333
:105AB000782800D19BE00B9A9A430B920A239C46CC
:105AC000002314930A330F9338E057460B9AB9001A
:105AD000C919490001330F181878303F01003039D7
