:020000041000EA
:1000000000B5324B212058609868022188439860DF
:10001000D860186158612E4B002199600221596106
:100020000121F02299502B49196001219960352056
:1000300000F044F80222904214D00621196600F024
:1000400034F8196E01211966002018661A6600F04E
:100050002CF8196E196E196E052000F02FF8012189
:100060000842F9D1002199601B49196000215960AB
:100070001A491B48016001219960EB211966A021F2
:10008000196600F012F800219960164914480160C1
:100090000121996001BC002800D000471248134993
:1000A000086003C880F30888084703B5996A0420EC
:1000B0000142FBD001200142F8D103BD02B5186610
:1000C0001866FFF7F2FF186E186E02BD00000240BE
:1000D000000000180000070000035F00212200005C
:1000E000F4000018222000A00001001008ED00E03C
:1000F00000000000000000000000000074B24E7A12
:1001000000200420F7010010C3010010C5010010F9
:10011000C1010010C1010010C1010010C101001097
:10012000C1010010C1010010C1010010C701001081
:10013000C1010010C1010010C9010010CB01001065
:10014000CD010010CD010010CD010010CD01001037
:10015000CD010010CD010010CD010010CD01001027
:10016000CD010010CD010010CD010010CD01001017
:10017000CD010010CD010010CD010010CD01001007
:10018000CD010010CD010010CD010010CD010010F7
:10019000CD010010CD010010CD010010CD010010E7
:1001A000CD010010CD010010CD010010CD010010D7
:1001B000CD010010CD010010CD010010CD010010C7
:1001C00000BE00BE00BE00BE00BE00BEEFF3058054
:1001D000103800BEF2EB8871D8A30110F4A301100F
:1001E0003402001090A31AE700201F49086006C8D7
:1001F00081F3088810471D48006800282FD10DA4FE
:100200000ECC002902D000F012F8F9E71849194A7B
:10021000002000E001C19142FCD1174988471749ED
:1002200088471749884700BEFDE701C901C29A42C5
:10023000FBD37047F4A30110C0000020EC15002090
:1002400020B90110000004200000042020B9011092
:10025000001004200010042000000000704709482E
:1002600006F032FB0047000008ED00E0000000D07F
:10027000F01500205C920020AD4F00106D110010B1
:10028000E15000105756000006005250ABB36053C7
:10029000D88A011006005250861C0302E88A011019
:1002A000060052505422A29DF08A011005005250BF
:1002B000DE65F46820B90110F8B5C046044B10B5EE
:1002C000002B03D00349044800E000BF10BDC04626
:1002D0000000000010920020D8FF00107047C046B8
:1002E00010B5152002F006FC002808D00D490E4B71
:1002F00009681A680139914211D001321A6016203A
:1003000002F0F8FB002805D0074B19684A1E0029A7
:1003100001D01A6010BD034A1268013AF9E70022C1
:100320001A60ECE7A80F002050920020F0B5DE46DE
:100330004E4657464546E0B50400AFB00F230F22A6
:100340000F210F2001F0A2FA0B23782200210020B8
:1003500001F064FC0F2300220021002001F096FA36
:1003600006AB0493994600236668276804AC200016
:10037000B11C23726360A04D08F03CFD6368EB1A6A
:100380009E4200D934E132003900200008F0DEFD41
:100390006368ED1A012D00D82AE102229749200056
:1003A00008F0D4FD964B0AA81968013102F086F9CD
:1003B00060680B9A049B0A9985184B4500D1EBE0C5
:1003C000A668B54207D90CAEB14200D1E0E00C9E60
:1003D000B54200D8CEE0884B1B1A9A4200D907E1FB
:1003E000200008F0B3FD070012AB10939A46036893
:1003F0000837050010AEBB4200D1D5E010938368EA
:10040000B3606B68736000236B602B7272687A4B09
:100410002F609A4200D1EBE001223000794908F0C8
:1004200095FD070018AB169398460368083705003A
:10043000BB4200D1BFE01693836818936B682F60AE
:10044000179300236B602B726F4B1CA8196802F086
:1004500035F917981D9A169B1C998518434500D1AC
:10046000B7E0189FBD4207D91EAFB94200D191E055
:100470001E9FBD4200D884E05F4B1B1A9A4200D9F0
:10048000B6E016A808F062FD0822934624AB22933A
:10049000039303688344050022AF5B4500D191E0DC
:1004A00022938368BB606B687B605B462B60002394
:1004B0006B602B727A68504B9A4200D198E001220F
:1004C0003800524908F042FD082293462AAB28938F
:1004D0000368834405005B4500D182E0289383686C
:1004E0002A936B6828A829935B462B60002302227D
:1004F0006B602B720221013B02F0C6F828982AABF0
:10050000984203D02A99013107F072FE2298039B8A
:10051000984203D0B968013107F06AFE1C981EABFF
:10052000984203D01E99013107F062FE16984045AB
:1005300003D01899013107F05BFE1098504503D0A5
:10054000B168013107F054FE0A980CAB984203D011
:100550000C99013107F04CFE0498484503D0A1687E
:10056000013107F045FE2FB0F0BCBB46B246A946AC
:10057000A046F0BD0090002200210AA808F092FCDD
:1005800031E70090002200211CA808F08BFC7BE7DB
:100590000F261DE70F276CE70F2D00D81BE70CAEC9
:1005A000B14200D013E716E74268390050460132E5
:1005B00007F00CFE25E7426839004046013207F09B
:1005C00005FE3BE7426859460398013207F0FEFDFD
:1005D00069E70F2D00D84FE71EAFB94200D047E7BB
:1005E0004AE74268594601322AA807F0EFFD78E74A
:1005F000074808F04FFAC046FFFFFF3FF0FF00102A
:1006000050920020F4FF0010A80F0020F8FF001007
:10061000D8FF0010F0B5DE4657464E464546E0B5D9
:100620000F2300220021002095B001F02FF901F0E6
:1006300049FB7E4B1B68042B4DD87D4A9B00D35849
:100640009F460120002301220C21404201F0C8F9FD
:100650000AAB08939846A82308AC0EAE00223100DE
:1006600020000E9308F026FB0E9BA82299467149A4
:100670000890A360050007F0A9FD4B4663600023C6
:100680009A464B4652460C21EA540C200F230C325A
:1006900001F0FCF810AD022120007423102201F0BB
:1006A000F3FF2A00644B0E9583CB83C20C230F9378
:1006B000534630003375FFF739FE0E98A84203D039
:1006C0001099013107F094FD0898404503D0A168C6
:1006D000013107F08DFD15B0F0BCBB46B246A9460E
:1006E000A046F0BD10AF3A00544B0E9703CB03C2A7
:1006F0001B780EAD137009236B60002328006B7408
:10070000FFF714FE0E98B84203D0A968013107F034
:100710006FFD02F001FA07F0C7F9494907F079F9CE
:1007200007F032FA474907F088F9474907F06EF9B0
:1007300007F014FA0600012000230122082140429C
:1007400001F04EF90AAB08939846B02308AC00229A
:10075000290020000E9308F0ADFA0E9BB0229B46B4
:100760003A490890A360814607F030FD5B4663601C
:1007700000239A465A464B4651462000995433006E
:1007800007AA06A901F0CCFD0F23002201210020B9
:1007900001F07CF8079B069A1C21002004330432E8
:1007A00001F03CFA0F230C220C210C2001F06EF812
:1007B00033001E220221200001F066FF244B0E9719
:1007C0001093042331006B60534628002B730F22D3
:1007D0001839013B01F058FF0E98B84203D0A968C0
:1007E000013107F005FDB51C08220F21280001F09A
:1007F0008BF9152332001721280001F077FA152311
:1008000017212800321D01F071FA0F2300220F2159
:10081000002001F03BF828005C221B2101F074F954
:100820000898404500D052E755E7C0465092002056
:10083000B40301105802011004030110FCFF001062
:1008400000007A44000010420000A042080001109D
:10085000777261700F2300220021002001F016F84A
:1008600010AF01F02FFAF44B0E971A680EAD1092EC
:100870009A882800BA809B79BB7107236B6000239C
:10088000EB73FFF753FD0E98B84203D0A96801310E
:1008900007F0AEFCE94BEA499846186807F0B6F84D
:1008A0004346186002F038F907F0FEF8E54907F012
:1008B000B0F807F069F9E44907F0BFF807F01CF950
:1008C000434606000021186807F0A0F8FE239B05A8
:1008D0001A1CDE4901F03AFF132308AC81460022BE
:1008E0002100280008930E9708F0E4F9089B1322D2
:1008F0009A46D7490E90AB6007F068FC53465146C4
:1009000000226B600E9B07205A54072109320423F2
:1009100001F00CFF8246CF4B1800019300F0FCFF62
:10092000504600F0BBFF0F239A46B24416225146B0
:100930002800103B01F0A8FE3100012316222800F8
:100940000E315B4201F0A0FE310001231622280087
:1009500010315B4201F098FE012317225146280016
:100960005B4201F091FEBC4B1800039300F0D4FFF2
:10097000484600F093FF0123280014220F215B4218
:1009800001F082FE0E98B84203D0A968013107F049
:100990002FFC484600F082FF052207231421002087
:1009A00001F03CF94346AD49186807F02FF8FE23E3
:1009B0009B051A1C191C01F0C9FE43468146A74934
:1009C000186807F023F8FC22FE239205111C9B05F2
:1009D00001F0BCFE15238246210000222800089366
:1009E0000E9708F067F9089E15229D490E90AE609B
:1009F00007F0ECFB00220E9B6E609A55994B002687
:100A00001800029300F088FF22003B004C462F00A4
:100A1000914655469A46300007F04CF8924907F047
:100A20000CF807F09BF82100C2B2280000F070FC1F
:100A300000F034FF3100012378220020233100F040
:100A400051FF012323220F2138005B42013601F0C0
:100A50001BFE082EDFD14B46A1461C0000F02AFFEA
:100A60000E983D005746504503D0A968013107F064
:100A7000BFFB484600F012FF052207232321002078
:100A800001F0CCF802F048F807F00EF86D4906F0D6
:100A9000C0FF07F079F8FE21890506F0B7FFFF21B6
:100AA000890506F0CAFFFE21890506F0AFFF07F0B1
:100AB00023F8434606006D49186806F0A7FFFE2399
:100AC0009B051A1C614901F041FE14238146002256
:100AD0002100280008930E9708F0ECF8089B1422D8
:100AE0009A4663490E90AB6007F070FB53460022B4
:100AF00051466B600E9B01985A5400F00DFF48461A
:100B000000F0CCFE73429B469E4222DB4B46049390
:100B10004346A146BA46D84634002F0005934546C1
:100B20005E460F35320001232900380032325B4225
:100B3000013601F0A9FDB442F4DA01239C46E044F9
:100B40004445ECDA059B4C469846049B3D0099468B
:100B50005746029800F0E0FE0F23002200210020FB
:100B600000F094FE0123280032220F215B4201F0A5
:100B70008BFD0E98B84203D0A968013107F038FB0D
:100B8000484600F08BFE052207233221002001F0A9
:100B900045F801F0C1FF06F087FF2A4906F039FF4A
:100BA00006F0F2FFFE21890506F030FF011C06F079
:100BB0002DFFFE21890506F029FF06F09DFF434623
:100BC00083462C49186806F021FFFE239B051A1C5A
:100BD0001E4901F0BBFD434626498146186806F0D0
:100BE00015FF254906F012FFFE23184A23499B05ED
:100BF00001F0ACFD14238246002221002800089356
:100C00000E9708F057F8089E1D4914220E90AE600A
:100C100007F0DCFA00220E9B6E6001989A5500F0F6
:100C20007BFE504600F03AFE5B460126002B36DD87
:100C3000A2465C4626E0C04614030110608E0020E8
:100C40000AD7233C00007A4300004040CDCC4C3F03
:100C50001C03011095140010611300102549123E69
:100C600030030110711400100000F03F2549923E3E
:100C700048030110B86DDB3ECDCCCC3D9A99193FAD
:100C800060030110320031000123280041320F318E
:100C90005B42013601F0F8FCB442F3DA54460398A3
:100CA00000F03AFE484600F0F9FD012328004122F9
:100CB0000F215B4201F0E8FC0E98B84203D0A9680E
:100CC000013107F095FA484600F0E8FD05220723B8
:100CD0004121002000F0A2FF4346C649186806F0F3
:100CE00095FEFE239B051A1CC34901F02FFD4346C8
:100CF0000600C049186806F089FEC04906F086FE65
:100D0000FE23BF4ABF499B0501F020FD1223814607
:100D100000222100280008930E9707F0CBFF089BC4
:100D200012229A46B8490E90AB6007F04FFA53462C
:100D3000002251466B600E9B02985A5400F0ECFD65
:100D4000300000F0ABFD042378225021002000F099
:100D5000C9FD012350220F215B42280001F094FCC1
:100D6000484600F09BFD042378225421002000F027
:100D7000B9FD0123280050220F215B4201F084FCC1
:100D800000F098FD0E98B84203D0A968013107F031
:100D90002FFA300000F082FD0522072350210020A9
:100DA00000F03CFF01F0B8FE43469849186806F091
:100DB0002DFEFE22964B9049920501F0C7FC1123AF
:100DC000060000222100280008930E9707F072FF0A
:100DD000089B112299468F490E90AB6007F0F6F9F7
:100DE0004B46494600226B600E9B5A54019B1800EB
:100DF000994600F091FD300000F050FD01235E2285
:100E00000E2128005B4201F03FFC01235E220F21EE
:100E100028005B4201F038FC01235E2210212800EB
:100E20005B4201F031FC01235F220E2128005B426E
:100E300001F02AFC01235F220F2128005B4201F010
:100E400023FC01235F22102128005B4201F01CFCDF
:100E5000012360220E2128005B4201F015FC0123D2
:100E600060220F2128005B4201F00EFC012360226A
:100E700010215B42280001F007FC484600F04CFDC1
:100E80000F2300220021002000F000FD0123280094
:100E90005F220F215B4201F0F7FB0E98B84203D0AE
:100EA000A968013107F0A4F9300000F0F7FC052231
:100EB00007235F21002000F0B1FE43465649186821
:100EC00006F0A4FDFE239B051A1C4B4901F03EFCD5
:100ED0001323210080460022280008930E9707F074
:100EE000E9FE089C4D4913220E90AC6007F06EF9A4
:100EF00000220E9B6C6002981A5500F00DFD4046D2
:100F000000F0CCFC6E24072601237822210000206B
:100F100000F0E8FC0DF002FA064200D10DE10123D9
:100F20006E220F2128005B42013401F0ADFB762CCC
:100F3000EAD100F0BFFC0E98B84203D0A968013195
:100F400007F056F9404600F0A9FC072305226E2160
:100F5000002000F063FEFFF7BEFB10AF3A00304BFD
:100F60000E9713CB13C20C230F9300230EAD280052
:100F70002B75FFF7DBF90E98B84203D0A968013151
:100F800007F036F90120002301220C21404200F035
:100F900027FD0F230F220F210F2000F077FC7A236B
:100FA000002208A9280008930E9707F083FE089EE8
:100FB0007A221C490E90AE60040007F007F9002366
:100FC0000C220C210C206E60A3550F3300F05EFC48
:100FD000280064232022022101F056FB0E98B8421B
:100FE00001D1FFF778FBA968013107F001F9FFF79C
:100FF00072FBC0462549123FCDCC4C3FCDCCCC3DF9
:101000009A99193FCDCCCC3E780301106EDB363F68
:10101000CDCC4C3E8C030110B86D5B3FA00301109A
:10102000BC000110CC0001100120002301220C2182
:10103000404200F0D5FC0AAB08939846FE2308AC6A
:101040000EAE0022310020000E9307F033FE0E9BFF
:10105000FE22994642490890A360050007F0B6F8C1
:101060004B46636000239A464B46524606A9EA5413
:10107000200007AA5A2301F053F9079D2B002833BB
:10108000079301F049FD06F00FFD364906F0C1FC5B
:1010900006F07AFD81462800323806F00BFD4946FD
:1010A000051C06F0CAFCFC21890506F0C6FCFC21E3
:1010B00081468905281C06F0C0FC011C484606F044
:1010C000A5FC06F019FD0F230500002200210F20CA
:1010D00000F0DCFB5E2368221221082000F070FD86
:1010E0005A23642214210A2000F0FCFB0F230C2257
:1010F0000C210C2000F0CAFB28220A212000521BE0
:10110000642310AD01F0C0FA00F0D4FB2A00164BA6
:101110000E9583CB83C21988300011809B78937021
:101120000F230F935346F375FFF700F90E98A8426B
:1011300001D0FFF7C5FAFFF7C7FA0DF0EFF8092164
:1011400005F0F4FB01230B316E222800C9B25B428B
:10115000013401F099FA762C00D0D5E6E9E6C046D4
:10116000480101100000FA4448020110F0B5DE46C3
:101170004E4645465746E0B583B001F04BFE80260B
:1011800001F030FE002301244B4D760008C52000FD
:1011900006F08AFCEE21890506F04FFC474906F06F
:1011A0004CFC06F0F1FC013401C5B442EFD1002043
:1011B00001F090FD01F0DAFC01F0D2FC0028FBD137
:1011C00001F0BEFC01F0BCFC4B2001F083FDFFF7F9
:1011D00085F801F003FE3A4B00279B461860002378
:1011E0009A46384B384D994601F0A6FC060000F0AF
:1011F00041FB00F059FB00F05DFB00F085FB00F0C7
:1012000091FB00F0ABFB00F0E1FB5B464A461B683C
:10121000136001F0E3FD5B46186001F08DFC7B1C60
:10122000040038009846FFF75BF801F085FC001BCE
:10123000E86001F081FC009001F092FC0028FBD1F5
:1012400001F07AFC5346C01A686101F075FC040095
:1012500001F072FC82464046FFF7DCF901F06CFCBD
:101260005346C01A286101F067FC019001F068FC48
:1012700001F062FC804601F05FFC824601F076FCE2
:1012800001F05AFC861B31001048AE6005F076FB79
:10129000013000230237286028280AD9009B4444E3
:1012A000E01A019B3100C01A6423584305F066FB25
:1012B00003006B6098E7C046308A0020DB0FC9400E
:1012C000CC890020E0890020EC8900203F420F00FB
:1012D00010B57821084A782001F024FB074B8021C3
:1012E0001860074B074A1860802001F01BFB064B73
:1012F0001860064B186010BD4C190020048A0020AD
:1013000048190020FC04011034190020D489002061
:10131000130770B5DB0F0E4E04009A180B03334011
:101320000B4310210B4D0003AC46304020432840B6
:10133000D2B22B40891A4243594362448918064B62
:10134000080C1840054B09091940084370BDC046F8
:1013500000000F0F0F0F0F0FF0F000000F0F000035
:10136000F0B54E4645465746DE4690460A145200B2
:101370008446105A394AE0B50503154005433848FC
:10138000384C054022782C03240F54430F34241189
:101390002707FF0F099EE4199146E4B2771E002E3D
:1013A0001ED04246002A21D1844665432E4A654418
:1013B00094462E4A102191460C1B1E88274A310361
:1013C0001140624631430140614349190E0C1640F9
:1013D0004A4609091140314319800233013FECD2DA
:1013E000F0BCBB46B246A946A046F0BD01229246DB
:1013F0001A88414493461603184A16405A46164323
:101400000640B3461022161B5A465643144A6C43F4
:1014100093465E443419154A25091540124A240C96
:10142000144062462C431C800C146400A45A0B4ADE
:1014300025031540FF22254305402E0C16404A4641
:10144000564352460F363611F6B2F408144034199A
:10145000E4B20233013FCBD2C2E7C04600000F0F17
:101460000F0F0F0FC80F0020F0F000000F0F00004B
:1014700070B5049C651E002C0AD0F0260C14640084
:10148000245A264200D01C8002338918013DF5D22F
:1014900070BDC046F0B54E4657464546DE46E0B5FF
:1014A0000D002E498446088883B0914601060C9AA7
:1014B000090F8A46561E002A48D0294A1C00127875
:1014C000284B294F98460192009600E0009362460F
:1014D0002B145B009B5A0F221B09134052465343A7
:1014E000F0220F331B111B01904318434346012682
:1014F00080B201031940014339400B0C0F321340F5
:10150000019A4D4453430F331B11DBB2DA083240CA
:101510009B18228846469346120332405E46324369
:101520001026DBB25943F61A0F4B3A409B467243E2
:10153000594452180D4913090B400D49120C0A4029
:1015400013432380009B0234013BBFD203B0F0BCA5
:10155000BB46B246A946A046F0BDC0465492002004
:10156000C80F002000000F0F0F0F0F0F0F0F00000C
:10157000F0F00000F0B557464E46DE464546E0B571
:101580004E4E0400736900209B464D4B83B01F688C
:10159000B369BA46DA449846D146C144A1451CD93C
:1015A000316A002920D1474BB5681B6800933B0086
:1015B000AF4200D92B009C421BD22900200205F02B
:1015C000DDF9009B43431D0AF369002B36D14346E6
:1015D000002B01D0444546D8E8B203B0F0BCBB466E
:1015E000B246A946A046F0BD200005F0C7F9641A2E
:1015F000D9E7F36801935B19BB4230D89C4205D30D
:10160000A74245D9306964210002D8E730696421D6
:101610008027000205F0B2F97F003B1A9A46601B52
:101620000199000205F0AAF953465843009B000AAD
:101630003F1A7B431D0AF369002BC8D00CF06EFEE5
:10164000F769390005F09AF97F08B369C91B984614
:1016500069181BD464256429B9DC0D00B7E73B0089
:101660009C42CDD2D2E7E01AFFF784FF06002800A3
:101670004946604305F082F94B460500181B494670
:10168000704305F07BF94019C0B2A6E700259EE73C
:101690000025A24598D9E01B5946000205F06EF9D5
:1016A0000135FF352D1A30696421000205F066F915
:1016B0006843009A030A5A43150A85E7088A0020FE
:1016C0002C8A0020CC0F0020F0B557464E464546E8
:1016D000DE46E0B5614C624F26683D6885B0002E5D
:1016E0003FD1604B994662696B1C3B60A76993468A
:1016F000BA465D4B00211E680192B344DA44AA4504
:101700001FD9216A002927D1584B1B680293A3686F
:1017100098463300464500D94346AB4230D941464E
:10172000280205F02BF9029B43431B0A9846E36904
:10173000002B4CD1002F01D0BD425ED8FF21434683
:1017400019404B46186801F0E9FA05B0F0BCBB46F9
:10175000B246A946A046F0BD280005F00FF96D1A63
:10176000D2E7404B616899460029BCD0280005F0BB
:1017700005F94A4646433E4B1B68F3181360B2E72F
:10178000E36803934344B34233D89D4205D3AE424A
:101790004AD9206964210002C3E7206964218026B8
:1017A000000205F0EBF87600331A9B464346E81A30
:1017B0000399000205F0E2F85B465843029B000AD9
:1017C000361A73431B0A9846E369002BB2D00CF01B
:1017D000A5FDE669310005F0D1F843467608891B7E
:1017E000A769C9181DD4642398466429A2DC8846D9
:1017F000A0E733009D42CAD2CFE7E81BFFF7BAFE4D
:10180000040040465146684305F0B8F853460600C8
:10181000581B5146604305F0B1F8FF218019014083
:101820008FE70023984685E700239846AB4500D80C
:101830007DE7A81B01998026000205F09FF876003D
:10184000361A20696421000205F098F87043029A64
:10185000030A5A43130A984669E7C046088A0020DB
:10186000D0890020301900202C8A0020CC0F0020C5
:101870003C1900200F2310B50F220F210F2000F07C
:1018800055FF014B188010BD5492002010B500F098
:101890004DFF014B188010BD54920020014B188061
:1018A0007047C046549200200F22014B1A707047B7
:1018B000C80F00200022064B1A60064B1A60064B28
:1018C0001A68064B116852681960054B1A60704718
:1018D000401900204419002048190020B40F0020AE
:1018E000B00F002010B5044C20600448016004498A
:1018F0000A60044A136010BD4019002044190020FA
:10190000B40F0020B00F0020014B024A1A6070474C
:10191000B80F002061130010014B18607047C046DB
:10192000B80F00200021074B1A68074B1A60074BBD
:101930001960074B19601168064B52681960064B15
:101940001A607047048A00204819002040190020BE
:1019500044190020B40F0020B00F00200022024BD9
:101960001A60024B1A607047E4890020E889002061
:10197000054A036812689B1A044A03600B681268E0
:101980009B1A0B607047C046E4890020E88900205C
:10199000002808D0094B0A4A19680A4B18680A4BF4
:1019A000106019607047084B044A19681160044AB6
:1019B00004491068086000200021F1E7648E0020CF
:1019C000E8890020688E0020E48900200022024B74
:1019D0001A60024B1A607047D8890020DC89002009
:1019E00010B5054C20600548016005490A60002BD0
:1019F00001D0044A136010BDBC0F0020C40F0020AA
:101A0000C00F0020AC0F002010B584B003900291ED
:101A100003A802A9FFF7ACFF114C124B2468124A2D
:101A20001B6812680194114C029924680398009471
:101A300000F0F4FF002811D00D4B02991B680D48EF
:101A40001A689B684A4303995218012152009B1857
:101A5000094A0091146800210022A04704B010BD7B
:101A6000B00F00204419002040190020B40F0020BE
:101A70004819002054920020B80F002030B585B0DE
:101A80000390029103A802A91400FFF771FF174BFE
:101A900002991B68994226DB154A12689B189942E5
:101AA00021DA144A039B1268934203DAD31AE41A28
:101AB00013000392104DE0182D685219904201DB7B
:101AC000801A241A002C0EDD0C4A106802684A4362
:101AD000D218836852009B18094A009414680021A8
:101AE00000220848A04705B030BDC0464419002078
:101AF000B00F002040190020B40F0020481900202A
:101B0000B80F002054920020F0B5D6464F46464606
:101B1000C0B584B00390029103A802A91700FFF793
:101B200027FF204B039A1B689A4234DB1E49096841
:101B30005B189A422FDA1D4B02991B68994203DA0F
:101B4000591A7F1A19000293194C781824681B1926
:101B5000984201DBC01A3F1A164E7D1E306803689A
:101B600084684B439B185B00E418002F13DD124B75
:101B700001279946114B9846434600971B6800225F
:101B80009A46002123004846D04733681A6852001D
:101B9000A418013DF0D204B0E0BCBA46B146A84654
:101BA000F0BDC04640190020B40F002044190020A9
:101BB000B00F00204819002054920020B80F0020D8
:101BC00070B514001D0082B00190009101A8694613
:101BD000FFF7CEFE0020FFF7DBFE22000099019800
:101BE000FFF74CFF00996E1E320001980131FFF79C
:101BF0008BFF009901986918621E01390130FFF7C7
:101C00003DFF01983200201800990138FFF77CFF52
:101C10000120FFF7BDFE02B070BDC046F0B5C6465C
:101C200000B588B00790069107A806A9059204930D
:101C3000FFF79EFE1C4B05AA1B6806A903931B4BCE
:101C400007A81B6802931A4B1B680193194B1B686A
:101C5000009304AB00F0ACFE174D06992A68136898
:101C600094684B4307995B185B00E418049B5A1E69
:101C70000492002B13D0114B114E9846059B002265
:101C800000930021230040463768B8472B681A6844
:101C9000049B5200A4185A1E0492002BEED108B0E7
:101CA00080BCB846F0BDC046B00F0020B40F002085
:101CB00044190020401900204819002054920020A7
:101CC000B80F002010B5054B054A064906481B68A9
:101CD000126809680068FFF7A1FF10BDB00F00206F
:101CE000B40F00204419002040190020F0B5D6465A
:101CF0004F464646C0B584B00390029103A802A99E
:101D000001920093FFF734FE694601A8FFF730FE09
:101D10000020FFF73DFE039C019A029DA2420EDBCC
:101D200001239946009B161BAB420FDB591B480051
:101D3000804677008E424ADB01239A460FE001235A
:101D40005B429946009BA61AAB42EFDAEB1A5900A8
:101D5000884677009E421CDB01235B429A4643463D
:101D60009E1BA2420CD029002000FFF74DFE002E42
:101D700033DB019BF61B4C44554446449C42F2D154
:101D80000120FFF705FE04B0E0BCBA46B146A84604
:101D9000F0BDFE1A01235B429A4629002000FFF79E
:101DA00033FE002E0DDB4346F61A009B55444C448F
:101DB000F619AB42E4D029002000FFF725FE002EE3
:101DC000F1DA009B5544F619AB42E6D1D8E77E1A0A
:101DD000AB42D5D001239A46DFE7019B4C444644F1
:101DE000A342C0D1CCE7C046F0B5DE4657464E46CA
:101DF0004546E0B51E0087B083468A4611A812A961
:101E00001400FFF7B5FD5F4D5F4F2B683200039361
:101E10003B68129902935D4B119898461B68019399
:101E20005B4B99461B680093109B00F0A5FD0028B2
:101E300000D180E0B4465346119AD444002B00DA16
:101E40008BE01099129B09190491002C00DA79E0BB
:101E5000584601680591614502DC6046401A361A11
:101E6000584604994068884203DC091A1098411AC0
:101E70001091494609688C46914204DD8A1A9244C1
:101E8000B6180A00119141460968994208DD109878
:101E9000CB1A80469844E418434610930B001291E5
:101EA0003F68B0186744B84201DBC71BF61B1098A7
:101EB0002D68C71849198F4202DB7F1AC11B109188
:101EC000002E38DD1099002935DD05994C4359461F
:101ED0008F683049544408686400016885684B4342
:101EE0009B185B00ED18139B3F19DB0742D480233E
:101EF0005B02059300230493109B5C1E139B9B07BE
:101F000004D523004B435B00ED1849424B00994632
:101F1000214BB0469A4643460093534638001E680C
:101F2000059A2B000499B0475B461B684D445B0043
:101F3000FF18013CEFD207B0F0BCBB46B246A94641
:101F4000A046F0BD5846109101681B1B1293002457
:101F50000591614500DD83E77FE7D21A00231099E0
:101F60009A4609196646129B11920491002C00DBD7
:101F70006EE7E7E75346F31A013B1B040493074B54
:101F80000593B9E7B00F0020B40F002044190020DA
:101F90004019002048190020B80F00200000FFFF62
:101FA0000D4B70B51E680723150032680C00D11761
:101FB0000B409B1884B0D91004F0E0FC002303937D
:101FC0000833C200C9003000029501940093FFF766
:101FD0000BFF04B070BDC046D4890020F0B54E465A
:101FE000DE4657464546E0B503782F4A203BD900E8
:101FF000C9182E4B85B00190039210681A68465C90
:102000004418511C4DD0921BD205120E9046284AFE
:1020100002939246274A10689346524611684246F8
:10202000641A01340F00A14612184B461500DC5DFE
:10203000002E0AD063B2002B24DB64000135931913
:10204000E4B2AB42F6DC534619680137CB1DBB4204
:10205000EBDA029B019A1B681278591C05D1039B8D
:10206000203A1968D3009B185B5C134A12688018E9
:10207000C0185B46186005B0F0BCBB46B246A94626
:10208000A046F0BD28003900FFF7BEFC5B4618688B
:1020900043461A18640001359319E4B29D42C9DB26
:1020A000D1E700229046B2E7AC0F0020BC0F002021
:1020B000DC890020D8890020C00F002030B50B68D3
:1020C00002681C0001330B60D05C702809D1101924
:1020D0008578652D05D1C0786E2802D1073423009C
:1020E0000C60D05C73280AD1D2185078702806D1C1
:1020F0009278722A03D105330B60683830BD002016
:10210000FCE7C046F0B5CE46474680B50D6803688B
:102110006A1C0A600C00995C060089B070295BD1CA
:1021200059198878652857D1C8786E2854D16F1D01
:1021300027600A7910003038C0B209280AD9110086
:102140004139052900D89FE0110061390020052997
:1021500000D8B2E0AA1D22609446DA5D1100303941
:10216000C9B209290AD911004139052900D8A7E0C7
:102170001700613F0021052F00D89BE0EA1D226077
:10218000904662469F5C3A00303AD2B2092A0DD995
:102190003A00413A052A00D895E061256D42AC46E7
:1021A000BC4465460022052D00D87DE045465D5DB6
:1021B0002B00303BDBB2092B0AD92B00413B052B0E
:1021C00000D88BE02F00613F0023052F00D86EE080
:1021D000FFF75CFB22683368995C73294FD199182B
:1021E000487870284BD18978722948D1033222600F
:1021F0007568AA4200D983E004AFAD1A2E00029799
:102200009918032D43D8012D44D002AB9846002DD8
:1022100045D1434600255E60BE193570029E0DF023
:102220001DF8036899460DF019F80A22056001A906
:1022300030000CF0EDFA019B05009E425DD00DF0E0
:102240000DF80368222B55D00DF008F80368002B19
:102250004BD00298B84204D043469968013105F04A
:10226000C7FFFF202368284002332360274C284BF8
:1022700021681A68FFF794FE23680833236009B0C9
:10228000C0BCB946B046F0BD373AD0B262E70326CB
:10229000012DBAD10B7802AA90461372B9E7320029
:1022A000380005F093FFB4E7573FFAB27EE7573D99
:1022B000EBB28DE7573AD1B260E7573AD0B249E76F
:1022C000373AD1B25AE745465D5D373F2B00303B88
:1022D000DBB2FAB2092B00D96FE779E7373DEBB2F1
:1022E000FFF7D4FA2268336876E70CF0B7FF4B4665
:1022F0000360AEE7074806F0E5FB064806F0B2FBD0
:102300002B000549054806F0F5FBC046D88900209A
:10231000DC89002018040110C8030110E00301103B
:10232000F0B5DE46454657464E46E0B58FB00993B8
:1023300000238B460B6041681500049013600C93DA
:10234000002900D1D4E0002203926C4A0368059270
:102350006B4A994608926B4A002606926A4A002305
:102360000024079201910A9513E0092D00D178E02D
:102370000A2D00D073E0039A059B94461B68002643
:102380009C44634603930023019A01340C949442C5
:1023900012D24A46155D202D5DD0E6D95C2D19D1AB
:1023A00004980CA9FFF78AFE0C9C019A01340023C3
:1023B00036180C949442ECD30A9D039A059B9446DC
:1023C0001B6863442B600FB0F0BCBB46B246A94605
:1023D000A046F0BD069A12680292079A12689046CB
:1023E000002B0ED0029BB04401332DD0029E5B46E1
:1023F0001B684644B34200DA33005A461360012397
:10240000C2E702990D944B1C42D041442A0023009C
:1024100000278A465C2A2DD04A4601330D93D25CB0
:102420005744202AF6D8099B01335FD0099BBF1976
:102430009F42D7D9039A059B94461B689C446346E8
:102440000393029B0133D1D12D48203D0268EB005C
:102450005B199E5CCBE7089B1B681B78F618002372
:1024600092E7274803681A7893009B185B00F618D8
:10247000002389E704980DA9FFF720FE4A460D9B2B
:102480003F18D25C202AC5D8099B0133CED12DE05C
:102490001B492B00220000278A460B945C2B14D08A
:1024A000203BDC005046A446016863445B5C474423
:1024B000DF194B4601329B5C0D92202BEED8099B15
:1024C0000B9C0133B2D1B044BFE704980DA9FFF7CC
:1024D000F5FD4B460D9A3F189B5C202BDED8099BDF
:1024E0000B9C0133A2D10648B044AEE7B0447DE76F
:1024F00000230393014B05935FE7C046C40F002000
:10250000AC0F0020BC0F0020C00F0020F0B55746D4
:102510004E46DE464546E0B5554F8BB03B684268B7
:102520009C468C4400936346059300230600089361
:10253000002A00D197E0002000244E4B04919A46D7
:102540004D4B01934D4B0293336806A99B461B5D8F
:10255000CB71202B3ED021D8092B31D00A2B08D1AA
:10256000009B01993B60534609681B685B18514604
:102570000B600020013408949442E5D35346019A3D
:102580001B6812689B1852461360009B3B600BB09F
:10259000F0BCBB46B246A946A046F0BD5C2B06D1B6
:1025A000300008A9FFF7AEFD089C7268E1E700283B
:1025B00017D006ABD81DFFF711FD01207268D9E7CF
:1025C000029B1B6819788B005B1839685B005B18ED
:1025D0003B60CEE7029B39681B681B785B183B6049
:1025E000C7E7274922008946264909948846234996
:1025F000002503914146B0464E46A1465C46BB4687
:102600000F0010E03168481C05D10399203B086891
:10261000D900CB18195C3B680132ED18A35C6D182A
:102620000992202B0AD95C2BECD1404609A9FFF76F
:1026300045FD099A2D18A35C202BF4D8049B4C4629
:1026400046465F460133B4D03B68ED18059B9D427A
:10265000AFDD009B019A3B60534612681B689B18D4
:1026600052461360A5E7034B9A46034B019385E757
:10267000D8890020DC890020C40F0020AC0F002086
:10268000BC0F0020C00F002030B51D00040083B037
:10269000019101A869460092FFF76AF9019A054B7A
:1026A00029001A60044B009A20001A60FFF72EFFE1
:1026B00003B030BDD8890020DC890020F0B50400CB
:1026C0002600184F0B0083B02021174A3800083627
:1026D00004F0C0F8380026600CF076FE0500030018
:1026E00001900F280CD8012807D13A7822720022D5
:1026F00020006360F25403B0F0BD0028F7D008E07A
:102700000022200001A906F0D5FA0600019B2060F6
:10271000A36030002A00390005F058FD019B2668AF
:10272000E5E7C0466C8E00202004011010B5F024AF
:102730002401120222400F2409030A4304401443D7
:102740001A01FF2313401C43A0B210BDF0B5D646BA
:102750004F464646C0B50C1C171C1E1C051C05F038
:1027600031FB011C281C05F04EF96B4905F065F999
:10277000051C05F027FB011C8146281C05F043F9C8
:1027800066498246381C05F058F964498046301C79
:1027900005F053F9071CFE20211C800505F033F9D4
:1027A000414605F04AF905F0D9F9211CC6B2504658
:1027B00005F043F9011CFE20800505F024F941468F
:1027C00005F03BF905F0CAF9C5B2FE205146800577
:1027D00005F019F9211C05F030F9011CFE208005D7
:1027E00005F011F9414605F028F905F0B7F9C4B232
:1027F000484605F081F9062104F098F8052900D92A
:1028000087E0474B89005B589F46404605F0A6F994
:10281000F02300021B01184036030643381C05F064
:102820009DF9FF230001184006430F20204030434C
:1028300080B2E0BCBA46B146A846F0BD381C05F0EF
:102840008DF9FF23040140461C4005F087F90F2352
:102850001840F023204336032D021B0130431D4056
:10286000284380B2E5E7381C05F078F9FF2305011D
:1028700040461D4005F072F90F22F0231040360249
:102880001B0128431E4030432403204380B2D0E77D
:10289000381C05F063F9FF23040140461C4005F095
:1028A0005DF9F023C0B2000304430F2036021B0180
:1028B0001E4034432840204380B2BAE7381C05F05C
:1028C0004DF9FF23050140461D4005F047F9C0B210
:1028D00000030543F0230F20240230401B0128434E
:1028E0001C40204380B2A4E7404605F037F9F023AE
:1028F0000F241B010002184034400443381C05F02B
:102900002DF9FF230001184004432D032C43A0B2EE
:102910008FE7F0208DE7C0460000C0400000704106
:1029200024040110F8B5070010200D00160005F072
:1029300053FC04001022002105F042FC2760656072
:10294000002E02D0A6602000F8BD7D43094B680030
:102950009D420CD805F044FC0600012D03D4002153
:102960006A0005F02DFC0123A6602373EBE701202C
:102970004042EFE7FCFFFF3F30B504000598039DA0
:10298000844665440020A54211DBA218039CA242A4
:102990000DDB069C049AA44662448A4207DB049A33
:1029A000CB180499D817D20F8B425041C0B230BD1A
:1029B000F0B5C646146800B5A046089C069EA4461D
:1029C00044460768B4443C19079D644500DD6446ED
:1029D000B74200DA3700E41BE743FF173C401460BE
:1029E0000C681A68099FA2187F19BA4200DD3A00E4
:1029F000AC4200DA2C00121BD443E41722401A60C8
:102A00000368B34200DA330003600B68AB4200DABC
:102A10002B000B6080BCB846F0BDC04630B504004A
:102A2000002094420EDB99420CDB039DAC466244CD
:102A3000A24207DD049A0120944663448B4200DCE5
:102A40000020C0B230BDC04610B5FEF73DFE0120EB
:102A500010BDC046224BA0201A6801239340214993
:102A6000C00510B5445823420DD043501E490B8871
:102A700001331BB20B80782B06DD012300225B4261
:102A80000B801A4B1A7010BD194B1B6898680B8885
:102A90001BB2002B06DD0B881BB2013B1C01E31AA5
:102AA0001B01C0180C883C23002C07D1A021C905AC
:102AB0008C46920162441060D361E4E70B88920176
:102AC0001BB2783B59424B413B215B428B43A021D7
:102AD000C9058C46783362441060D361D3E7C046A1
:102AE000381900200C040000D40F0020569200205A
:102AF000048A002001238340054A002012681A42FC
:102B000005D1044A10681840431E9841C0B270476E
:102B1000CC890020E089002010B501F0F1FC0029EB
:102B200005D0FA220023920003F066FF10BDFA21BF
:102B3000890003F023FFF9E710B501F0E1FC10BDB7
:102B4000D021012209064B681B0A1A42FBD1D02171
:102B5000012209064B681B0A1A42FBD07047C04687
:102B6000014B18787047C04656920020174A1378D8
:102B7000002B00D0704701211170154A1380154BAE
:102B80001B68996813881BB2002B06DD13881BB2E3
:102B9000013B1801C31A1B01C91810883C230028E7
:102BA00009D1A020C00584460B4A126892016244F4
:102BB0001160D361DEE713881BB2783B5A42534160
:102BC0003B225B4293437833EBE7C04656920020AA
:102BD000D40F0020048A002038190020F0B5CE461A
:102BE000474680B5334B87B004000D001868324962
:102BF000984605F0BDFC80235B020293C0231B03B3
:102C00000493030080271233C2011B0313432B4A92
:102C1000FF0513403B430393012306009946290017
:102C20002000009307220133059705F0C1FD244BD6
:102C3000244A0293049B290013400493059A224BD3
:102C400020001A40214B134305930022C02305F0B6
:102C500007FDC02229002000C02305F055FD049B7C
:102C600007209B009B081F4343461968184B049795
:102C70009C4661444B1E9941063100F0EDFC4346F1
:102C80001968134B06209C4661444B1E994106313E
:102C900000F0E2FC320002AB2900200005F0DCFD70
:102CA0004B46AB4022681343236007B0C0BCB94613
:102CB000B046F0BDD80F0020B8040110FFFFFF9F01
:102CC00000010200FFFFF5C1E0830FFC07181000B0
:102CD0000000E0AF10B504F0E7FE0B4904F099FEE8
:102CE0000A4905F08FF80A4B0A491C6804F0A5FE52
:102CF000FC21890504F08AFE04F030FF6040064B99
:102D00000004000C186010BD0000C842333333408B
:102D10008400054000FF7F4784100540F0B5C6469B
:102D2000264B00B51E68040030000F0004F0BCFE06
:102D3000011C234804F06DFE051C200004F0B4FEC5
:102D4000011C281C04F065FE804604F007FFC5B294
:102D5000280004F0AFFE011C404604F054FE83211D
:102D6000C90504F06AFE04F0F9FE2D01154A33048A
:102D7000C0B21B0C054395663800536704F094FEFF
:102D8000114904F046FE114905F03CF8071C2000EB
:102D90000F4B70430F491D6803F0F0FD04F084FEF3
:102DA000391C04F04AFE04F0D9FE000468400A4BC6
:102DB000000C0004186080BCB846F0BDD00F0020A5
:102DC000286B6E4D000005400000C8426666E63F75
:102DD000700005401027000070100540D0231B062E
:102DE0005868704700B585B001F076F8064B074A81
:102DF000029300230193064B009301235B4201F0F1
:102E000061F905B000BDC046F015002018FCFFFFB9
:102E1000492A0010F0B5DE4657464E464546002288
:102E200088218024E0B51A4B1A4885B058509A671B
:102E30001A5104341A5110325850DA670F3A843953
:102E40009A670C2000F008FC134B144A1B680D20F5
:102E50001B041B0C136002F07FF80A2001F09AFAA1
:102E60000F4803AB02AA01A900F0E2FA002803D13F
:102E70000C480B4902F038F9039A0299019800F0C6
:102E80009BFAD0231B0600240126172798460EE044
:102E900000000540FFFF000084000540841005404D
:102EA00090D003003C0401100134202C13D03500D5
:102EB000A5402F42F8D00521280000F0CDFB3300BB
:102EC0004246AB400121936228000022013400F009
:102ED000DBFB202CEBD1D026002404253606012C68
:102EE00006D10521022000F0B7FB01347562B561FF
:102EF0000134E4B2202CF2D105F070FD1F211A201C
:102F000000F0AAFB002200211A2000F0BDFB0021E6
:102F10001A2000F0CBFB9C239846FE4BFE4D9B46AF
:102F200043465A468C27EA50982000239422EB51BE
:102F30008146AB505E462B5040462E5090268C3832
:102F4000933A8246A8510421EA51023800F084FBEA
:102F50008823584600218022E850A967A9500432EE
:102F6000A950E8505046833AE8670431AA6703380D
:102F700000F072FB40465B4694212B500023EB513E
:102F80006B50494658466B504146012268505146A5
:102F90000F20A951EA510C3900F05EFBDF49E048EF
:102FA00005F0A6FCD0270521042000F055FB514672
:102FB0003F0679626420B96101F0ECF9514671363F
:102FC000FF36796109200B3900F046FB7E6205214E
:102FD000052000F041FB7C620121062000F03CFB53
:102FE0000121072000F038FB012269467C61CC48B2
:102FF0000A73BC6103A9BE610CF09EFF7C610520D1
:1030000001F0C8F93623694601220B73C448BC613C
:1030100003A9BE610CF090FF7E610122C149C04846
:103020000CF08AFF352369467C6101220B73BC4892
:10303000BC6103A9BE610CF07FFFBB4B7E61190030
:103040000122B74898460CF077FFB22369467C61AD
:1030500001220B73B248BC6103A9BE610CF06CFF86
:1030600041467E6105220431AD480CF065FF3A23EC
:1030700069467C6101220B73A948BC6103A9BE614A
:103080000CF05AFF7E610122A849A5480CF054FFBC
:10309000262369467C6101220B73A148BC6103A908
:1030A000BE610CF049FFA24B7E61190001229C48D1
:1030B00099460CF041FFB72369467C6101220B73EE
:1030C0009748BC6103A9BE610CF036FF7E61012206
:1030D000984993480CF030FFBB2369467C6101227C
:1030E0000B738F48BC6103A9BE610CF025FF7E61A4
:1030F000012291498A480CF01FFFC02369467C6178
:1031000001220B738648BC6103A9BE610CF014FF59
:103110007E610122894982480CF00EFFC223694674
:103120007C6101220B737E48BC6103A9BE610CF077
:1031300003FF49467E61012279480CF0FDFEC3235E
:1031400069467C6101220B737548BC6103A9BE61AD
:103150000CF0F2FE7E610122794971480CF0ECFE20
:10316000C42369467C6101220B736D48BC6103A9CD
:10317000BE610CF0E1FE7E610122724968480CF0EC
:10318000DBFED02369467C6101220B736448BC617D
:1031900003A9BE610CF0D0FE7E6102226A4960483C
:1031A0000CF0CAFEC62369467C6101220B735C48A1
:1031B000BC6103A9BE610CF0BFFE7E6101226349C0
:1031C00057480CF0B9FEE02369467C6101220B737D
:1031D0005348BC6103A9BE610CF0AEFE7E610E22B5
:1031E0005B494F480CF0A8FEE12369467C6101224F
:1031F0000B734B48BC6103A9BE610CF09DFE7E6160
:103200000E22544946480CF097FE212369467C6102
:1032100001220B734248BC6103A9BE610CF08CFE15
:103220007C61732001F0B6F81123694601220B730B
:103230003B48BC6103A9BE610CF07EFE29236946B0
:103240007C6101220B733648BC6103A9BE610CF09E
:1032500073FE2A2369467C6101220B733048BC61EE
:1032600003A9BE610CF068FE0C217E61414404227A
:103270002B4889460CF060FE2B2369467C610122B5
:103280000B732748BC6103A9BE610CF055FE49468B
:103290007E61042222480CF04FFE2C2369467C619B
:1032A00001220B731E48BC6103A9BE610CF044FEF1
:1032B0007C610820BC617E6100F00CFA80235B0019
:1032C000254CBB62254F21683868FFF787FC3A68B8
:1032D000234900265018411E8841224BC0001E6021
:1032E0002368214CC018C1030C43A02104339B0068
:1032F000D218C9050E604A608E600C6101241B4B18
:1033000001211C6000F05EFA0B20194900F074FAEC
:1033100030E0C046FFFF00000000054000127A00C8
:1033200000C0034070040110E8040110740401108F
:10333000780401107C040110800401108404011041
:10334000880401108C0401109004011094040110F1
:1033500098040110A8040110308E0020D80F00201E
:103360000000E0AF3819002019004000042400508C
:10337000552A001001210B2000F024FA5B466E66EE
:10338000EE662E676B6753460421AB660B206C66B6
:1033900000F062F9064B074A1B681B0C1B04136004
:1033A00005B0F0BCBB46B246A946A046F0BDC0463B
:1033B0007000054070100540F0B583B005000E00A8
:1033C000140000F0A5F9002801D003B0F0BD154F9E
:1033D00001223B0001210097053001F07FFB330003
:1033E0002A0000940121104801F060FD210028000E
:1033F000714303F0C3FA04000C4B00220093022136
:10340000042001F06BFB2300002201210094052021
:1034100001F064FB3B00022200210097062001F02E
:103420005DFBD2E7006CDC0200800240001BB700AD
:10343000F0B5DE464E4645465746E0B5060085B037
:1034400004209A468B46019201F02AFDFA21890058
:1034500003F094FA3223FF3398467D4B850099465A
:103460005B460293534682462D18AD010393794B78
:10347000EB184B450AD901235B429C465346E04476
:10348000ED1A4346002BF2D100208BE031212800B9
:1034900003F074FA07243127864263D0671EA346DF
:1034A00034003E005F4677432800390003F066FA97
:1034B00084424CD0731E0093012E00D1B1E05B46D4
:1034C000FF1A3900280003F059FA844256D0B31E7F
:1034D0000093022E00D1AFE05B46FF1A39002800AE
:1034E00003F04CFA844264D0F31E0093032E66D09E
:1034F0005B46FF1A3900280003F040FA844269D085
:10350000331F0093042E6BD05B46FF1A390028004E
:1035100003F034FA84426BD0052E6DD02800F91FD9
:1035200003F02CFA844200D171E006232421280004
:103530009B46242703F022FA844211D005265F46D9
:1035400077432800390003F019FA8442B2D10029E8
:10355000B0D1029B5F469B46039B34009A4615E020
:1035600026005C463900280003F008FA002995D1AE
:10357000029B27009B46039B9A4607E00029A6D1A1
:10358000029B5F469B46039B009C9A465B466A01F2
:10359000521B92005219D2001A60019B01201F6039
:1035A00053461C6005B0F0BCBB46B246A946A046D7
:1035B000F0BD0029E4D0F31E0093032E98D103231D
:1035C000092128009B46092703F0D8F98442C7D077
:1035D000022667E70029D3D0331F0093042E93D12E
:1035E000042310279B462B099C42B9D0032659E798
:1035F0000029C5D0052E91D119212800192703F0E3
:10360000BDF9A04221D0052304269B464AE70029A4
:1036100000D08AE7029B5F469B46039B01249A46A3
:10362000B4E72600AC4200D025E7029B01279B4669
:10363000039B01249A46A9E7022304279B46AB0873
:103640009C4200D18CE701262CE72600052489E75F
:1036500050F80C00508EF4FF094A10B594464024EF
:10366000830063441A68C0006240803414408022A2
:10367000520113431C60034B9C466044416010BDE3
:1036800004C0014000400140074B80009C4660445C
:103690000368C90092000A435A400C231A40802351
:1036A0005B0103431A60704704C00140084B80006F
:1036B0009C466044002905D0802340229B0103439F
:1036C0001A607047C02340229B0103431A60F8E749
:1036D00004C001400123D02283401206936293610B
:1036E000094A40219446830063441A68C0004A4056
:1036F000803111408022520113431960034B9C46D4
:10370000052360444360704704C00140004001400D
:10371000024B18688007C00F7047C04600C00640C3
:10372000EFF3108072B6034A1368002BFCD0BFF38E
:103730005F8F70472C0100D0BFF35F8F0022024BD8
:103740001A6080F3108870472C0100D070B5EFF339
:10375000108C72B60D4D2B68002BFCD0BFF35F8F21
:103760000724CB08C618C05C01230C40A3401C00F2
:103770000440034207D118433070BFF35F8F2C60C1
:103780008CF3108870BD100001F0AEFC2C0100D04D
:103790000021044B044ABFF35F8F02C39342FAD166
:1037A0007047C046000100D0800100D0044A107864
:1037B000431CDBB2172B00D9102313707047C0468F
:1037C000DC0F002001238340002904D0034A13604A
:1037D000034A13607047034A1360FBE780E200E08E
:1037E00000E100E080E100E0024B10309B688000C7
:1037F000C058704700ED00E070B50D00EFF3108683
:1038000072B60F4A1368002BFCD0BFF35F8F0D4BCD
:1038100010309B6884001B590B4A934203D09D4291
:1038200001D001F079FC074B9B681D51BFF35F8FFE
:10383000BFF35F8F0022024B1A6086F3108870BDC1
:10384000240100D000ED00E0CD010010F0B5DE460F
:1038500057464E464546E0B50C0083B0EFF310885E
:1038600072B65D4A1368002BFCD0BFF35F8F5B4BD1
:103870005B499A68030010339F00D5598D4239D0B7
:10388000A5424AD0574EAA1B2F2A33D8012292466E
:10389000824091464846544A12681040019048467A
:1038A000524A1060BFF35F8FEFF305829346002A00
:1038B00035D0934201D001F02FFC2A0053469A43A1
:1038C0009068844208D175E04B005B189B00F318A8
:1038D0009868A04234D01A00062151560029F3DA24
:1038E000844253D0019B002B26D04A46404B1A609D
:1038F0003D4B1A60394B9B68DD51BFF35F8FBFF3BF
:103900005F8F0022344B1A6088F3108803B0F0BC3C
:10391000BB46B246A946A046F0BD0D00EAE72A0024
:1039200053469A4390688442D6D10620105613001D
:10393000002809DA0D0031E04A462C4B1A60D9E71D
:1039400006201856002822DB42001118890074183E
:103950008A46A1689960E179D97106216156997109
:10396000002925DBA488F11A64052415544409199B
:10397000E0240905490D24022143998013181D4AAA
:103980009B001178F31899711070ABE7130059463A
:10399000002914D1FF3191711749918015490A7896
:1039A0009A71164A9B1B5B415A43120D0A7099E7A4
:1039B0001349E2E70620105613000028C4DA114A22
:1039C0001149D21A083A5002400D014399800F491B
:1039D00052080A43DA8085E7240100D000ED00E0B8
:1039E000CD010010E00F002000E100E080E100E0E8
:1039F00080E200E05992002001BDFFFFAAAA00006A
:103A000001BD00001A10002000F0FFFF00F8FFFFCA
:103A100070B5EFF3058101240443EFF3108C72B607
:103A2000214A1368002BFCD0BFF35F8F1F4B0500AA
:103A30001F4AED1A6D416A43120D1E4D8900AE6892
:103A400052B27658A6421CD00621595691421CD03B
:103A500012215956914222D01E215956914220D00E
:103A60002A2159560324914210D0134B19781A7009
:103A70008171BFF35F8F00220B4B1A608CF31088AB
:103A800070BDAB680D4C5C50EFE700246100091974
:103A900089005B18FF21997109499980E5E70124A4
:103AA000F4E70224F2E7C046240100D0E00F002032
:103AB000AAAA000000ED00E059920020CD010010FC
:103AC00001BDFFFF054B064A1360064A13605360B1
:103AD0009360D360136153619361704780808080ED
:103AE00000E400E004E400E0024B9C4661448900ED
:103AF000016070474000003410B50400FFF756FE27
:103B000001002000FFF7F0FFFF232371BFF35F8F59
:103B100010BDC04610B50400FFF748FE01002000AC
:103B2000FFF7E2FFFF23A380BFF35F8F10BDC04606
:103B300083680B4810B58446614462441201090150
:103B400059189B185C684A680120944201D802D039
:103B50000020C0B210BD1A680B689A42F9D8F7E786
:103B6000FFFFFF0F10B508000B690C0098470028F5
:103B700002D02068616810BDE06000210020FAE7F3
:103B80000A4B1968EFF3108072B60A68002AFCD05D
:103B9000BFF35F8F1B68BFF35F8F00221A6080F353
:103BA000108840BF002000217047C0463C92002092
:103BB000F8B5574645464E46DE46E0B598460CAB4E
:103BC0001C780DAB1B78070091469A460568002CBF
:103BD00059D1AC7B002C3BD0660029683619033ED6
:103BE00089194B78AB73002B00D1EB7300238B70DA
:103BF0004B700B702D4BE218BB6812019B184A46A4
:103C00001A6042465A600A9A9A600B9ADA60002358
:103C10008B704B700B706B7B9B46002B26D0220069
:103C20006B685946A86898475B465B005B442A6806
:103C3000033B002812D058469619B070D118D35CB7
:103C4000002B00D073705B460C706B735C450ED01C
:103C5000F0BCBB46B246A946A046F8BDD3189C703E
:103C60009119925D002A1CD15B460B706C734A4619
:103C70004346387D00F0D8FC051E0AD10E9B002B70
:103C8000E6D01D70E4E7660029683619033E8919FD
:103C9000B0E75346002BF1D12100386800F0E2FE76
:103CA000ECE75A705B460B706C73E0E7FFFFFF0FA9
:103CB000F0B5DE4657464E4645460023E0B58BB08C
:103CC0000893674B8200D45800239B46099000F06C
:103CD00017FC02000B006068EFF3108A72B65646BC
:103CE00001680029FCD0B246BFF35F8F21684F7B8B
:103CF0008C46002F2ED0A5685A49A946791809018B
:103D0000894449460868496805000E00AD1A9E417D
:103D1000002E5FDD02000B00099800F085FC0023F7
:103D20000022994600230692079300239846636871
:103D3000BFF35F8F5A461A608AF310884346002B00
:103D400012D10028C3D10BB0F0BCBB46B246A94685
:103D5000A046F0BD00230022994600230692079357
:103D6000002300209846E2E7089B494618023843A2
:103D7000C047626805000E00EFF3108A72B6136840
:103D8000002BFCD0BFF35F8F002E40DB2B003343B2
:103D900002D02369002B55D12368D97B002905D097
:103DA0001A68480041185218033A57709A7B002A43
:103DB00000D19F73DF73E268013FD35D0133D355B8
:103DC0005B4623616368BFF35F8F5A461A608AF3CC
:103DD00010887CE7002E01D1002D9BD10021604688
:103DE00000F0BEFD4B461A685B68069207934B468F
:103DF0009B6898464B46DB689946E368DB19013BB4
:103E00001B7808931B020343236100208FE723697B
:103E1000002BC1D0069A079B8021521BB341090693
:103E20008B4202D30122104B5242002104910131F6
:103E30000391494601914146200002970091FFF706
:103E4000B7FEBDE700F05CFB2A00330012184B41BF
:103E5000802109068B42E8D30122034B5242E4E75A
:103E600028920020FFFFFF0FFFFFFF7F10B5144CCB
:103E70006368002B04D00A211248FFF735FE10BDFD
:103E80002300114A1021206800F086FC032000F076
:103E90002BFB032000F036FC03200C4900F07EFBD6
:103EA000FFF784FC0A4B9C4603232375D0231B0693
:103EB0001B6860446375074B80006060DC60DAE774
:103EC000281000203C920020313B0010B13C001033
:103ED000400000342892002000487047281000203D
:103EE000F0B557464E464546DE46E0B585B00193EF
:103EF00010AB1B780600039300239A469846009265
:103F00007268EFF3108B72B61368002BFCD0BFF30E
:103F10005F8F3568AC7B002C00D16DE067002B68AB
:103F20003F19033FDB195A78AA73002A00D1EA73BC
:103F3000484AA118B2680901521800980199106006
:103F400051600E9991600F99D16042469A705A70F3
:103F50001A706B7B9946002B6BD022006B68494628
:103F6000A86898474B465B004B442A68033B0028EF
:103F700056D04846D719B870D118D35C002B00D062
:103F80007B704B460C706B734C4553D0F3681B1918
:103F9000013B18787368BFF35F8F42461A608BF35A
:103FA00010885346002B08D10002204305B0F0BC16
:103FB000BB46B246A946A046F0BD039B002B46D0A7
:103FC0000E9B00200F99984703000B433FD004003D
:103FD0000D1E1ADA009A019B121BAB41009201934D
:103FE00080221206934204D301231B4C5B420093B0
:103FF0000194039B9A4683E77368BFF35F8F1C604D
:104000008BF3108801204042D0E700F079FA80223B
:10401000001969411206009001919142E9D3E3E74A
:10402000D3189C70D119D25D002A00D05A704B462B
:104030000B706C73307D009A019B00F0F5FA82469C
:104040000028A3D02100306800F00CFD9EE700207E
:10405000ACE7C046FFFFFF0FFFFFFF7FF8B50B0087
:1040600004004168EFF3108572B60A68002AFCD09C
:10407000BFF35F8FFF222068D9B2467B1A408E4281
:1040800007D006685700BF18F619033EB678002E11
:1040900010D0E6681B0AB218013A1278DBB29A42D5
:1040A0000DD000206368BFF35F8F00221A6085F394
:1040B0001088F8BD22699A42F3D12661F1E700F039
:1040C000D1FCEFE7F0B557464E46DE4645461100B7
:1040D000E0B585B006009C46109F194300D1E7E08B
:1040E0006146DB170193009353401C00019B4B403A
:1040F0001D0000980199241A8D4163460E997B603A
:104100000F9BBE607B6139613A6000F0F9F9802352
:10411000001969411B0600900191994204D30123C3
:10412000684C5B420093019400239846664B1097BD
:10413000039300239946109B3700464698467A68B9
:10414000EFF3108B72B61368002BFCD0BFF35F8FB8
:104150003D68AC7B002C00D178E063001B19033B69
:104160001A00944602932B6863445A78AA73002A73
:1041700000D1EA73554AA118BA680901521800988B
:10418000019910605160039991604146D1604A469F
:104190009A705A701A706B7B9A46002B00D17AE0A5
:1041A00022006B685146A868984753465B00534409
:1041B0002A68033B002864D0D1188C4651460298E7
:1041C00010188170D35C002B00D0437063461C70C4
:1041D00053466B73350054455ED0FB687A681B19F3
:1041E000013B1B78BFF35F8F494611608BF310884A
:1041F000002D0CD147461B02234301352800FB60EC
:1042000005B0F0BCBB46B246A946A046F0BD434649
:1042100040461B699847061E24D043460CCB10002D
:1042200018434BD014001D1E1FDA009A019B121B6D
:10423000AB410092019380221206934200D27EE7A6
:104240000123204C5B420093019478E73E004746EF
:104250007368BFF35F8F1C608BF310880123002508
:104260005B42CBE747460023C8E700F049F98022CC
:1042700000196941120600900191914200D25EE757
:10428000DEE70298D3189C701118125C002A00D047
:104290005A7053460B706C73387D009A019B00F086
:1042A000C3F9051E99D02100386800F0DBFB94E7C4
:1042B00000230124002501229C461EE747463500C5
:1042C00000239BE7FFFFFF7F653B0010FFFFFF0F11
:1042D000F0B504000D0006267642F717C6463619DB
:1042E0006F4100B584B08F4214D811D000F008F9A6
:1042F00032003B00121A8B41002B15DC002B3ED004
:104300002000290000F03AF904B080BCB846F0BDA6
:104310008642EBD90026002700F0F2F832003B007D
:10432000121A8B41002BE9DD002302930193154BF8
:104330003200009314483B00FFF7D2FD0028DFDB7A
:1043400000239846BC46114A114F7B6A9C4504D80D
:10435000B96A8E42D4D99C45D2D11168EFF310804E
:1043600072B60B68002BFCD0BFF35F8F1368BFF3EE
:104370005F8F4146196080F3108820BFE5E7002A6F
:10438000BED0D1E7813B0010281000203C920020D5
:104390000040054070B5060000F0B2F8FA220400B3
:1043A0000D00002330000021920003F00FFB80235A
:1043B000001969411B06994202D30120024940427B
:1043C000FFF786FF70BDC046FFFFFF7F70B5EFF3BC
:1043D000058305000C0084B0002B0FD0104A00208C
:1043E000536AA34203D3926A0130AA4201D304B0B4
:1043F00070BD1B1B5A1E9341D8B2F8E7094E0293B9
:104400000193094B0200009330000B00FFF768FD99
:10441000011EE3DD20BF3000FFF720FEDEE7C046CF
:104420000040054028100020813B0010F0B5EFF35C
:104430000582D6464F4646461000C0B51038EFF309
:10444000108872B6214C2368002BFCD0BFF35F8F1D
:104450000123190081401E4D1F006963AA461D4DAE
:1044600029601D4D2E78AC463500C5402F402B42AB
:1044700015D053465F6A194B8500EB589F4218D3FD
:104480006246174B8E43EB581670BFF35F8F0022C6
:10449000226088F31088002B06D0984704E0BFF311
:1044A0005F8F276088F31088E0BCBA46B146A84603
:1044B000F0BD0C4B92009C46624413681360BFF33E
:1044C0005F8F0023236088F31088EDE7280100D078
:1044D000004005403C7005405A9200204092002068
:1044E000A8910020D03F054010B5034B01001800F3
:1044F000024AFFF72BF910BD58920020688801107E
:10450000034B596A0A00986A596A8A42FAD170477D
:104510000040054070B504000D00174A536A1900A9
:10452000966A536A8B42FAD13000190024184D4123
:10453000AB4216D813D0104B2A005B6A9D4203D9B8
:104540000D494B6A9342FCD3934207D10A4A02E0D9
:10455000516A994202D1916AA142F9D370BDA64233
:10456000E9D9054B5B6A1C005A1CEFD001220124DB
:104570006442E5175242E3E700400540064A536AA9
:104580009942FCD807D1044B02E05A6A914202D109
:104590009A6A8242F9D370470040054070B5040022
:1045A0000D00EFF3108672B61A4A1368002BFCD088
:1045B000BFF35F8F002D1BD02000FFF715F91649C0
:1045C00081420AD02000FFF717F901212000FFF7F0
:1045D000F9F80123A340114A1360114BA400E550E0
:1045E000BFF35F8F00220B4B1A6086F3108870BDFB
:1045F0000121A1400A4BA200D5500A4B20001A7895
:104600008A4305491A70FFF721F900212000FFF7BE
:10461000D9F8E5E7280100D02D44001038600540A6
:10462000A89100205A920020F0B54F46D646464643
:10463000C0B507002E4C616A0D00A66A616AA942E6
:10464000FAD18B4208D805D00120E0BCBA46B14669
:10465000A846F0BDB242F7D9EFF3108A72B62548EA
:1046600001680029FCD0BFF35F8F0125BD402249BE
:104670001F4C8846097889462943C9B28C46414671
:1046800060460870391D890065630A511B49B800EE
:104690004350216A0020294219D0616A0800A66AA5
:1046A000616A8142FAD18B4219D801D1B24216D83F
:1046B000CC450BD00E4B1F221D625D6301233A4097
:1046C00093400F4A136043464A461A700120BFF3D5
:1046D0005F8F0022074B1A608AF31088B5E700202D
:1046E000BFF35F8F0022034B1A608AF31088ACE798
:1046F00000400540280100D05A920020409200203E
:1047000080E200E0EFF3108C72B60A490B68002BD0
:10471000FCD0BFF35F8F01238340074A0748136231
:1047200002789A430270BFF35F8F00230B608CF313
:1047300010887047280100D0004005405A920020A0
:1047400070B506000D00140000291DD0002A12D0FB
:1047500073688068984762006B0012195B193168B2
:10476000033A033B002808D08A189570C818CB5C20
:10477000002B0BD10470280070BDCB189C708818DA
:104780008A5C002A05D105702000F5E7537004709B
:10479000F1E75A700570F7E710B583600023CCB2DB
:1047A00043730133426004738373C4730068421C13
:1047B000012C05D90133DBB2137003329C42F9D1CD
:1047C000FF230B405A00D318C0180023033843704E
:1047D00010BDC04670B505000C1E07D0630001680F
:1047E0001B19033BCB185A78002A01D1200070BD59
:1047F000500080180338091800204E7848702100B6
:1048000058702800FFF79CFF310004002800FFF7D4
:10481000E1FF0600002C20D00028E7D03200210064
:104820006B68A86898477200630092191B19296881
:10483000033A033B002808D08A189470C818CB5C50
:10484000002B00D053700670D0E7CB189E708818EC
:104850008A5C002A00D05A7004703400C6E7C04653
:10486000F0B557464546DE464E46E0B50D006F00B2
:1048700001687F19033F0400C85D83B00192CA1923
:10488000002850D043001B18033BCB185E78B44679
:10489000002E1AD1019E002E42D0E67B002E04D0BD
:1048A00073009B19CB18033B5D70A37B002B00D1D9
:1048B000A573E57300282FD10023537003B0F0BC1B
:1048C000BB46B246A946A046F0BD72006244033A18
:1048D0008A185178884600215170894659703200F3
:1048E00001002000FFF72CFF43468246002B07D033
:1048F0005B0021684344033BCB185A78002A16D149
:10490000424651462000FFF71BFF2168019BCA1950
:10491000002BC2D10028CFD043001B18033BCB187B
:1049200000219970C8E7019B002BB6D1C4E7500065
:1049300080180338091848788346484648705870EC
:1049400041462000FFF7FCFE594680462000FFF755
:1049500041FF414602002000FFF7F2FE8046CFE70C
:10496000F0B557464546DE464E46E0B583B0019168
:10497000457B04006F0000687F19033FC15DC219C9
:10498000002952D04B005B18033BC3185E78B44635
:10499000002E1CD1019E002E44D0E67B002E04D0B8
:1049A00073009B19C318033B5D70A37B002B00D1E0
:1049B000A573E573002931D100232800537061737A
:1049C00003B0F0BCBB46B246A946A046F0BD72009B
:1049D0006244033A82185078804600205070814625
:1049E000587032002000FFF7ABFE43468246002B92
:1049F00007D05B0021684344033BCB185A78002A58
:104A000017D1424651462000FFF79AFE019B010054
:104A10002068C219002BC0D10029CDD04B005B18F3
:104A2000033BC31800209870C6E7019B002BB4D14C
:104A3000C2E7500080180338091848788346484672
:104A40004870587041462000FFF77AFE594680466C
:104A50002000FFF7BFFE414602002000FFF770FE76
:104A60008046CEE770B5050000292CD0437B8B42F1
:104A70002ED04C0000686418033C0419A278002A68
:104A800021D053009B18033BC25CC6188A4202D156
:104A90001BE0002A08D053009B18033BC3185A7828
:104AA0008A42F6D162785A70002301222800A3704E
:104AB0006370FFF7D5FE697B02002800FFF740FE18
:104AC0006873012000E0002070BD63783370EBE76D
:104AD00001221900FFF7C4FEF2E7C046F0B54546D3
:104AE0004E46DE465746E0B583B016000C9A0500E8
:104AF00088469A4200D973E01A0E93461B021800AA
:104B00000193594600230C9A01F076FF354B6C0057
:104B10009C466419A400644463680700834200D281
:104B200060602B1FDBB29946012B34D9C023802251
:104B30009B01234312011A602B4BAD0059599A4631
:104B4000002905D0586901F019FF01300138FDD165
:104B5000226873015340E0221A4080235B01234303
:104B60001A604A46012A2ED9802380229B012343C2
:104B700012011A60594600233A000198676001F05B
:104B80003BFF53465851012003B0F0BCBB46B24630
:104B9000A946A046F0BD4346012BC7D1C02303223E
:104BA0009B0123431A60023AA3681A42FCD0226890
:104BB00073015340E0221A4080235B0123431A60B3
:104BC000094AAD00924642462168514003220A40FC
:104BD0001A60012243469A40A3681A42FCD0C3E7F8
:104BE0000020D1E7008000400816002010B50C20FE
:104BF00082B000F0BFF9FEF78BFD002810D0864B85
:104C000086488649864A186059609860D96018615C
:104C100059619861D961186259625A6202B010BD37
:104C2000804CA06700F0AEF901227F4B1A60636CE4
:104C3000012BFCD103227D4B1A607A4A936B012B26
:104C4000FCD1013301217A4A7A480093043300F001
:104C50002DF90523784A00930121784800F026F9C0
:104C6000774B5A68FF2A02D8802252005A6080226D
:104C70006E4B694C12011A602169002905D06069E8
:104C800001F07CFE01300138FDD1E0226C4B6D4813
:104C900019680A40026002221968514001320A4034
:104CA000042102609A681142FCD08021664A090101
:104CB0001160802252005A60644B2361644B596832
:104CC000FF2900D85A6003220121574B1A60604A1D
:104CD00093681942FCD0E023106803405D480360EC
:104CE000126803234A4002211340594A0360936823
:104CF0001942FCD08021584B090119608021574B83
:104D0000490051606361564B5A68FF2A00D85960C8
:104D10008022544B12011A60E169002905D06069B4
:104D200001F02CFE01300138FDD1E0234C4A11681E
:104D30000B404D490B6080214C4B090119608021CB
:104D4000364B49005160E361494B5A68FF2A00D84D
:104D500059608022474B12011A60216A002905D050
:104D6000606901F00BFE01300138FDD1E023404ABB
:104D700011680B4040490B608021404B09011960CC
:104D800080235B0053608022244BD20223623C4B81
:104D90005968914200D25A6080223A4B12011A603F
:104DA000616A002905D0606901F0E8FD0130013831
:104DB000FDD1E023324A11680B4033490B6080215A
:104DC000324B090119608023DB025360144B63628C
:104DD0002F4B5A68FF2A02D8802252005A60802244
:104DE0002C4B12011A60A169002905D0606901F0FD
:104DF000C5FD01300138FDD1E023254A11680B4083
:104E000025490B608021254B0901196080235B0037
:104E10005360124BA36101E708160020006CDC020E
:104E20001BB70000008000403CB0004030B00040A4
:104E3000002F685900800240008C864700C0024065
:104E4000308000403090004030A00040001BB70090
:104E50003C8000403C9000403CA00040405973071B
:104E60005480004054B000405490004054A0004092
:104E70006080004060B000406090004060A0004052
:104E80006C8000406CB000406C9000406CA0004012
:104E90004880004048B000404890004048A0004092
:104EA000014B8000C058704708160020F8B5040078
:104EB0000C2017001E000D0001F060FD43011B1ABD
:104EC0009901C91AC90009188901380001F056FD75
:104ED000069B37041B031F432368002B22DB1A4B5E
:104EE0001A4EE218531E9A4180239B019C4652425F
:104EF000120B174B120362441A60164B1A60130010
:104F0000B1688B43FBD1C023221D9B011343212297
:104F10002560A0601A602268002AFCDA0822E76097
:104F20001A60F8BD3F2322681340AB42D7D1A36873
:104F30001B051B0D8342D2D1EE22E368D20213403F
:104F4000BB42CCD1EDE7C0460040FDBF00C00040F1
:104F500000E0004000F00040044B00011B68044AE0
:104F60005840F023034013607047C046004006409D
:104F7000005006408023024A9B000343D3627047DF
:104F800000800540AA23064A1B0113602F23054910
:104F9000D360054B19605368002BFCDA7047C0469C
:104FA0000040024000B0FA00006002402C4B2D4A45
:104FB00070B51A602C4A2D4B2D491A6014008B686D
:104FC0009C43FBD12B4D2C4EB54208D2013E761BA3
:104FD000B60808CD984723000134B342F9D1FFF752
:104FE00005FE264A214B1A60214A9368DB43DB0108
:104FF000DD09002BF9D14022214B224C224E9A6729
:105000005A671A67DA66B44208D223682000002B78
:1050100020D00834FEF77EFDB442F6D31B4C1C4E64
:10502000C022B168200003F0D1F8B460FEF7B0FBF5
:10503000FEF748FDFEF71AFF164C174EB44208D291
:10504000013E361BB60808CC98472B0001359E421E
:10505000F9D170BD0834FEF74FFDB442D5D3DDE77A
:1050600000E00040BFCDFBFEFE7F3C0000F00040B2
:1050700000C00040CC150020DC150020FFFFFF0120
:1050800000F00140C4150020CC15002000000020D5
:1050900000ED00E0DC150020EC15002000BEFDE76F
:1050A000094A03001068002805D00849C3188B423C
:1050B00007D81360704706480449C31810608B4234
:1050C000F7D901204042F5E70492002000000420B7
:1050D0005C92002000207047012040427047C0468B
:1050E00010B5FFF7DBFFC0460FB400B5084883B02A
:1050F00003F018F9049B002B07D005A918000191B3
:1051000001F0BCFB034803F00DF90120FFF7C6FFD7
:105110008C8801109C88011010B50148FFF7E4FF4E
:10512000A08801109A4200D2885470477047C04648
:10513000F8B55746DE464E464546E0B599460A9BC9
:1051400007009A460D9B884693460B9C9B073BD1D4
:105150000C9B9C423DD21E1B0B9415000C005E4420
:105160002A004B46013521002020B847B542F7D12F
:10517000A0460B9C002C20D0454636195346321BC6
:10518000013C185D29004B46B847002CF6D12B0096
:10519000350098460D9B9B070FD55B46EC1A0C9B80
:1051A000A3420AD9464698462A004B4631002020A1
:1051B0000134B84701354445F6D32800F0BCBB465E
:1051C000B246A946A046F8BD16001500002CD3D162
:1051D000E0E71600002CCFD11500EEE7F0B54F4602
:1051E0004646D646C0B584B098460EAB1B7894466A
:1051F0009946129B0D9C109F119E9A0725D4002E54
:1052000065D1BC4221D201221A409246202C00D105
:10521000E9E00C9A551E302202E0202C00D17BE000
:1052200001342A55A742F8D85246002A0DD0B4427C
:105230000BD20C9A551E3022202C02D171E0202C6A
:105240002DD001342A55B442F9D1DA063CD55A059D
:105250002ED4002C28D10F9A102A00D1B6E0022AB1
:1052600000D1BCE030220C9C227001244A46002A66
:1052700065D15A0700D499E02B220C9D2A550134A0
:1052800003930C9B62460093029643460194FFF7FA
:105290004FFF04B0E0BCBA46B146A846F0BD20249A
:1052A000DA06EDD55A0503D4A74266D0B44264D0DD
:1052B0000F9A102A71D0022A57D0202CE0D0220059
:1052C000013430250C9FBD54202CD9D0CEE70122CB
:1052D00015001D40AA461A4236D04A46002A4AD135
:1052E0000C321A4247D1BC42A1D2202C91D1202E9F
:1052F00017D82024DA06C3D55A051BD4202F01D095
:10530000202ED5D11F220F9D102D6FD0022DD8D168
:1053100062250C9FBD54D0E75246002A79D0202E3A
:10532000BDD92024DA06ABD55A0503D4202FE9D005
:10533000202EE7D00F9A102AA2D12024A0E72D22F8
:105340000C9D2A5501349BE7BC4200D37DE7202CFD
:1053500000D05EE7DA06F0D55A05EED4202F62D0F1
:10536000202EEAD134001F22CDE7202C00D187E780
:1053700022000134CCE7013EB5E7621E012CC2D108
:105380000F9A102A00D06AE79A063BD558220C9C47
:105390002270283A6270022468E79A060ED4202C04
:1053A000CBD078220C9D2A55013486E71A0700D409
:1053B00066E720220C9D2A55013461E7202CBCD0E1
:1053C00058250C9A12191570013476E79A0608D5FB
:1053D00058220C9C227030226270022446E7603210
:1053E000F7E77822F5E7002A83D1B3E7A21E013C54
:1053F0009D0603D478250C9FBD5460E758250C9F6B
:10540000BD545CE778220C9C2270483A62700224FA
:105410002CE7DA0600D433E75A058BD4202F00D0CE
:1054200044E71F226FE73C001F226CE710B50028FD
:1054300000D110BD02F02AFFFBE7C046F0B5574689
:105440004E464546DE46E0B599B0824689469046CE
:105450000893229A239B1000190001F050FD0028A8
:1054600000D0CDE0229823990122D94B524201F07D
:1054700041FD002800D0C3E0229823990122D54B9A
:10548000524201F029FD002800D0B9E0229823996A
:105490000022002301F020FD002800D0F1E1229E2F
:1054A000239F8023269ADB001A400D92269A1A42E7
:1054B00001D1062324938023269A1B011A403B0026
:1054C00093460996334300D0B3E0002A00D0C2E1EE
:1054D000002300240A930B94002304250993259BA1
:1054E0000024AB4200D95C1B0223269A1A400C927E
:1054F000269A134203D06B426B415B421C40099BCE
:10550000002B07D00A9A0B9B3000390001F083FC76
:1055100006000F00229823990022002301F0DCFCF2
:10552000002803D0802109067B181F00269AAA4B69
:10553000009601971340089E0493249B03940293C2
:10554000424633004946504600F0AAF90400002DB7
:1055500067D02020269A4946024013005A42534100
:105560005B42621C18400A92330022004530D0474B
:10557000099A6F1ED317D4185C40D30F9B460025A1
:1055800001E0202D13D008AA94461F232000634475
:105590000A2101355E1901F0F1F930313170200036
:1055A0000A2101F0EBF926000400092EE9D80523B1
:1055B0000693002304930A3303935B46089E0293E9
:1055C00010AB0A9A0093494633005046059701955F
:1055D000FFF704FE0C9A0400002A22D04246851AE6
:1055E000259AAA421DD9B0465746160022004346C6
:1055F000494620200135B8470134AE42F6D810E0C4
:10560000269B42460493259B49460393249B504680
:105610000293229B239C00930194089B00F040F985
:105620000400200019B0F0BCBB46B246A946A04613
:10563000F0BD6A4B78009C46400D604401F072FC5E
:10564000674A684B01F005FC674A684B01F0DAFBDA
:10565000674A3B031B0B1A4304000D000998110015
:10566000644B002201F0C5FB634A644B01F0F1FB7F
:1056700002000B002000290001F0C4FB01F06AFCCD
:10568000099001F04FFC5E4A5E4B04000D0001F0F2
:10569000E0FB00225C4B01F0B5FB01F05BFC5B4AD8
:1056A0005B4B29000C90200001F0D3FB04000C9808
:1056B0000D0001F037FC574A574B01F0CAFB0200BE
:1056C0000B002000290001F094FB04000D000200F3
:1056D0000B000A940B9501F0BCFB04000D000A9826
:1056E0000B9902000B0001F08DFB00220E900F9130
:1056F0004A4B2000290001F08EFB0022484B01F0AC
:1057000081FB02000B002000290001F084FB002235
:10571000444B01F077FB02000B002000290001F050
:105720007AFB0A9A0B9B0D0080210400C90500201A
:1057300001F05FFB02000B002000290001F062FB7A
:1057400002000B000E980F9901F065FB0022284B18
:1057500001F058FB344B0C9C9C466444230500220A
:1057600001F077FB04000D0002000B00300039004F
:105770000A940B9501F0B0FB00285DD123002A00AC
:10578000C625099963318D42AD4159466D420435B4
:10579000002900D1A3E6134363D030003900234A27
:1057A000234B01F09FFB002807D000223000390076
:1057B000204B01F091FB002853D1249B002B00D1FA
:1057C0008DE60D9B5A1E9341249AD31A249386E6A4
:1057D000FFFFEF7FFFFFEFFFFFF7FFFF01FCFFFF82
:1057E000FB799F501344D33FB3C8608B288AC63FD0
:1057F0000000F03F0000F83F61436F63A787D23F8E
:1058000071A379094F930A400000E03F1655B5BBDC
:10581000B16B0240EF39FAFE422EE63F00002C4009
:105820000000244000001840FF0300002D431CEB43
:10583000E2361A3F80842E41099B0022013B0993E6
:105840002000164B290001F0E6FA0A0001000300CF
:105850000A910B9294E7002300240A930B940023EF
:105860000993249A099B9A4214DDD31A013B24938D
:105870008023269ADB001A430023002526920993F1
:105880002DE6802212069446229B1E00239B634431
:105890001F0006E600232493EAE7C04600002440E8
:1058A000F0B54546DE464E465746E0B595B08B46C8
:1058B000904699461E9A1F9B0A9019001000209D41
:1058C00001F01DFB002800D0B0E11E981F990122B5
:1058D000C74B524201F000FB002800D037E11E9870
:1058E0001F990122C34B524201F004FB002800D053
:1058F000A7E01E981F990022BF4B01F0FBFA002879
:1059000000D088E01E981F990022BC4B01F0E4FAF9
:10591000002800D07FE01E981F990022002301F08C
:10592000DBFA002800D0FAE000230B938023229CAE
:10593000229ADB001C401A4200D102E1092D00D856
:105940007CE106A98C462C00172200233021093C5B
:1059500062440133D154EF1A202B00D132E1A3422B
:10596000F7D10022A44B069207931E981F9901F0CD
:10597000F1FA050001F0D6FA02000B001E981F99FB
:1059800001F037FA069A079B01F063FA0890099133
:1059900001F004FB060001F0C1FA02000B000898B8
:1059A000099901F026FA0022954B0890099101F01F
:1059B000A1FA002800D1D2E00136300001F0AEFAA1
:1059C000069A079B01F08EFA002801D000260135C7
:1059D000AA46002F00D098E0280001F0A3FA0200A8
:1059E0000B001E981F9901F004FA854B0022060057
:1059F0000F0001F071FA0CAB9A46002845D1002245
:105A0000300039007E4B01F075FA00283DD1EB07DC
:105A10003BD5013539E0229B42460493219B5946F0
:105A200003930A981E9B1F9C0295009301944B467A
:105A3000FFF704FD15B0F0BCBB46B246A946A04630
:105A4000F0BD229B5B0767D403226E4B2299019223
:105A5000039121990291009342464B4659460A9878
:105A6000FFF766FBE6E706AA94461723280063447F
:105A70000A2101341E1900F059FF3031280031701D
:105A80000A2100F053FF051E76D0202CEBD1032312
:105A9000229A1340012B1DD1219B002B1AD00B9B66
:105AA000002B00D0BBE0229A0C33134200D0B6E0AA
:105AB000219BA34200D887E006AB9C4617223023E7
:105AC000624404E02199013413558C4259D0202CB2
:105AD000F8D12024229B01940393219B02935346E7
