:020000041000EA
:1000000000B5324B212058609868022188439860DF
:10001000D860186158612E4B002199600221596106
:100020000121F02299502B49196001219960352056
:1000300000F044F80222904214D00621196600F024
:1000400034F8196E01211966002018661A6600F04E
:100050002CF8196E196E196E052000F02FF8012189
:100060000842F9D1002199601B49196000215960AB
:100070001A491B48016001219960EB211966A021F2
:10008000196600F012F800219960164914480160C1
:100090000121996001BC002800D000471248134993
:1000A000086003C880F30888084703B5996A0420EC
:1000B0000142FBD001200142F8D103BD02B5186610
:1000C0001866FFF7F2FF186E186E02BD00000240BE
:1000D000000000180000070000035F00212200005C
:1000E000F4000018222000A00001001008ED00E03C
:1000F00000000000000000000000000074B24E7A12
:1001000000200420F7010010C3010010C5010010F9
:10011000C1010010C1010010C1010010C101001097
:10012000C1010010C1010010C1010010C701001081
:10013000C1010010C1010010C9010010CB01001065
:10014000CD010010CD010010CD010010CD01001037
:10015000CD010010CD010010CD010010CD01001027
:10016000CD010010CD010010CD010010CD01001017
:10017000CD010010CD010010CD010010CD01001007
:10018000CD010010CD010010CD010010CD010010F7
:10019000CD010010CD010010CD010010CD010010E7
:1001A000CD010010CD010010CD010010CD010010D7
:1001B000CD010010CD010010CD010010CD010010C7
:1001C00000BE00BE00BE00BE00BE00BEEFF3058054
:1001D000103800BEF2EB8871B0A50110CCA501105B
:1001E0003402001090A31AE700201F49086006C8D7
:1001F00081F3088810471D48006800282FD10DA4FE
:100200000ECC002902D000F012F8F9E71849194A7B
:10021000002000E001C19142FCD1174988471749ED
:1002200088471749884700BEFDE701C901C29A42C5
:10023000FBD37047CCA50110C0000020F0150020B2
:10024000FCBA01100000042000000420FCBA0110D8
:10025000001004200010042000000000704709482E
:1002600006F076FB0047000008ED00E0000000D03B
:10027000F0150020FCE6012035500010F1160010AA
:10028000695100105756000006005250ABB360533E
:10029000F88C011006005250861C0302088D0110D4
:1002A000060052505422A29D108D0110050052509C
:1002B000DE65F468FCBA0110F8B5C046044B10B511
:1002C000002B03D00349044800E000BF10BDC04626
:1002D000000000008CE6012058050110F0B5070071
:1002E000083704000E0083B00760002924D00800FE
:1002F0000FF028FB0500030001900F280BD8012800
:1003000006D13278227200226360FA5403B0F0BD45
:100310000028F8D008E00022200001A909F058F8D0
:100320000700019B2060A36038002A00310008F01C
:10033000DBFA019B2768E6E7014808F009FFC046A1
:1003400058050110F0B5C64600B5446888B004AB46
:1003500098460568029301940F2C00D90EE1012CF8
:1003600057D16A462B7813744246002303941355E1
:10037000B74C039D6368029FAB424ED0626C9542BE
:1003800000D10AE18423E258954200D114E1C4234C
:10039000E258954200D115E182235B00E258954274
:1003A00000D115E1A2235B00E258954200D115E18E
:1003B000C2235B00E258954200D116E1E2235B00C4
:1003C000E258954200D117E181239B00E258954203
:1003D00000D12BE191239B00E258954200D12BE103
:1003E000A1239B00E258954200D12BE1B1239B0051
:1003F000E2580026AA4200D105E1474504D00499FD
:100400003800013108F082FAB06B08B080BCB84601
:10041000F0BD002CA8D01800B8E02600002DECD0CC
:100420002A00390020680FF06FF80028E5D0626CD0
:100430009542A7D13900206C26000FF065F84036B0
:100440000028DAD08423E2589542A0D180233900D5
:10045000E05826000FF058F880360028CDD0C4238D
:10046000E258954298D1C0233900E05826000FF099
:100470004BF8C0360028C0D082235B00E25895427A
:1004800000D08FE780235B003900E0580FF03CF884
:10049000661CFF360028B0D0A2235B00E2589542CC
:1004A00000D085E7A0235B0039002600E0580FF05C
:1004B0002BF84136FF3600289FD0C2235B00E2585C
:1004C000954200D07AE7C0235B0039002600E0584F
:1004D0000FF01AF88136FF36002800D18DE7E223AD
:1004E0005B00E258954200D06EE7E0235B003900E4
:1004F0002600E0580FF008F8C136FF36002800D17A
:100500007BE781239B00E258954200D062E780237D
:100510009B00E05839000EF0F7FF80239B00E6189F
:10052000002800D169E791239B00E258954200D052
:1005300056E790239B00E05839000EF0E5FF90232A
:100540009B00E618002800D157E7A1239B00E25842
:10055000AA4200D04AE7A0239B00E05839000EF0E1
:10056000D3FFA0239B00E618002800D145E7B12364
:100570009B00E25895424BD000263EE7002201A99D
:1005800002A808F025FF019B029004932200290095
:1005900008F0AAF9019C029AE7E626004036002DF1
:1005A00000D12AE73900206C26000EF0ADFF40365E
:1005B000002800D121E745E726008036002D00D035
:1005C00044E71AE72600C036002D00D04BE714E7B9
:1005D000661CFF36002D00D054E70EE7260041369A
:1005E000FF36002D00D05DE707E726008136FF3695
:1005F000002D00D067E700E72600C136FF36002D4A
:1006000000D072E7F9E6043BE618002D00D1F4E6CD
:10061000B0239B003900E0580EF076FF002600283A
:1006200000D0EAE6B0239B00E618E6E6043BE618B5
:10063000002D00D06BE7E0E6043BE618002D00D06B
:1006400077E7DAE6043BE618002D84D1D5E6C0460C
:1006500030170020F0B5DE4657464E464546E0B519
:10066000D1B054211AAB9A461CAB1A93BC4B002450
:100670001A6806271C929B8808AA521813805346B2
:1006800050465F609C73FFF75DFE6C2520AB9B4678
:1006900022AB2093B34B08901A68584622921B79DC
:1006A00008AA52191370052398465B4642465C73AC
:1006B0005A60FFF747FE842628AB2693AA4B099081
:1006C0001A6808AD28929A88AD192A809B7902365B
:1006D00008ADAD192B700725013608AB9B191C70AE
:1006E00026AB18002795FFF72DFE9C219F4B2EAEC1
:1006F0000A902C961A6808AE2E929A887618328044
:100700009E229B7908AEB61833709F2308AEF61868
:1007100034702CAE30002D95FFF714FE944B34AEA0
:10072000349304233296339308AEB033F618347002
:1007300032AE0B903000FFF705FECC2138AE8D4B6A
:10074000B1463AAE0C9038961A6808AE3A929A883A
:1007500076183280CE229B7908AEB61833704E469A
:1007600048467560F473FFF7EDFD40AE824B0D9087
:100770003E961A6840929B88B380E6233F9708AF65
:10078000FF183C703EAF3800FFF7DCFD46AF7B4BF7
:100790000E9044971A6846921B79FD223B7143469E
:1007A000459308AB9B181C7044AB1800FFF7CAFDBB
:1007B0004CAB984641464A93714B0F901A684C9245
:1007C0009A888A809B798B7118234B95FF3308ADEB
:1007D000ED182C704AAC2000FFF7B4FD0F9B694D5B
:1007E00004930E9B10AC03930D9B099A02930C9BF0
:1007F000089901930B9B0590009320000A9B01F040
:10080000D1F82B0007CC07C307CC07C307CC07C31D
:100810004A98404503D04C99013108F077F8449844
:10082000B84203D04699013108F070F83E98B042C2
:1008300003D04099013108F069F838983AAB9842F2
:1008400004D04B469968013108F060F8329834AB17
:10085000984203D03499013108F058F82C982EAB07
:10086000984203D02E99013108F050F8269828AB11
:10087000984203D02899013108F048F8209822AB1B
:10088000984204D05B469968013108F03FF81A9805
:100890001CAB984204D053469968013108F036F8F1
:1008A0003200394B3E9603CB03C21B783EA813702F
:1008B00009233F930023E922994608AB9B184A4637
:1008C0001A70FFF73FFD3A00304B4497040003CB0A
:1008D00003C208234A46459348AB1A7044A8FFF761
:1008E00031FD43464A932A4B82461A684AA84C92E5
:1008F00042469B88938006238B224B93520008AB81
:100900009B184A461A70FFF71DFD534606932B00AD
:100910006A4607900594103313CB13C203CB03C26E
:100920000FCD01F051F84A98404503D04C99013160
:1009300007F0ECFF4498B84203D04699013107F024
:10094000E5FF3E98B04203D04099013107F0DEFF49
:1009500051B0F0BCBB46B246A946A046F0BDC04669
:100960008C050110940501109C050110A4050110CF
:1009700062656E64AC050110B4050110BC05011080
:10098000C4050110D0E60120CC050110D8050110E6
:10099000E405011010B5FFF75DFE10BDF0B5DE46B1
:1009A00057464E464546E0B50A2195B006F02AF86E
:1009B00000239B46002900D176E0162002F0FAF8C9
:1009C000002805D0514B0B22196800296AD11A6002
:1009D000152002F0EFF8002805D04C4B00221968D2
:1009E0000A295DD91A6004AC2200494B029403CB5A
:1009F00003C20823039300239A46524602AB180011
:100A00001A740AAEFFF79EFC424B08961A6808AFAC
:100A10000A929A888046B2809B793800B371072386
:100A20007B605346FB73FFF78DFC10AB99460E932A
:100A3000394B01901A680EAD10924A469B882800E7
:100A4000938006230F935346AB73FFF77BFC8246DC
:100A50000E98484503D01099013107F057FF0898C8
:100A6000B04203D0B968013107F050FF0298A042AC
:100A700003D00499013107F049FF5B46002B06D1F2
:100A800000F0D0FF019D45445544A84201D9FFF72D
:100A9000E1FD15B0F0BCBB46B246A946A046F0BD8C
:100AA0004A1C9FE74A1E92E7172002F095F88346FA
:100AB000002811D0154B194A196889015018C36BC9
:100AC000856B446B5B19A34200DD230051180A6B50
:100AD000934200DA13008363142002F07DF80028AB
:100AE00000D16AE7094B0D4A1C68A40111198B6BF0
:100AF000CE6B4D6B9B1BAB4200DD2B001219126BB2
:100B0000934200DA130083468B6356E7B4E6012074
:100B1000D8050110A4050110B405011030170020FC
:100B2000F0B5454657464E46DE46E0B544688FB0C0
:100B30000AAB894690469A460568089302940F2CA2
:100B400000D912E2012C00D03DE120212B7802AA2D
:100B50005218137052460023099413559C4C099E59
:100B60006368089FB34200D144E1626C964200D1B1
:100B70000AE28423E258B24200D114E2C423E258CC
:100B8000964200D115E282235B00E258964200D1E2
:100B900015E2A2235B00E258964200D115E2C2237F
:100BA0005B00E258964200D116E2E2235B00E25875
:100BB000964200D117E281239B00E258964200D171
:100BC0002BE291239B00E258964200D132E2A1230E
:100BD0009B00E258964200D147E2B1239B00E258C5
:100BE0000025B24200D105E2574504D00A993800E9
:100BF000013107F08BFE022300220021002001F0CA
:100C0000B3F83C233C224146484601F015FA022342
:100C100000220021002001F0A7F84B46DF1C4346CC
:100C2000DE1C31003800012201F088FA31004E4606
:100C300038363000012201F081FA414638000122A5
:100C4000383101F07BFA4146474630000122393104
:100C500001F074FA143704231A3E00220021002008
:100C600001F082F839003000102201F067FA0C23FD
:100C70000F220F210F2001F077F80D2239003000EC
:100C800001F05CFA2F6BFB17F8185840AB6BC018DB
:100C900007F0BEFA061C686BC01B07F0B9FA011C0E
:100CA000301C07F064FA07F013FB4A4A4A4B06F07F
:100CB00020F9A022494B120606F01BF9484A494B7D
:100CC00006F0F0F806000F0006F0FCF90090019124
:100CD0003000390006F0E0F906000F00042300227E
:100CE0000021002001F040F800223F4B3000390085
:100CF00006F0FFF806F07EF9802212069446009B6B
:100D000006001800019B002263441900364B06F0D0
:100D1000F0F806F06FF946441436484403223100D7
:100D20001E3001F00BFA012342465B42263249464F
:100D3000280001F02FFEA96B08A801F045FE0998D4
:100D40002A4BEA69A9691B1A9A4200D993E108A8BB
:100D500008F0BAFB0822934604AF02970368834465
:100D600006005B4500D15EE10293836804937368DB
:100D700003935B46336000233372089873605045D9
:100D800003D00A99013107F0C1FD012342464946CB
:100D90005B423032143102A801F0FCFD144B1B6899
:100DA0009B01E3189D4200D14AE10298B84203D06A
:100DB0000499013107F0AAFD0FB0F0BCBB46B24662
:100DC000A946A046F0BD002C00D1C3E61800D4E02F
:100DD0003017002097D17E5AFB2109409999F93F9D
:100DE0008B739F802F1BE43F00002240FFFFFF3FDB
:100DF000B4E601202500002E00D1F5E632003900CE
:100E000020680EF081FB002800D1EDE6626C96426E
:100E100000D0AEE63900206C25000EF075FB4035A1
:100E2000002800D1E0E68423E258964200D0A5E6EF
:100E300080233900E05825000EF066FB803500283D
:100E400000D1D1E6C423E258964200D09BE6C023ED
:100E50003900E05825000EF057FBC035002800D1BE
:100E6000C2E682235B00E258964200D091E68023DE
:100E70005B003900E0580EF047FB651CFF35002889
:100E800000D1B1E6A2235B00E258964200D086E68C
:100E9000A0235B0039002500E0580EF035FB4135FA
:100EA000FF35002800D19FE6C2235B00E258B24222
:100EB00000D07AE6C0235B0039002500E0580EF030
:100EC00023FB8135FF35002800D18DE6E2235B004E
:100ED000E258B24200D06EE6E0235B003900250004
:100EE000E0580EF011FBC135FF35002800D17BE63C
:100EF00081239B00E258964200D062E680239B004B
:100F0000E05839000EF000FB80239B00E518002814
:100F100000D169E691239B00E258964200D056E644
:100F200090239B00E05839000EF0EEFA90239B00CE
:100F3000E518002800D157E6A1239B00E25896420D
:100F400000D04AE6A0239B00E05839000EF0DCFAFE
:100F5000A0239B00E518002800D145E6B1239B00A3
:100F6000E25896424BD000253EE6002202A908A88E
:100F700008F02EFA029B08900A932200290007F03D
:100F8000B3FC029C089AE6E525004035002E00D10E
:100F90002AE63900206C25000EF0B6FA403500280C
:100FA00000D121E63FE725008035002E00D03FE745
:100FB0001AE62500C035002E00D048E714E6651C6F
:100FC000FF35002E00D052E70EE625004135FF35F3
:100FD000002E00D05CE707E625008135FF35002EA6
:100FE00000D067E700E62500C135FF35002E00D0B0
:100FF00072E7F9E5043BE518002E00D1F4E5B023D3
:101000009B003900E0580EF07FFA0025002800D040
:10101000EAE5B0239B00E518E6E5043BE518002E61
:1010200000D06BE7E0E5426859463800013207F02E
:101030005BFC9CE6043BE518002E00D070E7D3E58E
:101040000F2300220F21002000F08EFE414648466B
:101050003C233C2200F0F0FF414648463A233A2226
:101060000131013000F0E8FF9FE6043BE518002E57
:1010700000D067E7B8E5014808F09AF8EC050110E0
:10108000F0B5DE46454657464E46E0B50F2395B0CF
:1010900004220C210A2000F067FE10AD3C21002044
:1010A0003C23F02200F0F6FF2A00DE4B0E9503CB26
:1010B00003C21B780EAC1370092363600023200069
:1010C0003C2200216374FFF72BFD0E98A84203D049
:1010D000A168013107F01AFCD34B0E951A68200065
:1010E00010929B883C22AB800623636000233C2146
:1010F000A373FFF715FD0E98A84203D0A168013134
:1011000007F004FCC94B0E951A68200010929A88CB
:101110007821AA809B793C22AB710723636000236E
:10112000E373FFF7FDFC0E98A84203D0A1680131DC
:1011300007F0ECFBBE4B0E951A68200010929A88BF
:10114000B421AA809B793C22AB7107236360002302
:10115000E373FFF7E5FC0E98A84203D0A1680131C4
:1011600007F0D4FB0F230C220A21042000F0FCFD21
:101170003C23F0227821002000F08CFFAD4B0E952F
:101180001A68200010929B887822AB800623636047
:1011900000230021A373FFF7C3FC0E98A84203D0DD
:1011A000A168013107F0B2FBA34B0E951A6820002D
:1011B00010921B7978222B710523636000233C2158
:1011C0006373FFF7ADFC0E98A84203D0A16801310C
:1011D00007F09CFB994B0E9598462B00424603CA9C
:1011E00003C308236360002320007822782123743E
:1011F000FFF796FC0E98A84203D0A168013107F0D2
:1012000085FB8F4E0E95336820001093B3887822AB
:10121000AB80B379B421AB71072363600023E37320
:10122000FFF77EFC0E98A84203D0A168013107F0B9
:101230006DFB0F230A2204210C2000F095FD3C23B6
:10124000F022B421002000F025FF7E4B0E95994638
:101250001B68200010934B469B88B422AB8006236A
:10126000636000230021A373FFF75AFC0E98A84285
:1012700003D0A168013107F049FB734B0E95109321
:101280000423636000232000B4223C212373FFF772
:1012900047FC0E98A84203D0A168013107F036FB45
:1012A0006A4B0E951A68200010929A887821AA80BD
:1012B0009B79B422AB71072363600023E373FFF7CC
:1012C0002FFC0E98A84203D0A168013107F01EFB45
:1012D0005F4B0E951A68200010921B79B4222B7177
:1012E000052363600023B4216373FFF719FC0E9894
:1012F000A84203D0A168013107F008FB02230022B5
:101300000021002000F030FD04AF002100203C232C
:10131000F02200F0BFFE42463B00029703CA03C31F
:101320000823039300239B465A4602AB18001A7405
:10133000FFF708F808AB9A460AAB98464246019078
:101340000893336850460A93B3889380B3799371B6
:1013500007235246536053465A46DA73FEF7F2FFAC
:10136000019B0E951E184B461B68200010934B46A0
:101370009B88B146AB80062363605B46A373FEF790
:10138000E1FF81440E98A84203D0A168013107F023
:10139000BDFA0898404504D053469968013107F0DA
:1013A000B5FA0298B84203D00499013107F0AEFAB9
:1013B0000F230F220F210F2000F0D6FC4B460224F2
:1013C000002534265F004F447F00E621280005F009
:1013D00019FB00F03DFB4108C9B22000052305229E
:1013E000711A063400F056FEED19EC2CEDD10F22E7
:1013F0000F230F21002000F0B7FC00F013FBE623C1
:101400004946584305F0FEFA3223022205210530F1
:1014100000F040FE15B0F0BCBB46B246A946A0465F
:10142000F0BDC046CC050110E40501109C0501107B
:10143000C40501108C05011094050110D805011098
:10144000A4050110B405011062656E64AC050110BD
:10145000BC050110F8B5964BDE464F461E0080B520
:1014600018009449FEF73AFF3000934B18301900EA
:101470009B46FEF733FFFA2300225B01326373635E
:101480003000DC22322352008C494030B263F363D7
:10149000FEF724FF30008A4B583019001F00FEF77A
:1014A0001DFF30006422002464250A238549803012
:1014B000B267F36734677567FEF710FF30003900D5
:1014C0009830FEF70BFF3300B0331C605D603300D3
:1014D00050200A21B8331860596030007A49C03072
:1014E000FEF7FCFE30003900D830FEF7F7FE33007F
:1014F000F0331C605D6033000A220021F833701C59
:1015000019605A60FF307149FEF7E8FE3000704BF9
:1015100019301900FF309946FEF7E0FE3300FA2536
:1015200000243133AD00FF331C605D603300642064
:1015300032213933FF331860596033004133FF33B0
:1015400018006449FEF7CAFE33005933FF33494699
:101550001800FEF7C3FE33007133FF331C605D607B
:101560003300322032217933FF3318605960330061
:101570008133FF3318005849FEF7B0FE330099332A
:10158000FF3349461800FEF7A9FE3300B133FF339D
:101590001C605D603300FA203221B933FF33400014
:1015A000186059603300C133FF3318004B49FEF710
:1015B00095FE3300D933FF3349461800FEF78EFEFF
:1015C0003300F133FF331C605D603300FA203221B9
:1015D000F933FF331860596080239B00F0184049AD
:1015E000FEF77CFE86239B004946F018FEF776FE48
:1015F0008C23FA2100209B00F318C9001860596061
:101600008E23002032219B00F3181860596090232C
:101610009B00F0183349FEF761FE96239B00594664
:10162000F018FEF75BFE9C23642064219B00F318F6
:101630004042186059609E230A2200219B00F31843
:1016400019605A60A0239B00F0182749FEF746FE58
:10165000A6239B004946F018FEF740FEAC239B00F2
:10166000F3181C605D60AE23642032219B00F318E8
:1016700018605960B0239B00F0181C49FEF72EFE3D
:10168000B6239B003900F018FEF728FEBC23642522
:1016900000249B00F3181C605D60BE2300210A2219
:1016A0009B00F31819605A60C0BCBB46B146F8BD38
:1016B00030170020CC05011004060110E4050110CC
:1016C000080601109C050110C40501108C050110CD
:1016D0000C06011094050110D8050110A405011095
:1016E000B405011010060110AC050110BC05011075
:1016F000F0B5DE464E4645465746E0B583B001F0AC
:10170000CDFB802601F0B2FB002301244B4D760077
:1017100008C5200006F076FDEE21890506F03BFDA8
:10172000474906F038FD06F0DDFD013401C5B4423D
:10173000EFD1002001F012FB01F074FA01F06CFA15
:101740000028FBD101F058FA01F056FA4B2001F0C5
:1017500005FBFFF71FF901F085FB3A4B00279B467D
:10176000186000239A46384B384D994601F040FAEC
:10177000060000F0EDFA00F0FFFA00F003FB00F0C5
:1017800019FB00F01FFB00F039FB00F06FFB5B461C
:101790004A461B68136001F065FB5B46186001F068
:1017A00027FA7B1C040038009846FFF7F7F801F091
:1017B0001FFA001BE86001F01BFA009001F02CFA00
:1017C0000028FBD101F014FA5346C01A686101F0F9
:1017D0000FFA040001F00CFA82464046FFF750FC75
:1017E00001F006FA5346C01A286101F001FA01908F
:1017F00001F002FA01F0FCF9804601F0F9F98246A5
:1018000001F010FA01F0F4F9861B31001048AE60C7
:1018100005F0F8F8013000230237286028280AD99B
:10182000009B4444E01A019B3100C01A64235843D2
:1018300005F0E8F803006B6098E7C046B0DE0120D1
:10184000DB0FC9404CDE012060DE01206CDE012090
:101850003F420F0010B5F021084AF02001F0FCF8DB
:10186000074B80211860074B074A1860802001F061
:10187000F3F8064B1860064B186010BD4C1C002096
:1018800084DE0120481C00201C070110341C0020AD
:1018900054DE0120F0B54E4645465746DE4690469A
:1018A0000A1452008446105A394AE0B5050315401F
:1018B00005433848384C054022782C03240F544304
:1018C0000F3424112707FF0F099EE4199146E4B253
:1018D000771E002E1ED04246002A21D18446654341
:1018E0002E4A654494462E4A102191460C1B1E88B0
:1018F000274A31031140624631430140614349198F
:101900000E0C16404A460909114031431980023332
:10191000013FECD2F0BCBB46B246A946A046F0BDA2
:10192000012292461A88414493461603184A1640EB
:101930005A4616430640B3461022161B5A465643D3
:10194000144A6C4393465E443419154A25091540E0
:10195000124A240C144062462C431C800C14640070
:10196000A45A0B4A25031540FF22254305402E0C9F
:1019700016404A46564352460F363611F6B2F40820
:1019800014403419E4B20233013FCBD2C2E7C0465F
:1019900000000F0F0F0F0F0FC40F0020F0F000001A
:1019A0000F0F000010B50361029B039C4361059B70
:1019B00004608361069B049CC361079B4460816053
:1019C000C260036210BDC04684B030B50592069374
:1019D0000E4A0C9B049113600D4A0E4913600D9A38
:1019E0000D4B03901A600E9A0C4B1A600B0003AA61
:1019F00031CA31C313CA13C313CA13C30022084B1D
:101A00001A6030BC08BC04B01847C046301C002027
:101A10003C1C002088DE0120ACDE0120C80F002025
:101A200050DE0120074B084A0849186809685369C5
:101A300092695B189B18834200D370470120404293
:101A4000FBE7C04650DE012088DE0120ACDE01202D
:101A5000F0B557464E46DE464546E0B54E4E0400CC
:101A6000736900209B464D4B83B01F68B369BA462B
:101A7000DA449846D146C144A1451CD9316A0029AF
:101A800020D1474BB5681B6800933B00AF4200D99B
:101A90002B009C421BD22900200204F0B3FF009BC4
:101AA00043431D0AF369002B36D14346002B01D076
:101AB000444546D8E8B203B0F0BCBB46B246A9469E
:101AC000A046F0BD200004F09DFF641AD9E7F3683A
:101AD00001935B19BB4230D89C4205D3A74245D93C
:101AE000306964210002D8E7306964218027000250
:101AF00004F088FF7F003B1A9A46601B01990002A0
:101B000004F080FF53465843009B000A3F1A7B4372
:101B10001D0AF369002BC8D00CF0BEFEF76939002E
:101B200004F070FF7F08B369C91B984669181BD47D
:101B300064256429B9DC0D00B7E73B009C42CDD297
:101B4000D2E7E01AFFF784FF060028004946604309
:101B500004F058FF4B460500181B4946704304F03B
:101B600051FF4019C0B2A6E700259EE70025A24517
:101B700098D9E01B5946000204F044FF0135FF35B7
:101B80002D1A30696421000204F03CFF6843009A7A
:101B9000030A5A43150A85E788DE0120ACDE0120DE
:101BA000C80F0020F0B557464E464546DE46E0B524
:101BB000614C624F26683D6885B0002E3FD1604B76
:101BC000994662696B1C3B60A7699346BA465D4BB8
:101BD00000211E680192B344DA44AA451FD9216A44
:101BE000002927D1584B1B680293A36898463300FD
:101BF000464500D94346AB4230D94146280204F05D
:101C000001FF029B43431B0A9846E369002B4CD11A
:101C1000002F01D0BD425ED8FF21434619404B46FC
:101C2000186801F0BFF805B0F0BCBB46B246A94643
:101C3000A046F0BD280004F0E5FE6D1AD2E7404B47
:101C4000616899460029BCD0280004F0DBFE4A46B2
:101C500046433E4B1B68F3181360B2E7E3680393F7
:101C60004344B34233D89D4205D3AE424AD920699A
:101C700064210002C3E7206964218026000204F089
:101C8000C1FE7600331A9B464346E81A03990002C8
:101C900004F0B8FE5B465843029B000A361A7343B1
:101CA0001B0A9846E369002BB2D00CF0F5FDE669FB
:101CB000310004F0A7FE43467608891BA769C918BE
:101CC0001DD4642398466429A2DC8846A0E733002B
:101CD0009D42CAD2CFE7E81BFFF7BAFE0400404698
:101CE0005146684304F08EFE53460600581B514689
:101CF000604304F087FEFF21801901408FE7002335
:101D0000984685E700239846AB4500D87DE7A81B99
:101D100001998026000204F075FE7600361A2069CB
:101D20006421000204F06EFE7043029A030A5A43D3
:101D3000130A984669E7C04688DE012050DE01207C
:101D4000301C0020ACDE0120C80F00203C1C00200D
:101D50000F2310B50F220F210F2000F06DFE014B55
:101D6000188010BDF4E6012010B500F065FE014BAF
:101D7000188010BDF4E601200F22014B1A70704745
:101D8000C40F00200022064B1A60064B1A60064B57
:101D90001A68064B116852681960054B1A60704743
:101DA000401C0020441C0020481C0020B00F0020D4
:101DB000AC0F0020014B024A1A607047B40F00209C
:101DC000951800100021074B1A68074B1A60074B43
:101DD0001960074B19601168064B52681960064B71
:101DE0001A60704784DE0120481C0020401C00203F
:101DF000441C0020B00F0020AC0F00200022024B3A
:101E00001A60024B1A60704764DE012068DE012010
:101E1000054A036812689B1A044A03600B6812683B
:101E20009B1A0B607047C04664DE012068DE01200B
:101E3000002808D0094B0A4A19680A4B18680A4B4F
:101E4000106019607047084B044A19681160044A11
:101E500004491068086000200021F1E7E0E2012059
:101E600068DE0120E4E2012064DE01200022024B52
:101E70001A60024B1A60704758DE01205CDE0120B8
:101E800010B584B00390029103A802A9FFF7C0FF28
:101E9000114C124B2468124A1B6812680194114CB1
:101EA000029924680398009400F052FE002811D093
:101EB0000D4B02991B680D481A689B684A430399A9
:101EC0005218012152009B18094A00911468002100
:101ED0000022A04704B010BDAC0F0020441C00201D
:101EE000401C0020B00F0020481C0020F4E6012018
:101EF000B40F002030B585B00390029103A802A969
:101F00001400FFF785FF174B02991B68994226DBE7
:101F1000154A12689B18994221DA144A039B1268E9
:101F2000934203DAD31AE41A13000392104DE01817
:101F30002D685219904201DB801A241A002C0EDD04
:101F40000C4A106802684A43D218836852009B18F2
:101F5000094A00941468002100220848A04705B0EF
:101F600030BDC046441C0020AC0F0020401C0020A7
:101F7000B00F0020481C0020B40F0020F4E6012020
:101F8000F0B5D6464F464646C0B584B003900291A0
:101F900003A802A91700FFF73BFF204B039A1B6819
:101FA0009A4234DB1E4909685B189A422FDA1D4BAE
:101FB00002991B68994203DA591A7F1A1900029391
:101FC000194C781824681B19984201DBC01A3F1A73
:101FD000164E7D1E3068036884684B439B185B0077
:101FE000E418002F13DD124B01279946114B984638
:101FF000434600971B6800229A460021230048466A
:10200000D04733681A685200A418013DF0D204B0DA
:10201000E0BCBA46B146A846F0BDC046401C002010
:10202000B00F0020441C0020AC0F0020481C0020F2
:10203000F4E60120B40F002070B514001D0082B03A
:102040000190009101A86946FFF7E2FE0020FFF72A
:10205000EFFE220000990198FFF74CFF00996E1ED9
:10206000320001980131FFF78BFF00990198691840
:10207000621E01390130FFF73DFF01983200201840
:1020800000990138FFF77CFF0120FFF7D1FE02B075
:1020900070BDC046F0B5C64600B588B00790069141
:1020A00007A806A905920493FFF7B2FE1C4B05AAE8
:1020B0001B6806A903931B4B07A81B6802931A4BC6
:1020C0001B680193194B1B68009304AB00F00AFDD9
:1020D000174D06992A68136894684B4307995B1853
:1020E0005B00E418049B5A1E0492002B13D0114B82
:1020F000114E9846059B0022009300212300404684
:102100003768B8472B681A68049B5200A4185A1EF7
:102110000492002BEED108B080BCB846F0BDC0469A
:10212000AC0F0020B00F0020441C0020401C0020F9
:10213000481C0020F4E60120B40F0020F0B5DE4674
:10214000574645464E46E0B515008FB00B900A91B4
:102150000BA80AA9FFF75CFE5A4B0A999B461B681D
:102160000B980393584B6F0098461B683A000293F4
:10217000564B491B9A461B68401B0193544B0593D1
:102180001B6800933B0000F091FC002806D10FB0C3
:10219000F0BCBB46B246A946A046F0BD0020FFF702
:1021A00047FE6E42002D79DB4A4B002407934A4BD1
:1021B00008934A4B099343460693A1460A9B0B9A00
:1021C000781C4B44521B04900DA90CA80C920D9343
:1021D000FFF71EFE53460D9A1B68A619A046013450
:1021E00036199A4224DB594609685B189A421FDA6D
:1021F00005990C9B0868069909688C4601006144A2
:102200000F0083424EDB0498C018884257DA0499C5
:102210000798006807687A43D218836852009B18B1
:10222000099A009112680021170008980022B84707
:102230004346002B19D1002E13DB002D2ED00A9916
:1022400001220B986918FFF755FE01274B460A99A2
:102250000B98491B3A00C01AFFF74CFE761B013D54
:10226000761BA5421ADB6F00A7E74B460A990B982D
:10227000049AC91A401BFFF73DFE002EF1DB4D45C5
:10228000EFD043465F004B460A990B9801373A005E
:102290006918C01AFFF72EFE002DD7D10120FFF7D5
:1022A000C7FD74E7C11A049B0C90591A030040182B
:1022B000614501DBC01B091A0029B9DDA8E70499B3
:1022C000F8E7C046AC0F0020B00F0020441C0020EF
:1022D000401C0020481C0020F4E60120B40F002020
:1022E000F0B5DE4657464E464546E0B51E0087B07F
:1022F00083468A4611A812A91400FFF789FD5F4D95
:102300005F4F2B68320003933B68129902935D4B39
:10231000119898461B6801935B4B99461B68009384
:10232000109B00F0C3FB002800D180E0B446534668
:10233000119AD444002B00DA8BE01099129B0919F2
:102340000491002C00DA79E0584601680591614556
:1023500002DC6046401A361A5846049940688842A2
:1023600003DC091A1098411A1091494609688C46F5
:10237000914204DD8A1A9244B6180A00119141462E
:102380000968994208DD1098CB1A80469844E418F1
:10239000434610930B0012913F68B0186744B8424F
:1023A00001DBC71BF61B10982D68C71849198F420F
:1023B00002DB7F1AC11B1091002E38DD1099002915
:1023C00035DD05994C4359468F68304954440868B7
:1023D0006400016885684B439B185B00ED18139BF4
:1023E0003F19DB0742D480235B020593002304934B
:1023F000109B5C1E139B9B0704D523004B435B0083
:10240000ED1849424B009946214BB0469A46434647
:102410000093534638001E68059A2B000499B04774
:102420005B461B684D445B00FF18013CEFD207B0D0
:10243000F0BCBB46B246A946A046F0BD5846109136
:1024400001681B1B129300240591614500DD83E7A1
:102450007FE7D21A002310999A4609196646129B03
:1024600011920491002C00DB6EE7E7E75346F31A64
:10247000013B1B040493074B0593B9E7AC0F002005
:10248000B00F0020441C0020401C0020481C0020ED
:10249000B40F00200000FFFF0D4B70B51E6807232E
:1024A000150032680C00D1170B409B1884B0D9106E
:1024B00004F0A8FA002303930833C200C9003000D7
:1024C000029501940093FFF70BFF04B070BDC04666
:1024D00054DE0120F0B54E46DE4657464546E0B58F
:1024E00003782F4A203BD900C9182E4B85B00190A4
:1024F000039210681A68465C4418511C4DD0921B18
:10250000D205120E9046284A02939246274A106836
:102510009346524611684246641A01340F00A146A0
:1025200012184B461500DC5D002E0AD063B2002B5A
:1025300024DB640001359319E4B2AB42F6DC534668
:1025400019680137CB1DBB42EBDA029B019A1B686D
:102550001278591C05D1039B203A1968D3009B18A7
:102560005B5C134A12688018C0185B46186005B09F
:10257000F0BCBB46B246A946A046F0BD28003900D3
:10258000FFF77EFC5B46186843461A186400013565
:102590009319E4B29D42C9DBD1E700229046B2E72D
:1025A000A80F0020B80F00205CDE012058DE0120BB
:1025B000BC0F002030B50B6802681C0001330B60B3
:1025C000D05C702809D110198578652D05D1C078A7
:1025D0006E2802D1073423000C60D05C73280AD126
:1025E000D2185078702806D19278722A03D1053318
:1025F0000B60683830BD0020FCE7C046F0B5CE4621
:10260000474680B50D6803686A1C0A600C00995C37
:10261000060089B070295BD159198878652857D18F
:10262000C8786E2854D16F1D27600A7910003038A1
:10263000C0B209280AD911004139052900D89FE004
:10264000110061390020052900D8B2E0AA1D2260DE
:102650009446DA5D11003039C9B209290AD911004E
:102660004139052900D8A7E01700613F0021052F57
:1026700000D89BE0EA1D2260904662469F5C3A00CB
:10268000303AD2B2092A0DD93A00413A052A00D887
:1026900095E061256D42AC46BC4465460022052D9F
:1026A00000D87DE045465D5D2B00303BDBB2092B59
:1026B0000AD92B00413B052B00D88BE02F00613F4E
:1026C0000023052F00D86EE0FFF74EFB2268336829
:1026D000995C73294FD19918487870284BD1897823
:1026E000722948D1033222607568AA4200D983E07A
:1026F00004AFAD1A2E0002979918032D43D8012D6F
:1027000044D002AB9846002D45D1434600255E607B
:10271000BE193570029E0DF05FF8036899460DF002
:102720005BF80A22056001A930000CF02FFB019B29
:1027300005009E425DD00DF04FF80368222B55D066
:102740000DF04AF80368002B4BD00298B84204D031
:1027500043469968013106F0D9F8FF2023682840E4
:1027600002332360274C284B21681A68FFF794FE38
:1027700023680833236009B0C0BCB946B046F0BD39
:10278000373AD0B262E70326012DBAD10B7802AAFC
:1027900090461372B9E73200380006F0A5F8B4E7A6
:1027A000573FFAB27EE7573DEBB28DE7573AD1B2C9
:1027B00060E7573AD0B249E7373AD1B25AE74546CF
:1027C0005D5D373F2B00303BDBB2FAB2092B00D9FD
:1027D0006FE779E7373DEBB2FFF7C6FA2268336857
:1027E00076E70CF0F9FF4B460360AEE7074806F0CA
:1027F000F7FC064806F0C4FC2B000549054806F026
:1028000007FDC04658DE01205CDE0120680601108D
:102810001806011030060110F0B557464E46DE4648
:102820004546E0B5554F8BB03B6842689C468C44AA
:10283000009363460593002306000893002A00D105
:1028400097E0002000244E4B04919A464D4B019393
:102850004D4B0293336806A99B461B5DCB71202B21
:102860003ED021D8092B31D00A2B08D1009B0199E9
:102870003B60534609681B685B1851460B6000209B
:10288000013408949442E5D35346019A1B681268B8
:102890009B1852461360009B3B600BB0F0BCBB46DC
:1028A000B246A946A046F0BD5C2B06D1300008A96F
:1028B000FFF7A4FE089C7268E1E7002817D006AB7A
:1028C000D81DFFF707FE01207268D9E7029B1B683D
:1028D00019788B005B1839685B005B183B60CEE7AA
:1028E000029B39681B681B785B183B60C7E7274968
:1028F00022008946264909948846234900250391E8
:102900004146B0464E46A1465C46BB460F0010E02D
:102910003168481C05D10399203B0868D900CB18C1
:10292000195C3B680132ED18A35C6D180992202BED
:102930000AD95C2BECD1404609A9FFF73BFE099A66
:102940002D18A35C202BF4D8049B4C4646465F46CA
:102950000133B4D03B68ED18059B9D42AFDD009B71
:10296000019A3B60534612681B689B1852461360DD
:10297000A5E7034B9A46034B019385E758DE0120F8
:102980005CDE0120C00F0020A80F0020B80F00203F
:10299000BC0F002030B51D00040083B0019101A8D8
:1029A00069460092FFF734FA019A054B29001A6034
:1029B000044B009A20001A60FFF72EFF03B030BDD1
:1029C00058DE01205CDE0120F0B504002600184F1F
:1029D0000B0083B02021174A3800083603F07EFF31
:1029E000380026600CF0AEFF0500030001900F28B0
:1029F0000CD8012807D13A782272002220006360A7
:102A0000F25403B0F0BD0028F7D008E00022200007
:102A100001A906F0DDFC0600019B2060A3603000E8
:102A20002A00390005F060FF019B2668E5E7C046F3
:102A3000E8E201207006011010B5F0242401120212
:102A400022400F2409030A43044014431A01FF23C0
:102A500013401C43A0B210BDF8B5070010200D00B4
:102A6000160005F047FF04001022002105F036FF94
:102A700027606560002E02D0A6602000F8BD7D436F
:102A8000094B68009D420CD805F038FF0600012D67
:102A900003D400216A0005F021FF0123A6602373FF
:102AA000EBE701204042EFE7FCFFFF3F30B50400B9
:102AB0000598039D844665440020A54211DBA218B9
:102AC000039CA2420DDB069C049AA44662448A42FF
:102AD00007DB049ACB180499D817D20F8B425041C8
:102AE000C0B230BDF0B5C646146800B5A046089C1B
:102AF000069EA44644460768B4443C19079D6445B5
:102B000000DD6446B74200DA3700E41BE743FF17F5
:102B10003C4014600C681A68099FA2187F19BA42D9
:102B200000DD3A00AC4200DA2C00121BD443E4175B
:102B300022401A600368B34200DA330003600B6876
:102B4000AB4200DA2B000B6080BCB846F0BDC0463B
:102B500030B50400002094420EDB99420CDB039D4B
:102B6000AC466244A24207DD049A012094466344C5
:102B70008B4200DC0020C0B230BDC046074B10B510
:102B80001C680123A021A340054AC90588580342B7
:102B900003D08B500022034B1A7010BD381C00204C
:102BA0000C040000F6E6012010B5FEF7FBFF012043
:102BB00010BDC04601238340054A002012681A4216
:102BC00005D1044A10681840431E9841C0B27047AE
:102BD0004CDE012060DE012001238340034A10689F
:102BE000184043425841C0B27047C0464CDE0120F5
:102BF00010B501F0C9FC10BDD021012209064B68B7
:102C00001B0A1A42FBD1D021012209064B681B0A7C
:102C10001A42FBD07047C046014B18787047C04637
:102C2000F6E601200C4B1A78002A13D1A020C0052B
:102C3000844601321A70094B19680A684B68896822
:102C40005343DA0FD218064B52101B689B016344A2
:102C50001960DA617047C046F6E6012084DE012083
:102C6000381C0020F0B5CE46474680B5334B87B0C0
:102C700004000D0018683249984606F007F88023D2
:102C80005B020293C0231B030493030080270833D5
:102C9000C2011B0313432B4AFF0513403B4303931D
:102CA00001230600994629002000009307220133E2
:102CB000059706F00BF9244B244A0293049B290044
:102CC00013400493059A224B20001A40214B1343D2
:102CD00005930022C02306F051F8C02229002000ED
:102CE000C02306F09FF8049B07209B009B081F430E
:102CF00043461968184B04979C4661444B1E994102
:102D0000063100F0EDFC43461968134B06209C4643
:102D100061444B1E9941063100F0E2FC320002ABE7
:102D20002900200006F026F94B46AB4022681343E9
:102D3000236007B0C0BCB946B046F0BDD00F00203C
:102D4000EC060110FFFFFF9F00010200FFFFF5C12D
:102D5000E0830FFC071810000000E0AF10B505F08D
:102D600051FA0B4905F003FA0A4905F0D9FB0A4B61
:102D70000A491C6805F00FFAFC21890505F0F4F9F1
:102D800005F09AFA6040064B0004000C186010BD74
:102D90000000C842333333408400054000FF7F47C2
:102DA00084100540F0B5C646264B00B51E680400E9
:102DB00030000F0005F026FA011C234805F0D7F972
:102DC000051C200005F01EFA011C281C05F0CFF997
:102DD000804605F071FAC5B2280005F019FA011C09
:102DE000404605F0BEF98321C90505F0D4F905F088
:102DF00063FA2D01154A3304C0B21B0C05439566D6
:102E00003800536705F0FEF9114905F0B0F9114992
:102E100005F086FB071C20000F4B70430F491D680F
:102E200003F0F0FD05F0EEF9391C05F0B4F905F0FA
:102E300043FA000468400A4B000C0004186080BC90
:102E4000B846F0BDCC0F0020286B6E4D0000054049
:102E50000000C8426666E63F70000540102700008B
:102E600070100540D0231B065868704700B585B028
:102E700001F076F8064B074A029300230193064BB4
:102E8000009301235B4201F061F905B000BDC0462B
:102E9000F015002018FCFFFFA92B0010F0B5DE464E
:102EA00057464E464546002288218024E0B51A4BFD
:102EB0001A4885B058509A671A5104341A51103282
:102EC0005850DA670F3A84399A670C2000F008FCF2
:102ED000134B144A1B680D201B041B0C136002F0DB
:102EE0007FF80A2001F09AFA0F4803AB02AA01A961
:102EF00000F0E2FA002803D10C480B4902F038F93F
:102F0000039A0299019800F09BFAD0231B06002433
:102F10000126172798460EE000000540FFFF00003D
:102F2000840005408410054090D003007406011011
:102F30000134202C13D03500A5402F42F8D00521B4
:102F4000280000F0CDFB33004246AB4001219362E4
:102F500028000022013400F0DBFB202CEBD1D0262E
:102F6000002404253606012C06D10521022000F09C
:102F7000B7FB01347562B5610134E4B2202CF2D1A3
:102F800006F0BAF81F211A2000F0AAFB0022002147
:102F90001A2000F0BDFB00211A2000F0CBFB9C237F
:102FA0009846FE4BFE4D9B4643465A468C27EA50B8
:102FB000982000239422EB518146AB505E462B5063
:102FC00040462E5090268C38933A8246A8510421D0
:102FD000EA51023800F084FB882358460021802201
:102FE000E850A967A9500432A950E8505046833AE6
:102FF000E8670431AA67033800F072FB40465B467D
:1030000094212B500023EB516B50494658466B508E
:1030100041460122685051460F20A951EA510C390E
:1030200000F05EFBDF49E04805F0F0FFD027052106
:10303000042000F055FB51463F0679626420B961D7
:1030400001F0ECF951467136FF36796109200B39F0
:1030500000F046FB7E620521052000F041FB7C620A
:103060000121062000F03CFB0121072000F038FB85
:10307000012269467C61CC480A73BC6103A9BE6128
:103080000DF01AFA7C61052001F0C8F93623694673
:1030900001220B73C448BC6103A9BE610DF00CFA98
:1030A0007E610122C149C0480DF006FA3523694608
:1030B0007C6101220B73BC48BC6103A9BE610DF0A9
:1030C000FBF9BB4B7E6119000122B74898460DF011
:1030D000F3F9B22369467C6101220B73B248BC61EB
:1030E00003A9BE610DF0E8F941467E610522043175
:1030F000AD480DF0E1F93A2369467C6101220B737A
:10310000A948BC6103A9BE610DF0D6F97E61012218
:10311000A849A5480DF0D0F9262369467C61012213
:103120000B73A148BC6103A9BE610DF0C5F9A24BA8
:103130007E61190001229C4899460DF0BDF9B72324
:1031400069467C6101220B739748BC6103A9BE618B
:103150000DF0B2F97E610122984993480DF0ACF967
:10316000BB2369467C6101220B738F48BC6103A9B4
:10317000BE610DF0A1F97E61012291498A480DF0EE
:103180009BF9C02369467C6101220B738648BC61B0
:1031900003A9BE610DF090F97E6101228949824840
:1031A0000DF08AF9C22369467C6101220B737E48C7
:1031B000BC6103A9BE610DF07FF949467E61012221
:1031C00079480DF079F9C32369467C6101220B73BC
:1031D0007548BC6103A9BE610DF06EF97E610122E4
:1031E000794971480DF068F9C42369467C61012270
:1031F0000B736D48BC6103A9BE610DF05DF97E6182
:103200000122724968480DF057F9D02369467C6164
:1032100001220B736448BC6103A9BE610DF04CF937
:103220007E6102226A4960480DF046F9C62369466C
:103230007C6101220B735C48BC6103A9BE610DF087
:103240003BF97E610122634957480DF035F9E023CF
:1032500069467C6101220B735348BC6103A9BE61BE
:103260000DF02AF97E610E225B494F480DF024F9DA
:10327000E12369467C6101220B734B48BC6103A9C1
:10328000BE610DF019F97E610E22544946480DF0D9
:1032900013F9212369467C6101220B734248BC610A
:1032A00003A9BE610DF008F97C61732001F0B6F846
:1032B0001123694601220B733B48BC6103A9BE611F
:1032C0000DF0FAF8292369467C6101220B73364818
:1032D000BC6103A9BE610DF0EFF82A2369467C6149
:1032E00001220B733048BC6103A9BE610DF0E4F804
:1032F0000C217E61414404222B4889460DF0DCF804
:103300002B2369467C6101220B732748BC6103A90A
:10331000BE610DF0D1F849467E61042222480DF0CD
:10332000CBF82C2369467C6101220B731E48BC61DB
:1033300003A9BE610DF0C0F87C610820BC617E610C
:1033400000F00CFA80235B00254CBB62254F2168FE
:103350003868FFF787FC3A68234900265018411E59
:103360008841224BC0001E602368214CC018C10355
:103370000C43A02104339B00D218C9050E604A609B
:103380008E600C6101241B4B01211C6000F05EFA71
:103390000B20194900F074FA30E0C046FFFF00002E
:1033A0000000054000127A0000C00340A80601108A
:1033B00008070110AC060110B0060110B406011098
:1033C00008060110B8060110BC060110C006011065
:1033D000C4060110C8060110CC060110DC0601105D
:1033E000B0E20120D00F00200000E0AF381C002028
:1033F00019004000042400507D2B001001210B20F7
:1034000000F024FA5B466E66EE662E676B675346E5
:103410000421AB660B206C6600F062F9064B074A8C
:103420001B681B0C1B04136005B0F0BCBB46B24606
:10343000A946A046F0BDC04670000540701005408A
:10344000F0B583B005000E00140000F0A5F90028C7
:1034500001D003B0F0BD154F01223B0001210097C0
:10346000053001F07FFB33002A0000940121104851
:1034700001F060FD21002800714303F0C3FA04004D
:103480000C4B002200930221042001F06BFB23006F
:10349000002201210094052001F064FB3B00022280
:1034A00000210097062001F05DFBD2E7006CDC02F2
:1034B00000800240001BB700F0B5DE464E46454690
:1034C0005746E0B5060085B004209A468B46019227
:1034D00001F02AFDFA21890003F094FA3223FF3328
:1034E00098467D4B850099465B460293534682463B
:1034F0002D18AD010393794BEB184B450AD90123E5
:103500005B429C465346E044ED1A4346002BF2D101
:1035100000208BE03121280003F074FA07243127C2
:10352000864263D0671EA34634003E005F46774361
:103530002800390003F066FA84424CD0731E0093D1
:10354000012E00D1B1E05B46FF1A3900280003F0DC
:1035500059FA844256D0B31E0093022E00D1AFE038
:103560005B46FF1A3900280003F04CFA844264D00D
:10357000F31E0093032E66D05B46FF1A3900280025
:1035800003F040FA844269D0331F0093042E6BD0BD
:103590005B46FF1A3900280003F034FA84426BD0EE
:1035A000052E6DD02800F91F03F02CFA844200D1BB
:1035B00071E00623242128009B46242703F022FAE9
:1035C000844211D005265F4677432800390003F076
:1035D00019FA8442B2D10029B0D1029B5F469B46C2
:1035E000039B34009A4615E026005C46390028000B
:1035F00003F008FA002995D1029B27009B46039B04
:103600009A4607E00029A6D1029B5F469B46039B92
:10361000009C9A465B466A01521B92005219D200E6
:103620001A60019B01201F6053461C6005B0F0BC6E
:10363000BB46B246A946A046F0BD0029E4D0F31E21
:103640000093032E98D10323092128009B460927C4
:1036500003F0D8F98442C7D0022667E70029D3D007
:10366000331F0093042E93D1042310279B462B096C
:103670009C42B9D0032659E70029C5D0052E91D127
:1036800019212800192703F0BDF9A04221D00523F4
:1036900004269B464AE7002900D08AE7029B5F4642
:1036A0009B46039B01249A46B4E72600AC4200D017
:1036B00025E7029B01279B46039B01249A46A9E725
:1036C000022304279B46AB089C4200D18CE70126CD
:1036D0002CE72600052489E750F80C00508EF4FFF3
:1036E000094A10B594464024830063441A68C00018
:1036F0006240803414408022520113431C60034B0B
:103700009C466044416010BD04C00140004001403F
:10371000074B80009C4660440368C90092000A433E
:103720005A400C231A4080235B0103431A60704700
:1037300004C00140084B80009C466044002905D02D
:10374000802340229B0103431A607047C02340221C
:103750009B0103431A60F8E704C001400123D02213
:103760008340120693629361094A40219446830084
:1037700063441A68C0004A408031114080225201DF
:1037800013431960034B9C46052360444360704714
:1037900004C0014000400140024B18688007C00F80
:1037A0007047C04600C00640EFF3108072B6034A6F
:1037B0001368002BFCD0BFF35F8F70472C0100D043
:1037C000BFF35F8F0022024B1A6080F310887047AE
:1037D0002C0100D070B5EFF3108C72B60D4D2B6834
:1037E000002BFCD0BFF35F8F0724CB08C618C05C4A
:1037F00001230C40A3401C000440034207D118439E
:103800003070BFF35F8F2C608CF3108870BD100098
:1038100001F0AEFC2C0100D00021044B044ABFF3A0
:103820005F8F02C39342FAD17047C046000100D0B7
:10383000800100D0044A1078431CDBB2172B00D95A
:10384000102313707047C046D40F0020012383401B
:10385000002904D0034A1360034A13607047034AE7
:103860001360FBE780E200E000E100E080E100E0BF
:10387000024B10309B688000C058704700ED00E09C
:1038800070B50D00EFF3108672B60F4A1368002B67
:10389000FCD0BFF35F8F0D4B10309B6884001B5929
:1038A0000B4A934203D09D4201D001F079FC074BB3
:1038B0009B681D51BFF35F8FBFF35F8F0022024BE8
:1038C0001A6086F3108870BD240100D000ED00E07E
:1038D000CD010010F0B5DE4657464E464546E0B5F0
:1038E0000C0083B0EFF3108872B65D4A1368002BAA
:1038F000FCD0BFF35F8F5B4B5B499A6803001033CA
:103900009F00D5598D4239D0A5424AD0574EAA1BA7
:103910002F2A33D801229246824091464846544A83
:103920001268104001904846524A1060BFF35F8F02
:10393000EFF305829346002A35D0934201D001F07F
:103940002FFC2A0053469A439068844208D175E0C0
:103950004B005B189B00F3189868A04234D01A0003
:10396000062151560029F3DA844253D0019B002BE3
:1039700026D04A46404B1A603D4B1A60394B9B6833
:10398000DD51BFF35F8FBFF35F8F0022344B1A60AE
:1039900088F3108803B0F0BCBB46B246A946A046E7
:1039A000F0BD0D00EAE72A0053469A43906884422E
:1039B000D6D1062010561300002809DA0D0031E098
:1039C0004A462C4B1A60D9E706201856002822DBFD
:1039D00042001118890074188A46A1689960E1793B
:1039E000D971062161569971002925DBA488F11A45
:1039F0006405241554440919E0240905490D2402DD
:103A00002143998013181D4A9B001178F31899716E
:103A10001070ABE713005946002914D1FF319171A2
:103A20001749918015490A789A71164A9B1B5B4188
:103A30005A43120D0A7099E71349E2E7062010561F
:103A400013000028C4DA114A1149D21A083A500268
:103A5000400D014399800F4952080A43DA8085E7F7
:103A6000240100D000ED00E0CD010010D80F0020AF
:103A700000E100E080E100E080E200E0F9E6012002
:103A800001BDFFFFAAAA000001BD00001210002026
:103A900000F0FFFF00F8FFFF70B5EFF30581012490
:103AA0000443EFF3108C72B6214A1368002BFCD04C
:103AB000BFF35F8F1F4B05001F4AED1A6D416A432C
:103AC000120D1E4D8900AE6852B27658A6421CD027
:103AD0000621595691421CD012215956914222D0AA
:103AE0001E215956914220D02A2159560324914231
:103AF00010D0134B19781A708171BFF35F8F0022B9
:103B00000B4B1A608CF3108870BDAB680D4C5C5089
:103B1000EFE700246100091989005B18FF21997102
:103B200009499980E5E70124F4E70224F2E7C04659
:103B3000240100D0D80F0020AAAA000000ED00E068
:103B4000F9E60120CD01001001BDFFFF054B064A3B
:103B50001360064A136053609360D360136153612E
:103B6000936170478080808000E400E004E400E01E
:103B7000024B9C466144890001607047400000345C
:103B800010B50400FFF756FE01002000FFF7F0FF1C
:103B9000FF232371BFF35F8F10BDC04610B5040033
:103BA000FFF748FE01002000FFF7E2FFFF23A3809C
:103BB000BFF35F8F10BDC04683680B4810B58446C5
:103BC000614462441201090159189B185C684A68F3
:103BD0000120944201D802D00020C0B210BD1A6862
:103BE0000B689A42F9D8F7E7FFFFFF0F10B50800FE
:103BF0000B690C009847002802D02068616810BD4E
:103C0000E06000210020FAE70A4B1968EFF310800A
:103C100072B60A68002AFCD0BFF35F8F1B68BFF33F
:103C20005F8F00221A6080F3108840BF00200021BF
:103C30007047C046BCE60120F8B5574645464E469B
:103C4000DE46E0B598460CAB1C780DAB1B78070040
:103C500091469A460568002C59D1AC7B002C3BD08C
:103C6000660029683619033E89194B78AB73002B1F
:103C700000D1EB7300238B704B700B702D4BE2184F
:103C8000BB6812019B184A461A6042465A600A9A5B
:103C90009A600B9ADA6000238B704B700B706B7B11
:103CA0009B46002B26D022006B685946A86898478F
:103CB0005B465B005B442A68033B002812D05846F1
:103CC0009619B070D118D35C002B00D073705B468E
:103CD0000C706B735C450ED0F0BCBB46B246A94677
:103CE000A046F8BDD3189C709119925D002A1CD192
:103CF0005B460B706C734A464346387D00F0D8FC37
:103D0000051E0AD10E9B002BE6D01D70E4E766006D
:103D100029683619033E8919B0E75346002BF1D1C3
:103D20002100386800F0E2FEECE75A705B460B7049
:103D30006C73E0E7FFFFFF0FF0B5DE4657464E46D7
:103D400045460023E0B58BB00893674B8200D458FA
:103D500000239B46099000F017FC02000B006068EE
:103D6000EFF3108A72B6564601680029FCD0B246BD
:103D7000BFF35F8F21684F7B8C46002F2ED0A56844
:103D80005A49A94679180901894449460868496889
:103D900005000E00AD1A9E41002E5FDD02000B00F3
:103DA000099800F085FC0023002299460023069222
:103DB0000793002398466368BFF35F8F5A461A60E3
:103DC0008AF310884346002B12D10028C3D10BB0D0
:103DD000F0BCBB46B246A946A046F0BD0023002277
:103DE0009946002306920793002300209846E2E7B5
:103DF000089B494618023843C047626805000E0018
:103E0000EFF3108A72B61368002BFCD0BFF35F8FFC
:103E1000002E40DB2B00334302D02369002B55D109
:103E20002368D97B002905D01A6848004118521828
:103E3000033A57709A7B002A00D19F73DF73E268C0
:103E4000013FD35D0133D3555B4623616368BFF304
:103E50005F8F5A461A608AF310887CE7002E01D1E2
:103E6000002D9BD10021604600F0BEFD4B461A6834
:103E70005B68069207934B469B6898464B46DB6807
:103E80009946E368DB19013B1B7808931B02034347
:103E9000236100208FE72369002BC1D0069A079B7E
:103EA0008021521BB34109068B4202D30122104BE1
:103EB000524200210491013103914946019141464A
:103EC000200002970091FFF7B7FEBDE700F05CFB12
:103ED0002A00330012184B41802109068B42E8D397
:103EE0000122034B5242E4E7A4E60120FFFFFF0F4B
:103EF000FFFFFF7F10B5144C6368002B04D00A212C
:103F00001248FFF735FE10BD2300114A102120682A
:103F100000F086FC032000F02BFB032000F036FCB1
:103F200003200C4900F07EFBFFF784FC0A4B9C4603
:103F300003232375D0231B061B6860446375074B5E
:103F400080006060DC60DAE720100020BCE6012021
:103F5000B93B0010393D001040000034A4E60120B8
:103F60000048704720100020F0B557464E464546A1
:103F7000DE46E0B585B0019310AB1B7806000393D5
:103F800000239A46984600927268EFF3108B72B63F
:103F90001368002BFCD0BFF35F8F3568AC7B002C1F
:103FA00000D16DE067002B683F19033FDB195A7899
:103FB000AA73002A00D1EA73484AA118B26809011D
:103FC000521800980199106051600E9991600F99F4
:103FD000D16042469A705A701A706B7B9946002BDA
:103FE0006BD022006B684946A86898474B465B0037
:103FF0004B442A68033B002856D04846D719B8706E
:10400000D118D35C002B00D07B704B460C706B73C7
:104010004C4553D0F3681B19013B18787368BFF304
:104020005F8F42461A608BF310885346002B08D1ED
:104030000002204305B0F0BCBB46B246A946A046EC
:10404000F0BD039B002B46D00E9B00200F99984794
:1040500003000B433FD004000D1E1ADA009A019BA7
:10406000121BAB410092019380221206934204D3AB
:1040700001231B4C5B4200930194039B9A4683E708
:104080007368BFF35F8F1C608BF310880120404280
:10409000D0E700F079FA80220019694112060090F9
:1040A00001919142E9D3E3E7D3189C70D119D25D15
:1040B000002A00D05A704B460B706C73307D009A0A
:1040C000019B00F0F5FA82460028A3D02100306859
:1040D00000F00CFD9EE70020ACE7C046FFFFFF0F9D
:1040E000FFFFFF7FF8B50B0004004168EFF3108578
:1040F00072B60A68002AFCD0BFF35F8FFF222068E7
:10410000D9B2467B1A408E4207D006685700BF18C6
:10411000F619033EB678002E10D0E6681B0AB218D6
:10412000013A1278DBB29A420DD000206368BFF3E7
:104130005F8F00221A6085F31088F8BD22699A42C9
:10414000F3D12661F1E700F0D1FCEFE7F0B5574677
:104150004E46DE4645461100E0B585B006009C4659
:10416000109F194300D1E7E06146DB1701930093EC
:1041700053401C00019B4B401D0000980199241ADC
:104180008D4163460E997B600F9BBE607B613961F8
:104190003A6000F0F9F98023001969411B0600908C
:1041A0000191994204D30123684C5B42009301942E
:1041B00000239846664B1097039300239946109B63
:1041C0003700464698467A68EFF3108B72B613684C
:1041D000002BFCD0BFF35F8F3D68AC7B002C00D17F
:1041E00078E063001B19033B1A00944602932B6886
:1041F00063445A78AA73002A00D1EA73554AA11879
:10420000BA68090152180098019910605160039929
:1042100091604146D1604A469A705A701A706B7B21
:104220009A46002B00D17AE022006B685146A868BC
:10423000984753465B0053442A68033B002864D0E8
:10424000D1188C465146029810188170D35C002B0F
:1042500000D0437063461C7053466B733500544561
:104260005ED0FB687A681B19013B1B78BFF35F8F38
:10427000494611608BF31088002D0CD147461B0274
:10428000234301352800FB6005B0F0BCBB46B246B5
:10429000A946A046F0BD434640461B699847061E06
:1042A00024D043460CCB100018434BD014001D1EE5
:1042B0001FDA009A019B121BAB41009201938022EE
:1042C0001206934200D27EE70123204C5B4200930A
:1042D000019478E73E0047467368BFF35F8F1C6028
:1042E0008BF31088012300255B42CBE74746002370
:1042F000C8E700F049F980220019694112060090D0
:104300000191914200D25EE7DEE70298D3189C70DB
:104310001118125C002A00D05A7053460B706C734F
:10432000387D009A019B00F0C3F9051E99D0210049
:10433000386800F0DBFB94E700230124002501220C
:104340009C461EE74746350000239BE7FFFFFF7FA3
:10435000ED3B0010FFFFFF0FF0B504000D00062637
:104360007642F717C64636196F4100B584B08F42C2
:1043700014D811D000F008F932003B00121A8B411A
:10438000002B15DC002B3ED02000290000F03AF96C
:1043900004B080BCB846F0BD8642EBD900260027A9
:1043A00000F0F2F832003B00121A8B41002BE9DDDD
:1043B000002302930193154B3200009314483B00F5
:1043C000FFF7D2FD0028DFDB00239846BC46114AE8
:1043D000114F7B6A9C4504D8B96A8E42D4D99C455A
:1043E000D2D11168EFF3108072B60B68002BFCD0AD
:1043F000BFF35F8F1368BFF35F8F4146196080F38F
:10440000108820BFE5E7002ABED0D1E7093C0010A4
:1044100020100020BCE601200040054070B50600D9
:1044200000F0B2F8FA2204000D0000233000002151
:10443000920003F079FE8023001969411B0699421E
:1044400002D3012002494042FFF786FF70BDC046FB
:10445000FFFFFF7F70B5EFF3058305000C0084B00C
:10446000002B0FD0104A0020536AA34203D3926A54
:104470000130AA4201D304B070BD1B1B5A1E9341E8
:10448000D8B2F8E7094E02930193094B020000935A
:1044900030000B00FFF768FD011EE3DD20BF300098
:1044A000FFF720FEDEE7C046004005402010002058
:1044B000093C0010F0B5EFF30582D6464F4646465C
:1044C0001000C0B51038EFF3108872B6214C236885
:1044D000002BFCD0BFF35F8F0123190081401E4DDC
:1044E0001F006963AA461D4D29601D4D2E78AC46FC
:1044F0003500C5402F402B4215D053465F6A194BFB
:104500008500EB589F4218D36246174B8E43EB58F9
:104510001670BFF35F8F0022226088F31088002B93
:1045200006D0984704E0BFF35F8F276088F31088B8
:10453000E0BCBA46B146A846F0BD0C4B92009C4682
:10454000624413681360BFF35F8F0023236088F316
:104550001088EDE7280100D0004005403C70054080
:10456000FAE60120C0E6012024E60120D03F054004
:1045700010B5034B01001800024AFFF72BF910BDDC
:10458000F8E60120888A0110034B596A0A00986AEC
:10459000596A8A42FAD170470040054070B504005C
:1045A0000D00174A536A1900966A536A8B42FAD172
:1045B0003000190024184D41AB4216D813D0104BCF
:1045C0002A005B6A9D4203D90D494B6A9342FCD392
:1045D000934207D10A4A02E0516A994202D1916A94
:1045E000A142F9D370BDA642E9D9054B5B6A1C0014
:1045F0005A1CEFD0012201246442E5175242E3E73E
:1046000000400540064A536A9942FCD807D1044B42
:1046100002E05A6A914202D19A6A8242F9D3704703
:104620000040054070B504000D00EFF3108672B62F
:104630001A4A1368002BFCD0BFF35F8F002D1BD0EC
:104640002000FFF715F9164981420AD02000FFF734
:1046500017F901212000FFF7F9F80123A340114ABF
:104660001360114BA400E550BFF35F8F00220B4B8A
:104670001A6086F3108870BD0121A1400A4BA20088
:10468000D5500A4B20001A788A4305491A70FFF763
:1046900021F900212000FFF7D9F8E5E7280100D033
:1046A000B54400103860054024E60120FAE60120F8
:1046B000F0B54F46D6464646C0B507002E4C616A57
:1046C0000D00A66A616AA942FAD18B4208D805D0CA
:1046D0000120E0BCBA46B146A846F0BDB242F7D9C7
:1046E000EFF3108A72B6254801680029FCD0BFF3A9
:1046F0005F8F0125BD4022491F4C884609788946B5
:104700002943C9B28C46414660460870391D89006C
:1047100065630A511B49B8004350216A00202942B1
:1047200019D0616A0800A66A616A8142FAD18B4297
:1047300019D801D1B24216D8CC450BD00E4B1F224E
:104740001D625D6301233A4093400F4A1360434664
:104750004A461A700120BFF35F8F0022074B1A6090
:104760008AF31088B5E70020BFF35F8F0022034B68
:104770001A608AF31088ACE700400540280100D099
:10478000FAE60120C0E6012080E200E0EFF3108CA1
:1047900072B60A490B68002BFCD0BFF35F8F012370
:1047A0008340074A0748136202789A430270BFF3B6
:1047B0005F8F00230B608CF310887047280100D0B6
:1047C00000400540FAE6012070B506000D00140017
:1047D00000291DD0002A12D07368806898476200B3
:1047E0006B0012195B193168033A033B002808D0AB
:1047F0008A189570C818CB5C002B0BD10470280068
:1048000070BDCB189C7088188A5C002A05D1057091
:104810002000F5E753700470F1E75A700570F7E770
:1048200010B583600023CCB243730133426004733C
:104830008373C4730068421C012C05D90133DBB2B9
:10484000137003329C42F9D1FF230B405A00D31856
:10485000C01800230338437010BDC04670B5050072
:104860000C1E07D0630001681B19033BCB185A7854
:10487000002A01D1200070BD5000801803380918AB
:1048800000204E784870210058702800FFF79CFFE8
:10489000310004002800FFF7E1FF0600002C20D0C3
:1048A0000028E7D0320021006B68A86898477200A2
:1048B000630092191B192968033A033B002808D0AA
:1048C0008A189470C818CB5C002B00D05370067007
:1048D000D0E7CB189E7088188A5C002A00D05A70E6
:1048E00004703400C6E7C046F0B557464546DE467C
:1048F0004E46E0B50D006F0001687F19033F0400CC
:10490000C85D83B00192CA19002850D043001B181B
:10491000033BCB185E78B446002E1AD1019E002EC0
:1049200042D0E67B002E04D073009B19CB18033BCA
:104930005D70A37B002B00D1A573E57300282FD1F8
:104940000023537003B0F0BCBB46B246A946A04654
:10495000F0BD72006244033A8A18517888460021FB
:10496000517089465970320001002000FFF72CFF7A
:1049700043468246002B07D05B0021684344033B3B
:10498000CB185A78002A16D1424651462000FFF72C
:104990001BFF2168019BCA19002BC2D10028CFD070
:1049A00043001B18033BCB1800219970C8E7019BFB
:1049B000002BB6D1C4E75000801803380918487896
:1049C000834648464870587041462000FFF7FCFE79
:1049D000594680462000FFF741FF41460200200073
:1049E000FFF7F2FE8046CFE7F0B557464546DE4674
:1049F0004E46E0B583B00191457B04006F0000682E
:104A00007F19033FC15DC219002952D04B005B18CA
:104A1000033BC3185E78B446002E1CD1019E002EC5
:104A200044D0E67B002E04D073009B19C318033BCF
:104A30005D70A37B002B00D1A573E573002931D1F4
:104A4000002328005370617303B0F0BCBB46B2462C
:104A5000A946A046F0BD72006244033A821850781D
:104A60008046002050708146587032002000FFF7C9
:104A7000ABFE43468246002B07D05B0021684344CF
:104A8000033BCB185A78002A17D1424651462000E2
:104A9000FFF79AFE019B01002068C219002BC0D1CC
:104AA0000029CDD04B005B18033BC3180020987041
:104AB000C6E7019B002BB4D1C2E750008018033831
:104AC0000918487883464846487058704146200087
:104AD000FFF77AFE594680462000FFF7BFFE4146A9
:104AE00002002000FFF770FE8046CEE770B505009B
:104AF00000292CD0437B8B422ED04C0000686418D8
:104B0000033C0419A278002A21D053009B18033BD0
:104B1000C25CC6188A4202D11BE0002A08D05300AA
:104B20009B18033BC3185A788A42F6D162785A70B0
:104B3000002301222800A3706370FFF7D5FE697B74
:104B400002002800FFF740FE6873012000E000200B
:104B500070BD63783370EBE701221900FFF7C4FEE4
:104B6000F2E7C046F0B545464E46DE465746E0B54C
:104B700083B016000C9A050088469A4200D973E06B
:104B80001A0E93461B0218000193594600230C9AF3
:104B900001F076FF354B6C009C466419A400644418
:104BA00063680700834200D260602B1FDBB2994626
:104BB000012B34D9C02380229B01234312011A60A8
:104BC0002B4BAD0059599A46002905D0586901F080
:104BD00019FF01300138FDD1226873015340E022F2
:104BE0001A4080235B0123431A604A46012A2ED9CA
:104BF000802380229B01234312011A60594600231F
:104C00003A000198676001F03BFF5346585101207C
:104C100003B0F0BCBB46B246A946A046F0BD434631
:104C2000012BC7D1C02303229B0123431A60023A00
:104C3000A3681A42FCD0226873015340E0221A4054
:104C400080235B0123431A60094AAD009246424625
:104C50002168514003220A401A60012243469A40CB
:104C6000A3681A42FCD0C3E70020D1E700800040CF
:104C70000816002010B50C2082B000F0BFF9FEF736
:104C80008BFD002810D0864B86488649864A1860DE
:104C900059609860D960186159619861D96118624A
:104CA00059625A6202B010BD804CA06700F0AEF9A4
:104CB00001227F4B1A60636C012BFCD103227D4BD8
:104CC0001A607A4A936B012BFCD1013301217A4A95
:104CD0007A480093043300F02DF90523784A0093B5
:104CE0000121784800F026F9774B5A68FF2A02D84C
:104CF000802252005A6080226E4B694C12011A6069
:104D00002169002905D0606901F07CFE013001387D
:104D1000FDD1E0226C4B6D4819680A400260022206
:104D20001968514001320A40042102609A68114218
:104D3000FCD08021664A09011160802252005A602D
:104D4000644B2361644B5968FF2900D85A600322E1
:104D50000121574B1A60604A93681942FCD0E02346
:104D6000106803405D480360126803234A40022133
:104D70001340594A036093681942FCD08021584B74
:104D8000090119608021574B490051606361564BFE
:104D90005A68FF2A00D859608022544B12011A60C9
:104DA000E169002905D0606901F02CFE013001386D
:104DB000FDD1E0234C4A11680B404D490B60802126
:104DC0004C4B090119608021364B49005160E36169
:104DD000494B5A68FF2A00D859608022474B12017C
:104DE0001A60216A002905D0606901F00BFE0130CC
:104DF0000138FDD1E023404A11680B4040490B6067
:104E00008021404B0901196080235B0053608022A0
:104E1000244BD20223623C4B5968914200D25A6023
:104E200080223A4B12011A60616A002905D060693C
:104E300001F0E8FD01300138FDD1E023324A11686C
:104E40000B4033490B608021324B090119608023EC
:104E5000DB025360144B63622F4B5A68FF2A02D85F
:104E6000802252005A6080222C4B12011A60A169E4
:104E7000002905D0606901F0C5FD01300138FDD180
:104E8000E023254A11680B4025490B608021254B02
:104E90000901196080235B005360124BA36101E795
:104EA00008160020006CDC021BB7000000800040E8
:104EB0003CB0004030B00040002F685900800240F4
:104EC000008C864700C00240308000403090004097
:104ED00030A00040001BB7003C8000403C900040E8
:104EE0003CA00040405973075480004054B000403B
:104EF0005490004054A000406080004060B00040EA
:104F00006090004060A000406C8000406CB00040A9
:104F10006C9000406CA000404880004048B00040C9
:104F20004890004048A00040014B8000C0587047A6
:104F300008160020F8B504000C2017001E000D0014
:104F400001F060FD43011B1A9901C91AC900091833
:104F50008901380001F056FD069B37041B031F43EF
:104F60002368002B22DB1A4B1A4EE218531E9A417B
:104F700080239B019C465242120B174B1203624442
:104F80001A60164B1A601300B1688B43FBD1C02323
:104F9000221D9B01134321222560A0601A60226814
:104FA000002AFCDA0822E7601A60F8BD3F23226875
:104FB0001340AB42D7D1A3681B051B0D8342D2D14E
:104FC000EE22E368D2021340BB42CCD1EDE7C046EB
:104FD0000040FDBF00C0004000E0004000F0004085
:104FE000044B00011B68044A5840F023034013603F
:104FF0007047C04600400640005006408023024AE9
:105000009B000343D362704700800540AA23064AF1
:105010001B0113602F230549D360054B19605368AA
:10502000002BFCDA7047C0460040024000B0FA0096
:10503000006002402C4B2D4A70B51A602C4A2D4B53
:105040002D491A6014008B689C43FBD12B4D2C4ECC
:10505000B54208D2013E761BB60808CD984723001A
:105060000134B342F9D1FFF705FE264A214B1A60FD
:10507000214A9368DB43DB01DD09002BF9D1402293
:10508000214B224C224E9A675A671A67DA66B4425D
:1050900008D223682000002B20D00834FEF77EFDC4
:1050A000B442F6D31B4C1C4EC022B168200003F062
:1050B0001BFCB460FEF7B0FBFEF748FDFEF71AFFDD
:1050C000164C174EB44208D2013E361BB60808CC27
:1050D00098472B0001359E42F9D170BD0834FEF788
:1050E0004FFDB442D5D3DDE700E00040BFCDFBFE6D
:1050F000FE7F3C0000F0004000C00040CC150020C6
:10510000DC150020FFFFFF0100F00140C415002066
:10511000CC1500200000002000ED00E0DC15002090
:10512000F015002000BEFDE7094A030010680028C2
:1051300005D00849C3188B4207D81360704706484A
:105140000449C31810608B42F7D901204042F5E7AB
:1051500080E6012000000420FCE6012000207047CA
:10516000012040427047C04610B5FFF7DBFFC04644
:105170000FB400B5084883B003F062FC049B002B19
:1051800007D005A91800019101F0BCFB034803F00A
:1051900057FC0120FFF7C6FFAC8A0110BC8A011042
:1051A00010B50148FFF7E4FFC08A01109A4200D20F
:1051B000885470477047C046F8B55746DE464E469D
:1051C0004546E0B599460A9B07009A460D9B8846DE
:1051D00093460B9C9B073BD10C9B9C423DD21E1BD4
:1051E0000B9415000C005E442A004B46013521004B
:1051F0002020B847B542F7D1A0460B9C002C20D008
:10520000454636195346321B013C185D29004B4672
:10521000B847002CF6D12B00350098460D9B9B0714
:105220000FD55B46EC1A0C9BA3420AD9464698461A
:105230002A004B46310020200134B847013544454F
:10524000F6D32800F0BCBB46B246A946A046F8BD3E
:1052500016001500002CD3D1E0E71600002CCFD1AA
:105260001500EEE7F0B54F464646D646C0B584B0C9
:1052700098460EAB1B7894469946129B0D9C109F46
:10528000119E9A0725D4002E65D1BC4221D201225D
:105290001A409246202C00D1E9E00C9A551E30228B
:1052A00002E0202C00D17BE001342A55A742F8D837
:1052B0005246002A0DD0B4420BD20C9A551E302211
:1052C000202C02D171E0202C2DD001342A55B4427B
:1052D000F9D1DA063CD55A052ED4002C28D10F9AE4
:1052E000102A00D1B6E0022A00D1BCE030220C9C8A
:1052F000227001244A46002A65D15A0700D499E059
:105300002B220C9D2A55013403930C9B624600937B
:10531000029643460194FFF74FFF04B0E0BCBA4643
:10532000B146A846F0BD2024DA06EDD55A0503D4CF
:10533000A74266D0B44264D00F9A102A71D0022AD4
:1053400057D0202CE0D02200013430250C9FBD54D2
:10535000202CD9D0CEE7012215001D40AA461A42C2
:1053600036D04A46002A4AD10C321A4247D1BC42B2
:10537000A1D2202C91D1202E17D82024DA06C3D513
:105380005A051BD4202F01D0202ED5D11F220F9DCE
:10539000102D6FD0022DD8D162250C9FBD54D0E7BF
:1053A0005246002A79D0202EBDD92024DA06ABD56A
:1053B0005A0503D4202FE9D0202EE7D00F9A102AC7
:1053C000A2D12024A0E72D220C9D2A5501349BE771
:1053D000BC4200D37DE7202C00D05EE7DA06F0D592
:1053E0005A05EED4202F62D0202EEAD134001F229D
:1053F000CDE7202C00D187E722000134CCE7013E25
:10540000B5E7621E012CC2D10F9A102A00D06AE7BC
:105410009A063BD558220C9C2270283A62700224CE
:1054200068E79A060ED4202CCBD078220C9D2A5502
:10543000013486E71A0700D466E720220C9D2A551E
:10544000013461E7202CBCD058250C9A1219157034
:10545000013476E79A0608D558220C9C2270302237
:105460006270022446E76032F7E77822F5E7002A07
:1054700083D1B3E7A21E013C9D0603D478250C9F7F
:10548000BD5460E758250C9FBD545CE778220C9C06
:105490002270483A627002242CE7DA0600D433E71F
:1054A0005A058BD4202F00D044E71F226FE73C0021
:1054B0001F226CE710B5002800D110BD03F074FA6C
:1054C000FBE7C046F0B557464E464546DE46E0B5DA
:1054D00099B08246894690460893229A239B1000F1
:1054E000190001F05CFD002800D0CDE0229823993E
:1054F0000122D94B524201F04DFD002800D0C3E0FB
:10550000229823990122D54B524201F035FD002803
:1055100000D0B9E0229823990022002301F02CFD4D
:10552000002800D0F1E1229E239F8023269ADB00F1
:105530001A400D92269A1A4201D106232493802301
:10554000269A1B011A403B0093460996334300D02C
:10555000B3E0002A00D0C2E1002300240A930B9498
:10556000002304250993259B0024AB4200D95C1B32
:105570000223269A1A400C92269A134203D06B42B9
:105580006B415B421C40099B002B07D00A9A0B9B86
:105590003000390001F08FFC06000F00229823999B
:1055A0000022002301F0E8FC002803D08021090636
:1055B0007B181F00269AAA4B009601971340089E5D
:1055C0000493249B03940293424633004946504679
:1055D00000F0AAF90400002D67D02020269A494641
:1055E000024013005A4253415B42621C18400A9227
:1055F000330022004530D047099A6F1ED317D418C4
:105600005C40D30F9B46002501E0202D13D008AA53
:1056100094461F23200063440A2101355E1901F0DE
:10562000F1F93031317020000A2101F0EBF9260048
:105630000400092EE9D805230693002304930A33B6
:1056400003935B46089E029310AB0A9A0093494667
:105650003300504605970195FFF704FE0C9A0400AD
:10566000002A22D04246851A259AAA421DD9B04660
:105670005746160022004346494620200135B847C8
:105680000134AE42F6D810E0269B42460493259B97
:1056900049460393249B50460293229B239C0093EC
:1056A0000194089B00F040F90400200019B0F0BC00
:1056B000BB46B246A946A046F0BD6A4B78009C4660
:1056C000400D604401F07EFC674A684B01F011FC1C
:1056D000674A684B01F0E6FB674A3B031B0B1A4322
:1056E00004000D0009981100644B002201F0D1FB69
:1056F000634A644B01F0FDFB02000B00200029000F
:1057000001F0D0FB01F076FC099001F05BFC5E4AF1
:105710005E4B04000D0001F0ECFB00225C4B01F03D
:10572000C1FB01F067FC5B4A5B4B29000C90200039
:1057300001F0DFFB04000C980D0001F043FC574A18
:10574000574B01F0D6FB02000B002000290001F0AE
:10575000A0FB04000D0002000B000A940B9501F061
:10576000C8FB04000D000A980B9902000B0001F021
:1057700099FB00220E900F914A4B2000290001F066
:105780009AFB0022484B01F08DFB02000B00200029
:10579000290001F090FB0022444B01F083FB020042
:1057A0000B002000290001F086FB0A9A0B9B0D00DC
:1057B00080210400C905002001F06BFB02000B00F2
:1057C0002000290001F06EFB02000B000E980F99DB
:1057D00001F071FB0022284B01F064FB344B0C9C60
:1057E0009C4664442305002201F083FB04000D0065
:1057F00002000B00300039000A940B9501F0BCFB4D
:1058000000285DD123002A00C625099963318D4205
:10581000AD4159466D420435002900D1A3E613433A
:1058200063D030003900234A234B01F0ABFB002842
:1058300007D0002230003900204B01F09DFB0028EA
:1058400053D1249B002B00D18DE60D9B5A1E934112
:10585000249AD31A249386E6FFFFEF7FFFFFEFFF22
:10586000FFF7FFFF01FCFFFFFB799F501344D33F7D
:10587000B3C8608B288AC63F0000F03F0000F83FA5
:1058800061436F63A787D23F71A379094F930A40A1
:105890000000E03F1655B5BBB16B0240EF39FAFE90
:1058A000422EE63F00002C4000002440000018403B
:1058B000FF0300002D431CEBE2361A3F80842E418B
:1058C000099B0022013B09932000164B290001F09F
:1058D000F2FA0A00010003000A910B9294E70023F8
:1058E00000240A930B9400230993249A099B9A425B
:1058F00014DDD31A013B24938023269ADB001A433C
:1059000000230025269209932DE680221206944654
:10591000229B1E00239B63441F0006E60023249362
:10592000EAE7C04600002440F0B54546DE464E4654
:105930005746E0B595B08B46904699461E9A1F9BF8
:105940000A9019001000209D01F029FB002800D0CA
:10595000B0E11E981F990122C74B524201F00CFB87
:10596000002800D037E11E981F990122C34B5242F4
:1059700001F010FB002800D0A7E01E981F9900221C
:10598000BF4B01F007FB002800D088E01E981F994C
:105990000022BC4B01F0F0FA002800D07FE01E98F6
:1059A0001F990022002301F0E7FA002800D0FAE056
:1059B00000230B938023229C229ADB001C401A4276
:1059C00000D102E1092D00D87CE106A98C462C000B
:1059D000172200233021093C62440133D154EF1ACD
:1059E000202B00D132E1A342F7D10022A44B069232
:1059F00007931E981F9901F0FDFA050001F0E2FAE5
:105A000002000B001E981F9901F043FA069A079BAB
:105A100001F06FFA0890099101F010FB060001F007
:105A2000CDFA02000B000898099901F032FA002221
:105A3000954B0890099101F0ADFA002800D1D2E011
:105A40000136300001F0BAFA069A079B01F09AFA83
:105A5000002801D000260135AA46002F00D098E08A
:105A6000280001F0AFFA02000B001E981F9901F008
:105A700010FA854B002206000F0001F07DFA0CABF6
:105A80009A46002845D10022300039007E4B01F0B3
:105A900081FA00283DD1EB073BD5013539E0229B47
:105AA00042460493219B594603930A981E9B1F9CD0
:105AB0000295009301944B46FFF704FD15B0F0BC2E
:105AC000BB46B246A946A046F0BD229B5B0767D401
:105AD00003226E4B22990192039121990291009326
