:020000041000EA
:1000000000B5324B212058609868022188439860DF
:10001000D860186158612E4B002199600221596106
:100020000121F02299502B49196001219960352056
:1000300000F044F80222904214D00621196600F024
:1000400034F8196E01211966002018661A6600F04E
:100050002CF8196E196E196E052000F02FF8012189
:100060000842F9D1002199601B49196000215960AB
:100070001A491B48016001219960EB211966A021F2
:10008000196600F012F800219960164914480160C1
:100090000121996001BC002800D000471248134993
:1000A000086003C880F30888084703B5996A0420EC
:1000B0000142FBD001200142F8D103BD02B5186610
:1000C0001866FFF7F2FF186E186E02BD00000240BE
:1000D000000000180000070000035F00212200005C
:1000E000F4000018222000A00001001008ED00E03C
:1000F00000000000000000000000000074B24E7A12
:1001000000200420F7010010C3010010C5010010F9
:10011000C1010010C1010010C1010010C101001097
:10012000C1010010C1010010C1010010C701001081
:10013000C1010010C1010010C9010010CB01001065
:10014000CD010010CD010010CD010010CD01001037
:10015000CD010010CD010010CD010010CD01001027
:10016000CD010010CD010010CD010010CD01001017
:10017000CD010010CD010010CD010010CD01001007
:10018000CD010010CD010010CD010010CD010010F7
:10019000CD010010CD010010CD010010CD010010E7
:1001A000CD010010CD010010CD010010CD010010D7
:1001B000CD010010CD010010CD010010CD010010C7
:1001C00000BE00BE00BE00BE00BE00BEEFF3058054
:1001D000103800BEF2EB8871B0950110CC9501107B
:1001E0003402001090A31AE700201F49086006C8D7
:1001F00081F3088810471D48006800282FD10DA4FE
:100200000ECC002902D000F012F8F9E71849194A7B
:10021000002000E001C19142FCD1174988471749ED
:1002200088471749884700BEFDE701C901C29A42C5
:10023000FBD37047CC950110C000002000160020B1
:100240000CAB011000000420000004200CAB0110D6
:10025000001004200010042000000000704709482E
:1002600005F016FE0047000008ED00E0000000D099
:1002700000160020EC92002075450010090C0010BB
:10028000A94600105756000006005250ABB3605309
:10029000B87C011006005250861C0302C87C011075
:1002A000060052505422A29DD07C011005005250ED
:1002B000DE65F4680CAB0110F8B5C046044B10B510
:1002C000002B03D00349044800E000BF10BDC04626
:1002D000000000004492002030F50010F8B5CE4632
:1002E0004746244B80B5186801F07EF8224801F09B
:1002F00059F80F2300220021002001F01FF801F01F
:100300002BFA0F2308220821082001F017F84423B4
:1003100044220021002001F09DF900230F26994678
:100320004B461D11334098464B460024AD009F1CA0
:1003300032002011401922400F234146C0B200F084
:10034000FDFFA01C3900013401F0A8F8402CEFD1CA
:1003500001239C46E1444B46402BE1D1074801F084
:1003600021F8074B186801F03FF8C0BCB946B04609
:10037000F8BDC046E8910020BD0E0010AD0D001084
:10038000148A00200023642230B591B006AC0C4DD5
:100390000A21200005930492039300220293019303
:1003A0000093503300F0FEFD20002B0032C832C312
:1003B00016C816C316C816C3FFF790FF11B030BD9C
:1003C000C4910020F0B5052189B005F0BBFD0029DE
:1003D00001D009B0F0BD172001F076FE4F4D002886
:1003E0002BD1142001F070FE002843D1162001F01B
:1003F0006BFE4B4C00285BD1152001F065FE0028F8
:1004000073D10F210A000F002B682468DE17E5174F
:100410003240D2182F40360F2D0F3F1912119B1961
:10042000641940480B4092003F112140D2199B1B98
:10043000491B826183638165CBE72B683A4C5A1E66
:100440005B42DB171A4064232A6007935A3B0693EA
:10045000E123DB00059323006A46103343CB43C2FC
:1004600003CB03C20FCC00F0AFFD142001F02CFE33
:100470000028BBD02B6801333F2B00DD3F232B60CE
:10048000642307935A3B0693E123274CDB00059333
:1004900023006A46103343CB43C203CB03C20FCCC5
:1004A00000F092FD162001F00FFE1D4C0028A3D095
:1004B00023681D4E5A1E5B42DB171A4064232260DC
:1004C00007935A3B0693E123DB00059333006A460A
:1004D000103383CB83C203CB03C20FCE00F074FD75
:1004E000152001F0F1FD00288BD0236801333F2B4C
:1004F00000DD3F232360642307935A3B0693E123E7
:10050000094EDB00059333006A46103383CB83C268
:1005100003CB03C20FCE00F057FD72E7A80F0020F7
:10052000AC0F002074920020C4910020274BF0B53E
:1005300004001868002385B003934533009300221C
:100540000D0002910194002101F01AF901F0C8FD9B
:1005500006F08EFD1E4906F040FD06F0F9FDFE2175
:10056000890506F037FD1B4906F04BFD06F0DAFD64
:10057000C0B20F230200010000F0E0FE164F174E3C
:10058000396830686918201803220231033800F0F6
:10059000BFFF39683068691820180322023104301F
:1005A00000F0B6FF39683068691820180322033953
:1005B000023000F0F3FF3968306869182018032210
:1005C0000431023000F0EAFF05B0F0BDE8910020F0
:1005D0000000C8420000F040A80F0020AC0F00202F
:1005E000F0B5DE464E4657464546E0B50F23BBB054
:1005F00001220121012000F0A1FE01F0ADF80F233E
:100600000F220F210F2000F099FE0B2378220021EA
:10061000002001F04DF80F2301220121012000F0FC
:100620008DFE102300222EA936AE34A82E933496C8
:1006300007F004FE2E9C1022E4493490369407F013
:1006400089F80022349B35941A55012334A80221DD
:100650005B42023201F0EEFB3498B04203D036998F
:10066000013107F089F812210520FFF75FFFD84C10
:100670005425A08B00F06AFE44230A221221502048
:1006800000F0E8FFA0690F21800105F05BFC062265
:10069000291A0300522001F00BF8A08F00F056FE3B
:1006A00044230A2212215C2000F0D4FFA06B0F210A
:1006B000800105F047FC0622291A03005E2000F0A5
:1006C000F7FF5C23E05A00F041FE44230A22122186
:1006D000682000F0BFFFA06D0F21800105F032FC03
:1006E0000622291A03006A2000F0E2FF0F230822E5
:1006F0000821082000F022FE172322225C2150202E
:1007000000F0A8FFA26DA16B0F23D2B2C9B2207E68
:1007100001F0E2FB039000F019FE13231E225E217C
:10072000522000F0C5FF0F230D220D210D2000F0F7
:1007300005FEA1690AA801F097FB0422A54B0092CF
:10074000002100220AA807F057FE070012AB109301
:100750009846036808370500BB4200D19FE110931B
:100760008368129300236A682B726B609A4B119214
:100770002F609B1A012B00D8CBE1984B0222190065
:1007800010A89A4607F08CFE070018AB16939946FE
:10079000036808370500BB4200D196E116938368D1
:1007A00018936B682F60179300232B726B60A16BFB
:1007B0001CA801F059FB17981D9A169B1C998518C7
:1007C0004B4500D179E1189FBD4207D91EAFB94210
:1007D00000D162E11E9FBD4200D837E17E4B1B1A5B
:1007E0009A4200D995E116A807F05AFE08229346CE
:1007F00024AB2293029303688344050022AF5B4538
:1008000000D153E122938368BB606B687B605B46D9
:100810002B6000236B602B727A686F4B9B1A012B45
:1008200000D876E102225146380007F039FE08224E
:1008300093462AAB28939A460368834405005B4598
:1008400000D151E1289383682A936B682EA82993DD
:100850005B462B6000232B726B60A16D01F004FBE3
:1008600029982F9A289B2E998518534500D133E15A
:100870002A9CA54207D930ACA14200D10BE1309CA3
:10088000A54200D8E9E0544B1B1A9A4200D940E136
:1008900028A807F005FE0500349603680835040013
:1008A000AB4200D1E7E034938368369363683593B5
:1008B000002363602372359A474B25609A4200D12A
:1008C00027E10122464934A807F0EAFD08229346B1
:1008D00006AD04950368834404005B4500D111E133
:1008E000049383680693636805935B462360002343
:1008F000237234986360B04203D03699013106F018
:100900003BFF2E9830ACA04203D03099013106F065
:1009100033FF2898504503D02A99013106F02CFF67
:100920002298029B984203D0B968013106F024FF57
:100930001C981EAB984203D01E99013106F01CFF93
:100940001698484503D01899013106F015FF109804
:10095000404503D01299013106F00EFF0A980CAB06
:10096000984203D00C99013106F006FF01235C2266
:100970005B42052104A801F05DFA1A49039A28A8F0
:1009800005F036FA28A834960DF0C8FF07000128B4
:1009900000D177E0002853D1002308223597F719BA
:1009A0003B700021104B009234A8002207F024FD78
:1009B000082290462E94036880440700434500D1E6
:1009C00099E02E938368309310E0C04630F5001014
:1009D0007492002044F50010FFFFFF3F64F5001003
:1009E00068F500106CF5001074F500107B682F930B
:1009F00043463B6000233B7234987B60B04203D097
:100A00003699013106F0B8FE01232EA86B2205218C
:100A10005B4201F00FFA2E98A04203D030990131C9
:100A200006F0AAFE0498A84203D00699013106F008
:100A3000A3FE3BB0F0BCBB46B246A946A046F0BD03
:100A4000020028A9300006F085FEA5E700900022EC
:100A500000211CA807F0D0FCC8E60090002200216D
:100A60002EA807F0C9FC0500349603680835040079
:100A7000AB4200D017E7426829003000013206F08F
:100A800069FE13E79822D02102AB9B181B7802AABB
:100A90005218137080E70F24F2E60F279BE6426896
:100AA00039004046013206F055FE5BE64268594681
:100AB0000298013206F04EFEA7E60F2D00D88DE613
:100AC0001EAFB94200D085E688E642683900484644
:100AD000013206F03FFE64E60F2D00D8D3E630ACBD
:100AE000A14200D0CBE6CEE64268594650460132DC
:100AF00006F030FEA9E6426841462000013206F0C9
:100B000029FE73E7426859462800013206F022FEAA
:100B1000E9E6014807F082FA4CF50010F0B507004D
:100B2000083704000E0083B00760002925D00800B4
:100B30000DF0F4FE0500030001900F280CD80128E9
:100B400007D132782272002220006360FA5403B089
:100B5000F0BD0028F7D008E00022200001A907F02E
:100B60006DFB0700019B2060A36038002A00310064
:100B700006F0F0FD019B2768E5E7014807F01EFA43
:100B800080F5001010B5002282B04421442001F00D
:100B9000B3F9184C184B01AA186018492000FFF748
:100BA000BDFF0F23002200210F20A36101F094F963
:100BB000A083200001AA12492030FFF7AFFF0623CF
:100BC0000022A3630F210933002001F085F9A087DB
:100BD000200001AA0B494030FFF7A0FF09230F2294
:100BE000A36500210633002001F076F95C23E05272
:100BF00002B010BD74920020E8910020B4F50010FE
:100C0000B8F50010BCF50010F0B5DE464E4645467E
:100C10005746E0B583B001F0E1FB802601F0C6FB4A
:100C2000002301244B4D760008C5200006F020FA71
:100C3000EE21890506F0E5F9474906F0E2F906F0EC
:100C400087FA013401C5B442EFD1002001F026FB40
:100C500001F070FA01F068FA0028FBD101F054FAB3
:100C600001F052FA4B2001F019FBFFF78BFB01F06A
:100C700099FB3A4B00279B46186000239A46384B55
:100C8000384D994601F03CFA060000F04BFB00F0AD
:100C900063FB00F067FB00F07DFB00F089FB00F0D8
:100CA000BBFB00F0F1FB5B464A461B68136001F09A
:100CB00079FB5B46186001F023FA7B1C04003800C6
:100CC0009846FFF77FFB01F01BFA001BE86001F07C
:100CD00017FA009001F028FA0028FBD101F010FA71
:100CE0005346C01A686101F00BFA040001F008FADB
:100CF00082464046FFF774FC01F002FA5346C01AE0
:100D0000286101F0FDF9019001F0FEF901F0F8F918
:100D1000804601F0F5F9824601F00CFA01F0F0F995
:100D2000861B31001048AE6005F00CF9013000233D
:100D30000237286028280AD9009B4444E01A019B06
:100D40003100C01A6423584305F0FCF803006B60BF
:100D500098E7C046408A0020DB0FC940DC890020AC
:100D6000F0890020FC8900203F420F0010B5782157
:100D7000084A782001F0C0F8074B80211860074B23
:100D8000074A1860802001F0B7F8064B1860064B40
:100D9000186010BD5C190020148A0020581900202A
:100DA000DCF6001044190020E4890020F0B54E461E
:100DB00045465746DE4690460A1452008446105A6D
:100DC000394AE0B50503154005433848384C05401D
:100DD00022782C03240F54430F3424112707FF0FCC
:100DE000099EE4199146E4B2771E002E1ED04246B9
:100DF000002A21D1844665432E4A654494462E4AF2
:100E0000102191460C1B1E88274A3103114062466F
:100E100031430140614349190E0C16404A46090905
:100E20001140314319800233013FECD2F0BCBB4684
:100E3000B246A946A046F0BD012292461A88414416
:100E400093461603184A16405A4616430640B346C0
:100E50001022161B5A465643144A6C4393465E446E
:100E60003419154A25091540124A240C14406246CB
:100E70002C431C800C146400A45A0B4A2503154013
:100E8000FF22254305402E0C16404A465643524643
:100E90000F363611F6B2F40814403419E4B20233B6
:100EA000013FCBD2C2E7C04600000F0F0F0F0F0F5C
:100EB000CC0F0020F0F000000F0F0000F8B5CE4678
:100EC000474680B5089C002A4AD19A0758D1028823
:100ED000944612046244012C3AD9A11E8846404629
:100EE0004D0859070135C90F0B2858D91E00002994
:100EF00053D004C66F1A780881460020890059181B
:100F000001300A604A6008318145F9D10121394236
:100F10001AD08F4341467800BF00081AF719861E81
:100F20003A60012E10D9061F7A60012E0CD9861F57
:100F3000BA60012E08D9023EFA60012E04D90A389F
:100F40003A61012800D97A610122AD005B19144091
:100F5000002C01D062461A80C0BCB946B046F8BD2C
:100F600080256D02AA4212D0651E002CF4D00C140C
:100F70006400245A89181C800233013DF7D2EBE744
:100F8000002CE9D00288013C1A8002339FE701005F
:100F90006200180006F0DEFBDEE7A046AAE71F00AD
:100FA0002000BCE710B50361029B039C4361059BD5
:100FB00004608361069B049CC361079B446081605D
:100FC000C260036210BDC04684B030B5059206937E
:100FD0000E4A0C9B049113600D4A0E4913600D9A42
:100FE0000D4B03901A600E9A0C4B1A600B0003AA6B
:100FF00031CA31C313CA13C313CA13C30022084B27
:101000001A6030BC08BC04B01847C0464019002024
:101010004C190020188A00203C8A0020D00F0020A4
:10102000E0890020F0B557464E46DE464546E0B51D
:101030004E4E0400736900209B464D4B83B01F68E1
:10104000B369BA46DA449846D146C144A1451CD991
:10105000316A002920D1474BB5681B6800933B00DB
:10106000AF4200D92B009C421BD22900200204F081
:1010700069FF009B43431D0AF369002B36D14346A9
:10108000002B01D0444546D8E8B203B0F0BCBB46C3
:10109000B246A946A046F0BD200004F053FF641AF2
:1010A000D9E7F36801935B19BB4230D89C4205D362
:1010B000A74245D9306964210002D8E7306964212C
:1010C0008027000204F03EFF7F003B1A9A46601B17
:1010D0000199000204F036FF53465843009B000A72
:1010E0003F1A7B431D0AF369002BC8D00CF0C0FBEC
:1010F000F769390004F026FF7F08B369C91B9846D9
:1011000069181BD464256429B9DC0D00B7E73B00DE
:101110009C42CDD2D2E7E01AFFF784FF06002800F8
:101120004946604304F00EFF4B460500181B494634
:10113000704304F007FF4019C0B2A6E700259EE700
:101140000025A24598D9E01B5946000204F0FAFE9A
:101150000135FF352D1A30696421000204F0F2FEDA
:101160006843009A030A5A43150A85E7188A002043
:101170003C8A0020D00F0020F0B557464E46454629
:10118000DE46E0B5614C624F26683D6885B0002EB2
:101190003FD1604B994662696B1C3B60A7699346DF
:1011A000BA465D4B00211E680192B344DA44AA4559
:1011B0001FD9216A002927D1584B1B680293A368C5
:1011C00098463300464500D94346AB4230D94146A4
:1011D000280204F0B7FE029B43431B0A9846E369CA
:1011E000002B4CD1002F01D0BD425ED8FF214346D9
:1011F00019404B46186801F075F805B0F0BCBB46C5
:10120000B246A946A046F0BD280004F09BFE6D1A28
:10121000D2E7404B616899460029BCD0280004F011
:1012200091FE4A4646433E4B1B68F3181360B2E7F3
:10123000E36803934344B34233D89D4205D3AE429F
:101240004AD9206964210002C3E72069642180260D
:10125000000204F077FE7600331A9B464346E81AF4
:101260000399000204F06EFE5B465843029B000A9D
:10127000361A73431B0A9846E369002BB2D00CF070
:10128000F7FAE669310004F05DFE43467608891BF3
:10129000A769C9181DD4642398466429A2DC88462E
:1012A000A0E733009D42CAD2CFE7E81BFFF7BAFEA2
:1012B000040040465146684304F044FE534606008D
:1012C000581B5146604304F03DFEFF218019014048
:1012D0008FE70023984685E700239846AB4500D862
:1012E0007DE7A81B01998026000204F02BFE760002
:1012F000361A20696421000204F024FE7043029A29
:10130000030A5A43130A984669E7C046188A002020
:10131000E0890020401900203C8A0020D00F0020E6
:101320004C1900200F2310B50F220F210F2000F0C1
:10133000D3FD014B188010BDE492002010B500F0E1
:10134000CBFD014B188010BDE4920020014B1880AA
:101350007047C046E49200200F22014B1A7070477C
:10136000CC0F00200022064B1A60064B1A60064B79
:101370001A68064B116852681960054B1A6070476D
:10138000501900205419002058190020B80F0020CF
:10139000B40F0020014B024A1A607047BC0F0020B6
:1013A000AD0D0010014B18607047C046BC0F002007
:1013B0000021074B1A68074B1A60074B1960074B4F
:1013C00019601168064B52681960064B1A60704725
:1013D000148A0020581900205019002054190020A8
:1013E000B80F0020B40F00200022064B1860064BF7
:1013F0001A60064B1A600268054B1A60054B42687A
:101400001A60704758190020501900205419002004
:10141000B80F0020B40F00200022024B1A60024BCC
:101420001A607047F4890020F8890020054A036893
:1014300012689B1A044A03600B6812689B1A0B60BF
:101440007047C046F4890020F8890020002808D0A1
:10145000094B0A4A19680A4B18680A4B1060196050
:101460007047084B044A19681160044A044910681F
:10147000086000200021F1E7708E0020F88900202C
:10148000748E0020F48900200022024B1A60024B67
:101490001A607047E8890020EC89002010B584B0FC
:1014A0000390029103A802A9FFF7C0FF114C124B51
:1014B0002468124A1B6812680194114C029924682E
:1014C0000398009400F094FD002811D00D4B029970
:1014D0001B680D481A689B684A43039952180121FA
:1014E00052009B18094A0091146800210022A0476D
:1014F00004B010BDB40F0020541900205019002072
:10150000B80F002058190020E4920020BC0F0020E2
:1015100030B585B00390029103A802A91400FFF72B
:1015200085FF174B02991B68994226DB154A126802
:101530009B18994221DA144A039B1268934203DAFA
:10154000D31AE41A13000392104DE0182D685219B3
:10155000904201DB801A241A002C0EDD0C4A106820
:1015600002684A43D218836852009B18094A0094C3
:101570001468002100220848A04705B030BDC046CD
:1015800054190020B40F002050190020B80F00207B
:1015900058190020BC0F0020E4920020F0B5D64678
:1015A0004F464646C0B584B00390029103A802A9F5
:1015B0001700FFF73BFF204B039A1B689A4234DB6E
:1015C0001E4909685B189A422FDA1D4B02991B6865
:1015D000994203DA591A7F1A19000293194C7818A4
:1015E00024681B19984201DBC01A3F1A164E7D1E53
:1015F0003068036884684B439B185B00E418002F35
:1016000013DD124B01279946114B9846434600972C
:101610001B6800229A46002123004846D0473368C1
:101620001A685200A418013DF0D204B0E0BCBA46DA
:10163000B146A846F0BDC04650190020B80F0020A2
:1016400054190020B40F002058190020E492002003
:10165000BC0F002070B514001D0082B001900091F5
:1016600001A86946FFF7E2FE0020FFF7EFFE220027
:1016700000990198FFF74CFF00996E1E3200019807
:101680000131FFF78BFF009901986918621E01393B
:101690000130FFF73DFF0198320020180099013812
:1016A000FFF77CFF0120FFF7D1FE02B070BDC046FE
:1016B000F0B5C64600B588B00790069107A806A900
:1016C00005920493FFF7B2FE1C4B05AA1B6806A9FE
:1016D00003931B4B07A81B6802931A4B1B680193CB
:1016E000194B1B68009304AB00F04CFC174D069996
:1016F0002A68136894684B4307995B185B00E418E9
:10170000049B5A1E0492002B13D0114B114E984685
:10171000059B002200930021230040463768B8470C
:101720002B681A68049B5200A4185A1E0492002BBE
:10173000EED108B080BCB846F0BDC046B40F002062
:10174000B80F00205419002050190020581900200B
:10175000E4920020BC0F002010B5054B054A064955
:1017600006481B68126809680068FFF7A1FF10BDF2
:10177000B40F0020B80F0020541900205019002089
:10178000F0B5DE4657464E464546E0B51E0087B0EA
:1017900083468A4611A812A91400FFF747FE5F4D41
:1017A0005F4F2B68320003933B68129902935D4BA5
:1017B000119898461B6801935B4B99461B680093F0
:1017C000109B00F0C3FB002800D180E0B4465346D4
:1017D000119AD444002B00DA8BE01099129B09195E
:1017E0000491002C00DA79E05846016805916145C2
:1017F00002DC6046401A361A58460499406888420E
:1018000003DC091A1098411A1091494609688C4660
:10181000914204DD8A1A9244B6180A001191414699
:101820000968994208DD1098CB1A80469844E4185C
:10183000434610930B0012913F68B0186744B842BA
:1018400001DBC71BF61B10982D68C71849198F427A
:1018500002DB7F1AC11B1091002E38DD1099002980
:1018600035DD05994C4359468F6830495444086822
:101870006400016885684B439B185B00ED18139B5F
:101880003F19DB0742D480235B02059300230493B6
:10189000109B5C1E139B9B0704D523004B435B00EE
:1018A000ED1849424B009946214BB0469A464346B3
:1018B0000093534638001E68059A2B000499B047E0
:1018C0005B461B684D445B00FF18013CEFD207B03C
:1018D000F0BCBB46B246A946A046F0BD58461091A2
:1018E00001681B1B129300240591614500DD83E70D
:1018F0007FE7D21A002310999A4609196646129B6F
:1019000011920491002C00DB6EE7E7E75346F31ACF
:10191000013B1B040493074B0593B9E7B40F002068
:10192000B80F002054190020501900205819002029
:10193000BC0F00200000FFFF0D4B70B51E68072391
:10194000150032680C00D1170B409B1884B0D910D9
:1019500004F0F8FA002303930833C200C9003000F2
:10196000029501940093FFF70BFF04B070BDC046D1
:10197000E4890020F0B54E46DE4657464546E0B5C0
:1019800003782F4A203BD900C9182E4B85B001900F
:10199000039210681A68465C4418511C4DD0921B83
:1019A000D205120E9046284A02939246274A1068A2
:1019B0009346524611684246641A01340F00A1460C
:1019C00012184B461500DC5D002E0AD063B2002BC6
:1019D00024DB640001359319E4B2AB42F6DC5346D4
:1019E00019680137CB1DBB42EBDA029B019A1B68D9
:1019F0001278591C05D1039B203A1968D3009B1813
:101A00005B5C134A12688018C0185B46186005B00A
:101A1000F0BCBB46B246A946A046F0BD280039003E
:101A2000FFF73CFD5B46186843461A186400013511
:101A30009319E4B29D42C9DBD1E700229046B2E798
:101A4000B00F0020C00F0020EC890020E8890020A2
:101A5000C40F002030B50B6802681C0001330B6016
:101A6000D05C702809D110198578652D05D1C07812
:101A70006E2802D1073423000C60D05C73280AD191
:101A8000D2185078702806D19278722A03D1053383
:101A90000B60683830BD0020FCE7C046F0B5CE468C
:101AA000474680B50D6803686A1C0A600C00995CA3
:101AB000060089B070295BD159198878652857D1FB
:101AC000C8786E2854D16F1D27600A79100030380D
:101AD000C0B209280AD911004139052900D89FE070
:101AE000110061390020052900D8B2E0AA1D22604A
:101AF0009446DA5D11003039C9B209290AD91100BA
:101B00004139052900D8A7E01700613F0021052FC2
:101B100000D89BE0EA1D2260904662469F5C3A0036
:101B2000303AD2B2092A0DD93A00413A052A00D8F2
:101B300095E061256D42AC46BC4465460022052D0A
:101B400000D87DE045465D5D2B00303BDBB2092BC4
:101B50000AD92B00413B052B00D88BE02F00613FB9
:101B60000023052F00D86EE0FFF7E8FB22683368FA
:101B7000995C73294FD19918487870284BD189788E
:101B8000722948D1033222607568AA4200D983E0E5
:101B900004AFAD1A2E0002979918032D43D8012DDA
:101BA00044D002AB9846002D45D1434600255E60E7
:101BB000BE193570029E0CF0FBFD036899460CF0CF
:101BC000F7FD0A22056001A930000CF0CBF8019B5B
:101BD00005009E425DD00CF0EBFD0368222B55D032
:101BE0000CF0E6FD0368002B4BD00298B84204D0FD
:101BF00043469968013105F0BFFDFF202368284066
:101C000002332360274C284B21681A68FFF794FEA3
:101C100023680833236009B0C0BCB946B046F0BDA4
:101C2000373AD0B262E70326012DBAD10B7802AA67
:101C300090461372B9E73200380005F08BFDB4E727
:101C4000573FFAB27EE7573DEBB28DE7573AD1B234
:101C500060E7573AD0B249E7373AD1B25AE745463A
:101C60005D5D373F2B00303BDBB2FAB2092B00D968
:101C70006FE779E7373DEBB2FFF760FB2268336827
:101C800076E70CF095FD4B460360AEE7074806F09B
:101C9000DDF9064806F0AAF92B000549054806F0CB
:101CA000EDF9C046E8890020EC89002010F600100C
:101CB000C0F50010D8F50010F0B557464E46DE4688
:101CC0004546E0B5554F8BB03B6842689C468C4416
:101CD000009363460593002306000893002A00D171
:101CE00097E0002000244E4B04919A464D4B0193FF
:101CF0004D4B0293336806A99B461B5DCB71202B8D
:101D00003ED021D8092B31D00A2B08D1009B019954
:101D10003B60534609681B685B1851460B60002006
:101D2000013408949442E5D35346019A1B68126823
:101D30009B1852461360009B3B600BB0F0BCBB4647
:101D4000B246A946A046F0BD5C2B06D1300008A9DA
:101D5000FFF7A4FE089C7268E1E7002817D006ABE5
:101D6000D81DFFF707FE01207268D9E7029B1B68A8
:101D700019788B005B1839685B005B183B60CEE715
:101D8000029B39681B681B785B183B60C7E72749D3
:101D90002200894626490994884623490025039153
:101DA0004146B0464E46A1465C46BB460F0010E099
:101DB0003168481C05D10399203B0868D900CB182D
:101DC000195C3B680132ED18A35C6D180992202B59
:101DD0000AD95C2BECD1404609A9FFF73BFE099AD2
:101DE0002D18A35C202BF4D8049B4C4646465F4636
:101DF0000133B4D03B68ED18059B9D42AFDD009BDD
:101E0000019A3B60534612681B689B185246136048
:101E1000A5E7034B9A46034B019385E7E889002029
:101E2000EC890020C80F0020B00F0020C00F002058
:101E3000C40F002030B51D00040083B0019101A83B
:101E400069460092FFF7F2FA019A054B29001A60E1
:101E5000044B009A20001A60FFF72EFF03B030BD3C
:101E6000E8890020EC890020F0B504002600184F16
:101E70000B0083B02021174A3800083603F0CEFF4C
:101E8000380026600CF04AFD0500030001900F2881
:101E90000CD8012807D13A78227200222000636012
:101EA000F25403B0F0BD0028F7D008E00022200073
:101EB00001A906F0C3F90600019B2060A360300071
:101EC0002A00390005F046FC019B2668E5E7C0467C
:101ED000788E002018F6001010B5F02424011202AC
:101EE00022400F2409030A43044014431A01FF232C
:101EF00013401C43A0B210BDF8B5070010200D0020
:101F0000160005F02DFC04001022002105F01CFC39
:101F100027606560002E02D0A6602000F8BD7D43DA
:101F2000094B68009D420CD805F01EFC0600012DEF
:101F300003D400216A0005F007FC0123A660237387
:101F4000EBE701204042EFE7FCFFFF3F30B5040024
:101F50000598039D844665440020A54211DBA21824
:101F6000039CA2420DDB069C049AA44662448A426A
:101F700007DB049ACB180499D817D20F8B42504133
:101F8000C0B230BDF0B5C646146800B5A046089C86
:101F9000069EA44644460768B4443C19079D644520
:101FA00000DD6446B74200DA3700E41BE743FF1761
:101FB0003C4014600C681A68099FA2187F19BA4245
:101FC00000DD3A00AC4200DA2C00121BD443E417C7
:101FD00022401A600368B34200DA330003600B68E2
:101FE000AB4200DA2B000B6080BCB846F0BDC046A7
:101FF00030B50400002094420EDB99420CDB039DB7
:10200000AC466244A24207DD049A01209446634430
:102010008B4200DC0020C0B230BDC04610B5FFF7D7
:10202000ABF8012010BDC046224BA0201A68012346
:1020300093402149C00510B5445823420DD0435068
:102040001E490B8801331BB20B80782B06DD012360
:1020500000225B420B801A4B1A7010BD194B1B6893
:1020600098680B881BB2002B06DD0B881BB2013B66
:102070001C01E31A1B01C0180C883C23002C07D15B
:10208000A021C9058C46920162441060D361E4E747
:102090000B8892011BB2783B59424B413B215B427A
:1020A0008B43A021C9058C46783362441060D3610C
:1020B000D3E7C046481900200C040000D80F0020C8
:1020C000E6920020148A002001238340034A10680E
:1020D000184043425841C0B27047C046DC890020D6
:1020E00010B501F0F1FC002905D0FA22002392007E
:1020F00003F066FF10BDFA21890003F023FFF9E722
:1021000010B501F0E1FC10BDD021012209064B6899
:102110001B0A1A42FBD1D021012209064B681B0A77
:102120001A42FBD07047C046014B18787047C04632
:10213000E6920020174A1378002B00D07047012147
:102140001170154A1380154B1B68996813881BB2D0
:10215000002B06DD13881BB2013B1801C31A1B01BB
:10216000C91810883C23002809D1A020C005844646
:102170000B4A1268920162441160D361DEE7138852
:102180001BB2783B5A4253413B225B429343783324
:10219000EBE7C046E6920020D80F0020148A00200A
:1021A00048190020F0B5CE46474680B5334B87B07E
:1021B00004000D0018683249984605F09DFC802304
:1021C0005B020293C0231B03049303008027123396
:1021D000C2011B0313432B4AFF0513403B430393E8
:1021E00001230600994629002000009307220133AD
:1021F000059705F0A1FD244B244A0293049B290076
:1022000013400493059A224B20001A40214B13439C
:1022100005930022C02305F0E7FCC022290020001E
:10222000C02305F035FD049B07209B009B081F433E
:1022300043461968184B04979C4661444B1E9941CC
:10224000063100F0EDFC43461968134B06209C460E
:1022500061444B1E9941063100F0E2FC320002ABB2
:102260002900200005F0BCFD4B46AB40226813431B
:10227000236007B0C0BCB946B046F0BDDC0F0020FB
:1022800098F60010FFFFFF9F00010200FFFFF5C15D
:10229000E0830FFC071810000000E0AF10B504F059
:1022A000E7FE0B4904F099FE0A4905F06FF80A4B66
:1022B0000A491C6804F0A5FEFC21890504F08AFE89
:1022C00004F030FF6040064B0004000C186010BDA5
:1022D0000000C842333333408400054000FF7F478D
:1022E00084100540F0B5C646264B00B51E680400B4
:1022F00030000F0004F0BCFE011C234804F06DFE0A
:10230000051C200004F0B4FE011C281C04F065FE2E
:10231000804604F007FFC5B2280004F0AFFE011CA0
:10232000404604F054FE8321C90504F06AFE04F01F
:10233000F9FE2D01154A3304C0B21B0C0543956606
:102340003800536704F094FE114904F046FE114929
:1023500005F01CF8071C20000F4B70430F491D6847
:1023600003F0F0FD04F084FE391C04F04AFE04F092
:10237000D9FE000468400A4B000C0004186080BCC1
:10238000B846F0BDD40F0020286B6E4D000005400C
:102390000000C8426666E63F700005401027000056
:1023A00070100540D0231B065868704700B585B0F3
:1023B00001F076F8064B074A029300230193064B7F
:1023C000009301235B4201F061F905B000BDC046F6
:1023D0000016002018FCFFFF1D200010F0B5DE469F
:1023E00057464E464546002288218024E0B51A4BC8
:1023F0001A4885B058509A671A5104341A5110324D
:102400005850DA670F3A84399A670C2000F008FCBC
:10241000134B144A1B680D201B041B0C136002F0A5
:102420007FF80A2001F09AFA0F4803AB02AA01A92B
:1024300000F0E2FA002803D10C480B4902F038F909
:10244000039A0299019800F09BFAD0231B060024FE
:102450000126172798460EE000000540FFFF000008
:10246000840005408410054090D003001CF6001045
:102470000134202C13D03500A5402F42F8D005217F
:10248000280000F0CDFB33004246AB4001219362AF
:1024900028000022013400F0DBFB202CEBD1D026F9
:1024A000002404253606012C06D10521022000F067
:1024B000B7FB01347562B5610134E4B2202CF2D16E
:1024C00005F050FD1F211A2000F0AAFB0022002178
:1024D0001A2000F0BDFB00211A2000F0CBFB9C234A
:1024E0009846FE4BFE4D9B4643465A468C27EA5083
:1024F000982000239422EB518146AB505E462B502E
:1025000040462E5090268C38933A8246A85104219A
:10251000EA51023800F084FB8823584600218022CB
:10252000E850A967A9500432A950E8505046833AB0
:10253000E8670431AA67033800F072FB40465B4647
:1025400094212B500023EB516B50494658466B5059
:1025500041460122685051460F20A951EA510C39D9
:1025600000F05EFBDF49E04805F086FCD02705213E
:10257000042000F055FB51463F0679626420B961A2
:1025800001F0ECF951467136FF36796109200B39BB
:1025900000F046FB7E620521052000F041FB7C62D5
:1025A0000121062000F03CFB0121072000F038FB50
:1025B000012269467C61CC480A73BC6103A9BE61F3
:1025C0000CF066FF7C61052001F0C8F936236946EE
:1025D00001220B73C448BC6103A9BE610CF058FF13
:1025E0007E610122C149C0480CF052FF3523694683
:1025F0007C6101220B73BC48BC6103A9BE610CF075
:1026000047FFBB4B7E6119000122B74898460CF08A
:102610003FFFB22369467C6101220B73B248BC6163
:1026200003A9BE610CF034FF41467E6105220431EE
:10263000AD480CF02DFF3A2369467C6101220B73F3
:10264000A948BC6103A9BE610CF022FF7E61012292
:10265000A849A5480CF01CFF262369467C6101228D
:102660000B73A148BC6103A9BE610CF011FFA24B22
:102670007E61190001229C4899460CF009FFB7239E
:1026800069467C6101220B739748BC6103A9BE6156
:102690000CF0FEFE7E610122984993480CF0F8FE92
:1026A000BB2369467C6101220B738F48BC6103A97F
:1026B000BE610CF0EDFE7E61012291498A480CF06A
:1026C000E7FEC02369467C6101220B738648BC612A
:1026D00003A9BE610CF0DCFE7E61012289498248BB
:1026E0000CF0D6FEC22369467C6101220B737E4842
:1026F000BC6103A9BE610CF0CBFE49467E6101229C
:1027000079480CF0C5FEC32369467C6101220B7336
:102710007548BC6103A9BE610CF0BAFE7E6101225E
:10272000794971480CF0B4FEC42369467C610122EA
:102730000B736D48BC6103A9BE610CF0A9FE7E61FC
:102740000122724968480CF0A3FED02369467C61DF
:1027500001220B736448BC6103A9BE610CF098FEB2
:102760007E6102226A4960480CF092FEC6236946E7
:102770007C6101220B735C48BC6103A9BE610CF053
:1027800087FE7E610122634957480CF081FEE023F9
:1027900069467C6101220B735348BC6103A9BE6189
:1027A0000CF076FE7E610E225B494F480CF070FE05
:1027B000E12369467C6101220B734B48BC6103A98C
:1027C000BE610CF065FE7E610E22544946480CF055
:1027D0005FFE212369467C6101220B734248BC6184
:1027E00003A9BE610CF054FE7C61732001F0B6F8C1
:1027F0001123694601220B733B48BC6103A9BE61EA
:102800000CF046FE292369467C6101220B73364891
:10281000BC6103A9BE610CF03BFE2A2369467C61C2
:1028200001220B733048BC6103A9BE610CF030FE7D
:102830000C217E61414404222B4889460CF028FE7D
:102840002B2369467C6101220B732748BC6103A9D5
:10285000BE610CF01DFE49467E61042222480CF048
:1028600017FE2C2369467C6101220B731E48BC6154
:1028700003A9BE610CF00CFE7C610820BC617E6186
:1028800000F00CFA80235B00254CBB62254F2168C9
:102890003868FFF787FC3A68234900265018411E24
:1028A0008841224BC0001E602368214CC018C10320
:1028B0000C43A02104339B00D218C9050E604A6066
:1028C0008E600C6101241B4B01211C6000F05EFA3C
:1028D0000B20194900F074FA30E0C046FFFF0000F9
:1028E0000000054000127A0000C0034050F60010BE
:1028F000C8F6001054F6001058F600105CF60010F0
:1029000060F6001064F6001068F600106CF6001017
:1029100070F6001074F6001078F6001088F60010BB
:10292000408E0020DC0F00200000E0AF481900209E
:1029300019004000042400502920001001210B2020
:1029400000F024FA5B466E66EE662E676B675346B0
:102950000421AB660B206C6600F062F9064B074A57
:102960001B681B0C1B04136005B0F0BCBB46B246D1
:10297000A946A046F0BDC046700005407010054055
:10298000F0B583B005000E00140000F0A5F9002892
:1029900001D003B0F0BD154F01223B00012100978B
:1029A000053001F07FFB33002A000094012110481C
:1029B00001F060FD21002800714303F0C3FA040018
:1029C0000C4B002200930221042001F06BFB23003A
:1029D000002201210094052001F064FB3B0002224B
:1029E00000210097062001F05DFBD2E7006CDC02BD
:1029F00000800240001BB700F0B5DE464E4645465B
:102A00005746E0B5060085B004209A468B460192F1
:102A100001F02AFDFA21890003F094FA3223FF33F2
:102A200098467D4B850099465B4602935346824605
:102A30002D18AD010393794BEB184B450AD90123AF
:102A40005B429C465346E044ED1A4346002BF2D1CC
:102A500000208BE03121280003F074FA072431278D
:102A6000864263D0671EA34634003E005F4677432C
:102A70002800390003F066FA84424CD0731E00939C
:102A8000012E00D1B1E05B46FF1A3900280003F0A7
:102A900059FA844256D0B31E0093022E00D1AFE003
:102AA0005B46FF1A3900280003F04CFA844264D0D8
:102AB000F31E0093032E66D05B46FF1A39002800F0
:102AC00003F040FA844269D0331F0093042E6BD088
:102AD0005B46FF1A3900280003F034FA84426BD0B9
:102AE000052E6DD02800F91F03F02CFA844200D186
:102AF00071E00623242128009B46242703F022FAB4
:102B0000844211D005265F4677432800390003F040
:102B100019FA8442B2D10029B0D1029B5F469B468C
:102B2000039B34009A4615E026005C4639002800D5
:102B300003F008FA002995D1029B27009B46039BCE
:102B40009A4607E00029A6D1029B5F469B46039B5D
:102B5000009C9A465B466A01521B92005219D200B1
:102B60001A60019B01201F6053461C6005B0F0BC39
:102B7000BB46B246A946A046F0BD0029E4D0F31EEC
:102B80000093032E98D10323092128009B4609278F
:102B900003F0D8F98442C7D0022667E70029D3D0D2
:102BA000331F0093042E93D1042310279B462B0937
:102BB0009C42B9D0032659E70029C5D0052E91D1F2
:102BC00019212800192703F0BDF9A04221D00523BF
:102BD00004269B464AE7002900D08AE7029B5F460D
:102BE0009B46039B01249A46B4E72600AC4200D0E2
:102BF00025E7029B01279B46039B01249A46A9E7F0
:102C0000022304279B46AB089C4200D18CE7012697
:102C10002CE72600052489E750F80C00508EF4FFBD
:102C2000094A10B594464024830063441A68C000E2
:102C30006240803414408022520113431C60034BD5
:102C40009C466044416010BD04C00140004001400A
:102C5000074B80009C4660440368C90092000A4309
:102C60005A400C231A4080235B0103431A607047CB
:102C700004C00140084B80009C466044002905D0F8
:102C8000802340229B0103431A607047C0234022E7
:102C90009B0103431A60F8E704C001400123D022DE
:102CA0008340120693629361094A4021944683004F
:102CB00063441A68C0004A408031114080225201AA
:102CC00013431960034B9C460523604443607047DF
:102CD00004C0014000400140024B18688007C00F4B
:102CE0007047C04600C00640EFF3108072B6034A3A
:102CF0001368002BFCD0BFF35F8F70472C0100D00E
:102D0000BFF35F8F0022024B1A6080F31088704778
:102D10002C0100D070B5EFF3108C72B60D4D2B68FE
:102D2000002BFCD0BFF35F8F0724CB08C618C05C14
:102D300001230C40A3401C000440034207D1184368
:102D40003070BFF35F8F2C608CF3108870BD100063
:102D500001F0AEFC2C0100D00021044B044ABFF36B
:102D60005F8F02C39342FAD17047C046000100D082
:102D7000800100D0044A1078431CDBB2172B00D925
:102D8000102313707047C046E00F002001238340DA
:102D9000002904D0034A1360034A13607047034AB2
:102DA0001360FBE780E200E000E100E080E100E08A
:102DB000024B10309B688000C058704700ED00E067
:102DC00070B50D00EFF3108672B60F4A1368002B32
:102DD000FCD0BFF35F8F0D4B10309B6884001B59F4
:102DE0000B4A934203D09D4201D001F079FC074B7E
:102DF0009B681D51BFF35F8FBFF35F8F0022024BB3
:102E00001A6086F3108870BD240100D000ED00E048
:102E1000CD010010F0B5DE4657464E464546E0B5BA
:102E20000C0083B0EFF3108872B65D4A1368002B74
:102E3000FCD0BFF35F8F5B4B5B499A680300103394
:102E40009F00D5598D4239D0A5424AD0574EAA1B72
:102E50002F2A33D801229246824091464846544A4E
:102E60001268104001904846524A1060BFF35F8FCD
:102E7000EFF305829346002A35D0934201D001F04A
:102E80002FFC2A0053469A439068844208D175E08B
:102E90004B005B189B00F3189868A04234D01A00CE
:102EA000062151560029F3DA844253D0019B002BAE
:102EB00026D04A46404B1A603D4B1A60394B9B68FE
:102EC000DD51BFF35F8FBFF35F8F0022344B1A6079
:102ED00088F3108803B0F0BCBB46B246A946A046B2
:102EE000F0BD0D00EAE72A0053469A4390688442F9
:102EF000D6D1062010561300002809DA0D0031E063
:102F00004A462C4B1A60D9E706201856002822DBC7
:102F100042001118890074188A46A1689960E17905
:102F2000D971062161569971002925DBA488F11A0F
:102F30006405241554440919E0240905490D2402A7
:102F40002143998013181D4A9B001178F318997139
:102F50001070ABE713005946002914D1FF3191716D
:102F60001749918015490A789A71164A9B1B5B4153
:102F70005A43120D0A7099E71349E2E706201056EA
:102F800013000028C4DA114A1149D21A083A500233
:102F9000400D014399800F4952080A43DA8085E7C2
:102FA000240100D000ED00E0CD010010E40F00206E
:102FB00000E100E080E100E080E200E0E992002032
:102FC00001BDFFFFAAAA000001BD00001E100020E5
:102FD00000F0FFFF00F8FFFF70B5EFF3058101245B
:102FE0000443EFF3108C72B6214A1368002BFCD017
:102FF000BFF35F8F1F4B05001F4AED1A6D416A43F7
:10300000120D1E4D8900AE6852B27658A6421CD0F1
:103010000621595691421CD012215956914222D074
:103020001E215956914220D02A21595603249142FB
:1030300010D0134B19781A708171BFF35F8F002283
:103040000B4B1A608CF3108870BDAB680D4C5C5054
:10305000EFE700246100091989005B18FF219971CD
:1030600009499980E5E70124F4E70224F2E7C04624
:10307000240100D0E40F0020AAAA000000ED00E027
:10308000E9920020CD01001001BDFFFF054B064A6B
:103090001360064A136053609360D36013615361F9
:1030A000936170478080808000E400E004E400E0E9
:1030B000024B9C4661448900016070474000003427
:1030C00010B50400FFF756FE01002000FFF7F0FFE7
:1030D000FF232371BFF35F8F10BDC04610B50400FE
:1030E000FFF748FE01002000FFF7E2FFFF23A38067
:1030F000BFF35F8F10BDC04683680B4810B5844690
:10310000614462441201090159189B185C684A68BD
:103110000120944201D802D00020C0B210BD1A682C
:103120000B689A42F9D8F7E7FFFFFF0F10B50800C8
:103130000B690C009847002802D02068616810BD18
:10314000E06000210020FAE70A4B1968EFF31080D5
:1031500072B60A68002AFCD0BFF35F8F1B68BFF30A
:103160005F8F00221A6080F3108840BF002000218A
:103170007047C04670920020F8B5574645464E4607
:10318000DE46E0B598460CAB1C780DAB1B7807000B
:1031900091469A460568002C59D1AC7B002C3BD057
:1031A000660029683619033E89194B78AB73002BEA
:1031B00000D1EB7300238B704B700B702D4BE2181A
:1031C000BB6812019B184A461A6042465A600A9A26
:1031D0009A600B9ADA6000238B704B700B706B7BDC
:1031E0009B46002B26D022006B685946A86898475A
:1031F0005B465B005B442A68033B002812D05846BC
:103200009619B070D118D35C002B00D073705B4658
:103210000C706B735C450ED0F0BCBB46B246A94641
:10322000A046F8BDD3189C709119925D002A1CD15C
:103230005B460B706C734A464346387D00F0D8FC01
:10324000051E0AD10E9B002BE6D01D70E4E7660038
:1032500029683619033E8919B0E75346002BF1D18E
:103260002100386800F0E2FEECE75A705B460B7014
:103270006C73E0E7FFFFFF0FF0B5DE4657464E46A2
:1032800045460023E0B58BB00893674B8200D458C5
:1032900000239B46099000F017FC02000B006068B9
:1032A000EFF3108A72B6564601680029FCD0B24688
:1032B000BFF35F8F21684F7B8C46002F2ED0A5680F
:1032C0005A49A94679180901894449460868496854
:1032D00005000E00AD1A9E41002E5FDD02000B00BE
:1032E000099800F085FC00230022994600230692ED
:1032F0000793002398466368BFF35F8F5A461A60AE
:103300008AF310884346002B12D10028C3D10BB09A
:10331000F0BCBB46B246A946A046F0BD0023002241
:103320009946002306920793002300209846E2E77F
:10333000089B494618023843C047626805000E00E2
:10334000EFF3108A72B61368002BFCD0BFF35F8FC7
:10335000002E40DB2B00334302D02369002B55D1D4
:103360002368D97B002905D01A68480041185218F3
:10337000033A57709A7B002A00D19F73DF73E2688B
:10338000013FD35D0133D3555B4623616368BFF3CF
:103390005F8F5A461A608AF310887CE7002E01D1AD
:1033A000002D9BD10021604600F0BEFD4B461A68FF
:1033B0005B68069207934B469B6898464B46DB68D2
:1033C0009946E368DB19013B1B7808931B02034312
:1033D000236100208FE72369002BC1D0069A079B49
:1033E0008021521BB34109068B4202D30122104BAC
:1033F0005242002104910131039149460191414615
:10340000200002970091FFF7B7FEBDE700F05CFBDC
:103410002A00330012184B41802109068B42E8D361
:103420000122034B5242E4E75C920020FFFFFF0FB2
:10343000FFFFFF7F10B5144C6368002B04D00A21F6
:103440001248FFF735FE10BD2300114A10212068F5
:1034500000F086FC032000F02BFB032000F036FC7C
:1034600003200C4900F07EFBFFF784FC0A4B9C46CE
:1034700003232375D0231B061B6860446375074B29
:1034800080006060DC60DAE72C1000207092002081
:10349000F930001079320010400000345C920020B6
:1034A000004870472C100020F0B557464E46454660
:1034B000DE46E0B585B0019310AB1B7806000393A0
:1034C00000239A46984600927268EFF3108B72B60A
:1034D0001368002BFCD0BFF35F8F3568AC7B002CEA
:1034E00000D16DE067002B683F19033FDB195A7864
:1034F000AA73002A00D1EA73484AA118B2680901E8
:10350000521800980199106051600E9991600F99BE
:10351000D16042469A705A701A706B7B9946002BA4
:103520006BD022006B684946A86898474B465B0001
:103530004B442A68033B002856D04846D719B87038
:10354000D118D35C002B00D07B704B460C706B7392
:103550004C4553D0F3681B19013B18787368BFF3CF
:103560005F8F42461A608BF310885346002B08D1B8
:103570000002204305B0F0BCBB46B246A946A046B7
:10358000F0BD039B002B46D00E9B00200F9998475F
:1035900003000B433FD004000D1E1ADA009A019B72
:1035A000121BAB410092019380221206934204D376
:1035B00001231B4C5B4200930194039B9A4683E7D3
:1035C0007368BFF35F8F1C608BF31088012040424B
:1035D000D0E700F079FA80220019694112060090C4
:1035E00001919142E9D3E3E7D3189C70D119D25DE0
:1035F000002A00D05A704B460B706C73307D009AD5
:10360000019B00F0F5FA82460028A3D02100306823
:1036100000F00CFD9EE70020ACE7C046FFFFFF0F67
:10362000FFFFFF7FF8B50B0004004168EFF3108542
:1036300072B60A68002AFCD0BFF35F8FFF222068B1
:10364000D9B2467B1A408E4207D006685700BF1891
:10365000F619033EB678002E10D0E6681B0AB218A1
:10366000013A1278DBB29A420DD000206368BFF3B2
:103670005F8F00221A6085F31088F8BD22699A4294
:10368000F3D12661F1E700F0D1FCEFE7F0B5574642
:103690004E46DE4645461100E0B585B006009C4624
:1036A000109F194300D1E7E06146DB1701930093B7
:1036B00053401C00019B4B401D0000980199241AA7
:1036C0008D4163460E997B600F9BBE607B613961C3
:1036D0003A6000F0F9F98023001969411B06009057
:1036E0000191994204D30123684C5B4200930194F9
:1036F00000239846664B1097039300239946109B2E
:103700003700464698467A68EFF3108B72B6136816
:10371000002BFCD0BFF35F8F3D68AC7B002C00D149
:1037200078E063001B19033B1A00944602932B6850
:1037300063445A78AA73002A00D1EA73554AA11843
:10374000BA680901521800980199106051600399F4
:1037500091604146D1604A469A705A701A706B7BEC
:103760009A46002B00D17AE022006B685146A86887
:10377000984753465B0053442A68033B002864D0B3
:10378000D1188C465146029810188170D35C002BDA
:1037900000D0437063461C7053466B73350054452C
:1037A0005ED0FB687A681B19013B1B78BFF35F8F03
:1037B000494611608BF31088002D0CD147461B023F
:1037C000234301352800FB6005B0F0BCBB46B24680
:1037D000A946A046F0BD434640461B699847061ED1
:1037E00024D043460CCB100018434BD014001D1EB0
:1037F0001FDA009A019B121BAB41009201938022B9
:103800001206934200D27EE70123204C5B420093D4
:10381000019478E73E0047467368BFF35F8F1C60F2
:103820008BF31088012300255B42CBE7474600233A
:10383000C8E700F049F9802200196941120600909A
:103840000191914200D25EE7DEE70298D3189C70A6
:103850001118125C002A00D05A7053460B706C731A
:10386000387D009A019B00F0C3F9051E99D0210014
:10387000386800F0DBFB94E70023012400250122D7
:103880009C461EE74746350000239BE7FFFFFF7F6E
:103890002D310010FFFFFF0FF0B504000D000626CC
:1038A0007642F717C64636196F4100B584B08F428D
:1038B00014D811D000F008F932003B00121A8B41E5
:1038C000002B15DC002B3ED02000290000F03AF937
:1038D00004B080BCB846F0BD8642EBD90026002774
:1038E00000F0F2F832003B00121A8B41002BE9DDA8
:1038F000002302930193154B3200009314483B00C0
:10390000FFF7D2FD0028DFDB00239846BC46114AB2
:10391000114F7B6A9C4504D8B96A8E42D4D99C4524
:10392000D2D11168EFF3108072B60B68002BFCD077
:10393000BFF35F8F1368BFF35F8F4146196080F359
:10394000108820BFE5E7002ABED0D1E7493100103A
:103950002C100020709200200040054070B5060039
:1039600000F0B2F8FA2204000D000023300000211C
:10397000920003F00FFB8023001969411B06994256
:1039800002D3012002494042FFF786FF70BDC046C6
:10399000FFFFFF7F70B5EFF3058305000C0084B0D7
:1039A000002B0FD0104A0020536AA34203D3926A1F
:1039B0000130AA4201D304B070BD1B1B5A1E9341B3
:1039C000D8B2F8E7094E02930193094B0200009325
:1039D00030000B00FFF768FD011EE3DD20BF300063
:1039E000FFF720FEDEE7C046004005402C10002017
:1039F00049310010F0B5EFF30582D6464F464646F2
:103A00001000C0B51038EFF3108872B6214C23684F
:103A1000002BFCD0BFF35F8F0123190081401E4DA6
:103A20001F006963AA461D4D29601D4D2E78AC46C6
:103A30003500C5402F402B4215D053465F6A194BC5
:103A40008500EB589F4218D36246174B8E43EB58C4
:103A50001670BFF35F8F0022226088F31088002B5E
:103A600006D0984704E0BFF35F8F276088F3108883
:103A7000E0BCBA46B146A846F0BD0C4B92009C464D
:103A8000624413681360BFF35F8F0023236088F3E1
:103A90001088EDE7280100D0004005403C7005404B
:103AA000EA920020D4920020B4910020D03F05403B
:103AB00010B5034B01001800024AFFF72BF910BDA7
:103AC000E8920020487A0110034B596A0A00986A6C
:103AD000596A8A42FAD170470040054070B5040027
:103AE0000D00174A536A1900966A536A8B42FAD13D
:103AF0003000190024184D41AB4216D813D0104B9A
:103B00002A005B6A9D4203D90D494B6A9342FCD35C
:103B1000934207D10A4A02E0516A994202D1916A5E
:103B2000A142F9D370BDA642E9D9054B5B6A1C00DE
:103B30005A1CEFD0012201246442E5175242E3E708
:103B400000400540064A536A9942FCD807D1044B0D
:103B500002E05A6A914202D19A6A8242F9D37047CE
:103B60000040054070B504000D00EFF3108672B6FA
:103B70001A4A1368002BFCD0BFF35F8F002D1BD0B7
:103B80002000FFF715F9164981420AD02000FFF7FF
:103B900017F901212000FFF7F9F80123A340114A8A
:103BA0001360114BA400E550BFF35F8F00220B4B55
:103BB0001A6086F3108870BD0121A1400A4BA20053
:103BC000D5500A4B20001A788A4305491A70FFF72E
:103BD00021F900212000FFF7D9F8E5E7280100D0FE
:103BE000F539001038600540B4910020EA920020B9
:103BF000F0B54F46D6464646C0B507002E4C616A22
:103C00000D00A66A616AA942FAD18B4208D805D094
:103C10000120E0BCBA46B146A846F0BDB242F7D991
:103C2000EFF3108A72B6254801680029FCD0BFF373
:103C30005F8F0125BD4022491F4C8846097889467F
:103C40002943C9B28C46414660460870391D890037
:103C500065630A511B49B8004350216A002029427C
:103C600019D0616A0800A66A616A8142FAD18B4262
:103C700019D801D1B24216D8CC450BD00E4B1F2219
:103C80001D625D6301233A4093400F4A136043462F
:103C90004A461A700120BFF35F8F0022074B1A605B
:103CA0008AF31088B5E70020BFF35F8F0022034B33
:103CB0001A608AF31088ACE700400540280100D064
:103CC000EA920020D492002080E200E0EFF3108C12
:103CD00072B60A490B68002BFCD0BFF35F8F01233B
:103CE0008340074A0748136202789A430270BFF381
:103CF0005F8F00230B608CF310887047280100D081
:103D000000400540EA92002070B506000D00140046
:103D100000291DD0002A12D073688068984762007D
:103D20006B0012195B193168033A033B002808D075
:103D30008A189570C818CB5C002B0BD10470280032
:103D400070BDCB189C7088188A5C002A05D105705C
:103D50002000F5E753700470F1E75A700570F7E73B
:103D600010B583600023CCB2437301334260047307
:103D70008373C4730068421C012C05D90133DBB284
:103D8000137003329C42F9D1FF230B405A00D31821
:103D9000C01800230338437010BDC04670B505003D
:103DA0000C1E07D0630001681B19033BCB185A781F
:103DB000002A01D1200070BD500080180338091876
:103DC00000204E784870210058702800FFF79CFFB3
:103DD000310004002800FFF7E1FF0600002C20D08E
:103DE0000028E7D0320021006B68A868984772006D
:103DF000630092191B192968033A033B002808D075
:103E00008A189470C818CB5C002B00D053700670D1
:103E1000D0E7CB189E7088188A5C002A00D05A70B0
:103E200004703400C6E7C046F0B557464546DE4646
:103E30004E46E0B50D006F0001687F19033F040096
:103E4000C85D83B00192CA19002850D043001B18E6
:103E5000033BCB185E78B446002E1AD1019E002E8B
:103E600042D0E67B002E04D073009B19CB18033B95
:103E70005D70A37B002B00D1A573E57300282FD1C3
:103E80000023537003B0F0BCBB46B246A946A0461F
:103E9000F0BD72006244033A8A18517888460021C6
:103EA000517089465970320001002000FFF72CFF45
:103EB00043468246002B07D05B0021684344033B06
:103EC000CB185A78002A16D1424651462000FFF7F7
:103ED0001BFF2168019BCA19002BC2D10028CFD03B
:103EE00043001B18033BCB1800219970C8E7019BC6
:103EF000002BB6D1C4E75000801803380918487861
:103F0000834648464870587041462000FFF7FCFE43
:103F1000594680462000FFF741FF4146020020003D
:103F2000FFF7F2FE8046CFE7F0B557464546DE463E
:103F30004E46E0B583B00191457B04006F000068F8
:103F40007F19033FC15DC219002952D04B005B1895
:103F5000033BC3185E78B446002E1CD1019E002E90
:103F600044D0E67B002E04D073009B19C318033B9A
:103F70005D70A37B002B00D1A573E573002931D1BF
:103F8000002328005370617303B0F0BCBB46B246F7
:103F9000A946A046F0BD72006244033A82185078E8
:103FA0008046002050708146587032002000FFF794
:103FB000ABFE43468246002B07D05B00216843449A
:103FC000033BCB185A78002A17D1424651462000AD
:103FD000FFF79AFE019B01002068C219002BC0D197
:103FE0000029CDD04B005B18033BC318002098700C
:103FF000C6E7019B002BB4D1C2E7500080180338FC
:104000000918487883464846487058704146200051
:10401000FFF77AFE594680462000FFF7BFFE414673
:1040200002002000FFF770FE8046CEE770B5050065
:1040300000292CD0437B8B422ED04C0000686418A2
:10404000033C0419A278002A21D053009B18033B9B
:10405000C25CC6188A4202D11BE0002A08D0530075
:104060009B18033BC3185A788A42F6D162785A707B
:10407000002301222800A3706370FFF7D5FE697B3F
:1040800002002800FFF740FE6873012000E00020D6
:1040900070BD63783370EBE701221900FFF7C4FEAF
:1040A000F2E7C046F0B545464E46DE465746E0B517
:1040B00083B016000C9A050088469A4200D973E036
:1040C0001A0E93461B0218000193594600230C9ABE
:1040D00001F076FF354B6C009C466419A4006444E3
:1040E00063680700834200D260602B1FDBB29946F1
:1040F000012B34D9C02380229B01234312011A6073
:104100002B4BAD0059599A46002905D0586901F04A
:1041100019FF01300138FDD1226873015340E022BC
:104120001A4080235B0123431A604A46012A2ED994
:10413000802380229B01234312011A6059460023E9
:104140003A000198676001F03BFF53465851012047
:1041500003B0F0BCBB46B246A946A046F0BD4346FC
:10416000012BC7D1C02303229B0123431A60023ACB
:10417000A3681A42FCD0226873015340E0221A401F
:1041800080235B0123431A60094AAD0092464246F0
:104190002168514003220A401A60012243469A4096
:1041A000A3681A42FCD0C3E70020D1E7008000409A
:1041B0001816002010B50C2082B000F0BFF9FEF7F1
:1041C0008BFD002810D0864B86488649864A1860A9
:1041D00059609860D960186159619861D961186215
:1041E00059625A6202B010BD804CA06700F0AEF96F
:1041F00001227F4B1A60636C012BFCD103227D4BA3
:104200001A607A4A936B012BFCD1013301217A4A5F
:104210007A480093043300F02DF90523784A00937F
:104220000121784800F026F9774B5A68FF2A02D816
:10423000802252005A6080226E4B694C12011A6033
:104240002169002905D0606901F07CFE0130013848
:10425000FDD1E0226C4B6D4819680A4002600222D1
:104260001968514001320A40042102609A681142E3
:10427000FCD08021664A09011160802252005A60F8
:10428000644B2361644B5968FF2900D85A600322AC
:104290000121574B1A60604A93681942FCD0E02311
:1042A000106803405D480360126803234A400221FE
:1042B0001340594A036093681942FCD08021584B3F
:1042C000090119608021574B490051606361564BC9
:1042D0005A68FF2A00D859608022544B12011A6094
:1042E000E169002905D0606901F02CFE0130013838
:1042F000FDD1E0234C4A11680B404D490B608021F1
:104300004C4B090119608021364B49005160E36133
:10431000494B5A68FF2A00D859608022474B120146
:104320001A60216A002905D0606901F00BFE013096
:104330000138FDD1E023404A11680B4040490B6031
:104340008021404B0901196080235B00536080226B
:10435000244BD20223623C4B5968914200D25A60EE
:1043600080223A4B12011A60616A002905D0606907
:1043700001F0E8FD01300138FDD1E023324A116837
:104380000B4033490B608021324B090119608023B7
:10439000DB025360144B63622F4B5A68FF2A02D82A
:1043A000802252005A6080222C4B12011A60A169AF
:1043B000002905D0606901F0C5FD01300138FDD14B
:1043C000E023254A11680B4025490B608021254BCD
:1043D0000901196080235B005360124BA36101E760
:1043E00018160020006CDC021BB7000000800040A3
:1043F0003CB0004030B00040002F685900800240BF
:10440000008C864700C00240308000403090004061
:1044100030A00040001BB7003C8000403C900040B2
:104420003CA00040405973075480004054B0004005
:104430005490004054A000406080004060B00040B4
:104440006090004060A000406C8000406CB0004074
:104450006C9000406CA000404880004048B0004094
:104460004890004048A00040014B8000C058704771
:1044700018160020F8B504000C2017001E000D00CF
:1044800001F060FD43011B1A9901C91AC9000918FE
:104490008901380001F056FD069B37041B031F43BA
:1044A0002368002B22DB1A4B1A4EE218531E9A4146
:1044B00080239B019C465242120B174B120362440D
:1044C0001A60164B1A601300B1688B43FBD1C023EE
:1044D000221D9B01134321222560A0601A602268DF
:1044E000002AFCDA0822E7601A60F8BD3F23226840
:1044F0001340AB42D7D1A3681B051B0D8342D2D119
:10450000EE22E368D2021340BB42CCD1EDE7C046B5
:104510000040FDBF00C0004000E0004000F000404F
:10452000044B00011B68044A5840F0230340136009
:104530007047C04600400640005006408023024AB3
:104540009B000343D362704700800540AA23064ABC
:104550001B0113602F230549D360054B1960536875
:10456000002BFCDA7047C0460040024000B0FA0061
:10457000006002402C4B2D4A70B51A602C4A2D4B1E
:104580002D491A6014008B689C43FBD12B4D2C4E97
:10459000B54208D2013E761BB60808CD98472300E5
:1045A0000134B342F9D1FFF705FE264A214B1A60C8
:1045B000214A9368DB43DB01DD09002BF9D140225E
:1045C000214B224C224E9A675A671A67DA66B44228
:1045D00008D223682000002B20D00834FEF77EFD8F
:1045E000B442F6D31B4C1C4EC022B168200003F02D
:1045F000B1F8B460FEF7B0FBFEF748FDFEF71AFF16
:10460000164C174EB44208D2013E361BB60808CCF1
:1046100098472B0001359E42F9D170BD0834FEF752
:104620004FFDB442D5D3DDE700E00040BFCDFBFE37
:10463000FE7F3C0000F0004000C00040DC15002080
:10464000EC150020FFFFFF0100F00140D415002011
:10465000DC1500200000002000ED00E0EC1500203B
:104660000016002000BEFDE7094A0300106800287C
:1046700005D00849C3188B4207D813607047064815
:104680000449C31810608B42F7D901204042F5E776
:104690003892002000000420EC9200200020704797
:1046A000012040427047C04610B5FFF7DBFFC0460F
:1046B0000FB400B5084883B003F0F8F8049B002B52
:1046C00007D005A91800019101F0BCFB034803F0D5
:1046D000EDF80120FFF7C6FF6C7A01107C7A01101B
:1046E00010B50148FFF7E4FF807A01109A4200D22A
:1046F000885470477047C046F8B55746DE464E4668
:104700004546E0B599460A9B07009A460D9B8846A8
:1047100093460B9C9B073BD10C9B9C423DD21E1B9E
:104720000B9415000C005E442A004B460135210015
:104730002020B847B542F7D1A0460B9C002C20D0D2
:10474000454636195346321B013C185D29004B463D
:10475000B847002CF6D12B00350098460D9B9B07DF
:104760000FD55B46EC1A0C9BA3420AD946469846E5
:104770002A004B46310020200134B847013544451A
:10478000F6D32800F0BCBB46B246A946A046F8BD09
:1047900016001500002CD3D1E0E71600002CCFD175
:1047A0001500EEE7F0B54F464646D646C0B584B094
:1047B00098460EAB1B7894469946129B0D9C109F11
:1047C000119E9A0725D4002E65D1BC4221D2012228
:1047D0001A409246202C00D1E9E00C9A551E302256
:1047E00002E0202C00D17BE001342A55A742F8D802
:1047F0005246002A0DD0B4420BD20C9A551E3022DC
:10480000202C02D171E0202C2DD001342A55B44245
:10481000F9D1DA063CD55A052ED4002C28D10F9AAE
:10482000102A00D1B6E0022A00D1BCE030220C9C54
:10483000227001244A46002A65D15A0700D499E023
:104840002B220C9D2A55013403930C9B6246009346
:10485000029643460194FFF74FFF04B0E0BCBA460E
:10486000B146A846F0BD2024DA06EDD55A0503D49A
:10487000A74266D0B44264D00F9A102A71D0022A9F
:1048800057D0202CE0D02200013430250C9FBD549D
:10489000202CD9D0CEE7012215001D40AA461A428D
:1048A00036D04A46002A4AD10C321A4247D1BC427D
:1048B000A1D2202C91D1202E17D82024DA06C3D5DE
:1048C0005A051BD4202F01D0202ED5D11F220F9D99
:1048D000102D6FD0022DD8D162250C9FBD54D0E78A
:1048E0005246002A79D0202EBDD92024DA06ABD535
:1048F0005A0503D4202FE9D0202EE7D00F9A102A92
:10490000A2D12024A0E72D220C9D2A5501349BE73B
:10491000BC4200D37DE7202C00D05EE7DA06F0D55C
:104920005A05EED4202F62D0202EEAD134001F2267
:10493000CDE7202C00D187E722000134CCE7013EEF
:10494000B5E7621E012CC2D10F9A102A00D06AE787
:104950009A063BD558220C9C2270283A6270022499
:1049600068E79A060ED4202CCBD078220C9D2A55CD
:10497000013486E71A0700D466E720220C9D2A55E9
:10498000013461E7202CBCD058250C9A12191570FF
:10499000013476E79A0608D558220C9C2270302202
:1049A0006270022446E76032F7E77822F5E7002AD2
:1049B00083D1B3E7A21E013C9D0603D478250C9F4A
:1049C000BD5460E758250C9FBD545CE778220C9CD1
:1049D0002270483A627002242CE7DA0600D433E7EA
:1049E0005A058BD4202F00D044E71F226FE73C00EC
:1049F0001F226CE710B5002800D110BD02F00AFF9D
:104A0000FBE7C046F0B557464E464546DE46E0B5A4
:104A100099B08246894690460893229A239B1000BB
:104A2000190001F050FD002800D0CDE02298239914
:104A30000122D94B524201F041FD002800D0C3E0D1
:104A4000229823990122D54B524201F029FD0028DA
:104A500000D0B9E0229823990022002301F020FD24
:104A6000002800D0F1E1229E239F8023269ADB00BC
:104A70001A400D92269A1A4201D1062324938023CC
:104A8000269A1B011A403B0093460996334300D0F7
:104A9000B3E0002A00D0C2E1002300240A930B9463
:104AA000002304250993259B0024AB4200D95C1BFD
:104AB0000223269A1A400C92269A134203D06B4284
:104AC0006B415B421C40099B002B07D00A9A0B9B51
:104AD0003000390001F083FC06000F002298239972
:104AE0000022002301F0DCFC002803D0802109060D
:104AF0007B181F00269AAA4B009601971340089E28
:104B00000493249B03940293424633004946504643
:104B100000F0AAF90400002D67D02020269A49460B
:104B2000024013005A4253415B42621C18400A92F1
:104B3000330022004530D047099A6F1ED317D4188E
:104B40005C40D30F9B46002501E0202D13D008AA1E
:104B500094461F23200063440A2101355E1901F0A9
:104B6000F1F93031317020000A2101F0EBF9260013
:104B70000400092EE9D805230693002304930A3381
:104B800003935B46089E029310AB0A9A0093494632
:104B90003300504605970195FFF704FE0C9A040078
:104BA000002A22D04246851A259AAA421DD9B0462B
:104BB0005746160022004346494620200135B84793
:104BC0000134AE42F6D810E0269B42460493259B62
:104BD00049460393249B50460293229B239C0093B7
:104BE0000194089B00F040F90400200019B0F0BCCB
:104BF000BB46B246A946A046F0BD6A4B78009C462B
:104C0000400D604401F072FC674A684B01F005FCFE
:104C1000674A684B01F0DAFB674A3B031B0B1A43F8
:104C200004000D0009981100644B002201F0C5FB3F
:104C3000634A644B01F0F1FB02000B0020002900E5
:104C400001F0C4FB01F06AFC099001F04FFC5E4AE0
:104C50005E4B04000D0001F0E0FB00225C4B01F014
:104C6000B5FB01F05BFC5B4A5B4B29000C9020001C
:104C700001F0D3FB04000C980D0001F037FC574AFB
:104C8000574B01F0CAFB02000B002000290001F085
:104C900094FB04000D0002000B000A940B9501F038
:104CA000BCFB04000D000A980B9902000B0001F0F8
:104CB0008DFB00220E900F914A4B2000290001F03D
:104CC0008EFB0022484B01F081FB02000B0020000C
:104CD000290001F084FB0022444B01F077FB020025
:104CE0000B002000290001F07AFB0A9A0B9B0D00B3
:104CF00080210400C905002001F05FFB02000B00C9
:104D00002000290001F062FB02000B000E980F99B1
:104D100001F065FB0022284B01F058FB344B0C9C42
:104D20009C4664442305002201F077FB04000D003B
:104D300002000B00300039000A940B9501F0B0FB23
:104D400000285DD123002A00C625099963318D42D0
:104D5000AD4159466D420435002900D1A3E6134305
:104D600063D030003900234A234B01F09FFB002819
:104D700007D0002230003900204B01F091FB0028C1
:104D800053D1249B002B00D18DE60D9B5A1E9341DD
:104D9000249AD31A249386E6FFFFEF7FFFFFEFFFED
:104DA000FFF7FFFF01FCFFFFFB799F501344D33F48
:104DB000B3C8608B288AC63F0000F03F0000F83F70
:104DC00061436F63A787D23F71A379094F930A406C
:104DD0000000E03F1655B5BBB16B0240EF39FAFE5B
:104DE000422EE63F00002C40000024400000184006
:104DF000FF0300002D431CEBE2361A3F80842E4156
:104E0000099B0022013B09932000164B290001F069
:104E1000E6FA0A00010003000A910B9294E70023CE
:104E200000240A930B9400230993249A099B9A4225
:104E300014DDD31A013B24938023269ADB001A4306
:104E400000230025269209932DE68022120694461F
:104E5000229B1E00239B63441F0006E6002324932D
:104E6000EAE7C04600002440F0B54546DE464E461F
:104E70005746E0B595B08B46904699461E9A1F9BC3
:104E80000A9019001000209D01F01DFB002800D0A1
:104E9000B0E11E981F990122C74B524201F000FB5E
:104EA000002800D037E11E981F990122C34B5242BF
:104EB00001F004FB002800D0A7E01E981F990022F3
:104EC000BF4B01F0FBFA002800D088E01E981F9924
:104ED0000022BC4B01F0E4FA002800D07FE01E98CD
:104EE0001F990022002301F0DBFA002800D0FAE02D
:104EF00000230B938023229C229ADB001C401A4241
:104F000000D102E1092D00D87CE106A98C462C00D5
:104F1000172200233021093C62440133D154EF1A97
:104F2000202B00D132E1A342F7D10022A44B0692FC
:104F300007931E981F9901F0F1FA050001F0D6FAC7
:104F400002000B001E981F9901F037FA069A079B82
:104F500001F063FA0890099101F004FB060001F0EA
:104F6000C1FA02000B000898099901F026FA002204
:104F7000954B0890099101F0A1FA002800D1D2E0E8
:104F80000136300001F0AEFA069A079B01F08EFA66
:104F9000002801D000260135AA46002F00D098E055
:104FA000280001F0A3FA02000B001E981F9901F0DF
:104FB00004FA854B002206000F0001F071FA0CABD9
:104FC0009A46002845D10022300039007E4B01F07E
:104FD00075FA00283DD1EB073BD5013539E0229B1E
:104FE00042460493219B594603930A981E9B1F9C9B
:104FF0000295009301944B46FFF704FD15B0F0BCF9
:10500000BB46B246A946A046F0BD229B5B0767D4CB
:1050100003226E4B229901920391219902910093F0
:1050200042464B4659460A98FFF766FBE6E706AA52
:1050300094461723280063440A2101341E1900F006
:1050400059FF3031280031700A2100F053FF051E4E
:1050500076D0202CEBD10323229A1340012B1DD1B3
:10506000219B002B1AD00B9B002B00D0BBE0229A77
:105070000C33134200D0B6E0219BA34200D887E056
:1050800006AB9C4617223023624404E02199013488
:1050900013558C4259D0202CF8D12024229B019406
:1050A0000393219B02935346B9E706AA944617231C
:1050B0000A216344300001341D1900F043FF3031F0
:1050C000297030000A21013F00F03CFF092E46D92B
:1050D0000600202CE9D155460CAB20249A46B8E7AF
:1050E00004223B4B96E71E9A1F9B0020002101F0F3
:1050F00064F901230B938023229C229ADB001E90EB
:105100001F911C401A4200D0FCE60022314B0627BA
:10511000069207930DE7229B0393219B029304239E
:1051200001932D4B7BE7002208980999264B01F04B
:10513000B7F9002800D02FE7002E4FD101362BE71A
:105140000323229A1340012B66D0202CA6D00B9B60
:10515000002B1FD02D235246135501349EE7554690
:10516000202CB9D030233A19002F08D0172006A9D7
:10517000013409180B55202CAED09442F6D10CAB5B
:105180009A462E2352461355013462E72024CCE67A
:10519000202C83D0229B5B0708D4229B1B0700D4C2
:1051A0007CE7202352461355013477E72B235246E0
:1051B0001355013472E7C046FFFFEFFFFFFFEF7F9B
:1051C00065CDCD4165CDCDC10000E03F947A0110A1
:1051D0008C7A011080842E419C7A0110F30700D450
:1051E000DAE60136D8E6219B013B2193A34200D9A0
:1051F00046E7AAE7229B0393219B02930323019393
:10520000074B0CE7074BEA009B185C681B682F00F4
:105210000693079400248CE6219B002B95D022E76F
:10522000987A0110407C0110F0B55746DE464E4694
:105230004546E0B5A5B01F002E9B91460D93CA4A86
:10524000CA4B82468B461A60002900D129E200230E
:1052500038789846002800D12BE2C54B44460C9381
:10526000C44B55464E460E930AE0631C98462200F6
:1052700033005946A84744463878002800D187E0D3
:1052800001372528F1D108239A46043B9946023B71
:105290009846013B00229C460B943878791C030009
:1052A000203BDBB2102B03D80C9C9B00E3589F469D
:1052B0000300303B0B9C0B92092B3AD900239846F4
:1052C0002A2800D1DDE000239A462E284BD0030087
:1052D000683BDBB2122B1ED80E9A9B00D3589F4618
:1052E00063460F001A43D8E743460F001A43D4E73A
:1052F0004B460F001A43D0E710230F001A43CCE7A8
:1053000053460F001A43C8E780235B000B9A787856
:105310001A430B9201310F0067284FD82428A4D9D3
:105320000300253BDBB2422B9FD893499B00CB580F
:105330009F46002398460B9B47469C4600E0013160
:10534000BB00DB195B001F180878303F0300303BBF
:10535000092BF4D963460B930023B8469A460F00F5
:1053600001312E28B3D180200B9AC00002430B924A
:1053700030225242944678780B0084446246092ACF
:1053800000D8AAE12A2800D1B9E10F0001319EE737
:10539000A046AA46B146C84503D301235B424B440D
:1053A00098464B46424659460020D047200025B03B
:1053B000F0BCBB46B246A946A046F0BD0100693923
:1053C000C9B20F2900D950E701238B409C466B4B93
:1053D000994663464A4613400F9362464B461A422B
:1053E00000D068E10A2956D0072900D03DE70D9B7F
:1053F00002CB9846002900D092E10B9B10211A00A5
:105400008A43100011310843814680201A00C000F1
:105410000240110003421CD114AB9C461F220F23F3
:1054200062440D959C4615000F9B0B9402E0202BC7
:105430000CD0110064460C4020003730092C00D8F5
:1054400007380133E8540A090F29F0D80B9C0D9D49
:105450000F934B4608220693534605920832039257
:10546000002204930F9B029201931CAB2200009335
:10547000594633002800FFF795F9434604000D9381
:10548000FAE60D9B04CB9046002A79DB78780D93E1
:105490000F00013117E70D9B02CB14930B789C464C
:1054A00018005346002B00D134E1002815D0534694
:1054B000013B013399460D940B9C89444A460B00ED
:1054C000A14601E0934203D05C780133002CF9D16E
:1054D0004A465B1A0D9C0B920F938023DB00994682
:1054E0000B9A13400D934B461A4204D00F9B534521
:1054F00001D953460F93022399460B9A13400B93FD
:105500004B46134200D1F5E16346002B00D1D6E1B2
:105510000D9B002B00D182E10B1BD14631009A4636
:105520003B00A1442E005F464D4622009B46894623
:1055300009E04B463900541CB0475346185D00281B
:1055400000D192E122009542F3D14B465A46A9463A
:10555000BB46350017001E004C460B9B002B00D0AD
:10556000ADE1149B0D9387E6295200104092002074
:10557000A47A0110E87A0110347B011041900000F8
:105580000B9A283802430B92424652427878904652
:105590000F000D93013196E678786C2800D15DE11B
:1055A00080230B9A5B001A430B920131B3E68023F0
:1055B0009B00ABE67878682800D148E180230B9AFD
:1055C00001311A430B92A6E6672800D1B2E04728C2
:1055D00000D11AE1452800D11CE10B9A0721049261
:1055E00042460D9B0392073352468B4319000292A9
:1055F0000CC92800009201930D91220033005946F6
:10560000FFF700FA040037E6462800D18DE00B9A38
:105610000721049242460D9B0392073352468B4367
:10562000190002920CC92800009201930D912200EA
:1056300033005946FFF718FC04001DE6631C98462A
:105640002200330059462520A847444614E60D9B06
:1056500004330F93631C99460B9B9A0700D40AE10D
:105660000D9B2200187859463300A847434644440E
:10567000012B00D86FE1B0462E0025004C46B946FC
:105680005F4622004346013439002020B047AC4237
:10569000F7D12C00BB4635004F4646460F9B0D9375
:1056A000EAE5D64B38789A4600239846002800D081
:1056B000D3E500246FE66F2842D000D8FDE1102327
:1056C000782800D19BE00B9A9A430B920A239C46C0
:1056D000002314930A330F9338E057460B9AB9000E
:1056E000C919490001330F181878303F01003039CB
:1056F0000929F4D9BA460B921F00591CE7E50D9B06
:10570000B87804CB0237D143C9170A4092460D93AB
:10571000791CDCE5002800D1DFE602235B42C8E605
:1057200021200B9A0243914676E620230B9A1A43D6
:105730000B926CE780230B9A1B011A430B924CE7E8
:1057400008239C460023149308330F930B9880235F
:105750000200DB001A4011000200184200D080E075
:105760000C239A431000802302009B001A400B92E6
:10577000184200D0F1E0802302005B001A409146FD
:105780000D9A04321492184200D0C3E2430600D5A9
:10579000D7E0030600D421E30D9B1B880993002B5F
:1057A00000D02DE110339843002900D128E10023D7
:1057B000994643460593534604930F9B06900393E3
:1057C000002302934B4601931CAB220000935946E1
:1057D00033002800FEF7E6FF0400C2E6582809D08F
:1057E000622800D0E3E202239C4600231493023394
:1057F0000F93ABE720230B9A1A430B92103B9C4666
:105800000023149310330F93A0E780230B9A1B01FE
:105810001A430B9220230B9A1A430B92DDE60B1BC3
:105820009A460F9B99463B0037005E469B462200F6
:105830003B003100A84753460134185D0028F6D1DB
:105840004B460F935B46B3463E001F0085E6C023E0
:105850000B9AB8781A430B92F91C5CE5C0239B00A5
:10586000F6E70D239A4310007DE75B463500BB4603
:105870004E461F0071E64346012B66D9631E434422
:1058800032002E001D003B00A2465F4691469B461B
:1058900022004B46013439002020B047AC42F7D1FA
:1058A0005B463500BB464E46A14654461F000D9B45
:1058B0004A461878594633004444A847EEE60F9B01
:1058C000A146984500D84CE64444E41AB0462E0060
:1058D00025004C46B9465F46220043460134390054
:1058E0002020B047AC42F7D12C00BB4635004F46D4
:1058F000464636E60F98804500D873E24346E218E4
:10590000131A32002E001D003B0091465F469B4655
:105910000F9122004B46013439002020B047AC42A1
:10592000F7D15B46BB461F0043460F9901330F93E7
:105930000B7835009C464E466046002800D0E7E5CF
:105940000FE60D9B1B78099329E70D9B2200187821
:1059500059463300A8474C46A0E60D9AFA3BFF3B58
:1059600007329A430133994691444B460D9313688D
:10597000526815921A4306D11032904300220992C0
:10598000002900D083E06122810600D54122D2B2F5
:105990000A9214AA91460A9A00210A3A0B924246A8
:1059A0001792524618925A46B24609911E001F316C
:1059B000149B4944BB4616941A95002467469846A2
:1059C0008946159D19901B920AE03032D2B24B469F
:1059D00001341A55A8454CD0202C4CD006000D009F
:1059E0003A0000233000290000F0EAFAD2B2092A76
:1059F000EBD90B9B9C466244D2B2E8E7F546001017
:105A00006123820600D54123DBB20A3B0B93434658
:105A100014A91F228C46159353466244B2460D9436
:105A200017974C468046A9461700099D0F9E16936E
:105A300008E03033DBB201343B55B5420ED3202CA5
:105A40000CD005003100280000F07CFACBB2092907
:105A5000EFD90B9A94466344DBB2ECE7159B4046C2
:105A60009846169B4D465646A1469A460D9C179F52
:105A70009FE6B742B0D9179B56469846189B5F469B
:105A80009A461B9B09949B46169C19981A9D43465F
:105A90000593534604930F9B0690039300230293B0
:105AA000099B01931CAB2200009359463300280048
:105AB000FEF778FE0400FFF7DFFB10230B9A9A43F2
:105AC0000F92692800D091E10B9980230A00DB0036
:105AD0001A4010000A00194203D0112118008A430D
