:020000041000EA
:1000000000B5324B212058609868022188439860DF
:10001000D860186158612E4B002199600221596106
:100020000121F02299502B49196001219960352056
:1000300000F044F80222904214D00621196600F024
:1000400034F8196E01211966002018661A6600F04E
:100050002CF8196E196E196E052000F02FF8012189
:100060000842F9D1002199601B49196000215960AB
:100070001A491B48016001219960EB211966A021F2
:10008000196600F012F800219960164914480160C1
:100090000121996001BC002800D000471248134993
:1000A000086003C880F30888084703B5996A0420EC
:1000B0000142FBD001200142F8D103BD02B5186610
:1000C0001866FFF7F2FF186E186E02BD00000240BE
:1000D000000000180000070000035F00212200005C
:1000E000F4000018222000A00001001008ED00E03C
:1000F00000000000000000000000000074B24E7A12
:1001000000200420F7010010C3010010C5010010F9
:10011000C1010010C1010010C1010010C101001097
:10012000C1010010C1010010C1010010C701001081
:10013000C1010010C1010010C9010010CB01001065
:10014000CD010010CD010010CD010010CD01001037
:10015000CD010010CD010010CD010010CD01001027
:10016000CD010010CD010010CD010010CD01001017
:10017000CD010010CD010010CD010010CD01001007
:10018000CD010010CD010010CD010010CD010010F7
:10019000CD010010CD010010CD010010CD010010E7
:1001A000CD010010CD010010CD010010CD010010D7
:1001B000CD010010CD010010CD010010CD010010C7
:1001C00000BE00BE00BE00BE00BE00BEEFF3058054
:1001D000103800BEF2EB887190A30110ACA301109F
:1001E0003402001090A31AE700201F49086006C8D7
:1001F00081F3088810471D48006800282FD10DA4FE
:100200000ECC002902D000F012F8F9E71849194A7B
:10021000002000E001C19142FCD1174988471749ED
:1002200088471749884700BEFDE701C901C29A42C5
:10023000FBD37047ACA30110C0000020EC150020D8
:10024000D8B801100000042000000420D8B8011024
:10025000001004200010042000000000704709482E
:1002600006F030FC0047000008ED00E0000000D080
:10027000F0150020E4A90020A9510010ED0E001097
:10028000DD5200105756000006005250ABB36053C9
:10029000808A011006005250861C0302908A0110C9
:1002A000060052505422A29D988A01100500525017
:1002B000DE65F468D8B80110F8B5C046044B10B537
:1002C000002B03D00349044800E000BF10BDC04626
:1002D000000000002C9200204802011070B51D4B58
:1002E0001D4C1E4DE6180EF04FF92B68196806F0EC
:1002F0001BFC21600EF048F92B68596806F014FCCD
:1003000061600EF041F9282106F00EFCA1600EF0AC
:100310003BF9282106F008FCE1600EF035F9B42124
:10032000490006F001FC21610EF02EF9642106F06F
:10033000FBFB080007F0BCFC094907F068FCFE2342
:100340009B051A1C191C02F021FBA0821834B44230
:10035000C9D170BD7017000058920020048A002097
:100360000000C84270B5174B174CE5180EF00CF999
:10037000032106F0D9FB23680139591821600EF0DA
:1003800003F9032106F0D0FB636801395918616055
:100390000EF0FAF8032106F0C7FBA36801395918DB
:1003A000A1600EF0F1F8032106F0BEFBE36801390D
:1003B00059182369E160033323611834AC42D5D165
:1003C00070BDC046701700005892002010B5FFF7AE
:1003D00085FF10BD10B50400FFF7C4FF01230848D6
:1003E0006043D841074B984200D910BDFFF776FF14
:1003F000054A13680133092B00DD00231360F4E77D
:10040000D578E926DD240601A80F0020F0B5CE46F8
:100410004746040080B541488DB001F099F80823A3
:1004200003220221012001F059F83D4B0B211B68EA
:1004300000201A680F2301F003FA0F230022002185
:10044000002001F04BF823686A469846002365684F
:10045000684602AF691C01931372324E009708F090
:1004600000FE019BF31A9D4254D82A00414668467B
:1004700008F0A2FE019BB3424CD02B4E012231006A
:10048000684608F099FE01236846102203215B426A
:1004900002F0E2F90098B84203D00299013107F066
:1004A000B7FF0F220F230F210F2001F017F808AB21
:1004B0000693984600236568276806AC2000691CEF
:1004C0000793237208F0CDFD164A079B9146D31A75
:1004D0009D421FD82A003900200008F06DFE079BBE
:1004E0004B4517D001223100200008F065FE0123A2
:1004F00020000F2202215B4202F0AEF9069840452F
:1005000003D00899013107F083FF0DB0C0BCB94694
:10051000B046F0BD054808F0CDFBC0469110001074
:10052000048A0020FFFFFF3F600201104802011013
:10053000F0B5DE4657464E464546E0B597B002F068
:10054000F9FB0F2300220021002000F0C7FF01F07B
:10055000CBF9E04B1B680B2B01D900F0BBFCDE4A4A
:100560009B00D3589F46DD4BDD4D994608239846A6
:10057000A9440EAC08AEA88A00F0B8FF286907F0BD
:1005800097FBD84907F057FB824607F00DFCAB6894
:10059000071CD80FC018401007F08AFB391C07F061
:1005A0004AFB07F0A7FB0700504607F0EBFB82462B
:1005B000EB68D80FC018401007F07AFB514607F0DF
:1005C0003AFB07F097FB2A683460D31B23606B6803
:1005D0001835191A61601118A160D91BE160D11991
:1005E00021611918DB19E3614346121A6161300079
:1005F000A261736001F0CEFD4D45BCD110AD2A0063
:10060000B94B0E9503CB03C2434663600023200021
:100610002374FFF7FBFE0E98A84200D007E20AE21F
:10062000AF4CAE4BE518A08A00F060FF616820680F
:10063000183400F0FBFFA542F5D1AC4B10AD0E9580
:100640001A680EAC10929B882000AB800623636072
:100650000023A373FFF7DAFE0E98A84200D0A8E0AB
:1006600008AEE8E1082000F04DFF9D4C9B4BE518DB
:10067000A08A00F03BFFE368A26861682068183434
:1006800001F0DEF8AC42F3D100F036FF11230EACDE
:1006900008AE00223100200010AD08930E9508F03E
:1006A00019FC089F112292490E90A76007F09EFE48
:1006B00000220E9B20006760DA55FFF7A7FE0E9818
:1006C000A84200D0B3E1B6E1854C844BE518A08A7E
:1006D00000F00CFF20686168E368A268CB188218FC
:1006E000183401F0A1FBA542F1D1824B10AD0E955B
:1006F0001A680EAC10921B7920002B7105236360E1
:1007000000236373FFF782FE0E98A84251D108AE12
:1007100091E100239846724E0EAC10ADB08A00F005
:10072000E5FE43466021404625605F1C06F024FA42
:100730002031CAB22000012108F036FC012320003C
:10074000726831685B4202F087F82068A84200D1E5
:1007500071E3A1681836013107F05AFEFA2F00D173
:100760006DE3B846DAE75E4C5C4BE518A08A00F012
:10077000BDFEA3686168DA0FD218206852101834E1
:1007800001F0C6F8A542F1D110AD5B4B0EAC0E9551
:100790001A68200010929A88AA809B79AB7107236F
:1007A00063600023E373FFF731FE0E98A84200D187
:1007B00056E7A16808AE013107F02AFE3BE1484C3C
:1007C000464BE518A08A00F091FEE268A168D30FBD
:1007D0009B18CA0F5218206861685B1052101834B9
:1007E00001F098FAA542EDD110AD2A00434B0E95C9
:1007F00043CB43C219880EAC11809B7820009370C4
:100800000F2363600023E375FFF700FE0E98A842F4
:10081000CFD108AE0FE1324C304BE518A08A00F082
:1008200065FEE368A26861682068183400F0DAFFAA
:10083000A542F3D110AD2A00314B0E9503CB03C274
:100840001B880EAC13800A23636000232000A3746E
:10085000FFF7DCFD0E98A842ABD108AEEBE0002418
:10086000284800F075FE1E4D20006A682968013492
:1008700001F074FD1835FA2CF6D110AD224B0EACF8
:100880000E9585E7164C154BE518A08A00F02EFE54
:10089000A3686168DA0FD21820685210183401F08A
:1008A000C1F8AC42F1D110AD2A00184B0E9543CBE4
:1008B00043C21B880EAC13800E236360002320000C
:1008C000A375FFF7A3FD0E98A84200D071E708AE0C
:1008D000B1E0C046A80F00204803011070170000C7
:1008E0005892002035FA8E3CD8020110E402011023
:1008F0006402011078020110A4020110AC02011080
:10090000BC020110A11100108C020110C8020110DC
:10091000144C154BE518A08A00F0E8FDE268A168C8
:10092000D30F9B18CA0F5218206861685B105210D1
:10093000183401F049F9A542EDD110AD2A000B4B56
:100940000E9503CB03C208230F9300230EAC2000A7
:100950002374FFF75BFD0E98A84200D029E708AE8C
:1009600069E0C04658920020701700008002011014
:10097000EB4BEC4D994608239846A9440EAC08AEC3
:10098000A88A00F0B3FD286907F092F9E64907F05C
:1009900052F9824607F008FAAB68071CD80FC01856
:1009A000401007F085F9391C07F045F907F0A2F966
:1009B0000700504607F0E6F98246EB68D80FC018EA
:1009C000401007F075F9514607F035F907F092F934
:1009D0002A683460D31B23606B681835191A61606C
:1009E0001118A160D91BE160D11921611918DB1917
:1009F000E3614346121A61613000A261736001F045
:100A000099FB4D45BCD110AD2A00C84B0E9583CB48
:100A100083C21988200011809B7893700F23636034
:100A20000023E375FFF7F2FC0E98A84203D0A168FB
:100A3000013107F0EDFCBE4800F08AFD0F230F22C4
:100A40000F210F2000F04AFDBA4F00213B68002023
:100A50001A680B2300F0F4FE002100200F2300226F
:100A600000F03CFD2A00B44B0E9503CB03C219885D
:100A7000200011809B78022193700B236360002378
:100A80000222E374013B01F0E7FE0E98A84203D076
:100A9000A168013107F0BCFC0823032202210120D8
:100AA00000F01CFD3B685022596800204A234A3957
:100AB00000F0C6FE0F220F230F210F2000F00EFDC5
:100AC0003B6802205968463900F0A6FDFA21300043
:100AD00001F0DCFE0822994B009200210022300038
:100AE00008F016FB082290460E9503688044070024
:100AF000434500D1D6E10E938368A3607B68012152
:100B0000636043463B60002320007B603B724942A8
:100B100001F0E4FD0E98A84203D0A168013107F06E
:100B200077FC08980AAB9846984203D0B168013127
:100B300007F06EFC824B30001968994601F0DEFE2A
:100B40000522804B009200210022300008F0E0FADC
:100B5000082292460E95036882440700534500D14F
:100B6000AEE10E93BB68A3607B68012163605346CE
:100B70003B60002320007B603B72494201F0AEFDE8
:100B80000E98A84203D0A168013107F041FC0898F3
:100B9000404503D0B168013107F03AFC4B463000C4
:100BA000196901F0ABFE0922674B00920021002277
:100BB000300008F0ADFA082292460E950368824490
:100BC0000700534500D174E10E93BB68A3607B68B6
:100BD0000121636053463B60002320007B603B7231
:100BE000494201F07BFD0E98A84203D0A168013173
:100BF00007F00EFC0898404503D0B168013107F0BA
:100C000007FC4B463000D96801F078FE0B224F4BB1
:100C1000009200210022300008F07AFA0822924661
:100C20000E95036882440700534500D12CE10E93D2
:100C3000BB68A3607B680121636053463B6000236F
:100C400020007B603B72494201F048FD0E98A842AB
:100C500003D0A168013107F0DBFB0898404503D0C1
:100C6000B168013107F0D4FB4B463000996801F0C0
:100C700045FE0922364B009200210022300008F088
:100C800047FA082292460E950368824407005345AE
:100C900000D1F2E00E93BB68A3607B680121636022
:100CA00053463B60002320007B603B72494201F0C9
:100CB00015FD0E98A84203D0A168013107F0A8FBEA
:100CC0000898404503D0B168013107F0A1FB02ABA1
:100CD0009A464B465046596801F010FE06221D4BBD
:100CE000009200210022504608F012FA08224346E2
:100CF000934608930368834407005B4500D1B5E041
:100D00000893BB68B3607B6873605B463B600023FD
:100D10007B603B727268104B9A4200D1D7E01DE0B5
:100D2000701700005892002035FA8E3C9402011092
:100D300091100010048A0020EC020110F80201104A
:100D4000EC890020040301100C03011018030110AA
:100D50002403011030030110FFFFFF3F0122300088
:100D60005E4908F029FA082293460E9503688344E9
:100D700007005B4500D172E00E938368A3607B6837
:100D8000012163605B463B60002320007B603B7277
:100D9000494201F0A3FC0E98A84203D0A16801319A
:100DA00007F036FB0898404503D0B168013107F0E1
:100DB0002FFB029804AB984204D053469968013146
:100DC00007F026FB4B463000596901F097FD0922D8
:100DD000434B009200210022300008F099F90822CC
:100DE00091460E950368814407004B4553D00E93FE
:100DF000BB68A3607B68012163604B463B600023B6
:100E000020007B603B72494201F068FC0E98A842CA
:100E100003D0A168013107F0FBFA0898404503D0E0
:100E2000B168013107F0F4FA17B0F0BCBB46B24626
:100E3000A946A046F0BD1836FA2F00D091E4294B00
:100E40000E95109304236360002320002373FFF7A3
:100E5000DDFA0E98A84200D0ABE408AEEBE542689C
:100E600059462800013207F0C1FA88E77A685946E6
:100E70004046013207F0BAFA45E77A685146280041
:100E8000013207F0B3FA08E77A68514628000132C8
:100E900007F0ACFACEE67A6849462800013207F03E
:100EA000A5FAA7E7426841462800013207F09EFAFA
:100EB00024E67A6851462800013207F097FA86E660
:100EC0007A6851462800013207F090FA4CE606484D
:100ED00007F0F0FE0EAC10AD08AEACE53803011023
:100EE0003C0301105465787448020110F0B5DE46E9
:100EF0004E4645465746E0B583B002F089F8802655
:100F000002F06EF8002301244B4D760008C5200046
:100F100006F0C8FEEE21890506F08DFE474906F071
:100F20008AFE06F041FF013401C5B442EFD1002032
:100F300001F0CEFF01F018FF01F010FF0028FBD1F7
:100F400001F0FCFE01F0FAFE4B2001F0C1FFFFF7BB
:100F50003DFA02F041F83A4B00279B461860002307
:100F60009A46384B384D994601F0E4FE060000F0F1
:100F7000A9FA00F0C1FA00F0CBFA00F0E1FA00F0B3
:100F8000EDFA00F007FB00F03DFB5B464A461B68AC
:100F9000136002F021F85B46186001F0CBFE7B1C69
:100FA000040038009846FFF715FA01F0C3FE001B55
:100FB000E86001F0BFFE009001F0D0FE0028FBD1F8
:100FC00001F0B8FE5346C01A686101F0B3FE040098
:100FD00001F0B0FE82464046FFF7AAFA01F0AAFEF1
:100FE0005346C01A286101F0A5FE019001F0A6FE4B
:100FF00001F0A0FE804601F09DFE824601F0B4FEA5
:1010000001F098FE861B31001048AE6005F0B4FD7B
:10101000013000230237286028280AD9009B444465
:10102000E01A019B3100C01A6423584305F0A4FD67
:1010300003006B6098E7C046308A0020DB0FC94090
:10104000CC890020E0890020EC8900203F420F007D
:1010500010B57821084A782001F084FD074B8021E3
:101060001860074B074A1860802001F07BFD064B93
:101070001860064B186010BD4C190020048A00202F
:1010800048190020A804011034190020D489002038
:10109000F0B54E4645465746DE4690460A14520085
:1010A0008446105A394AE0B50503154005433848CF
:1010B000384C054022782C03240F54430F3424115C
:1010C0002707FF0F099EE4199146E4B2771E002E10
:1010D0001ED04246002A21D1844665432E4A6544EB
:1010E00094462E4A102191460C1B1E88274A310334
:1010F0001140624631430140614349190E0C1640CC
:101100004A4609091140314319800233013FECD2AC
:10111000F0BCBB46B246A946A046F0BD01229246AD
:101120001A88414493461603184A16405A461643F5
:101130000640B3461022161B5A465643144A6C43C7
:1011400093465E443419154A25091540124A240C69
:10115000144062462C431C800C146400A45A0B4AB1
:1011600025031540FF22254305402E0C16404A4614
:10117000564352460F363611F6B2F408144034196D
:10118000E4B20233013FCBD2C2E7C04600000F0FEA
:101190000F0F0F0FC80F0020F0F000000F0F00001E
:1011A00070B5049C651E002C0AD0F0260C14640057
:1011B000245A264200D01C8002338918013DF5D202
:1011C00070BDC046F0B557464E46DE464546E0B5D2
:1011D0004E4E0400736900209B464D4B83B01F6840
:1011E000B369BA46DA449846D146C144A1451CD9F0
:1011F000316A002920D1474BB5681B6800933B003A
:10120000AF4200D92B009C421BD22900200205F0DE
:10121000B3FC009B43431D0AF369002B36D14346C0
:10122000002B01D0444546D8E8B203B0F0BCBB4621
:10123000B246A946A046F0BD200005F09DFC641A08
:10124000D9E7F36801935B19BB4230D89C4205D3C0
:10125000A74245D9306964210002D8E7306964218A
:101260008027000205F088FC7F003B1A9A46601B2D
:101270000199000205F080FC53465843009B000A88
:101280003F1A7B431D0AF369002BC8D00DF07CF98F
:10129000F769390005F070FC7F08B369C91B9846EF
:1012A00069181BD464256429B9DC0D00B7E73B003D
:1012B0009C42CDD2D2E7E01AFFF784FF0600280057
:1012C0004946604305F058FC4B460500181B49464B
:1012D000704305F051FC4019C0B2A6E700259EE717
:1012E0000025A24598D9E01B5946000205F044FCB0
:1012F0000135FF352D1A30696421000205F03CFCF0
:101300006843009A030A5A43150A85E7088A0020B1
:101310002C8A0020CC0F0020F0B557464E4645469B
:10132000DE46E0B5614C624F26683D6885B0002E10
:101330003FD1604B994662696B1C3B60A76993463D
:10134000BA465D4B00211E680192B344DA44AA45B7
:101350001FD9216A002927D1584B1B680293A36823
:1013600098463300464500D94346AB4230D9414602
:10137000280205F001FC029B43431B0A9846E369DF
:10138000002B4CD1002F01D0BD425ED8FF21434637
:1013900019404B46186801F0BFFD05B0F0BCBB46D4
:1013A000B246A946A046F0BD280005F0E5FB6D1A3F
:1013B000D2E7404B616899460029BCD0280005F06F
:1013C000DBFB4A4646433E4B1B68F3181360B2E70B
:1013D000E36803934344B34233D89D4205D3AE42FE
:1013E0004AD9206964210002C3E72069642180266C
:1013F000000205F0C1FB7600331A9B464346E81A0B
:101400000399000205F0B8FB5B465843029B000AB3
:10141000361A73431B0A9846E369002BB2D00DF0CD
:10142000B3F8E669310005F0A7FB43467608891B4F
:10143000A769C9181DD4642398466429A2DC88468C
:10144000A0E733009D42CAD2CFE7E81BFFF7BAFE00
:10145000040040465146684305F08EFB53460600A3
:10146000581B5146604305F087FBFF21801901405E
:101470008FE70023984685E700239846AB4500D8C0
:101480007DE7A81B01998026000205F075FB760018
:10149000361A20696421000205F06EFB7043029A3F
:1014A000030A5A43130A984669E7C046088A00208F
:1014B000D0890020301900202C8A0020CC0F002079
:1014C0003C1900200F2310B50F220F210F2001F02F
:1014D0004DFA014B188010BDDCA9002010B501F0B9
:1014E00045FA014B188010BDDCA90020014B188083
:1014F0007047C046DCA900200F22014B1A707047CC
:10150000C80F0020014B18707047C046C80F00205C
:101510000022064B1A60064B1A60064B1A68064BEF
:10152000116852681960054B1A6070474019002015
:101530004419002048190020B40F0020B00F0020EB
:10154000014B024A1A607047B80F0020911000103A
:10155000014B18607047C046B80F00200021074BB0
:101560001A68074B1A60074B1960074B196011681E
:10157000064B52681960064B1A607047048A0020B7
:10158000481900204019002044190020B40F002001
:10159000B00F00200022024B1A60024B1A60704705
:1015A000E4890020E8890020054A036812689B1A34
:1015B000044A03600B6812689B1A0B607047C046B0
:1015C000E4890020E8890020002808D0094B0A4A55
:1015D00019680A4B18680A4B106019607047084B6D
:1015E000044A19681160044A044910680860002020
:1015F0000021F1E7608E0020E8890020648E002041
:10160000E48900200022024B1A60024B1A607047E6
:10161000D8890020DC890020024B1860024B196039
:101620007047C046D8890020DC89002010B584B0FE
:101630000390029103A802A9FFF7B6FF114C124BC9
:101640002468124A1B6812680194114C029924689C
:101650000398009401F002FB002811D00D4B029971
:101660001B680D481A689B684A4303995218012168
:1016700052009B18094A0091146800210022A047DB
:1016800004B010BDB00F0020441900204019002004
:10169000B40F002048190020DCA90020B80F00205A
:1016A00030B585B00390029103A802A91400FFF79A
:1016B0007BFF174B02991B68994226DB154A12687B
:1016C0009B18994221DA144A039B1268934203DA69
:1016D000D31AE41A13000392104DE0182D68521922
:1016E000904201DB801A241A002C0EDD0C4A10688F
:1016F00002684A43D218836852009B18094A009432
:101700001468002100220848A04705B030BDC0463B
:1017100044190020B00F002040190020B40F002011
:1017200048190020B80F0020DCA90020F0B5D646EB
:101730004F464646C0B584B00390029103A802A963
:101740001700FFF731FF204B039A1B689A4234DBE6
:101750001E4909685B189A422FDA1D4B02991B68D3
:10176000994203DA591A7F1A19000293194C781812
:1017700024681B19984201DBC01A3F1A164E7D1EC1
:101780003068036884684B439B185B00E418002FA3
:1017900013DD124B01279946114B9846434600979B
:1017A0001B6800229A46002123004846D047336830
:1017B0001A685200A418013DF0D204B0E0BCBA4649
:1017C000B146A846F0BDC04640190020B40F002025
:1017D00044190020B00F002048190020DCA9002087
:1017E000B80F002070B514001D0082B00190009168
:1017F00001A86946FFF7D8FE0020FFF7E5FE2200AA
:1018000000990198FFF74CFF00996E1E3200019875
:101810000131FFF78BFF009901986918621E0139A9
:101820000130FFF73DFF0198320020180099013880
:10183000FFF77CFF0120FFF7C7FE02B070BDC04676
:10184000F0B5C64600B588B00790069107A806A96E
:1018500005920493FFF7A8FE1C4B05AA1B6806A976
:1018600003931B4B07A81B6802931A4B1B68019339
:10187000194B1B68009304AB01F0BAF9174D069998
:101880002A68136894684B4307995B185B00E41857
:10189000049B5A1E0492002B13D0114B114E9846F4
:1018A000059B002200930021230040463768B8477B
:1018B0002B681A68049B5200A4185A1E0492002B2D
:1018C000EED108B080BCB846F0BDC046B00F0020D5
:1018D000B40F0020441900204019002048190020AE
:1018E000DCA90020B80F002010B5054B054A0649B9
:1018F00006481B68126809680068FFF7A1FF10BD61
:10190000B00F0020B40F002044190020401900201F
:1019100070B5140086B00590049105A804A9FFF7DE
:1019200043FE3C4B04991B68059803933A4B6500B2
:101930001B682A000293394B091B1B68001B01938B
:10194000374B1B6800932B0001F036F9002801D1BA
:1019500006B070BD03260020FFF736FE04990598F7
:101960006118FFF763FE04990598091BFFF75EFEF7
:10197000059804992018FFF759FE05980499001B53
:10198000761BFFF753FE0025002C37DC3EE0091BD9
:1019900089008E190A36013C0499059861182818A7
:1019A000FFF744FE049905986118401BFFF73EFEBF
:1019B00004990598091B2818FFF738FE0499059823
:1019C000091B401BFFF732FE04990598691820187F
:1019D000FFF72CFE049905986918001BFFF726FEF7
:1019E00004990598491B2018FFF720FE04990598D3
:1019F000491B001BFFF71AFEAC4207DD2900013529
:101A0000002EC4DCAB00F6180236C5E70120FFF754
:101A1000DBFD9DE7B00F0020B40F0020441900202B
:101A200040190020F0B5DE46574645464E46E0B523
:101A300015008FB00B900A910BA80AA9FFF7B4FD0F
:101A40005A4B0A999B461B680B980393584B6F009F
:101A500098461B683A000293564B491B9A461B68EE
:101A6000401B0193544B05931B6800933B0001F00E
:101A7000A3F8002806D10FB0F0BCBB46B246A94679
:101A8000A046F0BD0020FFF79FFD6E42002D79DBE0
:101A90004A4B002407934A4B08934A4B0993434609
:101AA0000693A1460A9B0B9A781C4B44521B049048
:101AB0000DA90CA80C920D93FFF776FD53460D9AD5
:101AC0001B68A619A046013436199A4224DB5946F0
:101AD00009685B189A421FDA05990C9B08680699F9
:101AE00009688C46010061440F0083424EDB049874
:101AF000C018884257DA04990798006807687A4343
:101B0000D218836852009B18099A0091126800212C
:101B1000170008980022B8474346002B19D1002E21
:101B200013DB002D2ED00A9901220B986918FFF7BC
:101B3000B7FD01274B460A990B98491B3A00C01A7A
:101B4000FFF7AEFD761B013D761BA5421ADB6F0049
:101B5000A7E74B460A990B98049AC91A401BFFF74E
:101B60009FFD002EF1DB4D45EFD043465F004B4615
:101B70000A990B9801373A006918C01AFFF790FDCF
:101B8000002DD7D10120FFF71FFD74E7C11A049B78
:101B90000C90591A03004018614501DBC01B091A5B
:101BA0000029B9DDA8E70499F8E7C046B00F002086
:101BB000B40F0020441900204019002048190020CB
:101BC000DCA90020B80F0020F0B5DE464546574698
:101BD0004E469B469046E0B589B00790069107A80F
:101BE00006A9FFF7E1FC584644465B464246069983
:101BF0005B00091A07985200001B424C24680394AA
:101C0000414C24680294414C24680194404C24685F
:101C1000009400F0D1FF002868D04346002B65DD1A
:101C20005B46002B62DD0020FFF7CEFC43464246B8
:101C30005B4307980699801A1F000593FFF7F6FC8F
:101C40000798069940440138FFF7F0FC00235D46F1
:101C5000994601266D436F4301235B429C46E14454
:101C600043464A469C1A002C14DD32007243059B01
:101C70005A43230063436B439B18BB4206D809E0D9
:101C8000230063436B439B18BB4236D9013C002CB5
:101C9000F6D1C1464B46CA46002B01DC01239A46C9
:101CA000434606990798891BC01A5246FFF7F8FC6D
:101CB00006990798891B52462018FFF7F1FC434606
:101CC000069907987118C01A5246FFF7E9FC069961
:101CD00007987118524620180136FFF7E1FCB3450A
:101CE00001D3A046B8E70120FFF76EFC09B0F0BCB5
:101CF000BB46B246A946A046F0BD43461B1B9946CB
:101D0000C8E7C046B00F0020B40F002044190020DF
:101D100040190020F0B5DE4657464E4645469846E7
:101D2000E0B587B00590049105A804A91600FFF757
:101D30003BFC4246434604990598891A364A770087
:101D400012685B000392354A801B12680292344A83
:101D500012680192334A126800923A0000F02CFF98
:101D600000284BD0002E49DD4346002B46DD0020E5
:101D7000FFF72AFC3300734305983A000499801B4F
:101D80001D009946FFF78CFC0023444601279A4624
:101D90006443654301235B429C46E2445346F31A85
:101DA000002B36DD3A0049467A434A43190059432D
:101DB00061438918A94206D82BE0190059436143B1
:101DC0008918A94221D9013B002BF6D1B246002641
:101DD00073009B46049905981A00C91B801BFFF7E6
:101DE0005FFC0499059879185A46801B0137FFF764
:101DF00057FC4745CED90120FFF7E6FB07B0F0BC02
:101E0000BB46B246A946A046F0BDF21A92461E0055
:101E1000DEE71E00DCE7C046B00F0020B40F002054
:101E20004419002040190020F0B5D6464F464646DA
:101E3000C0B584B00390029103A802A90192009357
:101E4000FFF7B2FB694601A8FFF7AEFB0020FFF7E2
:101E5000BBFB039C019A029DA2420EDB0123994623
:101E6000009B161BAB420FDB591B480080467700D6
:101E70008E424ADB01239A460FE001235B429946DA
:101E8000009BA61AAB42EFDAEB1A5900884677009E
:101E90009E421CDB01235B429A4643469E1BA242A4
:101EA0000CD029002000FFF7C1FB002E33DB019B83
:101EB000F61B4C44554446449C42F2D10120FFF7A6
:101EC00083FB04B0E0BCBA46B146A846F0BDFE1A9A
:101ED00001235B429A4629002000FFF7A7FB002E52
:101EE0000DDB4346F61A009B55444C44F619AB42B1
:101EF000E4D029002000FFF799FB002EF1DA009BC7
:101F00005544F619AB42E6D1D8E77E1AAB42D5D09C
:101F100001239A46DFE7019B4C444644A342C0D1CB
:101F2000CCE7C046F0B55746DE464E464546E0B5DE
:101F300082468C46CBB0012900D8D2E0416801230B
:101F40000122080054466546D200A2185268914208
:101F500000DD1100904200DA100001339BB21A003C
:101F60009D42F1D86F4FAC463D688046A246AB46D5
:101F70008D4200DACBE06C4B196899464D192A0066
:101F8000454500DDC1E05A4500DAAAE05E46CB4691
:101F9000E146664B09970793654B04950893079BA9
:101FA00000241A68089B9446029242461B680592D8
:101FB00063445A4603930023CB460093B1460692EE
:101FC000564638E04F4532DB5346F35842469A4670
:101FD0004B46981A05F06CFE43460190F81A05F03E
:101FE00067FE011C019805F012FE5346071C70594C
:101FF000C01A05F05DFE011C381C05F01CFE051C16
:10200000504605F055FE011C281C05F0FDFD05F0AD
:1020100071FE029B83426BDC039B834200DC581EF3
:10202000009A0AA9531CDBB2920050500093A4B24C
:1020300023005C4514D2DB009A46F3185B68013438
:1020400059462000984604F097FDCD0073195F684B
:10205000C845B7DB4F45B7DBA4B223005C45EAD3E4
:10206000059BB2469846069B4E46D9469B46009B2A
:10207000012B45D90AA95D1E002200238C469C0035
:1020800001330AA89B000AAF2058DF59B84231DD5E
:102090000AA967505850002A30D0013A92B2130072
:1020A0009542ECDC6146009F0D00002428686A68B8
:1020B0000234121A31000132A4B2FFF7F1FA0835E6
:1020C000BC42F3D35A46099B12681B68D318049389
:1020D000049A01361300424500DD43469E4200DC6F
:1020E0005DE74BB0F0BCBB46B246A946A046F0BD8A
:1020F000180095E7013292B21300D1E70023BEE742
:10210000002BE5D001270AA9CEE742463BE7064B64
:102110008B46196899464D192A00454500DC32E77F
:10212000F3E7C04644190020B00F002040190020FA
:10213000B40F002010B5416800684908FFF7F2FEAF
:1021400010BDC046F0B5C6460E00804600B54F1E15
:1021500001290BD004000025E368A26861682068AB
:102160000135FFF761FE0834BD42F5D1084B414609
:102170009C464246434640466644F60089198059CB
:102180005B6812684968FFF74FFE80BCB846F0BD37
:10219000FFFFFF1F10B5416800684908FFF7D2FF35
:1021A00010BDC046F0B5DE4657464E464546E0B542
:1021B0001E0087B083468A4611A812A91400FFF7B3
:1021C000F3F95F4D5F4F2B68320003933B68129920
:1021D00002935D4B119898461B6801935B4B99469F
:1021E0001B680093109B00F0E7FC002800D180E002
:1021F000B4465346119AD444002B00DA8BE0109970
:10220000129B09190491002C00DA79E05846016804
:102210000591614502DC6046401A361A5846049919
:102220004068884203DC091A1098411A1091494607
:1022300009688C46914204DD8A1A9244B6180A0055
:10224000119141460968994208DD1098CB1A8046E1
:102250009844E418434610930B0012913F68B0185D
:102260006744B84201DBC71BF61B10982D68C718DE
:1022700049198F4202DB7F1AC11B1091002E38DDF5
:102280001099002935DD05994C4359468F6830492E
:10229000544408686400016885684B439B185B00E0
:1022A000ED18139B3F19DB0742D480235B02059393
:1022B00000230493109B5C1E139B9B0704D52300F3
:1022C0004B435B00ED1849424B009946214BB04609
:1022D0009A4643460093534638001E68059A2B00E1
:1022E0000499B0475B461B684D445B00FF18013CF6
:1022F000EFD207B0F0BCBB46B246A946A046F0BD3F
:102300005846109101681B1B1293002405916145EA
:1023100000DD83E77FE7D21A002310999A46091956
:102320006646129B11920491002C00DB6EE7E7E7F2
:102330005346F31A013B1B040493074B0593B9E77B
:10234000B00F0020B40F00204419002040190020D5
:1023500048190020B80F00200000FFFF0D4B70B59A
:102360001E680723150032680C00D1170B409B181C
:1023700084B0D91004F000FC002303930833C2009A
:10238000C9003000029501940093FFF70BFF04B0E1
:1023900070BDC046D4890020F0B54E46DE46574693
:1023A0004546E0B503782F4A203BD900C9182E4B8B
:1023B00085B00190039210681A68465C4418511C5D
:1023C0004DD0921BD205120E9046284A0293924697
:1023D000274A10689346524611684246641A0134EF
:1023E0000F00A14612184B461500DC5D002E0AD0E6
:1023F00063B2002B24DB640001359319E4B2AB42D5
:10240000F6DC534619680137CB1DBB42EBDA029B61
:10241000019A1B681278591C05D1039B203A196850
:10242000D3009B185B5C134A12688018C0185B4687
:10243000186005B0F0BCBB46B246A946A046F0BD48
:1024400028003900FFF7F2F85B46186843461A186F
:10245000640001359319E4B29D42C9DBD1E7002243
:102460009046B2E7AC0F0020BC0F0020DC890020B2
:10247000D8890020C00F002030B50B6802681C000E
:1024800001330B60D05C702809D110198578652D57
:1024900005D1C0786E2802D1073423000C60D05CCF
:1024A00073280AD1D2185078702806D19278722AEF
:1024B00003D105330B60683830BD0020FCE7C0460F
:1024C000F0B5CE46474680B50D6803686A1C0A60C1
:1024D0000C00995C060089B070295BD15919887885
:1024E000652857D1C8786E2854D16F1D27600A79A6
:1024F00010003038C0B209280AD911004139052925
:1025000000D89FE0110061390020052900D8B2E011
:10251000AA1D22609446DA5D11003039C9B209293A
:102520000AD911004139052900D8A7E01700613FF9
:102530000021052F00D89BE0EA1D226090466246EC
:102540009F5C3A00303AD2B2092A0DD93A00413A9A
:10255000052A00D895E061256D42AC46BC4465462D
:102560000022052D00D87DE045465D5D2B00303B07
:10257000DBB2092B0AD92B00413B052B00D88BE09D
:102580002F00613F0023052F00D86EE0FEF7A6FF65
:1025900022683368995C73294FD19918487870285C
:1025A0004BD18978722948D1033222607568AA42DA
:1025B00000D983E004AFAD1A2E0002979918032DBD
:1025C00043D8012D44D002AB9846002D45D1434657
:1025D00000255E60BE193570029E0CF075FF036821
:1025E00099460CF071FF0A22056001A930000CF039
:1025F00045FA019B05009E425DD00CF065FF036823
:10260000222B55D00CF060FF0368002B4BD00298B2
:10261000B84204D043469968013105F0F9FEFF2025
:102620002368284002332360274C284B21681A680E
:10263000FFF794FE23680833236009B0C0BCB94695
:10264000B046F0BD373AD0B262E70326012DBAD1C9
:102650000B7802AA90461372B9E73200380005F0F1
:10266000C5FEB4E7573FFAB27EE7573DEBB28DE7C0
:10267000573AD1B260E7573AD0B249E7373AD1B2C8
:102680005AE745465D5D373F2B00303BDBB2FAB27F
:10269000092B00D96FE779E7373DEBB2FEF71EFF54
:1026A0002268336876E70CF00FFF4B460360AEE715
:1026B000074806F017FB064806F0E4FA2B00054928
:1026C000054806F027FBC046D8890020DC89002099
:1026D000C80301107803011090030110F0B55746AC
:1026E0004E46DE464546E0B5554F8BB03B684268E6
:1026F0009C468C4400936346059300230600089390
:10270000002A00D197E0002000244E4B04919A4605
:102710004D4B01934D4B0293336806A99B461B5DBD
:10272000CB71202B3ED021D8092B31D00A2B08D1D8
:10273000009B01993B60534609681B685B18514632
:102740000B600020013408949442E5D35346019A6B
:102750001B6812689B1852461360009B3B600BB0CD
:10276000F0BCBB46B246A946A046F0BD5C2B06D1E4
:10277000300008A9FFF7A4FE089C7268E1E7002872
:1027800017D006ABD81DFFF707FE01207268D9E706
:10279000029B1B6819788B005B1839685B005B181B
:1027A0003B60CEE7029B39681B681B785B183B6077
:1027B000C7E72749220089462649099488462349C4
:1027C000002503914146B0464E46A1465C46BB46B5
:1027D0000F0010E03168481C05D10399203B0868C0
:1027E000D900CB18195C3B680132ED18A35C6D1859
:1027F0000992202B0AD95C2BECD1404609A9FFF79E
:102800003BFE099A2D18A35C202BF4D8049B4C4660
:1028100046465F460133B4D03B68ED18059B9D42A8
:10282000AFDD009B019A3B60534612681B689B1802
:1028300052461360A5E7034B9A46034B019385E785
:10284000D8890020DC890020C40F0020AC0F0020B4
:10285000BC0F0020C00F002030B51D00040083B065
:10286000019101A869460092FEF79EFE019A054B70
:1028700029001A60044B009A20001A60FFF72EFF0F
:1028800003B030BDD8890020DC890020F0B50400F9
:102890002600184F0B0083B02021174A3800083655
:1028A00004F0D6F8380026600CF0C4FE05000300E2
:1028B00001900F280CD8012807D13A782272002203
:1028C00020006360F25403B0F0BD0028F7D008E0A8
:1028D0000022200001A906F0FDFA0600019B2060FD
:1028E000A36030002A00390005F080FD019B2668B6
:1028F000E5E7C046688E0020D0030110F0B5040063
:102900002600184F0B0083B02021174A38000836E4
:1029100004F09EF8380026600CF08CFE05000300E1
:1029200001900F280CD8012807D13A782272002292
:1029300020006360F25403B0F0BD0028F7D008E037
:102940000022200001A906F0C5FA0600019B2060C4
:10295000A36030002A00390005F048FD019B26687D
:10296000E5E7C046888E0020D403011010B5F0249E
:102970002401120222400F2409030A430440144395
:102980001A01FF2313401C43A0B210BDF0B5D64678
:102990004F464646C0B50C1C171C1E1C051C05F0F6
:1029A00021FB011C281C05F02CF96B4905F043F9AB
:1029B000051C05F017FB011C8146281C05F021F9B8
:1029C00066498246381C05F036F964498046301C59
:1029D00005F031F9071CFE20211C800505F011F9D6
:1029E000414605F028F905F0B7F9211CC6B250465A
:1029F00005F021F9011CFE20800505F002F9414691
:102A000005F019F905F0A8F9C5B2FE205146800578
:102A100005F0F7F8211C05F00EF9011CFE208005D9
:102A200005F0EFF8414605F006F905F095F9C4B256
:102A3000484605F05FF9062104F076F8052900D92B
:102A400087E0474B89005B589F46404605F084F974
:102A5000F02300021B01184036030643381C05F022
:102A60007BF9FF230001184006430F20204030432C
:102A700080B2E0BCBA46B146A846F0BD381C05F0AD
:102A80006BF9FF23040140461C4005F065F90F2354
:102A90001840F023204336032D021B0130431D4014
:102AA000284380B2E5E7381C05F056F9FF230501FD
:102AB00040461D4005F050F90F22F0231040360229
:102AC0001B0128431E4030432403204380B2D0E73B
:102AD000381C05F041F9FF23040140461C4005F075
:102AE0003BF9F023C0B2000304430F2036021B0160
:102AF0001E4034432840204380B2BAE7381C05F01A
:102B00002BF9FF23050140461D4005F025F9C0B211
:102B100000030543F0230F20240230401B0128430B
:102B20001C40204380B2A4E7404605F015F9F0238D
:102B30000F241B010002184034400443381C05F0E8
:102B40000BF9FF230001184004432D032C43A0B2CE
:102B50008FE7F0208DE7C0460000C04000007041C4
:102B6000D8030110F8B5070010200D00160005F07D
:102B700043FC04001022002105F032FC2760656050
:102B8000002E02D0A6602000F8BD7D43094B6800EE
:102B90009D420CD805F034FC0600012D03D4002121
:102BA0006A0005F01DFC0123A6602373EBE70120FA
:102BB0004042EFE7FCFFFF3F30B504000598039D5E
:102BC000844665440020A54211DBA218039CA24262
:102BD0000DDB069C049AA44662448A4207DB049AF1
:102BE000CB180499D817D20F8B425041C0B230BDD8
:102BF000F0B5C646146800B5A046089C069EA446DB
:102C000044460768B4443C19079D644500DD6446AA
:102C1000B74200DA3700E41BE743FF173C4014607B
:102C20000C681A68099FA2187F19BA4200DD3A00A1
:102C3000AC4200DA2C00121BD443E41722401A6085
:102C40000368B34200DA330003600B68AB4200DA7A
:102C50002B000B6080BCB846F0BDC04630B5040008
:102C6000002094420EDB99420CDB039DAC4662448B
:102C7000A24207DD049A0120944663448B4200DCA3
:102C80000020C0B230BDC04610B5FEF745FB0120A4
:102C900010BDC046224BA0201A6801239340214951
:102CA000C00510B5445823420DD043501E490B882F
:102CB00001331BB20B80782B06DD012300225B421F
:102CC0000B801A4B1A7010BD194B1B6898680B8843
:102CD0001BB2002B06DD0B881BB2013B1C01E31A63
:102CE0001B01C0180C883C23002C07D1A021C9056A
:102CF0008C46920162441060D361E4E70B88920134
:102D00001BB2783B59424B413B215B428B43A02194
:102D1000C9058C46783362441060D361D3E7C0465E
:102D2000381900200C040000D40F0020DEA9002078
:102D3000048A002010B501F0E1FC10BDD021012271
:102D400009064B681B0A1A42FBD1D0210122090651
:102D50004B681B0A1A42FBD07047C046014B1878DB
:102D60007047C046DEA90020174A1378002B00D018
:102D7000704701211170154A1380154B1B68996823
:102D800013881BB2002B06DD13881BB2013B180110
:102D9000C31A1B01C91810883C23002809D1A020A0
:102DA000C00584460B4A1268920162441160D361E7
:102DB000DEE713881BB2783B5A4253413B225B4209
:102DC00093437833EBE7C046DEA90020D40F002000
:102DD000048A002038190020F0B5CE46474680B559
:102DE000334B87B004000D0018683249984605F04F
:102DF000CFFC80235B020293C0231B0304930300D8
:102E000080271233C2011B0313432B4AFF051340D3
:102E10003B430393012306009946290020000093B9
:102E200007220133059705F0D3FD244B244A029372
:102E3000049B290013400493059A224B20001A405A
:102E4000214B134305930022C02305F019FDC02236
:102E500029002000C02305F067FD049B07209B008C
:102E60009B081F4343461968184B04979C466144CE
:102E70004B1E9941063100F0EDFC43461968134B97
:102E800006209C4661444B1E9941063100F0E2FC4D
:102E9000320002AB2900200005F0EEFD4B46AB40AE
:102EA00022681343236007B0C0BCB946B046F0BDEA
:102EB000D80F002064040110FFFFFF9F00010200F3
:102EC000FFFFF5C1E0830FFC071810000000E0AF22
:102ED00010B504F0E7FE0B4904F099FE0A4905F02D
:102EE000A1F80A4B0A491C6804F0A5FEFC218905DB
:102EF00004F08AFE04F030FF6040064B0004000C32
:102F0000186010BD0000C8423333334084000540D0
:102F100000FF7F4784100540F0B5C646264B00B53C
:102F20001E68040030000F0004F0BCFE011C2348A2
:102F300004F06DFE051C200004F0B4FE011C281CEA
:102F400004F065FE804604F007FFC5B2280004F0D7
:102F5000AFFE011C404604F054FE8321C90504F075
:102F60006AFE04F0F9FE2D01154A3304C0B21B0CB1
:102F7000054395663800536704F094FE114904F048
:102F800046FE114905F04EF8071C20000F4B704318
:102F90000F491D6803F0F0FD04F084FE391C04F0B5
:102FA0004AFE04F0D9FE000468400A4B000C0004FD
:102FB000186080BCB846F0BDD00F0020286B6E4D65
:102FC000000005400000C8426666E63F700005400C
:102FD0001027000070100540D0231B06586870476A
:102FE00000B585B001F076F8064B074A029300233E
:102FF0000193064B009301235B4201F061F905B098
:1030000000BDC046F015002018FCFFFF892C001001
:10301000F0B5DE4657464E464546002288218024BC
:10302000E0B51A4B1A4885B058509A671A510434C3
:103030001A5110325850DA670F3A84399A670C20C7
:1030400000F008FC134B144A1B680D201B041B0CDA
:10305000136002F07FF80A2001F09AFA0F4803ABE0
:1030600002AA01A900F0E2FA002803D10C480B499A
:1030700002F038F9039A0299019800F09BFAD023E4
:103080001B0600240126172798460EE00000054085
:10309000FFFF0000840005408410054090D003002D
:1030A000F00301100134202C13D03500A5402F422D
:1030B000F8D00521280000F0CDFB33004246AB409C
:1030C0000121936228000022013400F0DBFB202C58
:1030D000EBD1D026002404253606012C06D105218B
:1030E000022000F0B7FB01347562B5610134E4B22F
:1030F000202CF2D105F082FD1F211A2000F0AAFB3E
:10310000002200211A2000F0BDFB00211A2000F04F
:10311000CBFB9C239846FE4BFE4D9B4643465A46AE
:103120008C27EA50982000239422EB518146AB5023
:103130005E462B5040462E5090268C38933A82465D
:10314000A8510421EA51023800F084FB8823584634
:1031500000218022E850A967A9500432A950E85004
:103160005046833AE8670431AA67033800F072FBDF
:1031700040465B4694212B500023EB516B5049464F
:1031800058466B5041460122685051460F20A951C4
:10319000EA510C3900F05EFBDF49E04805F0B8FC6D
:1031A000D0270521042000F055FB51463F067962E7
:1031B0006420B96101F0ECF951467136FF3679614E
:1031C00009200B3900F046FB7E620521052000F046
:1031D00041FB7C620121062000F03CFB012107201D
:1031E00000F038FB012269467C61CC480A73BC615F
:1031F00003A9BE610CF0D8FF7C61052001F0C8F97D
:103200003623694601220B73C448BC6103A9BE6121
:103210000CF0CAFF7E610122C149C0480CF0C4FF16
:10322000352369467C6101220B73BC48BC6103A94C
:10323000BE610CF0B9FFBB4B7E6119000122B7489B
:1032400098460CF0B1FFB22369467C6101220B73F2
:10325000B248BC6103A9BE610CF0A6FF41467E6185
:1032600005220431AD480CF09FFF3A2369467C618A
:1032700001220B73A948BC6103A9BE610CF094FF45
:103280007E610122A849A5480CF08EFF26236946DD
:103290007C6101220B73A148BC6103A9BE610CF0E3
:1032A00083FFA24B7E61190001229C4899460CF0D5
:1032B0007BFFB72369467C6101220B739748BC6191
:1032C00003A9BE610CF070FF7E610122984993480A
:1032D0000CF06AFFBB2369467C6101220B738F48A7
:1032E000BC6103A9BE610CF05FFF7E6101229149C0
:1032F0008A480CF059FFC02369467C6101220B7398
:103300008648BC6103A9BE610CF04EFF7E610122BC
:10331000894982480CF048FFC22369467C6101223A
:103320000B737E48BC6103A9BE610CF03DFF4946AA
:103330007E61012279480CF037FFC32369467C6126
:1033400001220B737548BC6103A9BE610CF02CFF10
:103350007E610122794971480CF026FFC423694639
:103360007C6101220B736D48BC6103A9BE610CF046
:103370001BFF7E610122724968480CF015FFD023C3
:1033800069467C6101220B736448BC6103A9BE617C
:103390000CF00AFF7E6102226A4960480CF004FFCB
:1033A000C62369467C6101220B735C48BC6103A99A
:1033B000BE610CF0F9FE7E610122634957480CF0B2
:1033C000F3FEE02369467C6101220B735348BC6124
:1033D00003A9BE610CF0E8FE7E610E225B494F48F6
:1033E0000CF0E2FEE12369467C6101220B734B483D
:1033F000BC6103A9BE610CF0D7FE7E610E22544968
:1034000046480CF0D1FE212369467C6101220B73F2
:103410004248BC6103A9BE610CF0C6FE7C6173200A
:1034200001F0B6F81123694601220B733B48BC61D9
:1034300003A9BE610CF0B8FE292369467C61012214
:103440000B733648BC6103A9BE610CF0ADFE2A23A4
:1034500069467C6101220B733048BC6103A9BE61DF
:103460000CF0A2FE0C217E61414404222B488946C7
:103470000CF09AFE2B2369467C6101220B732748CE
:10348000BC6103A9BE610CF08FFE49467E61042237
:1034900022480CF089FE2C2369467C6101220B73C3
:1034A0001E48BC6103A9BE610CF07EFE7C61082051
:1034B000BC617E6100F00CFA80235B00254CBB628E
:1034C000254F21683868FFF787FC3A6823490026B2
:1034D0005018411E8841224BC0001E602368214CB9
:1034E000C018C1030C43A02104339B00D218C905A6
:1034F0000E604A608E600C6101241B4B01211C6030
:1035000000F05EFA0B20194900F074FA30E0C04672
:10351000FFFF00000000054000127A0000C00340D9
:103520002404011094040110280401102C0401103B
:103530003004011038030110340401103804011064
:10354000080301103C040110400401104404011060
:1035500054040110308E0020D80F00200000E0AF8E
:10356000381900201900400004240050952C001048
:1035700001210B2000F024FA5B466E66EE662E6792
:103580006B6753460421AB660B206C6600F062F952
:10359000064B074A1B681B0C1B04136005B0F0BCEC
:1035A000BB46B246A946A046F0BDC04670000540E5
:1035B00070100540F0B583B005000E00140000F057
:1035C000A5F9002801D003B0F0BD154F01223B0042
:1035D00001210097053001F07FFB33002A000094A1
:1035E0000121104801F060FD21002800714303F023
:1035F000C3FA04000C4B002200930221042001F0C6
:103600006BFB2300002201210094052001F064FBE4
:103610003B00022200210097062001F05DFBD2E76B
:10362000006CDC0200800240001BB700F0B5DE46F3
:103630004E4645465746E0B5060085B004209A46FA
:103640008B46019201F02AFDFA21890003F094FAD9
:103650003223FF3398467D4B850099465B460293A3
:10366000534682462D18AD010393794BEB184B4519
:103670000AD901235B429C465346E044ED1A434677
:10368000002BF2D100208BE03121280003F074FAE6
:1036900007243127864263D0671EA34634003E00CC
:1036A0005F4677432800390003F066FA84424CD025
:1036B000731E0093012E00D1B1E05B46FF1A390062
:1036C000280003F059FA844256D0B31E0093022E0C
:1036D00000D1AFE05B46FF1A3900280003F04CFA36
:1036E000844264D0F31E0093032E66D05B46FF1A1B
:1036F0003900280003F040FA844269D0331F009358
:10370000042E6BD05B46FF1A3900280003F034FA10
:1037100084426BD0052E6DD02800F91F03F02CFADF
:10372000844200D171E00623242128009B462427EF
:1037300003F022FA844211D005265F467743280021
:10374000390003F019FA8442B2D10029B0D1029BAA
:103750005F469B46039B34009A4615E026005C4674
:103760003900280003F008FA002995D1029B2700B0
:103770009B46039B9A4607E00029A6D1029B5F4621
:103780009B46039B009C9A465B466A01521B920033
:103790005219D2001A60019B01201F6053461C6021
:1037A00005B0F0BCBB46B246A946A046F0BD002914
:1037B000E4D0F31E0093032E98D10323092128009F
:1037C0009B46092703F0D8F98442C7D0022667E751
:1037D0000029D3D0331F0093042E93D10423102744
:1037E0009B462B099C42B9D0032659E70029C5D036
:1037F000052E91D119212800192703F0BDF9A04207
:1038000021D0052304269B464AE7002900D08AE7F9
:10381000029B5F469B46039B01249A46B4E7260021
:10382000AC4200D025E7029B01279B46039B012465
:103830009A46A9E7022304279B46AB089C4200D185
:103840008CE701262CE72600052489E750F80C00B8
:10385000508EF4FF094A10B5944640248300634417
:103860001A68C00062408034144080225201134321
:103870001C60034B9C466044416010BD04C0014085
:1038800000400140074B80009C4660440368C9002B
:1038900092000A435A400C231A4080235B010343E1
:1038A0001A60704704C00140084B80009C46604489
:1038B000002905D0802340229B0103431A607047F2
:1038C000C02340229B0103431A60F8E704C0014073
:1038D0000123D0228340120693629361094A40215A
:1038E0009446830063441A68C0004A408031114006
:1038F0008022520113431960034B9C460523604408
:103900004360704704C0014000400140024B18680A
:103910008007C00F7047C04600C00640EFF310801C
:1039200072B6034A1368002BFCD0BFF35F8F704759
:103930002C0100D0BFF35F8F0022024B1A6080F38E
:10394000108870472C0100D070B5EFF3108C72B660
:103950000D4D2B68002BFCD0BFF35F8F0724CB08E5
:10396000C618C05C01230C40A3401C000440034265
:1039700007D118433070BFF35F8F2C608CF3108831
:1039800070BD100001F0AEFC2C0100D00021044BF2
:10399000044ABFF35F8F02C39342FAD17047C04617
:1039A000000100D0800100D0044A1078431CDBB233
:1039B000172B00D9102313707047C046DC0F00206E
:1039C00001238340002904D0034A1360034A136093
:1039D0007047034A1360FBE780E200E000E100E08B
:1039E00080E100E0024B10309B688000C0587047B7
:1039F00000ED00E070B50D00EFF3108672B60F4ACF
:103A00001368002BFCD0BFF35F8F0D4B10309B6809
:103A100084001B590B4A934203D09D4201D001F010
:103A200079FC074B9B681D51BFF35F8FBFF35F8F1E
:103A30000022024B1A6086F3108870BD240100D06A
:103A400000ED00E0CD010010F0B5DE4657464E46D1
:103A50004546E0B50C0083B0EFF3108872B65D4ABE
:103A60001368002BFCD0BFF35F8F5B4B5B499A68F8
:103A7000030010339F00D5598D4239D0A5424AD05A
:103A8000574EAA1B2F2A33D80122924682409146D4
:103A90004846544A1268104001904846524A106005
:103AA000BFF35F8FEFF305829346002A35D0934230
:103AB00001D001F02FFC2A0053469A4390688442BB
:103AC00008D175E04B005B189B00F3189868A04282
:103AD00034D01A00062151560029F3DA844253D01B
:103AE000019B002B26D04A46404B1A603D4B1A6082
:103AF000394B9B68DD51BFF35F8FBFF35F8F0022AF
:103B0000344B1A6088F3108803B0F0BCBB46B24651
:103B1000A946A046F0BD0D00EAE72A0053469A43A5
:103B200090688442D6D1062010561300002809DA86
:103B30000D0031E04A462C4B1A60D9E70620185692
:103B4000002822DB42001118890074188A46A168F7
:103B50009960E179D971062161569971002925DBB7
:103B6000A488F11A6405241554440919E0240905B0
:103B7000490D24022143998013181D4A9B00117896
:103B8000F31899711070ABE713005946002914D14E
:103B9000FF3191711749918015490A789A71164A37
:103BA0009B1B5B415A43120D0A7099E71349E2E7E8
:103BB0000620105613000028C4DA114A1149D21AFF
:103BC000083A5002400D014399800F4952080A43B8
:103BD000DA8085E7240100D000ED00E0CD0100107F
:103BE000E00F002000E100E080E100E080E200E082
:103BF000E1A9002001BDFFFFAAAA000001BD00004D
:103C00001A10002000F0FFFF00F8FFFF70B5EFF37F
:103C1000058101240443EFF3108C72B6214A136826
:103C2000002BFCD0BFF35F8F1F4B05001F4AED1A1E
:103C30006D416A43120D1E4D8900AE6852B276582E
:103C4000A6421CD00621595691421CD01221595629
:103C5000914222D01E215956914220D02A215956F4
:103C60000324914210D0134B19781A708171BFF35D
:103C70005F8F00220B4B1A608CF3108870BDAB680D
:103C80000D4C5C50EFE700246100091989005B18B6
:103C9000FF21997109499980E5E70124F4E702249D
:103CA000F2E7C046240100D0E00F0020AAAA0000DD
:103CB00000ED00E0E1A90020CD01001001BDFFFFF3
:103CC000054B064A1360064A136053609360D36045
:103CD00013615361936170478080808000E400E04D
:103CE00004E400E0024B9C46614489000160704797
:103CF0004000003410B50400FFF756FE010020001C
:103D0000FFF7F0FFFF232371BFF35F8F10BDC046A5
:103D100010B50400FFF748FE01002000FFF7E2FFA6
:103D2000FF23A380BFF35F8F10BDC04683680B489D
:103D300010B58446614462441201090159189B1868
:103D40005C684A680120944201D802D00020C0B2C9
:103D500010BD1A680B689A42F9D8F7E7FFFFFF0F0A
:103D600010B508000B690C009847002802D02068A5
:103D7000616810BDE06000210020FAE70A4B196875
:103D8000EFF3108072B60A68002AFCD0BFF35F8F91
:103D90001B68BFF35F8F00221A6080F3108840BF5A
:103DA000002000217047C046C8A90020F8B557463A
:103DB00045464E46DE46E0B598460CAB1C780DAB4A
:103DC0001B78070091469A460568002C59D1AC7BB8
:103DD000002C3BD0660029683619033E89194B78C0
:103DE000AB73002B00D1EB7300238B704B700B7007
:103DF0002D4BE218BB6812019B184A461A604246D6
:103E00005A600A9A9A600B9ADA6000238B704B70A2
:103E10000B706B7B9B46002B26D022006B685946AB
:103E2000A86898475B465B005B442A68033B002810
:103E300012D058469619B070D118D35C002B00D020
:103E400073705B460C706B735C450ED0F0BCBB4668
:103E5000B246A946A046F8BDD3189C709119925D50
:103E6000002A1CD15B460B706C734A464346387D72
:103E700000F0D8FC051E0AD10E9B002BE6D01D7069
:103E8000E4E7660029683619033E8919B0E753460E
:103E9000002BF1D12100386800F0E2FEECE75A7007
:103EA0005B460B706C73E0E7FFFFFF0FF0B5DE467B
:103EB00057464E4645460023E0B58BB00893674B06
:103EC0008200D45800239B46099000F017FC0200A2
:103ED0000B006068EFF3108A72B65646016800293D
:103EE000FCD0B246BFF35F8F21684F7B8C46002F1A
:103EF0002ED0A5685A49A94679180901894449462E
:103F00000868496805000E00AD1A9E41002E5FDD6D
:103F100002000B00099800F085FC0023002299465E
:103F2000002306920793002398466368BFF35F8FD0
:103F30005A461A608AF310884346002B12D1002893
:103F4000C3D10BB0F0BCBB46B246A946A046F0BDFB
:103F500000230022994600230692079300230020A5
:103F60009846E2E7089B494618023843C047626812
:103F700005000E00EFF3108A72B61368002BFCD018
:103F8000BFF35F8F002E40DB2B00334302D0236949
:103F9000002B55D12368D97B002905D01A68480029
:103FA00041185218033A57709A7B002A00D19F7328
:103FB000DF73E268013FD35D0133D3555B46236174
:103FC0006368BFF35F8F5A461A608AF310887CE7F4
:103FD000002E01D1002D9BD10021604600F0BEFDD6
:103FE0004B461A685B68069207934B469B68984657
:103FF0004B46DB689946E368DB19013B1B78089365
:104000001B020343236100208FE72369002BC1D0EB
:10401000069A079B8021521BB34109068B4202D3AB
:104020000122104B52420021049101310391494673
:1040300001914146200002970091FFF7B7FEBDE7CE
:1040400000F05CFB2A00330012184B418021090666
:104050008B42E8D30122034B5242E4E74492002012
:10406000FFFFFF0FFFFFFF7F10B5144C6368002BAD
:1040700004D00A211248FFF735FE10BD2300114A73
:104080001021206800F086FC032000F02BFB0320A9
:1040900000F036FC03200C4900F07EFBFFF784FCA7
:1040A0000A4B9C4603232375D0231B061B686044E0
:1040B0006375074B80006060DC60DAE72810002041
:1040C000C8A900202D3D0010AD3E00104000003476
:1040D000449200200048704728100020F0B5574651
:1040E0004E464546DE46E0B585B0019310AB1B78E1
:1040F0000600039300239A46984600927268EFF3F5
:10410000108B72B61368002BFCD0BFF35F8F35683D
:10411000AC7B002C00D16DE067002B683F19033F9A
:10412000DB195A78AA73002A00D1EA73484AA11809
:10413000B2680901521800980199106051600E99F7
:1041400091600F99D16042469A705A701A706B7BD9
:104150009946002B6BD022006B684946A8689847A7
:104160004B465B004B442A68033B002856D0484628
:10417000D719B870D118D35C002B00D07B704B4698
:104180000C706B734C4553D0F3681B19013B1878C6
:104190007368BFF35F8F42461A608BF310885346F3
:1041A000002B08D10002204305B0F0BCBB46B2464C
:1041B000A946A046F0BD039B002B46D00E9B0020D5
:1041C0000F99984703000B433FD004000D1E1ADAE5
:1041D000009A019B121BAB410092019380221206B0
:1041E000934204D301231B4C5B4200930194039B35
:1041F0009A4683E77368BFF35F8F1C608BF3108868
:1042000001204042D0E700F079FA8022001969418C
:104210001206009001919142E9D3E3E7D3189C7014
:10422000D119D25D002A00D05A704B460B706C73C6
:10423000307D009A019B00F0F5FA82460028A3D059
:104240002100306800F00CFD9EE70020ACE7C0467E
:10425000FFFFFF0FFFFFFF7FF8B50B000400416871
:10426000EFF3108572B60A68002AFCD0BFF35F8FA7
:10427000FF222068D9B2467B1A408E4207D00668DA
:104280005700BF18F619033EB678002E10D0E66826
:104290001B0AB218013A1278DBB29A420DD0002004
:1042A0006368BFF35F8F00221A6085F31088F8BD42
:1042B00022699A42F3D12661F1E700F0D1FCEFE7E1
:1042C000F0B557464E46DE4645461100E0B585B08E
:1042D00006009C46109F194300D1E7E06146DB17BA
:1042E0000193009353401C00019B4B401D0000981C
:1042F0000199241A8D4163460E997B600F9BBE6025
:104300007B6139613A6000F0F9F980230019694155
:104310001B0600900191994204D30123684C5B4233
:104320000093019400239846664B10970393002353
:104330009946109B3700464698467A68EFF3108BF3
:1043400072B61368002BFCD0BFF35F8F3D68AC7B67
:10435000002C00D178E063001B19033B1A0094463F
:1043600002932B6863445A78AA73002A00D1EA7337
:10437000554AA118BA6809015218009801991060AD
:104380005160039991604146D1604A469A705A70D3
:104390001A706B7B9A46002B00D17AE022006B6882
:1043A0005146A868984753465B0053442A68033B2C
:1043B000002864D0D1188C4651460298101881709C
:1043C000D35C002B00D0437063461C7053466B7364
:1043D000350054455ED0FB687A681B19013B1B7899
:1043E000BFF35F8F494611608BF31088002D0CD10D
:1043F00047461B02234301352800FB6005B0F0BC93
:10440000BB46B246A946A046F0BD434640461B699E
:104410009847061E24D043460CCB100018434BD0BF
:1044200014001D1E1FDA009A019B121BAB41009263
:10443000019380221206934200D27EE70123204C92
:104440005B420093019478E73E0047467368BFF3F0
:104450005F8F1C608BF31088012300255B42CBE744
:1044600047460023C8E700F049F980220019694156
:10447000120600900191914200D25EE7DEE70298B9
:10448000D3189C701118125C002A00D05A70534641
:104490000B706C73387D009A019B00F0C3F9051E08
:1044A00099D02100386800F0DBFB94E70023012459
:1044B000002501229C461EE74746350000239BE766
:1044C000FFFFFF7F613D0010FFFFFF0FF0B504000D
:1044D0000D0006267642F717C64636196F4100B51D
:1044E00084B08F4214D811D000F008F932003B009C
:1044F000121A8B41002B15DC002B3ED02000290026
:1045000000F03AF904B080BCB846F0BD8642EBD961
:104510000026002700F0F2F832003B00121A8B410F
:10452000002BE9DD002302930193154B3200009329
:1045300014483B00FFF7D2FD0028DFDB002398463C
:10454000BC46114A114F7B6A9C4504D8B96A8E4219
:10455000D4D99C45D2D11168EFF3108072B60B68A4
:10456000002BFCD0BFF35F8F1368BFF35F8F414612
:10457000196080F3108820BFE5E7002ABED0D1E79C
:104580007D3D001028100020C8A9002000400540F3
:1045900070B5060000F0B2F8FA2204000D00002306
:1045A00030000021920003F00FFB802300196941C5
:1045B0001B06994202D3012002494042FFF786FFC1
:1045C00070BDC046FFFFFF7F70B5EFF305830500A8
:1045D0000C0084B0002B0FD0104A0020536AA34275
:1045E00003D3926A0130AA4201D304B070BD1B1BF1
:1045F0005A1E9341D8B2F8E7094E02930193094B32
:104600000200009330000B00FFF768FD011EE3DDA0
:1046100020BF3000FFF720FEDEE7C0460040054027
:10462000281000207D3D0010F0B5EFF30582D6463E
:104630004F4646461000C0B51038EFF3108872B6EA
:10464000214C2368002BFCD0BFF35F8F012319009E
:1046500081401E4D1F006963AA461D4D29601D4DF6
:104660002E78AC463500C5402F402B4215D053461E
:104670005F6A194B8500EB589F4218D36246174B6F
:104680008E43EB581670BFF35F8F0022226088F3D1
:104690001088002B06D0984704E0BFF35F8F276097
:1046A00088F31088E0BCBA46B146A846F0BD0C4B72
:1046B00092009C46624413681360BFF35F8F00232F
:1046C000236088F31088EDE7280100D00040054002
:1046D0003C700540E2A90020CCA90020C491002034
:1046E000D03F054010B5034B01001800024AFFF708
:1046F0002BF910BDE0A9002010880110034B596A66
:104700000A00986A596A8A42FAD170470040054007
:1047100070B504000D00174A536A1900966A536A6F
:104720008B42FAD13000190024184D41AB4216D803
:1047300013D0104B2A005B6A9D4203D90D494B6A86
:104740009342FCD3934207D10A4A02E0516A99424C
:1047500002D1916AA142F9D370BDA642E9D9054BB5
:104760005B6A1C005A1CEFD0012201246442E51749
:104770005242E3E700400540064A536A9942FCD89A
:1047800007D1044B02E05A6A914202D19A6A8242EE
:10479000F9D370470040054070B504000D00EFF3F9
:1047A000108672B61A4A1368002BFCD0BFF35F8FD5
:1047B000002D1BD02000FFF715F9164981420AD0C1
:1047C0002000FFF717F901212000FFF7F9F8012376
:1047D000A340114A1360114BA400E550BFF35F8F53
:1047E00000220B4B1A6086F3108870BD0121A14096
:1047F0000A4BA200D5500A4B20001A788A4305497B
:104800001A70FFF721F900212000FFF7D9F8E5E73A
:10481000280100D02946001038600540C4910020CE
:10482000E2A90020F0B54F46D6464646C0B507007F
:104830002E4C616A0D00A66A616AA942FAD18B42C8
:1048400008D805D00120E0BCBA46B146A846F0BD64
:10485000B242F7D9EFF3108A72B6254801680029F1
:10486000FCD0BFF35F8F0125BD4022491F4C884615
:10487000097889462943C9B28C464146604608708A
:10488000391D890065630A511B49B8004350216AEC
:104890000020294219D0616A0800A66A616A814233
:1048A000FAD18B4219D801D1B24216D8CC450BD0DF
:1048B0000E4B1F221D625D6301233A4093400F4A55
:1048C000136043464A461A700120BFF35F8F0022EF
:1048D000074B1A608AF31088B5E70020BFF35F8F9B
:1048E0000022034B1A608AF31088ACE700400540B1
:1048F000280100D0E2A90020CCA9002080E200E03D
:10490000EFF3108C72B60A490B68002BFCD0BFF392
:104910005F8F01238340074A0748136202789A4356
:104920000270BFF35F8F00230B608CF31088704719
:10493000280100D000400540E2A9002070B5060023
:104940000D00140000291DD0002A12D07368806861
:10495000984762006B0012195B193168033A033BF8
:10496000002808D08A189570C818CB5C002B0BD192
:104970000470280070BDCB189C7088188A5C002ACF
:1049800005D105702000F5E753700470F1E75A7007
:104990000570F7E710B583600023CCB24373013391
:1049A000426004738373C4730068421C012C05D9F0
:1049B0000133DBB2137003329C42F9D1FF230B4069
:1049C0005A00D318C01800230338437010BDC046E6
:1049D00070B505000C1E07D0630001681B19033B6E
:1049E000CB185A78002A01D1200070BD50008018E1
:1049F0000338091800204E784870210058702800AC
:104A0000FFF79CFF310004002800FFF7E1FF0600DC
:104A1000002C20D00028E7D0320021006B68A86865
:104A200098477200630092191B192968033A033BE7
:104A3000002808D08A189470C818CB5C002B00D0CE
:104A400053700670D0E7CB189E7088188A5C002AD5
:104A500000D05A7004703400C6E7C046F0B557461F
:104A60004546DE464E46E0B50D006F0001687F19F1
:104A7000033F0400C85D83B00192CA19002850D0DA
:104A800043001B18033BCB185E78B446002E1AD1A6
:104A9000019E002E42D0E67B002E04D073009B19AD
:104AA000CB18033B5D70A37B002B00D1A573E5738E
:104AB00000282FD10023537003B0F0BCBB46B24690
:104AC000A946A046F0BD72006244033A8A185178A4
:104AD000884600215170894659703200010020003B
:104AE000FFF72CFF43468246002B07D05B0021686E
:104AF0004344033BCB185A78002A16D1424651460C
:104B00002000FFF71BFF2168019BCA19002BC2D1AF
:104B10000028CFD043001B18033BCB18002199700D
:104B2000C8E7019B002BB6D1C4E7500080180338BA
:104B30000918487883464846487058704146200016
:104B4000FFF7FCFE594680462000FFF741FF414633
:104B500002002000FFF7F2FE8046CFE7F0B557468F
:104B60004546DE464E46E0B583B00191457B0400E4
:104B70006F0000687F19033FC15DC219002952D040
:104B80004B005B18033BC3185E78B446002E1CD163
:104B9000019E002E44D0E67B002E04D073009B19AA
:104BA000C318033B5D70A37B002B00D1A573E57395
:104BB000002931D1002328005370617303B0F0BC89
:104BC000BB46B246A946A046F0BD72006244033A15
:104BD000821850788046002050708146587032000C
:104BE0002000FFF7ABFE43468246002B07D05B0058
:104BF00021684344033BCB185A78002A17D1424618
:104C000051462000FFF79AFE019B01002068C2195F
:104C1000002BC0D10029CDD04B005B18033BC3183B
:104C200000209870C6E7019B002BB4D1C2E750006A
:104C300080180338091848788346484648705870E9
:104C400041462000FFF77AFE594680462000FFF7D4
:104C5000BFFE414602002000FFF770FE8046CEE70F
:104C600070B5050000292CD0437B8B422ED04C0020
:104C700000686418033C0419A278002A21D053006C
:104C80009B18033BC25CC6188A4202D11BE0002A73
:104C900008D053009B18033BC3185A788A42F6D1B8
:104CA00062785A70002301222800A3706370FFF716
:104CB000D5FE697B02002800FFF740FE68730120E3
:104CC00000E0002070BD63783370EBE7012219002B
:104CD000FFF7C4FEF2E7C046F0B545464E46DE4655
:104CE0005746E0B583B016000C9A050088469A42F4
:104CF00000D973E01A0E93461B021800019359461F
:104D000000230C9A01F076FF354B6C009C46641929
:104D1000A400644463680700834200D260602B1FD4
:104D2000DBB29946012B34D9C02380229B01234357
:104D300012011A602B4BAD0059599A46002905D033
:104D4000586901F019FF01300138FDD12268730163
:104D50005340E0221A4080235B0123431A604A46F5
:104D6000012A2ED9802380229B01234312011A603D
:104D7000594600233A000198676001F03BFF534613
:104D80005851012003B0F0BCBB46B246A946A0462C
:104D9000F0BD4346012BC7D1C02303229B0123430F
:104DA0001A60023AA3681A42FCD022687301534089
:104DB000E0221A4080235B0123431A60094AAD00B8
:104DC000924642462168514003220A401A6001225D
:104DD00043469A40A3681A42FCD0C3E70020D1E7BB
:104DE000008000400816002010B50C2082B000F0B2
:104DF000BFF9FEF78BFD002810D0864B8648864908
:104E0000864A186059609860D96018615961986144
:104E1000D961186259625A6202B010BD804CA06715
:104E200000F0AEF901227F4B1A60636C012BFCD1BC
:104E300003227D4B1A607A4A936B012BFCD101331C
:104E400001217A4A7A480093043300F02DF90523B2
:104E5000784A00930121784800F026F9774B5A6888
:104E6000FF2A02D8802252005A6080226E4B694C81
:104E700012011A602169002905D0606901F07CFEE9
:104E800001300138FDD1E0226C4B6D4819680A40B1
:104E9000026002221968514001320A400421026076
:104EA0009A681142FCD08021664A09011160802273
:104EB00052005A60644B2361644B5968FF2900D843
:104EC0005A6003220121574B1A60604A93681942C5
:104ED000FCD0E023106803405D48036012680323A0
:104EE0004A4002211340594A036093681942FCD09A
:104EF0008021584B090119608021574B49005160AE
:104F00006361564B5A68FF2A00D859608022544B7F
:104F100012011A60E169002905D0606901F02CFED8
:104F200001300138FDD1E0234C4A11680B404D4956
:104F30000B6080214C4B090119608021364B4900E0
:104F40005160E361494B5A68FF2A00D859608022BA
:104F5000474B12011A60216A002905D0606901F0EF
:104F60000BFE01300138FDD1E023404A11680B40AF
:104F700040490B608021404B0901196080235B0090
:104F800053608022244BD20223623C4B59689142E9
:104F900000D25A6080223A4B12011A60616A0029DD
:104FA00005D0606901F0E8FD01300138FDD1E02352
:104FB000324A11680B4033490B608021324B0901A2
:104FC00019608023DB025360144B63622F4B5A68D5
:104FD000FF2A02D8802252005A6080222C4B1201F4
:104FE0001A60A169002905D0606901F0C5FD013092
:104FF0000138FDD1E023254A11680B4025490B609B
:105000008021254B0901196080235B005360124BFE
:10501000A36101E708160020006CDC021BB700004A
:10502000008000403CB0004030B00040002F685984
:1050300000800240008C864700C002403080004063
:105040003090004030A00040001BB7003C80004082
:105050003C9000403CA00040405973075480004001
:1050600054B000405490004054A000406080004084
:1050700060B000406090004060A000406C80004044
:105080006CB000406C9000406CA000404880004034
:1050900048B000404890004048A00040014B8000CC
:1050A000C058704708160020F8B504000C201700FF
:1050B0001E000D0001F060FD43011B1A9901C91A81
:1050C000C90009188901380001F056FD069B370414
:1050D0001B031F432368002B22DB1A4B1A4EE218D6
:1050E000531E9A4180239B019C465242120B174B40
:1050F000120362441A60164B1A601300B1688B43A6
:10510000FBD1C023221D9B01134321222560A060F7
:105110001A602268002AFCDA0822E7601A60F8BDEB
:105120003F2322681340AB42D7D1A3681B051B0D58
:105130008342D2D1EE22E368D2021340BB42CCD1EB
:10514000EDE7C0460040FDBF00C0004000E0004069
:1051500000F00040044B00011B68044A5840F02353
:10516000034013607047C0460040064000500640B0
:105170008023024A9B000343D362704700800540AE
:10518000AA23064A1B0113602F230549D360054B50
:1051900019605368002BFCDA7047C046004002409B
:1051A00000B0FA00006002402C4B2D4A70B51A6026
:1051B0002C4A2D4B2D491A6014008B689C43FBD15F
:1051C0002B4D2C4EB54208D2013E761BB60808CDB9
:1051D000984723000134B342F9D1FFF705FE264A70
:1051E000214B1A60214A9368DB43DB01DD09002B68
:1051F000F9D14022214B224C224E9A675A671A67F6
:10520000DA66B44208D223682000002B20D008348C
:10521000FEF77EFDB442F6D31B4C1C4EC022B16893
:10522000200003F0E3F8B460FEF7B0FBFEF748FDA2
:10523000FEF71AFF164C174EB44208D2013E361B39
:10524000B60808CC98472B0001359E42F9D170BDB5
:105250000834FEF74FFDB442D5D3DDE700E000404F
:10526000BFCDFBFEFE7F3C0000F0004000C00040D0
:10527000CC150020DC150020FFFFFF0100F00140ED
:10528000C4150020CC1500200000002000ED00E037
:10529000DC150020EC15002000BEFDE7094A0300E4
:1052A0001068002805D00849C3188B4207D813603E
:1052B000704706480449C31810608B42F7D9012093
:1052C0004042F5E72092002000000420E4A90020DD
:1052D00000207047012040427047C04610B5FFF7DC
:1052E000DBFFC0460FB400B5084883B003F02AF9CD
:1052F000049B002B07D005A91800019101F0BCFB0D
:10530000034803F01FF90120FFF7C6FF348801109E
:105310004488011010B50148FFF7E4FF48880110E8
:105320009A4200D2885470477047C046F8B5574635
:10533000DE464E464546E0B599460A9B07009A462A
:105340000D9B884693460B9C9B073BD10C9B9C4234
:105350003DD21E1B0B9415000C005E442A004B46E8
:10536000013521002020B847B542F7D1A0460B9C5B
:10537000002C20D0454636195346321B013C185D9F
:1053800029004B46B847002CF6D12B003500984633
:105390000D9B9B070FD55B46EC1A0C9BA3420AD9C9
:1053A000464698462A004B46310020200134B84733
:1053B00001354445F6D32800F0BCBB46B246A946A9
:1053C000A046F8BD16001500002CD3D1E0E716006A
:1053D000002CCFD11500EEE7F0B54F464646D64635
:1053E000C0B584B098460EAB1B7894469946129B84
:1053F0000D9C109F119E9A0725D4002E65D1BC42AA
:1054000021D201221A409246202C00D1E9E00C9AC8
:10541000551E302202E0202C00D17BE001342A55B9
:10542000A742F8D85246002A0DD0B4420BD20C9AAB
:10543000551E3022202C02D171E0202C2DD00134B9
:105440002A55B442F9D1DA063CD55A052ED4002C9F
:1054500028D10F9A102A00D1B6E0022A00D1BCE070
:1054600030220C9C227001244A46002A65D15A073A
:1054700000D499E02B220C9D2A55013403930C9BF8
:1054800062460093029643460194FFF74FFF04B033
:10549000E0BCBA46B146A846F0BD2024DA06EDD5F8
:1054A0005A0503D4A74266D0B44264D00F9A102A9A
:1054B00071D0022A57D0202CE0D0220001343025B0
:1054C0000C9FBD54202CD9D0CEE7012215001D40E1
:1054D000AA461A4236D04A46002A4AD10C321A420B
:1054E00047D1BC42A1D2202C91D1202E17D8202404
:1054F000DA06C3D55A051BD4202F01D0202ED5D1D2
:105500001F220F9D102D6FD0022DD8D162250C9F28
:10551000BD54D0E75246002A79D0202EBDD9202490
:10552000DA06ABD55A0503D4202FE9D0202EE7D0D8
:105530000F9A102AA2D12024A0E72D220C9D2A55D3
:1055400001349BE7BC4200D37DE7202C00D05EE70E
:10555000DA06F0D55A05EED4202F62D0202EEAD1FB
:1055600034001F22CDE7202C00D187E72200013430
:10557000CCE7013EB5E7621E012CC2D10F9A102A7A
:1055800000D06AE79A063BD558220C9C2270283A34
:105590006270022468E79A060ED4202CCBD07822C1
:1055A0000C9D2A55013486E71A0700D466E72022AD
:1055B0000C9D2A55013461E7202CBCD058250C9A4B
:1055C00012191570013476E79A0608D558220C9CFA
:1055D000227030226270022446E76032F7E77822B8
:1055E000F5E7002A83D1B3E7A21E013C9D0603D450
:1055F00078250C9FBD5460E758250C9FBD545CE78F
:1056000078220C9C2270483A627002242CE7DA0659
:1056100000D433E75A058BD4202F00D044E71F2253
:105620006FE73C001F226CE710B5002800D110BDC9
:1056300002F03CFFFBE7C046F0B557464E464546F4
:10564000DE46E0B599B08246894690460893229A94
:10565000239B1000190001F050FD002800D0CDE080
:10566000229823990122D94B524201F041FD002892
:1056700000D0C3E0229823990122D54B524201F079
:1056800029FD002800D0B9E02298239900220023A8
:1056900001F020FD002800D0F1E1229E239F80230D
:1056A000269ADB001A400D92269A1A4201D106234F
:1056B00024938023269A1B011A403B0093460996A7
:1056C000334300D0B3E0002A00D0C2E1002300241D
:1056D0000A930B94002304250993259B0024AB42D5
:1056E00000D95C1B0223269A1A400C92269A134278
:1056F00003D06B426B415B421C40099B002B07D0DF
:105700000A9A0B9B3000390001F083FC06000F0061
:10571000229823990022002301F0DCFC002803D00A
:10572000802109067B181F00269AAA4B0096019734
:105730001340089E0493249B039402934246330033
:105740004946504600F0AAF90400002D67D02020F9
:10575000269A4946024013005A4253415B42621C5A
:1057600018400A92330022004530D047099A6F1E34
:10577000D317D4185C40D30F9B46002501E0202DA1
:1057800013D008AA94461F23200063440A21013540
:105790005E1901F0F1F93031317020000A2101F079
:1057A000EBF926000400092EE9D80523069300230F
:1057B00004930A3303935B46089E029310AB0A9A44
:1057C000009349463300504605970195FFF704FEC4
:1057D0000C9A0400002A22D04246851A259AAA4231
:1057E0001DD9B046574616002200434649462020A0
:1057F0000135B8470134AE42F6D810E0269B424648
:105800000493259B49460393249B50460293229B75
:10581000239C00930194089B00F040F904002000B1
:1058200019B0F0BCBB46B246A946A046F0BD6A4BD3
:1058300078009C46400D604401F072FC674A684B5A
:1058400001F005FC674A684B01F0DAFB674A3B034D
:105850001B0B1A4304000D0009981100644B002231
:1058600001F0C5FB634A644B01F0F1FB02000B0041
:105870002000290001F0C4FB01F06AFC099001F04E
:105880004FFC5E4A5E4B04000D0001F0E0FB00227D
:105890005C4B01F0B5FB01F05BFC5B4A5B4B290004
:1058A0000C90200001F0D3FB04000C980D0001F0D7
:1058B00037FC574A574B01F0CAFB02000B0020008F
:1058C000290001F094FB04000D0002000B000A9473
:1058D0000B9501F0BCFB04000D000A980B99020027
:1058E0000B0001F08DFB00220E900F914A4B20001F
:1058F000290001F08EFB0022484B01F081FB0200E1
:105900000B002000290001F084FB0022444B01F031
:1059100077FB02000B002000290001F07AFB0A9AB5
:105920000B9B0D0080210400C905002001F05FFBE6
:1059300002000B002000290001F062FB02000B00B6
:105940000E980F9901F065FB0022284B01F058FBDF
:10595000344B0C9C9C4664442305002201F077FBE9
:1059600004000D0002000B00300039000A940B9572
:1059700001F0B0FB00285DD123002A00C62509995B
:1059800063318D42AD4159466D420435002900D145
:10599000A3E6134363D030003900234A234B01F0C0
:1059A0009FFB002807D0002230003900204B01F077
:1059B00091FB002853D1249B002B00D18DE60D9B39
:1059C0005A1E9341249AD31A249386E6FFFFEF7F51
:1059D000FFFFEFFFFFF7FFFF01FCFFFFFB799F5089
:1059E0001344D33FB3C8608B288AC63F0000F03F02
:1059F0000000F83F61436F63A787D23F71A3790925
:105A00004F930A400000E03F1655B5BBB16B024012
:105A1000EF39FAFE422EE63F00002C400000244001
:105A200000001840FF0300002D431CEBE2361A3F34
:105A300080842E41099B0022013B09932000164BD4
:105A4000290001F0E6FA0A00010003000A910B9216
:105A500094E7002300240A930B9400230993249ACB
:105A6000099B9A4214DDD31A013B24938023269A82
:105A7000DB001A4300230025269209932DE680229D
:105A800012069446229B1E00239B63441F0006E6D9
:105A900000232493EAE7C04600002440F0B54546C1
:105AA000DE464E465746E0B595B08B469046994641
:105AB0001E9A1F9B0A9019001000209D01F01DFBEB
:105AC000002800D0B0E11E981F990122C74B524216
:105AD00001F000FB002800D037E11E981F99012239
