:020000041000EA
:1000000000B5324B212058609868022188439860DF
:10001000D860186158612E4B002199600221596106
:100020000121F02299502B49196001219960352056
:1000300000F044F80222904214D00621196600F024
:1000400034F8196E01211966002018661A6600F04E
:100050002CF8196E196E196E052000F02FF8012189
:100060000842F9D1002199601B49196000215960AB
:100070001A491B48016001219960EB211966A021F2
:10008000196600F012F800219960164914480160C1
:100090000121996001BC002800D000471248134993
:1000A000086003C880F30888084703B5996A0420EC
:1000B0000142FBD001200142F8D103BD02B5186610
:1000C0001866FFF7F2FF186E186E02BD00000240BE
:1000D000000000180000070000035F00212200005C
:1000E000F4000018222000A00001001008ED00E03C
:1000F00000000000000000000000000074B24E7A12
:1001000000200420F7010010C3010010C5010010F9
:10011000C1010010C1010010C1010010C101001097
:10012000C1010010C1010010C1010010C701001081
:10013000C1010010C1010010C9010010CB01001065
:10014000CD010010CD010010CD010010CD01001037
:10015000CD010010CD010010CD010010CD01001027
:10016000CD010010CD010010CD010010CD01001017
:10017000CD010010CD010010CD010010CD01001007
:10018000CD010010CD010010CD010010CD010010F7
:10019000CD010010CD010010CD010010CD010010E7
:1001A000CD010010CD010010CD010010CD010010D7
:1001B000CD010010CD010010CD010010CD010010C7
:1001C00000BE00BE00BE00BE00BE00BEEFF3058054
:1001D000103800BEF2EB8871289601104496011089
:1001E0003402001090A31AE700201F49086006C8D7
:1001F00081F3088810471D48006800282FD10DA4FE
:100200000ECC002902D000F012F8F9E71849194A7B
:10021000002000E001C19142FCD1174988471749ED
:1002200088471749884700BEFDE701C901C29A42C5
:10023000FBD3704744960110C0000020F015002049
:1002400074AB0110000004200000042074AB011006
:10025000001004200010042000000000704709482E
:1002600005F096FF0047000008ED00E0000000D018
:10027000F0150020589300209D480010B90D001083
:10028000D14900105756000006005250ABB36053DE
:10029000887D011006005250861C0302987D0110D3
:1002A000060052505422A29DA07D0110050052501C
:1002B000DE65F46874AB0110F8B5C046044B10B5A8
:1002C000002B03D00349044800E000BF10BDC04626
:1002D000000000000C920020E0F50010F0B50700CF
:1002E000083704000E0083B00760002924D00800FE
:1002F0000EF06EFB0500030001900F280BD80128BB
:1003000006D13278227200226360FA5403B0F0BD45
:100310000028F8D008E00022200001A908F01CF90C
:100320000700019B2060A36038002A00310007F01D
:10033000ADFB019B2768E6E7014807F0DBFFC046FD
:10034000E0F50010F0B5DE4657464E464546E0B5AE
:1003500083B0884272D0051DA9426FD004233D4A64
:100360009B460600894617680DE0AA1B042A6CDD2F
:100370005B46981A310028180EF02EF953460435C2
:100380003360A9455AD02B68346818009A4606F0A5
:10039000FFFF314906F0B5FF391C06F09BFF07F05F
:1003A00057F82E4A2E4B06F0B8F906F067FA07F018
:1003B00059F88046200006F0EBFF274906F0A1FF20
:1003C000391C06F087FF07F043F8244A244B06F057
:1003D000A4F906F053FA07F045F8011C404606F070
:1003E000C7FF0028C1D1534601933300AA464646B1
:1003F0002C1F984601E06560043C2568280006F043
:10040000C7FF154906F07DFF391C06F063FF07F0B2
:100410001FF8124A124B06F080F906F02FFA07F087
:1004200021F8011C301C06F0A3FF0028E3D155463B
:10043000019B043546466360A945A4D103B0F0BCD6
:10044000BB46B246A946A046F0BD042A96D12C6010
:1004500094E7C046608E0020000020420B95C0A6A5
:1004600046DF913FF0B54E46DE4657464546E0B57D
:1004700085B0060003921000013A9946D30F9B18ED
:100480005B109B46012300911840594500DBA6E014
:100490005E4B88461B6801909A464B460293434642
:1004A0005C1C6500E400341923681800994606F0C6
:1004B0006FFF574906F025FF514606F00BFF06F087
:1004C000C7FF544A544B06F028F906F0D7F906F056
:1004D000C9FF524B071CEB189B00985906F058FFB8
:1004E0004B4906F00EFF514606F0F4FE06F0B0FF51
:1004F000484A494B06F011F906F0C0F906F0B2FF80
:10050000011C381C06F034FF00280AD04346013D88
:10051000AC00341922689B009A515D4507DAA84661
:10052000BDE743464A469B009A515D45F7DB019B78
:100530009846029B99464346002B55D06B1EDF0F11
:10054000FF18009B7F109D4240DD304B48461B68E2
:10055000B0469B4606F01CFF2D4906F0D2FE5946D8
:1005600006F0B8FE06F074FF2A4A2B4B06F0D5F8C9
:1005700006F084F906F076FF824609E07A1ED30F72
:100580009B18009A2E605B103D00BA421EDA1F00D5
:10059000BC0044442668AD00300006F0F9FE1C495A
:1005A00006F0AFFE594606F095FE06F051FF194AD7
:1005B000194B06F0B2F806F061F906F053FF514608
:1005C000454406F0D5FE0028D8D12C004B462360C8
:1005D00005B0F0BCBB46B246A946A046F0BD8C00B3
:1005E00034190028F2D10D00039A023AD30F9B1858
:1005F0005B10AB42A2D1094B01356D00EB189B009B
:100600009B59013D2360AC00341997E7608E0020B0
:10061000000020420B95C0A646DF913FFFFFFF3F41
:10062000F0B5574682464E46DE464546894610009E
:100630000A005146E0B5541A8BB0402C00DC20E192
:10064000002800D13EE152469F49043206920A68D2
:10065000232193466A464F46814652181370012360
:100660005B429C4653465868E144099006F090FE70
:10067000964906F046FE594606F02CFE06F0E8FEC6
:10068000934A944B06F049F806F0F8F806F0EAFEB3
:10069000E410A4005444256880462800059506F01F
:1006A00077FE8A4906F02DFE594606F013FE06F045
:1006B000CFFE874A874B06F030F806F0DFF806F0E9
:1006C000D1FE52463D1F2B681268061C1800079386
:1006D000049206F05DFE7D4906F013FE594606F0D1
:1006E000F9FD06F0B5FE7A4A7A4B06F016F806F0E8
:1006F000C5F806F0B7FE311C0390404606F038FE00
:100700000399002800D18DE0301C06F031FE00284E
:1007100000D1BDE05346059D049A1D602260186813
:1007200006F036FE694906F0ECFD594606F0D2FDAA
:1007300006F08EFE664A674B05F0EFFF06F09EF866
:1007400006F090FE80463C004646069DB8465F4651
:1007500000E004352B681800039306F019FE5B498E
:1007600006F0CFFD391C06F0B5FD06F071FE584AC3
:10077000584B05F0D2FF06F081F806F073FE311CED
:1007800006F0F6FD0028E4D1AB46043C00E0043C52
:100790002568280006F0FCFD4C4906F0B2FD391C26
:1007A00006F098FD06F054FE494A4A4B05F0B5FFA5
:1007B00006F064F806F056FE311C06F0DFFD002856
:1007C000E5D12B005D46A54218D208C5039B2360E6
:1007D0005346186806F0DCFD3C4906F092FD391CD2
:1007E00006F078FD06F034FE394A3A4B05F095FFE5
:1007F00006F044F806F036FE061CABE723226B46F3
:10080000BB4647469B181B784A4639002800FFF72D
:1008100007FF5346EC1A402C33DD4B46002B0CD01F
:100820002F001CE7404606F0A3FD00283DD05346AC
:10083000099A1A60049A5A6085E7A846A410A51E72
:100840006E4657466D1000E0013D0022AB00FB589C
:100850002900327038002200FFF704FE002DF3D18A
:100860006D4644463E0000213268043CA71B2368C5
:10087000300022602970BA100021FFF7F3FD042F29
:10088000F1DC0BB0F0BCBB46B246A946A046F0BDB9
:100890004046039906F06CFD0028C8D05346079ADD
:1008A0001A60049B2B60534639E70399301C06F00D
:1008B0005FFD0028F2D15346059A1A60049B23601D
:1008C00053462CE7C846B9E7608E0020000020425E
:1008D0000B95C0A646DF913F002330B591B005933C
:1008E0000493039302330293263306AC094D01931C
:1008F0001E3B20000A210A22009300F027FC200062
:100900002B0032C832C316C816C316C816C311B09E
:1009100030BDC0469091002030B5162089B001F05E
:1009200061FD00281DD0234B0822196800293DD104
:10093000214C224920681A6006F0CCFC6423206018
:100940000793463B0693E1231D4CDB0005932300F0
:100950006A46103323CB23C203CB03C20FCC00F073
:1009600007FC152001F03EFD00281DD0114B1A6830
:10097000082A1DD00132104C104920681A6006F078
:10098000A6FC642320600793463B0693E1230C4CAE
:10099000DB00059323006A46103323CB23C203CB2D
:1009A00003C20FCC00F0E4FB09B030BD4A1EBFE724
:1009B0000022E0E734920020409200200000204214
:1009C00090910020F0B5DE4645464E465746E0B5CC
:1009D00099B000F08FFD0F2301220121012000F0CA
:1009E00081FD00F087FE0F230A220A210A2000F071
:1009F00079FD13230FAD00220EA9280011AE0E932E
:100A00000F9607F0A9FD0E9C1322AD490F90AC6024
:100A100007F03CF800220F9B6C601A550123280058
:100A200008215B420A3201F0CBFB0F98B04203D0A1
:100A3000A968013107F03CF8A24EA34B346818684E
:100A4000211C0B9606F043FCA04906F046FC211C35
:100A500006F040FC2A009E4B3060041C43CB43C28E
:100A600043CB43C243CB43C200230622280018A92C
:100A7000FFF7D6FD0022280018A9FFF763FC954B6D
:100A8000AB469A46944BD1460993944B0693944BAC
:100A90000A93A0E0002300250793201C06F0D8FC51
:100AA000904A914B05F039FE05F0E8FE041C06F073
:100AB000EBFC061C201C06F0D5FC8C49041C06F03F
:100AC00020FC06F087FCFE21070008908905201C09
:100AD00006F000FC8221C905824606F012FC822144
:100AE000C90506F0F7FB06F075FC0400099800F054
:100AF0002DFD00220F230021002000F0F3FC7C4993
:100B0000301C06F0FEFB06F065FC030038003C33A9
:100B10003230059305F06AFE060020000F0005F054
:100B200065FE744A744B05F0DAFD02000B003000DC
:100B3000390005F0CBFD651905F070FEE90F059B46
:100B400049194910591A4346DE000200F31A069863
:100B50009B00C0580323EF173B405B199B10029387
:100B600001230195009300F0ABFF0A9800F0EEFC22
:100B70006249504606F0C5FB8121C90506F0AAFB73
:100B800006F028FC0F2800DD0F20C0B200F0B8FCF2
:100B9000079BE10F9C46089A09194910059B494299
:100BA0003732521862449C464346F61A069BB600FA
:100BB00098590123614400930294019400F080FF4E
:100BC0000F2000F09DFC04239C4618ABE3445B45DA
:100BD00036D00B9B1C685B461B681800984606F0D5
:100BE000D2FB474906F08DFB211C06F073FB4B46F8
:100BF0001B68041C434500D04CE701F005FC06F0DF
:100C0000C2FBFC21890506F07CFB211C06F062FB7F
:100C100006F01EFC334A344B05F07FFD05F02EFE36
:100C200006F032FC294906F06CFB284906F04FFB20
:100C300006F0D0FB8446C50F654407906D102CE785
:100C40004B461B68069CD800A446C01A01238000AE
:100C5000043060440EAA0DA95B4201F0FDF80F2399
:100C60000C220C210C2000F03DFC0D9B6521D80FBF
:100C7000C018401040429A1D39300D2300F0E6FCA8
:100C80000F2300220021002000F02CFC0D9BD90F27
:100C9000C9184B461A684910D3009B1A9B000433AD
:100CA000E0180123494268223C315B4201F088FA96
:100CB00019B0F0BCBB46B246A946A046F0BDC0463E
:100CC00014F60010608E00204092002000002041A9
:100CD00070F60010349200206D1000105492002025
:100CE0005D0F00100B95C0A646DF913F0000A041AC
:100CF00000003442333333333333F33F0000C0401A
:100D00000000204210B5224C1A232000214908C0BF
:100D1000FFF7E4FA200043231F492030E361FFF787
:100D2000DDFA200036231D493C30A363FFF7D6FAD5
:100D3000200015231A4958306365FFF7CFFA2000C9
:100D40001423184974302367FFF7C8FA20008C2356
:100D50001B2215499030E250FFF7C0FA2000A8236B
:100D600016221249AC30E250FFF7B8FA2000C42333
:100D70001E220F49C830E250FFF7B0FA2000E023EE
:100D80001F220C49E430E250FFF7A8FA10BDC0461C
:100D90005492002028F6001030F6001038F60010AB
:100DA00044F600104CF6001054F600105CF60010EB
:100DB00060F6001068F60010F0B5DE464E46454677
:100DC0005746E0B583B001F09DFC802601F082FC1F
:100DD000002301244B4D760008C5200006F0D3FA0D
:100DE000EE21890506F08DFA474906F08AFA06F0E9
:100DF0004BFB013401C5B442EFD1002001F0E2FB0E
:100E000001F02CFB01F024FB0028FBD101F010FBCA
:100E100001F00EFB4B2001F0D5FBFFF75DFD01F06B
:100E200055FC3A4B00279B46186000239A46384BE6
:100E3000384D994601F0F8FA060000F047FB00F043
:100E400059FB00F063FB00F079FB00F085FB00F03C
:100E50009FFB00F0B7FB5B464A461B68136001F03E
:100E600035FC5B46186001F0DFFA7B1C040038009B
:100E70009846FFF751FD01F0D7FA001BE86001F03A
:100E8000D3FA009001F0E4FA0028FBD101F0CCFA8B
:100E90005346C01A686101F0C7FA040001F0C4FAB1
:100EA00082464046FFF78EFD01F0BEFA5346C01A57
:100EB000286101F0B9FA019001F0BAFA01F0B4FA30
:100EC000804601F0B1FA824601F0C8FA01F0ACFAAE
:100ED000861B31001048AE6005F0B4F901300023E4
:100EE0000237286028280AD9009B4444E01A019B55
:100EF0003100C01A6423584305F0A4F903006B6065
:100F000098E7C046308A0020DB0FC940CC8900201A
:100F1000E0890020EC8900203F420F0010B57821C5
:100F2000084A782001F076F9074B80211860074BBA
:100F3000074A1860802001F06DF9064B1860064BD7
:100F4000186010BD4C190020048A002048190020A8
:100F5000ACF7001034190020D4890020F0B54E46BB
:100F600045465746DE4690460A1452008446105ABB
:100F7000394AE0B50503154005433848384C05406B
:100F800022782C03240F54430F3424112707FF0F1A
:100F9000099EE4199146E4B2771E002E1ED0424607
:100FA000002A21D1844665432E4A654494462E4A40
:100FB000102191460C1B1E88274A310311406246BE
:100FC00031430140614349190E0C16404A46090954
:100FD0001140314319800233013FECD2F0BCBB46D3
:100FE000B246A946A046F0BD012292461A88414465
:100FF00093461603184A16405A4616430640B3460F
:101000001022161B5A465643144A6C4393465E44BC
:101010003419154A25091540124A240C1440624619
:101020002C431C800C146400A45A0B4A2503154061
:10103000FF22254305402E0C16404A465643524691
:101040000F363611F6B2F40814403419E4B2023304
:10105000013FCBD2C2E7C04600000F0F0F0F0F0FAA
:10106000C40F0020F0F000000F0F0000F0B54E4656
:1010700057464546DE46E0B50D002E4984460888B1
:1010800083B0914601060C9A090F8A46561E002A23
:1010900048D0294A1C001278284B294F98460192C3
:1010A000009600E0009362462B145B009B5A0F22CF
:1010B0001B09134052465343F0220F331B111B01EF
:1010C000904318434346012680B20103194001436F
:1010D00039400B0C0F321340019A4D4453430F33E8
:1010E0001B11DBB2DA0832409B1822884646934631
:1010F000120332405E4632431026DBB25943F61AE1
:101100000F4B3A409B467243594452180D491309FC
:101110000B400D49120C0A4013432380009B0234FC
:10112000013BBFD203B0F0BCBB46B246A946A046C5
:10113000F0BDC04650930020C40F002000000F0FE8
:101140000F0F0F0F0F0F0000F0F0000010B503613C
:10115000029B039C4361059B04608361069B049C86
:10116000C361079B44608160C260036210BDC046DA
:1011700084B030B5059206930E4A0C9B049113601F
:101180000D4A0E4913600D9A0D4B03901A600E9A8A
:101190000C4B1A600B0003AA31CA31C313CA13C324
:1011A00013CA13C30022084B1A6030BC08BC04B039
:1011B0001847C046301900203C190020088A00203A
:1011C0002C8A0020C80F0020D0890020F0B5574697
:1011D0004E46DE464546E0B54E4E0400736900209B
:1011E0009B464D4B83B01F68B369BA46DA449846B4
:1011F000D146C144A1451CD9316A002920D1474BB1
:10120000B5681B6800933B00AF4200D92B009C429D
:101210001BD22900200205F015F8009B43431D0A4C
:10122000F369002B36D14346002B01D0444546D804
:10123000E8B203B0F0BCBB46B246A946A046F0BD3A
:10124000200004F0FFFF641AD9E7F36801935B19EB
:10125000BB4230D89C4205D3A74245D930696421AE
:101260000002D8E7306964218027000204F0EAFF19
:101270007F003B1A9A46601B0199000204F0E2FFCE
:1012800053465843009B000A3F1A7B431D0AF369EB
:10129000002BC8D00CF046FBF769390004F0D2FFF0
:1012A0007F08B369C91B984669181BD46425642953
:1012B000B9DC0D00B7E73B009C42CDD2D2E7E01A83
:1012C000FFF784FF060028004946604304F0BAFF98
:1012D0004B460500181B4946704304F0B3FF401904
:1012E000C0B2A6E700259EE70025A24598D9E01BDD
:1012F0005946000204F0A6FF0135FF352D1A30696A
:101300006421000204F09EFF6843009A030A5A43D6
:10131000150A85E7088A00202C8A0020C80F0020C3
:10132000F0B557464E464546DE46E0B5614C624F45
:1013300026683D6885B0002E3FD1604B99466269B2
:101340006B1C3B60A7699346BA465D4B00211E6843
:101350000192B344DA44AA451FD9216A002927D152
:10136000584B1B680293A36898463300464500D942
:101370004346AB4230D94146280204F063FF029B4A
:1013800043431B0A9846E369002B4CD1002F01D040
:10139000BD425ED8FF21434619404B46186801F014
:1013A00035F905B0F0BCBB46B246A946A046F0BD33
:1013B000280004F047FF6D1AD2E7404B6168994658
:1013C0000029BCD0280004F03DFF4A4646433E4B6E
:1013D0001B68F3181360B2E7E36803934344B34216
:1013E00033D89D4205D3AE424AD920696421000218
:1013F000C3E7206964218026000204F023FF760001
:10140000331A9B464346E81A0399000204F01AFF78
:101410005B465843029B000A361A73431B0A9846E0
:10142000E369002BB2D00CF07DFAE669310004F0DC
:1014300009FF43467608891BA769C9181DD4642390
:1014400098466429A2DC8846A0E733009D42CAD2B0
:10145000CFE7E81BFFF7BAFE040040465146684359
:1014600004F0F0FE53460600581B5146604304F05A
:10147000E9FEFF21801901408FE70023984685E7A8
:1014800000239846AB4500D87DE7A81B019980262C
:10149000000204F0D7FE7600361A206964210002AB
:1014A00004F0D0FE7043029A030A5A43130A984686
:1014B00069E7C046088A0020D08900203019002042
:1014C0002C8A0020C80F00203C1900200F2310B5E3
:1014D0000F220F210F2000F08DFE014B188010BD50
:1014E0005093002010B500F085FE014B188010BD10
:1014F000509300200F22014B1A707047C40F002038
:10150000014B18707047C046C40F00200022064BE4
:101510001A60064B1A60064B1A68064B116852682F
:101520001960054B1A6070474019002044190020CB
:1015300048190020B00F0020AC0F0020014B024AD8
:101540001A607047B40F00205D0F0010014B186047
:101550007047C046B40F00200021074B1A68074BA4
:101560001A60074B1960074B19601168064B5268E7
:101570001960064B1A607047048A00204819002041
:101580004019002044190020B00F0020AC0F0020AB
:101590000022024B1A60024B1A607047E489002057
:1015A000E8890020054A036812689B1A044A036010
:1015B0000B6812689B1A0B607047C046E4890020D4
:1015C000E88900200022024B1A60024B1A60704723
:1015D000D8890020DC89002010B584B003900291E6
:1015E00003A802A9FFF7DEFF114C124B2468124A30
:1015F0001B6812680194114C0299246803980094A6
:1016000000F084FE002811D00D4B02991B680D4894
:101610001A689B684A4303995218012152009B188B
:10162000094A0091146800210022A04704B010BDAF
:10163000AC0F00204419002040190020B00F0020FA
:101640004819002050930020B40F0020F0B5C64682
:1016500000B588B00790069107A806A905920493E3
:10166000FFF7A0FF1C4B05AA1B6806A903931B4BA1
:1016700007A81B6802931A4B1B680193194B1B6840
:10168000009304AB00F00CFE174D06992A6813680E
:1016900094684B4307995B185B00E418049B5A1E3F
:1016A0000492002B13D0114B114E9846059B00223B
:1016B00000930021230040463768B8472B681A681A
:1016C000049B5200A4185A1E0492002BEED108B0BD
:1016D00080BCB846F0BDC046AC0F0020B00F002063
:1016E0004419002040190020481900205093002080
:1016F000B40F002010B5054B054A064906481B6883
:10170000126809680068FFF7A1FF10BDAC0F002048
:10171000B00F00204419002040190020F0B5DE462B
:1017200057464E464546E0B51E0087B083468A467A
:1017300011A812A91400FFF735FF5F4D5F4F2B680A
:10174000320003933B68129902935D4B11989846BF
:101750001B6801935B4B99461B680093109B00F03C
:1017600083FD002800D180E0B4465346119AD4444A
:10177000002B00DA8BE01099129B09190491002CC0
:1017800000DA79E0584601680591614502DC60465F
:10179000401A361A584604994068884203DC091AF0
:1017A0001098411A1091494609688C46914204DD0F
:1017B0008A1A9244B6180A00119141460968994262
:1017C00008DD1098CB1A80469844E41843461093DD
:1017D0000B0012913F68B0186744B84201DBC71B89
:1017E000F61B10982D68C71849198F4202DB7F1A23
:1017F000C11B1091002E38DD1099002935DD0599A7
:101800004C4359468F683049544408686400016865
:1018100085684B439B185B00ED18139B3F19DB0752
:1018200042D480235B02059300230493109B5C1E2B
:10183000139B9B0704D523004B435B00ED184942E3
:101840004B009946214BB0469A4643460093534677
:1018500038001E68059A2B000499B0475B461B6848
:101860004D445B00FF18013CEFD207B0F0BCBB4613
:10187000B246A946A046F0BD5846109101681B1B10
:10188000129300240591614500DD83E77FE7D21ABA
:10189000002310999A4609196646129B11920491E9
:1018A000002C00DB6EE7E7E75346F31A013B1B040D
:1018B0000493074B0593B9E7AC0F0020B00F00204D
:1018C000441900204019002048190020B40F0020BE
:1018D0000000FFFFF0B5DE4657464E464546E0B5F0
:1018E0008BB00791824616A915A891461D00FFF7F7
:1018F00059FE5E4E5E4F33685E4C03933B6816990B
:1019000002932368159801935B4B179A9B461B68BB
:101910000093189B00F0A8FC002800D188E0149BDD
:101920001899180404F066FC17990690280404F02E
:1019300061FC524B169D1A680590136892689C468C
:1019400090466B43159807991B185B0098445346C3
:101950001A684B4689465146534389684B44894629
:1019600021685B00002499448D4211DA63464D1BC7
:10197000069C6B436C435B00984423145A43189BAA
:1019800052005B1B0D0024049144240C1893169103
:101990003368189AC9185619B1425EDC5B461E6856
:1019A00000239B46B04209DA059A331A5A439346FC
:1019B0005A009044179A1596D31A17933B68179AB2
:1019C000934245DC199AD60705D5059A5E1E564303
:1019D0005242B3440592199A960730D4A94227DDA2
:1019E0006246274F520007925A464646BB462F0092
:1019F0004D469946089209914B4600935B461B68F9
:101A000028009846059A33000899C047069B01377D
:101A10009C46079B64449C4653461B6822145343D0
:101A20005B00ED18099B24046644240CBB42E3D1FF
:101A30000BB0F0BCBB46B246A946A046F0BD62461C
:101A40004E1B013E5643524276009446B044C5E7D1
:101A50001300199AD607BED5B7E75B4631001E685A
:101A600000239B46B042A9DA9EE7C046AC0F002097
:101A7000B00F002044190020401900204819002010
:101A8000B40F00200D4B70B51E6807231500326897
:101A90000C00D1170B409B1884B0D91004F0D2FB76
:101AA000002303930833C200C9003000029501945B
:101AB0000093FFF733FE04B070BDC046D489002008
:101AC000F0B5C64607241D00114B00B51B68170072
:101AD00098461B6886B0DA171440E4180E00E1102F
:101AE00004F0B0FBC200002005900E98EB000490BB
:101AF0000D98C90003900C980297C00000900196C1
:101B00004046FFF7E7FE06B080BCB846F0BDC046D1
:101B1000D4890020F0B54E46DE4657464546E0B52E
:101B200003782F4A203BD900C9182E4B85B001906D
:101B3000039210681A68465C4418511C4DD0921BE1
:101B4000D205120E9046284A02939246274A106800
:101B50009346524611684246641A01340F00A1466A
:101B600012184B461500DC5D002E0AD063B2002B24
:101B700024DB640001359319E4B2AB42F6DC534632
:101B800019680137CB1DBB42EBDA029B019A1B6837
:101B90001278591C05D1039B203A1968D3009B1871
:101BA0005B5C134A12688018C0185B46186005B069
:101BB000F0BCBB46B246A946A046F0BD280039009D
:101BC000FFF70AFD5B46186843461A1864000135A2
:101BD0009319E4B29D42C9DBD1E700229046B2E7F7
:101BE000A80F0020B80F0020DC890020D889002031
:101BF000BC0F002030B50B6802681C0001330B607D
:101C0000D05C702809D110198578652D05D1C07870
:101C10006E2802D1073423000C60D05C73280AD1EF
:101C2000D2185078702806D19278722A03D10533E1
:101C30000B60683830BD0020FCE7C046F0B5CE46EA
:101C4000474680B50D6803686A1C0A600C00995C01
:101C5000060089B070295BD159198878652857D159
:101C6000C8786E2854D16F1D27600A79100030386B
:101C7000C0B209280AD911004139052900D89FE0CE
:101C8000110061390020052900D8B2E0AA1D2260A8
:101C90009446DA5D11003039C9B209290AD9110018
:101CA0004139052900D8A7E01700613F0021052F21
:101CB00000D89BE0EA1D2260904662469F5C3A0095
:101CC000303AD2B2092A0DD93A00413A052A00D851
:101CD00095E061256D42AC46BC4465460022052D69
:101CE00000D87DE045465D5D2B00303BDBB2092B23
:101CF0000AD92B00413B052B00D88BE02F00613F18
:101D00000023052F00D86EE0FFF7ECFB2268336854
:101D1000995C73294FD19918487870284BD18978EC
:101D2000722948D1033222607568AA4200D983E043
:101D300004AFAD1A2E0002979918032D43D8012D38
:101D400044D002AB9846002D45D1434600255E6045
:101D5000BE193570029E0CF085FD036899460CF0A3
:101D600081FD0A22056001A930000CF055F8019BA5
:101D700005009E425DD00CF075FD0368222B55D006
:101D80000CF070FD0368002B4BD00298B84204D0D1
:101D900043469968013105F08BFEFF2023682840F7
:101DA00002332360274C284B21681A68FFF76AFE2C
:101DB00023680833236009B0C0BCB946B046F0BD03
:101DC000373AD0B262E70326012DBAD10B7802AAC6
:101DD00090461372B9E73200380005F057FEB4E7B9
:101DE000573FFAB27EE7573DEBB28DE7573AD1B293
:101DF00060E7573AD0B249E7373AD1B25AE7454699
:101E00005D5D373F2B00303BDBB2FAB2092B00D9C6
:101E10006FE779E7373DEBB2FFF764FB2268336881
:101E200076E70CF01FFD4B460360AEE7074806F06F
:101E3000A9FA064806F076FA2B000549054806F08F
:101E4000B9FAC046D8890020DC890020E4F60010E9
:101E500094F60010ACF60010F0B5DE464546574645
:101E60004E46E0B58FB0099300238B460B60416866
:101E70001500049013600C93002900D1D4E00022D7
:101E800003926C4A036805926B4A994608926B4A22
:101E9000002606926A4A00230024079201910A95BF
:101EA00013E0092D00D178E00A2D00D073E0039AE9
:101EB000059B94461B6800269C44634603930023BD
:101EC000019A01340C94944212D24A46155D202D99
:101ED0005DD0E6D95C2D19D104980CA9FFF78AFED4
:101EE0000C9C019A0134002336180C949442ECD3D4
:101EF0000A9D039A059B94461B6863442B600FB0B0
:101F0000F0BCBB46B246A946A046F0BD069A126890
:101F10000292079A12689046002B0ED0029BB044A2
:101F200001332DD0029E5B461B684644B34200DA63
:101F300033005A4613600123C2E702990D944B1CEB
:101F400042D041442A00230000278A465C2A2DD033
:101F50004A4601330D93D25C5744202AF6D8099B98
:101F600001335FD0099BBF199F42D7D9039A059BC4
:101F700094461B689C4463460393029B0133D1D172
:101F80002D48203D0268EB005B199E5CCBE7089B67
:101F90001B681B78F618002392E7274803681A7815
:101FA00093009B185B00F618002389E704980DA99D
:101FB000FFF720FE4A460D9B3F18D25C202AC5D869
:101FC000099B0133CED12DE01B492B0022000027B5
:101FD0008A460B945C2B14D0203BDC005046A44670
:101FE000016863445B5C4744DF194B4601329B5CEC
:101FF0000D92202BEED8099B0B9C0133B2D1B0443B
:10200000BFE704980DA9FFF7F5FD4B460D9A3F1861
:102010009B5C202BDED8099B0B9C0133A2D1064888
:10202000B044AEE7B0447DE700230393014B059332
:102030005FE7C046C00F0020A80F0020B80F0020A7
:10204000BC0F0020F0B557464E46DE464546E0B58B
:10205000554F8BB03B6842689C468C440093634666
:102060000593002306000893002A00D197E0002082
:1020700000244E4B04919A464D4B01934D4B0293D5
:10208000336806A99B461B5DCB71202B3ED021D81F
:10209000092B31D00A2B08D1009B01993B60534694
:1020A00009681B685B1851460B60002001340894D6
:1020B0009442E5D35346019A1B6812689B18524616
:1020C0001360009B3B600BB0F0BCBB46B246A94618
:1020D000A046F0BD5C2B06D1300008A9FFF7AEFD8D
:1020E000089C7268E1E7002817D006ABD81DFFF7FF
:1020F00011FD01207268D9E7029B1B6819788B00DB
:102100005B1839685B005B183B60CEE7029B39685F
:102110001B681B785B183B60C7E72749220089468C
:102120002649099488462349002503914146B04633
:102130004E46A1465C46BB460F0010E03168481C85
:1021400005D10399203B0868D900CB18195C3B687E
:102150000132ED18A35C6D180992202B0AD95C2B73
:10216000ECD1404609A9FFF745FD099A2D18A35C5B
:10217000202BF4D8049B4C4646465F460133B4D02E
:102180003B68ED18059B9D42AFDD009B019A3B60CB
:10219000534612681B689B1852461360A5E7034B11
:1021A0009A46034B019385E7D8890020DC890020FB
:1021B000C00F0020A80F0020B80F0020BC0F002087
:1021C00030B51D00040083B0019101A8694600925A
:1021D000FFF7E8F9019A054B29001A60044B009AB1
:1021E00020001A60FFF72EFF03B030BDD889002011
:1021F000DC89002010B5F0242401120222400F24B3
:1022000009030A43044014431A01FF2313401C43EB
:10221000A0B210BDF8B5070010200D00160005F0A3
:102220003BFC04001022002105F02AFC27606560B9
:10223000002E02D0A6602000F8BD7D43094B680047
:102240009D420CD805F02CFC0600012D03D4002182
:102250006A0005F015FC0123A6602373EBE701205B
:102260004042EFE7FCFFFF3F30B504000598039DB7
:10227000844665440020A54211DBA218039CA242BB
:102280000DDB069C049AA44662448A4207DB049A4A
:10229000CB180499D817D20F8B425041C0B230BD31
:1022A000F0B5C646146800B5A046089C069EA44634
:1022B00044460768B4443C19079D644500DD644604
:1022C000B74200DA3700E41BE743FF173C401460D5
:1022D0000C681A68099FA2187F19BA4200DD3A00FB
:1022E000AC4200DA2C00121BD443E41722401A60DF
:1022F0000368B34200DA330003600B68AB4200DAD4
:102300002B000B6080BCB846F0BDC04630B5040061
:10231000002094420EDB99420CDB039DAC466244E4
:10232000A24207DD049A0120944663448B4200DCFC
:102330000020C0B230BDC04610B5FEF7F1FF01204D
:1023400010BDC046224BA0201A68012393402149AA
:10235000C00510B5445823420DD043501E490B8888
:1023600001331BB20B80782B06DD012300225B4278
:102370000B801A4B1A7010BD194B1B6898680B889C
:102380001BB2002B06DD0B881BB2013B1C01E31ABC
:102390001B01C0180C883C23002C07D1A021C905C3
:1023A0008C46920162441060D361E4E70B8892018D
:1023B0001BB2783B59424B413B215B428B43A021EE
:1023C000C9058C46783362441060D361D3E7C046B8
:1023D000381900200C040000D00F00205293002078
:1023E000048A002001238340054A002012681A4213
:1023F00005D1044A10681840431E9841C0B2704786
:10240000CC890020E089002010B501F0F1FC002902
:1024100005D0FA220023920003F052FF10BDFA21EA
:10242000890003F00FFFF9E710B501F0E1FC10BDE2
:10243000D021012209064B681B0A1A42FBD1D02188
:10244000012209064B681B0A1A42FBD07047C0469E
:10245000014B18787047C04652930020174A1378F2
:10246000002B00D0704701211170154A1380154BC5
:102470001B68996813881BB2002B06DD13881BB2FA
:10248000013B1801C31A1B01C91810883C230028FE
:1024900009D1A020C00584460B4A1268920162440B
:1024A0001160D361DEE713881BB2783B5A42534177
:1024B0003B225B4293437833EBE7C04652930020C4
:1024C000D00F0020048A002038190020F0B5CE4635
:1024D000474680B5334B87B004000D001868324979
:1024E000984605F0A5FC80235B020293C0231B03E2
:1024F0000493030080271233C2011B0313432B4AAA
:10250000FF0513403B43039301230600994629002E
:102510002000009307220133059705F0A9FD244B05
:10252000244A0293049B290013400493059A224BEA
:1025300020001A40214B134305930022C02305F0CD
:10254000EFFCC02229002000C02305F03DFD049BC4
:1025500007209B009B081F4343461968184B0497AC
:102560009C4661444B1E9941063100F0EDFC434608
:102570001968134B06209C4661444B1E9941063155
:1025800000F0E2FC320002AB2900200005F0C4FD9F
:102590004B46AB4022681343236007B0C0BCB9462A
:1025A000B046F0BDD40F002068F70010FFFFFF9F7A
:1025B00000010200FFFFF5C1E0830FFC07181000C7
:1025C0000000E0AF10B504F0DEFE0B4904F085FE1C
:1025D0000A4905F077F80A4B0A491C6804F091FE95
:1025E000FC21890504F076FE04F026FF6040064BCE
:1025F0000004000C186010BD0000C84233333340A3
:102600008400054000FF7F4784100540F0B5C646B2
:10261000264B00B51E68040030000F0004F0B3FE26
:10262000011C234804F059FE051C200004F0ABFEF9
:10263000011C281C04F051FE804604F0FDFEC5B2CA
:10264000280004F0A5FE011C404604F040FE832152
:10265000C90504F056FE04F0EFFE2D01154A3304BF
:10266000C0B21B0C054395663800536704F08BFE1F
:10267000114904F032FE114905F024F8071C20002E
:102680000F4B70430F491D6803F0DCFD04F07BFE27
:10269000391C04F036FE04F0CFFE000468400A4BFB
:1026A000000C0004186080BCB846F0BDCC0F0020C0
:1026B000286B6E4D000005400000C8426666E63F8C
:1026C000700005401027000070100540D0231B0645
:1026D0005868704700B585B001F076F8064B074A98
:1026E000029300230193064B009301235B4201F008
:1026F00061F905B000BDC046F015002018FCFFFFD1
:1027000039230010F0B5DE4657464E4645460022B6
:1027100088218024E0B51A4B1A4885B058509A6732
:102720001A5104341A5110325850DA670F3A84396A
:102730009A670C2000F008FC134B144A1B680D200C
:102740001B041B0C136002F07FF80A2001F09AFAB8
:102750000F4803AB02AA01A900F0E2FA002803D156
:102760000C480B4902F038F9039A0299019800F0DD
:102770009BFAD0231B0600240126172798460EE05B
:1027800000000540FFFF0000840005408410054064
:1027900090D00300ECF600100134202C13D035004B
:1027A000A5402F42F8D00521280000F0CDFB3300D2
:1027B0004246AB400121936228000022013400F020
:1027C000DBFB202CEBD1D026002404253606012C7F
:1027D00006D10521022000F0B7FB01347562B56116
:1027E0000134E4B2202CF2D105F058FD1F211A204B
:1027F00000F0AAFB002200211A2000F0BDFB0021FE
:102800001A2000F0CBFB9C239846FE4BFE4D9B46C6
:1028100043465A468C27EA50982000239422EB51D5
:102820008146AB505E462B5040462E5090268C3849
:10283000933A8246A8510421EA51023800F084FB01
:102840008823584600218022E850A967A950043205
:10285000A950E8505046833AE8670431AA67033824
:1028600000F072FB40465B4694212B500023EB5155
:102870006B50494658466B504146012268505146BC
:102880000F20A951EA510C3900F05EFBDF49E04806
:1028900005F08EFCD0270521042000F055FB5146A1
:1028A0003F0679626420B96101F0ECF95146713656
:1028B000FF36796109200B3900F046FB7E62052165
:1028C000052000F041FB7C620121062000F03CFB6A
:1028D0000121072000F038FB012269467C61CC48C9
:1028E0000A73BC6103A9BE610CF02AFE7C6105205D
:1028F00001F0C8F93623694601220B73C448BC6154
:1029000003A9BE610CF01CFE7E610122C149C048D2
:102910000CF016FE352369467C6101220B73BC481E
:10292000BC6103A9BE610CF00BFEBB4B7E611900BC
:102930000122B74898460CF003FEB22369467C6139
:1029400001220B73B248BC6103A9BE610CF0F8FD13
:1029500041467E6105220431AD480CF0F1FD3A2379
:1029600069467C6101220B73A948BC6103A9BE6161
:102970000CF0E6FD7E610122A849A5480CF0E0FDBF
:10298000262369467C6101220B73A148BC6103A91F
:10299000BE610CF0D5FDA24B7E61190001229C485E
:1029A00099460CF0CDFDB72369467C6101220B737B
:1029B0009748BC6103A9BE610CF0C2FD7E61012293
:1029C000984993480CF0BCFDBB2369467C61012209
:1029D0000B738F48BC6103A9BE610CF0B1FD7E6131
:1029E000012291498A480CF0ABFDC02369467C6105
:1029F00001220B738648BC6103A9BE610CF0A0FDE7
:102A00007E610122894982480CF09AFDC223694601
:102A10007C6101220B737E48BC6103A9BE610CF08E
:102A20008FFD49467E61012279480CF089FDC32360
:102A300069467C6101220B737548BC6103A9BE61C4
:102A40000CF07EFD7E610122794971480CF078FD21
:102A5000C42369467C6101220B736D48BC6103A9E4
:102A6000BE610CF06DFD7E610122724968480CF078
:102A700067FDD02369467C6101220B736448BC6109
:102A800003A9BE610CF05CFD7E6102226A496048C8
:102A90000CF056FDC62369467C6101220B735C482D
:102AA000BC6103A9BE610CF04BFD7E61012263494C
:102AB00057480CF045FDE02369467C6101220B7309
:102AC0005348BC6103A9BE610CF03AFD7E610E2241
:102AD0005B494F480CF034FDE12369467C610122DB
:102AE0000B734B48BC6103A9BE610CF029FD7E61EC
:102AF0000E22544946480CF023FD212369467C618F
:102B000001220B734248BC6103A9BE610CF018FDA1
:102B10007C61732001F0B6F81123694601220B7322
:102B20003B48BC6103A9BE610CF00AFD292369463C
:102B30007C6101220B733648BC6103A9BE610CF0B5
:102B4000FFFC2A2369467C6101220B733048BC617B
:102B500003A9BE610CF0F4FC0C217E614144042207
:102B60002B4889460CF0ECFC2B2369467C61012242
:102B70000B732748BC6103A9BE610CF0E1FC494618
:102B80007E61042222480CF0DBFC2C2369467C6128
:102B900001220B731E48BC6103A9BE610CF0D0FC7E
:102BA0007C610820BC617E6100F00CFA80235B0030
:102BB000254CBB62254F21683868FFF787FC3A68CF
:102BC000234900265018411E8841224BC0001E6038
:102BD0002368214CC018C1030C43A02104339B007F
:102BE000D218C9050E604A608E600C6101241B4B2F
:102BF00001211C6000F05EFA0B20194900F074FA04
:102C000030E0C046FFFF00000000054000127A00DF
:102C100000C0034020F7001098F7001024F70010C0
:102C200028F700102CF7001030F7001034F70010D0
:102C300038F700103CF7001040F7001044F7001080
:102C400048F7001058F70010308E0020D40F0020F5
:102C50000000E0AF381900201900400004240050A3
:102C60004523001001210B2000F024FA5B466E661C
:102C7000EE662E676B6753460421AB660B206C66CD
:102C800000F062F9064B074A1B681B0C1B0413601B
:102C900005B0F0BCBB46B246A946A046F0BDC04652
:102CA0007000054070100540F0B583B005000E00BF
:102CB000140000F0A5F9002801D003B0F0BD154FB5
:102CC00001223B0001210097053001F07FFB33001A
:102CD0002A0000940121104801F060FD2100280025
:102CE000714303F0AFFA04000C4B00220093022161
:102CF000042001F06BFB2300002201210094052039
:102D000001F064FB3B00022200210097062001F045
:102D10005DFBD2E7006CDC0200800240001BB700C4
:102D2000F0B5DE464E4645465746E0B5060085B04E
:102D300004209A468B46019201F02AFDFA2189006F
:102D400003F080FA3223FF3398467D4B8500994685
:102D50005B460293534682462D18AD010393794B8F
:102D6000EB184B450AD901235B429C465346E0448D
:102D7000ED1A4346002BF2D100208BE031212800D0
:102D800003F060FA07243127864263D0671EA3460A
:102D900034003E005F4677432800390003F052FAC2
:102DA00084424CD0731E0093012E00D1B1E05B46EB
:102DB000FF1A3900280003F045FA844256D0B31EAA
:102DC0000093022E00D1AFE05B46FF1A39002800C5
:102DD00003F038FA844264D0F31E0093032E66D0C9
:102DE0005B46FF1A3900280003F02CFA844269D0B0
:102DF000331F0093042E6BD05B46FF1A3900280066
:102E000003F020FA84426BD0052E6DD02800F91F04
:102E100003F018FA844200D171E00623242128002F
:102E20009B46242703F00EFA844211D005265F4604
:102E300077432800390003F005FA8442B2D1002913
:102E4000B0D1029B5F469B46039B34009A4615E037
:102E500026005C463900280003F0F4F9002995D1DA
:102E6000029B27009B46039B9A4607E00029A6D1B8
:102E7000029B5F469B46039B009C9A465B466A0109
:102E8000521B92005219D2001A60019B01201F6050
:102E900053461C6005B0F0BCBB46B246A946A046EE
:102EA000F0BD0029E4D0F31E0093032E98D1032334
:102EB000092128009B46092703F0C4F98442C7D0A2
:102EC000022667E70029D3D0331F0093042E93D145
:102ED000042310279B462B099C42B9D0032659E7AF
:102EE0000029C5D0052E91D119212800192703F0FA
:102EF000A9F9A04221D0052304269B464AE70029D0
:102F000000D08AE7029B5F469B46039B01249A46BA
:102F1000B4E72600AC4200D025E7029B01279B4680
:102F2000039B01249A46A9E7022304279B46AB088A
:102F30009C4200D18CE701262CE72600052489E776
:102F400050F80C00508EF4FF094A10B59446402406
:102F5000830063441A68C0006240803414408022B9
:102F6000520113431C60034B9C466044416010BDFA
:102F700004C0014000400140074B80009C46604473
:102F80000368C90092000A435A400C231A40802368
:102F90005B0103431A60704704C00140084B800086
:102FA0009C466044002905D0802340229B010343B6
:102FB0001A607047C02340229B0103431A60F8E760
:102FC00004C001400123D022834012069362936122
:102FD000094A40219446830063441A68C0004A406D
:102FE000803111408022520113431960034B9C46EB
:102FF000052360444360704704C001400040014025
:10300000024B18688007C00F7047C04600C00640DA
:10301000EFF3108072B6034A1368002BFCD0BFF3A5
:103020005F8F70472C0100D0BFF35F8F0022024BEF
:103030001A6080F3108870472C0100D070B5EFF350
:10304000108C72B60D4D2B68002BFCD0BFF35F8F38
:103050000724CB08C618C05C01230C40A3401C0009
:103060000440034207D118433070BFF35F8F2C60D8
:103070008CF3108870BD100001F0AEFC2C0100D064
:103080000021044B044ABFF35F8F02C39342FAD17D
:103090007047C046000100D0800100D0044A10787B
:1030A000431CDBB2172B00D9102313707047C046A6
:1030B000D80F002001238340002904D0034A136065
:1030C000034A13607047034A1360FBE780E200E0A5
:1030D00000E100E080E100E0024B10309B688000DE
:1030E000C058704700ED00E070B50D00EFF310869A
:1030F00072B60F4A1368002BFCD0BFF35F8F0D4BE5
:1031000010309B6884001B590B4A934203D09D42A8
:1031100001D001F079FC074B9B681D51BFF35F8F15
:10312000BFF35F8F0022024B1A6086F3108870BDD8
:10313000240100D000ED00E0CD010010F0B5DE4626
:1031400057464E464546E0B50C0083B0EFF3108875
:1031500072B65D4A1368002BFCD0BFF35F8F5B4BE8
:103160005B499A68030010339F00D5598D4239D0CE
:10317000A5424AD0574EAA1B2F2A33D80122924685
:10318000824091464846544A126810400190484691
:10319000524A1060BFF35F8FEFF305829346002A17
:1031A00035D0934201D001F02FFC2A0053469A43B8
:1031B0009068844208D175E04B005B189B00F318BF
:1031C0009868A04234D01A00062151560029F3DA3B
:1031D000844253D0019B002B26D04A46404B1A60B4
:1031E0003D4B1A60394B9B68DD51BFF35F8FBFF3D6
:1031F0005F8F0022344B1A6088F3108803B0F0BC54
:10320000BB46B246A946A046F0BD0D00EAE72A003B
:1032100053469A4390688442D6D106201056130034
:10322000002809DA0D0031E04A462C4B1A60D9E734
:1032300006201856002822DB420011188900741855
:103240008A46A1689960E179D97106216156997120
:10325000002925DBA488F11A6405241554440919B2
:10326000E0240905490D24022143998013181D4AC1
:103270009B001178F31899711070ABE71300594651
:10328000002914D1FF3191711749918015490A78AD
:103290009A71164A9B1B5B415A43120D0A7099E7BB
:1032A0001349E2E70620105613000028C4DA114A39
:1032B0001149D21A083A5002400D014399800F4932
:1032C00052080A43DA8085E7240100D000ED00E0CF
:1032D000CD010010DC0F002000E100E080E100E003
:1032E00080E200E05593002001BDFFFFAAAA000084
:1032F00001BD00001610002000F0FFFF00F8FFFFE6
:1033000070B5EFF3058101240443EFF3108C72B61E
:10331000214A1368002BFCD0BFF35F8F1F4B0500C1
:103320001F4AED1A6D416A43120D1E4D8900AE68A9
:1033300052B27658A6421CD00621595691421CD052
:1033400012215956914222D01E215956914220D025
:103350002A2159560324914210D0134B19781A7020
:103360008171BFF35F8F00220B4B1A608CF31088C2
:1033700070BDAB680D4C5C50EFE70024610009198B
:1033800089005B18FF21997109499980E5E70124BB
:10339000F4E70224F2E7C046240100D0DC0F00204D
:1033A000AAAA000000ED00E055930020CD01001016
:1033B00001BDFFFF054B064A1360064A13605360C8
:1033C0009360D36013615361936170478080808004
:1033D00000E400E004E400E0024B9C466144890004
:1033E000016070474000003410B50400FFF756FE3E
:1033F00001002000FFF7F0FFFF232371BFF35F8F71
:1034000010BDC04610B50400FFF748FE01002000C3
:10341000FFF7E2FFFF23A380BFF35F8F10BDC0461D
:1034200083680B4810B58446614462441201090167
:1034300059189B185C684A680120944201D802D050
:103440000020C0B210BD1A680B689A42F9D8F7E79D
:10345000FFFFFF0F10B508000B690C00984700280C
:1034600002D02068616810BDE06000210020FAE70A
:103470000A4B1968EFF3108072B60A68002AFCD074
:10348000BFF35F8F1B68BFF35F8F00221A6080F36A
:10349000108840BF002000217047C0463C920020A9
:1034A000F8B5574645464E46DE46E0B598460CAB65
:1034B0001C780DAB1B78070091469A460568002CD6
:1034C00059D1AC7B002C3BD0660029683619033EED
:1034D00089194B78AB73002B00D1EB7300238B70F1
:1034E0004B700B702D4BE218BB6812019B184A46BB
:1034F0001A6042465A600A9A9A600B9ADA60002370
:103500008B704B700B706B7B9B46002B26D0220080
:103510006B685946A86898475B465B005B442A681D
:10352000033B002812D058469619B070D118D35CCE
:10353000002B00D073705B460C706B735C450ED033
:10354000F0BCBB46B246A946A046F8BDD3189C7055
:103550009119925D002A1CD15B460B706C734A4630
:103560004346387D00F0D8FC051E0AD10E9B002B87
:10357000E6D01D70E4E7660029683619033E891914
:10358000B0E75346002BF1D12100386800F0E2FE8D
:10359000ECE75A705B460B706C73E0E7FFFFFF0FC0
:1035A000F0B5DE4657464E4645460023E0B58BB0A3
:1035B0000893674B8200D45800239B46099000F083
:1035C00017FC02000B006068EFF3108A72B65646D3
:1035D00001680029FCD0B246BFF35F8F21684F7BA2
:1035E0008C46002F2ED0A5685A49A94679180901A2
:1035F000894449460868496805000E00AD1A9E4195
:10360000002E5FDD02000B00099800F085FC00230E
:103610000022994600230692079300239846636888
:10362000BFF35F8F5A461A608AF310884346002B17
:1036300012D10028C3D10BB0F0BCBB46B246A9469C
:10364000A046F0BD0023002299460023069207936E
:10365000002300209846E2E7089B494618023843B9
:10366000C047626805000E00EFF3108A72B6136857
:10367000002BFCD0BFF35F8F002E40DB2B003343C9
:1036800002D02369002B55D12368D97B002905D0AE
:103690001A68480041185218033A57709A7B002A5A
:1036A00000D19F73DF73E268013FD35D0133D355CF
:1036B0005B4623616368BFF35F8F5A461A608AF3E3
:1036C00010887CE7002E01D1002D9BD1002160469F
:1036D00000F0BEFD4B461A685B68069207934B46A6
:1036E0009B6898464B46DB689946E368DB19013BCB
:1036F0001B7808931B020343236100208FE7236993
:10370000002BC1D0069A079B8021521BB3410906AA
:103710008B4202D30122104B52420021049101310D
:103720000391494601914146200002970091FFF71D
:10373000B7FEBDE700F05CFB2A00330012184B41D6
:10374000802109068B42E8D30122034B5242E4E771
:1037500024920020FFFFFF0FFFFFFF7F10B5144CE6
:103760006368002B04D00A211248FFF735FE10BD14
:103770002300114A1021206800F086FC032000F08D
:103780002BFB032000F036FC03200C4900F07EFBED
:10379000FFF784FC0A4B9C4603232375D0231B06AA
:1037A0001B6860446375074B80006060DC60DAE78B
:1037B000241000203C92002021340010A13500107C
:1037C000400000342492002000487047241000205C
:1037D000F0B557464E464546DE46E0B585B0019306
:1037E00010AB1B780600039300239A46984600927C
:1037F0007268EFF3108B72B61368002BFCD0BFF326
:103800005F8F3568AC7B002C00D16DE067002B68C2
:103810003F19033FDB195A78AA73002A00D1EA73D3
:10382000484AA118B268090152180098019910601D
:1038300051600E9991600F99D16042469A705A700A
:103840001A706B7B9946002B6BD022006B6849463F
:10385000A86898474B465B004B442A68033B002806
:1038600056D04846D719B870D118D35C002B00D079
:103870007B704B460C706B734C4553D0F3681B192F
:10388000013B18787368BFF35F8F42461A608BF371
:1038900010885346002B08D10002204305B0F0BC2D
:1038A000BB46B246A946A046F0BD039B002B46D0BE
:1038B0000E9B00200F99984703000B433FD0040054
:1038C0000D1E1ADA009A019B121BAB410092019364
:1038D00080221206934204D301231B4C5B420093C7
:1038E0000194039B9A4683E77368BFF35F8F1C6064
:1038F0008BF3108801204042D0E700F079FA802253
:10390000001969411206009001919142E9D3E3E761
:10391000D3189C70D119D25D002A00D05A704B4642
:103920000B706C73307D009A019B00F0F5FA8246B3
:103930000028A3D02100306800F00CFD9EE7002095
:10394000ACE7C046FFFFFF0FFFFFFF7FF8B50B009E
:1039500004004168EFF3108572B60A68002AFCD0B3
:10396000BFF35F8FFF222068D9B2467B1A408E4298
:1039700007D006685700BF18F619033EB678002E28
:1039800010D0E6681B0AB218013A1278DBB29A42EC
:103990000DD000206368BFF35F8F00221A6085F3AB
:1039A0001088F8BD22699A42F3D12661F1E700F050
:1039B000D1FCEFE7F0B557464E46DE4645461100CE
:1039C000E0B585B006009C46109F194300D1E7E0A2
:1039D0006146DB170193009353401C00019B4B4051
:1039E0001D0000980199241A8D4163460E997B6051
:1039F0000F9BBE607B6139613A6000F0F9F980236A
:103A0000001969411B0600900191994204D30123DA
:103A1000684C5B420093019400239846664B1097D4
:103A2000039300239946109B3700464698467A68D0
:103A3000EFF3108B72B61368002BFCD0BFF35F8FCF
:103A40003D68AC7B002C00D178E063001B19033B80
:103A50001A00944602932B6863445A78AA73002A8A
:103A600000D1EA73554AA118BA68090152180098A2
:103A7000019910605160039991604146D1604A46B6
:103A80009A705A701A706B7B9A46002B00D17AE0BC
:103A900022006B685146A868984753465B00534420
:103AA0002A68033B002864D0D1188C4651460298FE
:103AB00010188170D35C002B00D0437063461C70DB
:103AC00053466B73350054455ED0FB687A681B190A
:103AD000013B1B78BFF35F8F494611608BF3108861
:103AE000002D0CD147461B02234301352800FB6003
:103AF00005B0F0BCBB46B246A946A046F0BD434661
:103B000040461B699847061E24D043460CCB100044
:103B100018434BD014001D1E1FDA009A019B121B84
:103B2000AB410092019380221206934200D27EE7BD
:103B30000123204C5B420093019478E73E00474606
:103B40007368BFF35F8F1C608BF31088012300251F
:103B50005B42CBE747460023C8E700F049F98022E3
:103B600000196941120600900191914200D25EE76E
:103B7000DEE70298D3189C701118125C002A00D05E
:103B80005A7053460B706C73387D009A019B00F09D
:103B9000C3F9051E99D02100386800F0DBFB94E7DB
:103BA00000230124002501229C461EE747463500DC
:103BB00000239BE7FFFFFF7F55340010FFFFFF0F3F
:103BC000F0B504000D0006267642F717C6463619F2
:103BD0006F4100B584B08F4214D811D000F008F9BD
:103BE00032003B00121A8B41002B15DC002B3ED01B
:103BF0002000290000F03AF904B080BCB846F0BDBE
:103C00008642EBD90026002700F0F2F832003B0094
:103C1000121A8B41002BE9DD002302930193154B0F
:103C20003200009314483B00FFF7D2FD0028DFDB91
:103C300000239846BC46114A114F7B6A9C4504D824
:103C4000B96A8E42D4D99C45D2D11168EFF3108065
:103C500072B60B68002BFCD0BFF35F8F1368BFF305
:103C60005F8F4146196080F3108820BFE5E7002A86
:103C7000BED0D1E771340010241000203C92002007
:103C80000040054070B5060000F0B2F8FA220400CA
:103C90000D00002330000021920003F0FBFA802386
:103CA000001969411B06994202D301200249404292
:103CB000FFF786FF70BDC046FFFFFF7F70B5EFF3D3
:103CC000058305000C0084B0002B0FD0104A0020A3
:103CD000536AA34203D3926A0130AA4201D304B0CB
:103CE00070BD1B1B5A1E9341D8B2F8E7094E0293D0
:103CF0000193094B0200009330000B00FFF768FDB1
:103D0000011EE3DD20BF3000FFF720FEDEE7C046E6
:103D1000004005402410002071340010F0B5EFF38E
:103D20000582D6464F4646461000C0B51038EFF320
:103D3000108872B6214C2368002BFCD0BFF35F8F34
:103D40000123190081401E4D1F006963AA461D4DC5
:103D500029601D4D2E78AC463500C5402F402B42C2
:103D600015D053465F6A194B8500EB589F4218D314
:103D70006246174B8E43EB581670BFF35F8F0022DD
:103D8000226088F31088002B06D0984704E0BFF328
:103D90005F8F276088F31088E0BCBA46B146A8461A
:103DA000F0BD0C4B92009C46624413681360BFF355
:103DB0005F8F0023236088F31088EDE7280100D08F
:103DC000004005403C70054056930020449200207E
:103DD00080910020D03F054010B5034B0100180032
:103DE000024AFFF72BF910BD54930020187B0110F5
:103DF000034B596A0A00986A596A8A42FAD1704795
:103E00000040054070B504000D00174A536A1900C0
:103E1000966A536A8B42FAD13000190024184D413A
:103E2000AB4216D813D0104B2A005B6A9D4203D9CF
:103E30000D494B6A9342FCD3934207D10A4A02E0F0
:103E4000516A994202D1916AA142F9D370BDA6424A
:103E5000E9D9054B5B6A1C005A1CEFD001220124F2
:103E60006442E5175242E3E700400540064A536AC0
:103E70009942FCD807D1044B02E05A6A914202D120
:103E80009A6A8242F9D370470040054070B5040039
:103E90000D00EFF3108672B61A4A1368002BFCD09F
:103EA000BFF35F8F002D1BD02000FFF715F91649D7
:103EB00081420AD02000FFF717F901212000FFF707
:103EC000F9F80123A340114A1360114BA400E550F7
:103ED000BFF35F8F00220B4B1A6086F3108870BD12
:103EE0000121A1400A4BA200D5500A4B20001A78AC
:103EF0008A4305491A70FFF721F900212000FFF7D6
:103F0000D9F8E5E7280100D01D3D001038600540D4
:103F10008091002056930020F0B54F46D646464685
:103F2000C0B507002E4C616A0D00A66A616AA942FD
:103F3000FAD18B4208D805D00120E0BCBA46B14680
:103F4000A846F0BDB242F7D9EFF3108A72B6254801
:103F500001680029FCD0BFF35F8F0125BD402249D5
:103F60001F4C8846097889462943C9B28C46414688
:103F700060460870391D890065630A511B49B80005
:103F80004350216A0020294219D0616A0800A66ABC
:103F9000616A8142FAD18B4219D801D1B24216D856
:103FA000CC450BD00E4B1F221D625D6301233A40AE
:103FB00093400F4A136043464A461A700120BFF3EC
:103FC0005F8F0022074B1A608AF31088B5E7002044
:103FD000BFF35F8F0022034B1A608AF31088ACE7AF
:103FE00000400540280100D0569300204492002054
:103FF00080E200E0EFF3108C72B60A490B68002BE8
:10400000FCD0BFF35F8F01238340074A0748136248
:1040100002789A430270BFF35F8F00230B608CF32A
:1040200010887047280100D00040054056930020BA
:1040300070B506000D00140000291DD0002A12D012
:1040400073688068984762006B0012195B193168C9
:10405000033A033B002808D08A189570C818CB5C37
:10406000002B0BD10470280070BDCB189C708818F1
:104070008A5C002A05D105702000F5E753700470B2
:10408000F1E75A700570F7E710B583600023CCB2F2
:1040900043730133426004738373C4730068421C2A
:1040A000012C05D90133DBB2137003329C42F9D1E4
:1040B000FF230B405A00D318C01800230338437065
:1040C00010BDC04670B505000C1E07D06300016826
:1040D0001B19033BCB185A78002A01D1200070BD70
:1040E000500080180338091800204E7848702100CD
:1040F00058702800FFF79CFF310004002800FFF7EC
:10410000E1FF0600002C20D00028E7D0320021007B
:104110006B68A86898477200630092191B19296898
:10412000033A033B002808D08A189470C818CB5C67
:10413000002B00D053700670D0E7CB189E70881803
:104140008A5C002A00D05A7004703400C6E7C0466A
:10415000F0B557464546DE464E46E0B50D006F00C9
:1041600001687F19033F0400C85D83B00192CA193A
:10417000002850D043001B18033BCB185E78B44690
:10418000002E1AD1019E002E42D0E67B002E04D0D4
:1041900073009B19CB18033B5D70A37B002B00D1F0
:1041A000A573E57300282FD10023537003B0F0BC32
:1041B000BB46B246A946A046F0BD72006244033A2F
:1041C0008A1851788846002151708946597032000A
:1041D00001002000FFF72CFF43468246002B07D04A
:1041E0005B0021684344033BCB185A78002A16D160
:1041F000424651462000FFF71BFF2168019BCA1968
:10420000002BC2D10028CFD043001B18033BCB1892
:1042100000219970C8E7019B002BB6D1C4E750007C
:104220008018033809184878834648464870587003
:1042300041462000FFF7FCFE594680462000FFF76C
:1042400041FF414602002000FFF7F2FE8046CFE723
:10425000F0B557464546DE464E46E0B583B001917F
:10426000457B04006F0000687F19033FC15DC219E0
:10427000002952D04B005B18033BC3185E78B4464C
:10428000002E1CD1019E002E44D0E67B002E04D0CF
:1042900073009B19C318033B5D70A37B002B00D1F7
:1042A000A573E573002931D1002328005370617391
:1042B00003B0F0BCBB46B246A946A046F0BD7200B2
:1042C0006244033A8218507880460020507081463C
:1042D000587032002000FFF7ABFE43468246002BA9
:1042E00007D05B0021684344033BCB185A78002A6F
:1042F00017D1424651462000FFF79AFE019B01006C
:104300002068C219002BC0D10029CDD04B005B180A
:10431000033BC31800209870C6E7019B002BB4D163
:10432000C2E7500080180338091848788346484689
:104330004870587041462000FFF77AFE5946804683
:104340002000FFF7BFFE414602002000FFF770FE8D
:104350008046CEE770B5050000292CD0437B8B4208
:104360002ED04C0000686418033C0419A278002A7F
:1043700021D053009B18033BC25CC6188A4202D16D
:104380001BE0002A08D053009B18033BC3185A783F
:104390008A42F6D162785A70002301222800A37065
:1043A0006370FFF7D5FE697B02002800FFF740FE2F
:1043B0006873012000E0002070BD63783370EBE784
:1043C00001221900FFF7C4FEF2E7C046F0B54546EA
:1043D0004E46DE465746E0B583B016000C9A0500FF
:1043E00088469A4200D973E01A0E93461B021800C1
:1043F0000193594600230C9A01F062FF354B6C0083
:104400009C466419A400644463680700834200D298
:1044100060602B1FDBB29946012B34D9C023802268
:104420009B01234312011A602B4BAD0059599A4648
:10443000002905D0586901F005FF01300138FDD190
:10444000226873015340E0221A4080235B0123431A
:104450001A604A46012A2ED9802380229B012343D9
:1044600012011A60594600233A000198676001F072
:1044700027FF53465851012003B0F0BCBB46B2465B
:10448000A946A046F0BD4346012BC7D1C023032255
:104490009B0123431A60023AA3681A42FCD02268A7
:1044A00073015340E0221A4080235B0123431A60CA
:1044B000094AAD00924642462168514003220A4013
:1044C0001A60012243469A40A3681A42FCD0C3E70F
:1044D0000020D1E7008000400816002010B50C2015
:1044E00082B000F0BFF9FEF78BFD002810D0864B9C
:1044F00086488649864A186059609860D960186174
:1045000059619861D961186259625A6202B010BD4E
:10451000804CA06700F0AEF901227F4B1A60636CFB
:10452000012BFCD103227D4B1A607A4A936B012B3D
:10453000FCD1013301217A4A7A480093043300F018
:104540002DF90523784A00930121784800F026F9D7
:10455000774B5A68FF2A02D8802252005A60802284
:104560006E4B694C12011A602169002905D06069FF
:1045700001F068FE01300138FDD1E0226C4B6D483E
:1045800019680A40026002221968514001320A404B
:10459000042102609A681142FCD08021664A090118
:1045A0001160802252005A60644B2361644B596849
:1045B000FF2900D85A6003220121574B1A60604A34
:1045C00093681942FCD0E023106803405D48036003
:1045D000126803234A4002211340594A036093683A
:1045E0001942FCD08021584B090119608021574B9A
:1045F000490051606361564B5A68FF2A00D85960E0
:104600008022544B12011A60E169002905D06069CB
:1046100001F018FE01300138FDD1E0234C4A116849
:104620000B404D490B6080214C4B090119608021E2
:10463000364B49005160E361494B5A68FF2A00D864
:1046400059608022474B12011A60216A002905D067
:10465000606901F0F7FD01300138FDD1E023404AE7
:1046600011680B4040490B608021404B09011960E3
:1046700080235B0053608022244BD20223623C4B98
:104680005968914200D25A6080223A4B12011A6056
:10469000616A002905D0606901F0D4FD013001385C
:1046A000FDD1E023324A11680B4033490B60802171
:1046B000324B090119608023DB025360144B6362A3
:1046C0002F4B5A68FF2A02D8802252005A6080225B
:1046D0002C4B12011A60A169002905D0606901F014
:1046E000B1FD01300138FDD1E023254A11680B40AE
:1046F00025490B608021254B0901196080235B004F
:104700005360124BA36101E708160020006CDC0225
:104710001BB70000008000403CB0004030B00040BB
:10472000002F685900800240008C864700C002407C
:10473000308000403090004030A00040001BB700A7
:104740003C8000403C9000403CA000404059730732
:104750005480004054B000405490004054A00040A9
:104760006080004060B000406090004060A0004069
:104770006C8000406CB000406C9000406CA0004029
:104780004880004048B000404890004048A00040A9
:10479000014B8000C058704708160020F8B504008F
:1047A0000C2017001E000D0001F04CFD43011B1AE8
:1047B0009901C91AC90009188901380001F042FDA0
:1047C000069B37041B031F432368002B22DB1A4B75
:1047D0001A4EE218531E9A4180239B019C46524276
:1047E000120B174B120362441A60164B1A60130027
:1047F000B1688B43FBD1C023221D9B0113432122AF
:104800002560A0601A602268002AFCDA0822E760AE
:104810001A60F8BD3F2322681340AB42D7D1A3688A
:104820001B051B0D8342D2D1EE22E368D202134056
:10483000BB42CCD1EDE7C0460040FDBF00C0004008
:1048400000E0004000F00040044B00011B68044AF7
:104850005840F023034013607047C04600400640B4
:10486000005006408023024A9B000343D3627047F6
:1048700000800540AA23064A1B0113602F23054927
:10488000D360054B19605368002BFCDA7047C046B3
:104890000040024000B0FA00006002402C4B2D4A5C
:1048A00070B51A602C4A2D4B2D491A6014008B6884
:1048B0009C43FBD12B4D2C4EB54208D2013E761BBA
:1048C000B60808CD984723000134B342F9D1FFF769
:1048D00005FE264A214B1A60214A9368DB43DB011F
:1048E000DD09002BF9D14022214B224C224E9A6740
:1048F0005A671A67DA66B44208D223682000002B90
:1049000020D00834FEF77EFDB442F6D31B4C1C4E7B
:10491000C022B168200003F0B9F8B460FEF7B0FB24
:10492000FEF748FDFEF71AFF164C174EB44208D2A8
:10493000013E361BB60808CC98472B0001359E4235
:10494000F9D170BD0834FEF74FFDB442D5D3DDE791
:1049500000E00040BFCDFBFEFE7F3C0000F00040C9
:1049600000C00040CC150020DC150020FFFFFF0137
:1049700000F00140C4150020CC15002000000020EC
:1049800000ED00E0DC150020F015002000BEFDE782
:10499000094A03001068002805D00849C3188B4253
:1049A00007D81360704706480449C31810608B424B
:1049B000F7D901204042F5E70092002000000420D2
:1049C0005893002000207047012040427047C046A5
:1049D00010B5FFF7DBFFC0460FB400B5084883B041
:1049E00003F000F9049B002B07D005A918000191E2
:1049F00001F0A8FB034803F0F5F80120FFF7C6FF1C
:104A00003C7B01104C7B011010B50148FFF7E4FF1F
:104A1000507B01109A4200D2885470477047C046BC
:104A2000F8B55746DE464E464546E0B599460A9BE0
:104A300007009A460D9B884693460B9C9B073BD1EB
:104A40000C9B9C423DD21E1B0B9415000C005E4437
:104A50002A004B46013521002020B847B542F7D146
:104A6000A0460B9C002C20D0454636195346321BDD
:104A7000013C185D29004B46B847002CF6D12B00AD
:104A8000350098460D9B9B070FD55B46EC1A0C9B97
:104A9000A3420AD9464698462A004B4631002020B8
:104AA0000134B84701354445F6D32800F0BCBB4675
:104AB000B246A946A046F8BD16001500002CD3D179
:104AC000E0E71600002CCFD11500EEE7F0B54F4619
:104AD0004646D646C0B584B098460EAB1B78944681
:104AE0009946129B0D9C109F119E9A0725D4002E6B
:104AF00065D1BC4221D201221A409246202C00D11D
:104B0000E9E00C9A551E302202E0202C00D17BE017
:104B100001342A55A742F8D85246002A0DD0B44293
:104B20000BD20C9A551E3022202C02D171E0202C81
:104B30002DD001342A55B442F9D1DA063CD55A05B4
:104B40002ED4002C28D10F9A102A00D1B6E0022AC8
:104B500000D1BCE030220C9C227001244A46002A7D
:104B600065D15A0700D499E02B220C9D2A550134B7
:104B700003930C9B62460093029643460194FFF711
:104B80004FFF04B0E0BCBA46B146A846F0BD2024B1
:104B9000DA06EDD55A0503D4A74266D0B44264D0F4
:104BA0000F9A102A71D0022A57D0202CE0D0220070
:104BB000013430250C9FBD54202CD9D0CEE70122E2
:104BC00015001D40AA461A4236D04A46002A4AD14C
:104BD0000C321A4247D1BC42A1D2202C91D1202EB6
:104BE00017D82024DA06C3D55A051BD4202F01D0AC
:104BF000202ED5D11F220F9D102D6FD0022DD8D180
:104C000062250C9FBD54D0E75246002A79D0202E51
:104C1000BDD92024DA06ABD55A0503D4202FE9D01C
:104C2000202EE7D00F9A102AA2D12024A0E72D220F
:104C30000C9D2A5501349BE7BC4200D37DE7202C14
:104C400000D05EE7DA06F0D55A05EED4202F62D008
:104C5000202EEAD134001F22CDE7202C00D187E797
:104C600022000134CCE7013EB5E7621E012CC2D11F
:104C70000F9A102A00D06AE79A063BD558220C9C5E
:104C80002270283A6270022468E79A060ED4202C1B
:104C9000CBD078220C9D2A55013486E71A0700D420
:104CA00066E720220C9D2A55013461E7202CBCD0F8
:104CB00058250C9A12191570013476E79A0608D512
:104CC00058220C9C227030226270022446E7603227
:104CD000F7E77822F5E7002A83D1B3E7A21E013C6B
:104CE0009D0603D478250C9FBD5460E758250C9F82
:104CF000BD545CE778220C9C2270483A6270022412
:104D00002CE7DA0600D433E75A058BD4202F00D0E5
:104D100044E71F226FE73C001F226CE710B5002814
:104D200000D110BD02F012FFFBE7C046F0B55746B8
:104D30004E464546DE46E0B599B0824689469046E5
:104D40000893229A239B1000190001F03CFD0028D3
:104D500000D0CDE0229823990122D94B524201F094
:104D60002DFD002800D0C3E0229823990122D54BC5
:104D7000524201F015FD002800D0B9E02298239995
:104D80000022002301F00CFD002800D0F1E1229E5A
:104D9000239F8023269ADB001A400D92269A1A42FE
:104DA00001D1062324938023269A1B011A403B003D
:104DB00093460996334300D0B3E0002A00D0C2E105
:104DC000002300240A930B94002304250993259BB8
:104DD0000024AB4200D95C1B0223269A1A400C9295
:104DE000269A134203D06B426B415B421C40099BE5
:104DF000002B07D00A9A0B9B3000390001F06FFCA2
:104E000006000F00229823990022002301F0C8FC1D
:104E1000002803D0802109067B181F00269AAA4B80
:104E2000009601971340089E0493249B03940293D9
:104E3000424633004946504600F0AAF90400002DCE
:104E400067D02020269A4946024013005A42534117
:104E50005B42621C18400A92330022004530D04762
:104E6000099A6F1ED317D4185C40D30F9B460025B8
:104E700001E0202D13D008AA94461F23200063448C
:104E80000A2101355E1901F0DDF930313170200061
:104E90000A2101F0D7F926000400092EE9D80523DC
:104EA0000693002304930A3303935B46089E029300
:104EB00010AB0A9A00934946330050460597019576
:104EC000FFF704FE0C9A0400002A22D04246851AFD
:104ED000259AAA421DD9B0465746160022004346DD
:104EE000494620200135B8470134AE42F6D810E0DB
:104EF000269B42460493259B49460393249B504698
:104F00000293229B239C00930194089B00F040F99C
:104F10000400200019B0F0BCBB46B246A946A0462A
:104F2000F0BD6A4B78009C46400D604401F05EFC89
:104F3000674A684B01F0F1FB674A684B01F0C6FB1A
:104F4000674A3B031B0B1A4304000D00099811002C
:104F5000644B002201F0B1FB634A644B01F0DDFBBE
:104F600002000B002000290001F0B0FB01F056FC0C
:104F7000099001F03BFC5E4A5E4B04000D0001F01D
:104F8000CCFB00225C4B01F0A1FB01F047FC5B4A2B
:104F90005B4B29000C90200001F0BFFB04000C9833
:104FA0000D0001F023FC574A574B01F0B6FB0200FD
:104FB0000B002000290001F080FB04000D0002001E
:104FC0000B000A940B9501F0A8FB04000D000A9851
:104FD0000B9902000B0001F079FB00220E900F915B
:104FE0004A4B2000290001F07AFB0022484B01F0D7
:104FF0006DFB02000B002000290001F070FB002275
:10500000444B01F063FB02000B002000290001F07B
:1050100066FB0A9A0B9B0D0080210400C905002045
:1050200001F04BFB02000B002000290001F04EFBB9
:1050300002000B000E980F9901F051FB0022284B43
:1050400001F044FB344B0C9C9C4664442305002235
:1050500001F063FB04000D0002000B00300039007A
:105060000A940B9501F09CFB00285DD123002A00D7
:10507000C625099963318D42AD4159466D420435CB
:10508000002900D1A3E6134363D030003900234A3E
:10509000234B01F08BFB002807D0002230003900A1
:1050A000204B01F07DFB002853D1249B002B00D125
:1050B0008DE60D9B5A1E9341249AD31A249386E6BB
:1050C000FFFFEF7FFFFFEFFFFFF7FFFF01FCFFFF99
:1050D000FB799F501344D33FB3C8608B288AC63FE7
:1050E0000000F03F0000F83F61436F63A787D23FA5
:1050F00071A379094F930A400000E03F1655B5BBF4
:10510000B16B0240EF39FAFE422EE63F00002C4020
:105110000000244000001840FF0300002D431CEB5A
:10512000E2361A3F80842E41099B0022013B0993FD
:105130002000164B290001F0D2FA0A0001000300FA
:105140000A910B9294E7002300240A930B94002306
:105150000993249A099B9A4214DDD31A013B2493A4
:105160008023269ADB001A43002300252692099308
:105170002DE6802212069446229B1E00239B634448
:105180001F0006E600232493EAE7C04600002440FF
:10519000F0B54546DE464E465746E0B595B08B46DF
:1051A000904699461E9A1F9B0A9019001000209D58
:1051B00001F009FB002800D0B0E11E981F990122E0
:1051C000C74B524201F0ECFA002800D037E11E989C
:1051D0001F990122C34B524201F0F0FA002800D07F
:1051E000A7E01E981F990022BF4B01F0E7FA0028A4
:1051F00000D088E01E981F990022BC4B01F0D0FA25
:10520000002800D07FE01E981F990022002301F0A3
:10521000C7FA002800D0FAE000230B938023229CD9
:10522000229ADB001C401A4200D102E1092D00D86D
:105230007CE106A98C462C00172200233021093C72
:1052400062440133D154EF1A202B00D132E1A34242
:10525000F7D10022A44B069207931E981F9901F0E4
:10526000DDFA050001F0C2FA02000B001E981F993A
:1052700001F023FA069A079B01F04FFA0890099172
:1052800001F0F0FA060001F0ADFA02000B000898F8
:10529000099901F012FA0022954B0890099101F04A
:1052A0008DFA002800D1D2E00136300001F09AFAE0
:1052B000069A079B01F07AFA002801D000260135F2
:1052C000AA46002F00D098E0280001F08FFA0200D3
:1052D0000B001E981F9901F0F0F9854B0022060083
:1052E0000F0001F05DFA0CAB9A46002845D1002270
:1052F000300039007E4B01F061FA00283DD1EB0708
:105300003BD5013539E0229B42460493219B594607
:1053100003930A981E9B1F9C0295009301944B4691
:10532000FFF704FD15B0F0BCBB46B246A946A04647
:10533000F0BD229B5B0767D403226E4B229901923A
:10534000039121990291009342464B4659460A988F
:10535000FFF766FBE6E706AA944617232800634496
:105360000A2101341E1900F045FF30312800317048
:105370000A2100F03FFF051E76D0202CEBD103233D
:10538000229A1340012B1DD1219B002B1AD00B9B7D
:10539000002B00D0BBE0229A0C33134200D0B6E0C1
:1053A000219BA34200D887E006AB9C4617223023FE
:1053B000624404E02199013413558C4259D0202CC9
:1053C000F8D12024229B01940393219B02935346FE
:1053D000B9E706AA944617230A2163443000013432
:1053E0001D1900F02FFF3031297030000A21013FD4
:1053F00000F028FF092E46D90600202CE9D1554699
:105400000CAB20249A46B8E704223B4B96E71E9A41
:105410001F9B0020002101F050F901230B938023F2
:10542000229C229ADB001E901F911C401A4200D041
:10543000FCE60022314B0627069207930DE7229BDC
:105440000393219B0293042301932D4B7BE70022BE
:1054500008980999264B01F0A3F9002800D02FE7FE
:10546000002E4FD101362BE70323229A1340012B44
:1054700066D0202CA6D00B9B002B1FD02D2352468C
:10548000135501349EE75546202CB9D030233A19E4
:10549000002F08D0172006A9013409180B55202C1D
:1054A000AED09442F6D10CAB9A462E2352461355F9
:1054B000013462E72024CCE6202C83D0229B5B07BA
:1054C00008D4229B1B0700D47CE7202352461355A7
:1054D000013477E72B2352461355013472E7C04657
:1054E000FFFFEFFFFFFFEF7F65CDCD4165CDCDC164
:1054F0000000E03F647B01105C7B011080842E4142
:105500006C7B0110F30700D4DAE60136D8E6219B64
:10551000013B2193A34200D946E7AAE7229B0393CC
:10552000219B029303230193074B0CE7074BEA00EF
:105530009B185C681B682F000693079400248CE678
:10554000219B002B95D022E7687B0110107D011074
:10555000F0B55746DE464E464546E0B5A5B01F00BD
:105560002E9B91460D93CA4ACA4B82468B461A60BF
:10557000002900D129E2002338789846002800D17C
:105580002BE2C54B44460C93C44B55464E460E93F6
:105590000AE0631C9846220033005946A847444657
:1055A0003878002800D187E001372528F1D1082379
:1055B0009A46043B9946023B9846013B00229C4692
:1055C0000B943878791C0300203BDBB2102B03D8F6
:1055D0000C9C9B00E3589F460300303B0B9C0B92B6
:1055E000092B3AD9002398462A2800D1DDE0002370
:1055F0009A462E284BD00300683BDBB2122B1ED8F4
:105600000E9A9B00D3589F4663460F001A43D8E773
:1056100043460F001A43D4E74B460F001A43D0E726
:1056200010230F001A43CCE753460F001A43C8E774
:1056300080235B000B9A78781A430B9201310F009C
:1056400067284FD82428A4D90300253BDBB2422B7E
:105650009FD893499B00CB589F46002398460B9BAD
:1056600047469C4600E00131BB00DB195B001F1878
:105670000878303F0300303B092BF4D963460B9385
:105680000023B8469A460F0001312E28B3D180205E
:105690000B9AC00002430B92302252429446787813
:1056A0000B0084446246092A00D8AAE12A2800D1C6
:1056B000B9E10F0001319EE7A046AA46B146C845B0
:1056C00003D301235B424B4498464B46424659461E
:1056D0000020D047200025B0F0BCBB46B246A9460A
:1056E000A046F0BD01006939C9B20F2900D950E7C1
:1056F00001238B409C466B4B994663464A461340B8
:105700000F9362464B461A4200D068E10A2956D0F0
:10571000072900D03DE70D9B02CB9846002900D019
:1057200092E10B9B10211A008A43100011310843AB
:10573000814680201A00C0000240110003421CD1A3
:1057400014AB9C461F220F2362440D959C46150006
:105750000F9B0B9402E0202B0CD0110064460C40F0
:1057600020003730092C00D807380133E8540A09E3
:105770000F29F0D80B9C0D9D0F934B4608220693E2
:105780005346059208320392002204930F9B029223
:1057900001931CAB22000093594633002800FFF709
:1057A00095F9434604000D93FAE60D9B04CB904611
:1057B000002A79DB78780D930F00013117E70D9BF4
:1057C00002CB14930B789C4618005346002B00D153
:1057D00034E1002815D05346013B013399460D941E
:1057E0000B9C89444A460B00A14601E0934203D03A
:1057F0005C780133002CF9D14A465B1A0D9C0B9260
:105800000F938023DB0099460B9A13400D934B4670
:105810001A4204D00F9B534501D953460F930223DC
:1058200099460B9A13400B934B46134200D1F5E176
:105830006346002B00D1D6E10D9B002B00D182E105
:105840000B1BD14631009A463B00A1442E005F4617
:105850004D4622009B46894609E04B463900541CC0
:10586000B0475346185D002800D192E122009542CE
:10587000F3D14B465A46A946BB46350017001E00D9
:105880004C460B9B002B00D0ADE1149B0D9387E69B
:105890005155001008920020747B0110B87B011054
:1058A000047C0110419000000B9A283802430B92AF
:1058B00042465242787890460F000D93013196E6A9
:1058C00078786C2800D15DE180230B9A5B001A4345
:1058D0000B920131B3E680239B00ABE67878682811
:1058E00000D148E180230B9A01311A430B92A6E6BE
:1058F000672800D1B2E0472800D11AE1452800D13D
:105900001CE10B9A0721049242460D9B0392073338
:1059100052468B43190002920CC928000092019351
:105920000D91220033005946FFF700FA040037E6D4
:10593000462800D18DE00B9A0721049242460D9B28
:105940000392073352468B43190002920CC9280078
:10595000009201930D91220033005946FFF718FC85
:1059600004001DE6631C984622003300594625209A
:10597000A847444614E60D9B04330F93631C9946D5
:105980000B9B9A0700D40AE10D9B22001878594618
:105990003300A84743464444012B00D86FE1B0468A
:1059A0002E0025004C46B9465F462200434601348E
:1059B00039002020B047AC42F7D12C00BB4635005F
:1059C0004F4646460F9B0D93EAE5D64B38789A46EC
:1059D00000239846002800D0D3E500246FE66F2806
:1059E00042D000D8FDE11023782800D19BE00B9A2B
:1059F0009A430B920A239C46002314930A330F9375
:105A000038E057460B9AB900C919490001330F18FD
:105A10001878303F010030390929F4D9BA460B9281
:105A20001F00591CE7E50D9BB87804CB0237D14322
:105A3000C9170A4092460D93791CDCE5002800D175
:105A4000DFE602235B42C8E621200B9A024391461F
:105A500076E620230B9A1A430B926CE780230B9A6D
:105A60001B011A430B924CE708239C460023149316
:105A700008330F930B9880230200DB001A401100BB
:105A80000200184200D080E00C239A4310008023CB
:105A900002009B001A400B92184200D0F1E08023D4
:105AA00002005B001A4091460D9A0432149218428B
:105AB00000D0C3E2430600D5D7E0030600D421E3BB
:105AC0000D9B1B880993002B00D02DE110339843C8
:105AD000002900D128E10023994643460593534607
