:020000041000EA
:1000000000B5324B212058609868022188439860DF
:10001000D860186158612E4B002199600221596106
:100020000121F02299502B49196001219960352056
:1000300000F044F80222904214D00621196600F024
:1000400034F8196E01211966002018661A6600F04E
:100050002CF8196E196E196E052000F02FF8012189
:100060000842F9D1002199601B49196000215960AB
:100070001A491B48016001219960EB211966A021F2
:10008000196600F012F800219960164914480160C1
:100090000121996001BC002800D000471248134993
:1000A000086003C880F30888084703B5996A0420EC
:1000B0000142FBD001200142F8D103BD02B5186610
:1000C0001866FFF7F2FF186E186E02BD00000240BE
:1000D000000000180000070000035F00212200005C
:1000E000F4000018222000A00001001008ED00E03C
:1000F00000000000000000000000000074B24E7A12
:1001000000200420F7010010C3010010C5010010F9
:10011000C1010010C1010010C1010010C101001097
:10012000C1010010C1010010C1010010C701001081
:10013000C1010010C1010010C9010010CB01001065
:10014000CD010010CD010010CD010010CD01001037
:10015000CD010010CD010010CD010010CD01001027
:10016000CD010010CD010010CD010010CD01001017
:10017000CD010010CD010010CD010010CD01001007
:10018000CD010010CD010010CD010010CD010010F7
:10019000CD010010CD010010CD010010CD010010E7
:1001A000CD010010CD010010CD010010CD010010D7
:1001B000CD010010CD010010CD010010CD010010C7
:1001C00000BE00BE00BE00BE00BE00BEEFF3058054
:1001D000103800BEF2EB8871307C01104C7C0110AD
:1001E0003402001090A31AE700201F49086006C8D7
:1001F00081F3088810471D48006800282FD10DA4FE
:100200000ECC002902D000F012F8F9E71849194A7B
:10021000002000E001C19142FCD1174988471749ED
:1002200088471749884700BEFDE701C901C29A42C5
:10023000FBD370474C7C0110C0000020DC1500206F
:100240006891011000000420000004206891011052
:10025000001004200010042000000000704709482E
:1002600004F05AFE0047000008ED00E0000000D056
:10027000E01500201C920020253600101904001003
:10028000593700105756000006005250ABB3605368
:100290002064011006005250861C030230640110D5
:1002A000060052505422A29D38640110050052509D
:1002B000DE65F46868910110F8B5C046044B10B5CE
:1002C000002B03D00349044800E000BF10BDC04626
:1002D00000000000D4910020E8E000107047C04604
:1002E0007047C046F0B5DE4657464E464546102498
:1002F000E0B50A27002587B0444800F015FC0F231D
:1003000007220621052000F0E1FB00F0A7FC404E8B
:100310001023306800220395029701970021009472
:1003200000F0B0FC012330689B46039322339A46C9
:1003300002970193002200210094133B00F0A2FCDD
:1003400002233068994603933A33029701930022BF
:10035000002100942C3B00F095FC032255213068CD
:10036000102303920297019100220021009400F0D3
:1003700089FC28233068984601975F460595143517
:10038000029300220021049503950094183B00F08D
:1003900055FD3068059747460297574601974F46E7
:1003A00010230022002104950395009400F046FDDF
:1003B00030683C23059747460193002200210495AD
:1003C0000395029700942C3B00F038FD032243462E
:1003D00055213068183B05920191002200210495B7
:1003E00003950297009400F029FD0A4800F09CFB59
:1003F0000823002200210F2000F068FB07B0F0BCAA
:10040000BB46B246A946A046F0BDC046CD06001088
:1004100024190020BD050010F0B5DE464E464546C5
:100420005746E0B583B001F031F8802601F016F8A8
:10043000002301244B4D760008C5200005F05CFE2A
:10044000EE21890505F021FE474905F01EFE05F065
:10045000C3FE013401C5B442EFD1002000F076FFA5
:1004600000F0C0FE00F0B8FE0028FBD100F0A4FEB2
:1004700000F0A2FE4B2000F069FFFFF72FFF00F015
:10048000E9FF3A4B00279B46186000239A46384BF9
:10049000384D994600F08CFE060000F00BFB00F092
:1004A0001DFB00F021FB00F037FB00F043FB00F0E8
:1004B0005DFB00F075FB5B464A461B68136000F06D
:1004C000C9FF5B46186000F073FE7B1C0400380017
:1004D0009846FFF705FF00F06BFE001BE86000F098
:1004E00067FE009000F078FE0028FBD100F060FE6F
:1004F0005346C01A686100F05BFE040000F058FE2D
:1005000082464046FFF7EEFE00F052FE5346C01A08
:10051000286100F04DFE019000F04EFE00F048FE14
:10052000804600F045FE824600F05CFE00F040FE92
:10053000861B31001048AE6004F048FD01300023F6
:100540000237286028280AD9009B4444E01A019BFE
:100550003100C01A6423584304F038FD03006B6077
:1005600098E7C046208A0020DB0FC940BC890020E4
:10057000D0890020DC8900203F420F0010B578218F
:10058000084A782000F042FD074B80211860074B95
:10059000074A1860802000F039FD064B1860064BB2
:1005A000186010BD3C190020F48900203819002083
:1005B000A8E1001024190020C4890020F0B54E469F
:1005C00045465746DE4690460A1452008446105A65
:1005D000394AE0B50503154005433848384C054015
:1005E00022782C03240F54430F3424112707FF0FC4
:1005F000099EE4199146E4B2771E002E1ED04246B1
:10060000002A21D1844665432E4A654494462E4AE9
:10061000102191460C1B1E88274A31031140624667
:1006200031430140614349190E0C16404A460909FD
:100630001140314319800233013FECD2F0BCBB467C
:10064000B246A946A046F0BD012292461A8841440E
:1006500093461603184A16405A4616430640B346B8
:100660001022161B5A465643144A6C4393465E4466
:100670003419154A25091540124A240C14406246C3
:100680002C431C800C146400A45A0B4A250315400B
:10069000FF22254305402E0C16404A46564352463B
:1006A0000F363611F6B2F40814403419E4B20233AE
:1006B000013FCBD2C2E7C04600000F0F0F0F0F0F54
:1006C000B40F0020F0F000000F0F0000F8B5CE4688
:1006D000474680B5089C002A4AD19A0758D102881B
:1006E000944612046244012C3AD9A11E8846404621
:1006F0004D0859070135C90F0B2858D91E0000298C
:1007000053D004C66F1A7808814600208900591812
:1007100001300A604A6008318145F9D1012139422E
:100720001AD08F4341467800BF00081AF719861E79
:100730003A60012E10D9061F7A60012E0CD9861F4F
:10074000BA60012E08D9023EFA60012E04D90A3897
:100750003A61012800D97A610122AD005B19144089
:10076000002C01D062461A80C0BCB946B046F8BD24
:1007700080256D02AA4212D0651E002CF4D00C1404
:100780006400245A89181C800233013DF7D2EBE73C
:10079000002CE9D00288013C1A8002339FE7010057
:1007A0006200180006F01AF8DEE7A046AAE71F006C
:1007B0002000BCE7F0B557464E46DE464546E0B55C
:1007C0004E4E0400736900209B464D4B83B01F685A
:1007D000B369BA46DA449846D146C144A1451CD90A
:1007E000316A002920D1474BB5681B6800933B0054
:1007F000AF4200D92B009C421BD22900200204F0FA
:10080000E5FB009B43431D0AF369002B36D14346A9
:10081000002B01D0444546D8E8B203B0F0BCBB463B
:10082000B246A946A046F0BD200004F0CFFB641AF2
:10083000D9E7F36801935B19BB4230D89C4205D3DA
:10084000A74245D9306964210002D8E730696421A4
:100850008027000204F0BAFB7F003B1A9A46601B17
:100860000199000204F0B2FB53465843009B000A72
:100870003F1A7B431D0AF369002BC8D00BF08CFE96
:10088000F769390004F0A2FB7F08B369C91B9846D9
:1008900069181BD464256429B9DC0D00B7E73B0057
:1008A0009C42CDD2D2E7E01AFFF784FF0600280071
:1008B0004946604304F08AFB4B460500181B494635
:1008C000704304F083FB4019C0B2A6E700259EE701
:1008D0000025A24598D9E01B5946000204F076FB9A
:1008E0000135FF352D1A30696421000204F06EFBDA
:1008F0006843009A030A5A43150A85E7F8890020DD
:100900001C8A0020B80F0020F0B557464E464546D9
:10091000DE46E0B5614C624F26683D6885B0002E2A
:100920003FD1604B994662696B1C3B60A769934657
:10093000BA465D4B00211E680192B344DA44AA45D1
:100940001FD9216A002927D1584B1B680293A3683D
:1009500098463300464500D94346AB4230D941461C
:10096000280204F033FB029B43431B0A9846E369C9
:10097000002B4CD1002F01D0BD425ED8FF21434651
:1009800019404B46186800F005FD05B0F0BCBB46A9
:10099000B246A946A046F0BD280004F017FB6D1A28
:1009A000D2E7404B616899460029BCD0280004F08A
:1009B0000DFB4A4646433E4B1B68F3181360B2E7F3
:1009C000E36803934344B34233D89D4205D3AE4218
:1009D0004AD9206964210002C3E720696421802686
:1009E000000204F0F3FA7600331A9B464346E81AF5
:1009F0000399000204F0EAFA5B465843029B000A9E
:100A0000361A73431B0A9846E369002BB2D00BF0E9
:100A1000C3FDE669310004F0D9FA43467608891B24
:100A2000A769C9181DD4642398466429A2DC8846A6
:100A3000A0E733009D42CAD2CFE7E81BFFF7BAFE1A
:100A4000040040465146684304F0C0FA534606008D
:100A5000581B5146604304F0B9FAFF218019014048
:100A60008FE70023984685E700239846AB4500D8DA
:100A70007DE7A81B01998026000204F0A7FA760002
:100A8000361A20696421000204F0A0FA7043029A29
:100A9000030A5A43130A984669E7C046F8890020BA
:100AA000C0890020201900201C8A0020B80F0020D7
:100AB0002C1900200F2310B50F220F210F2000F05A
:100AC00095FA014B188010BD1492002010B500F06B
:100AD0008DFA014B188010BD149200200F22014B9B
:100AE0001A707047B40F00200022064B1A60064BA4
:100AF0001A60064B1A68064B116852681960054B5C
:100B00001A6070473019002034190020381900206D
:100B1000AC0F0020A80F0020014B024A1A6070475A
:100B2000B00F0020BD050010014B18607047C04693
:100B3000B00F00200021074B1A68074B1A60074BC3
:100B40001960074B19601168064B52681960064B13
:100B50001A607047F48900203819002030190020ED
:100B600034190020AC0F0020A80F00200022024BF7
:100B70001A60024B1A607047D4890020D88900207F
:100B8000054A036812689B1A044A03600B681268DE
:100B90009B1A0B607047C046D4890020D88900207A
:100BA0000022024B1A60024B1A607047C88900206D
:100BB000CC890020F0B5C64600B588B007900691F4
:100BC00007A806A905920493FFF7DAFF1C4B05AAB4
:100BD0001B6806A903931B4B07A81B6802931A4BBB
:100BE0001B680193194B1B68009304AB00F054FA87
:100BF000174D06992A68136894684B4307995B1848
:100C00005B00E418049B5A1E0492002B13D0114B76
:100C1000114E9846059B0022009300212300404678
:100C20003768B8472B681A68049B5200A4185A1EEC
:100C30000492002BEED108B080BCB846F0BDC0468F
:100C4000A80F0020AC0F002034190020301900201C
:100C50003819002014920020B00F002010B5054B69
:100C6000054A064906481B68126809680068FFF7CC
:100C7000A1FF10BDA80F0020AC0F002034190020E8
:100C800030190020F0B5DE4657464E464546E0B5E1
:100C90001E0087B083468A4611A812A91400FFF7E8
:100CA0006FFF5F4D5F4F2B68320003933B681299D3
:100CB00002935D4B119898461B6801935B4B9946D4
:100CC0001B680093109B00F0CBF9002800D180E056
:100CD000B4465346119AD444002B00DA8BE01099A5
:100CE000129B09190491002C00DA79E0584601683A
:100CF0000591614502DC6046401A361A584604994F
:100D00004068884203DC091A1098411A109149463C
:100D100009688C46914204DD8A1A9244B6180A008A
:100D2000119141460968994208DD1098CB1A804616
:100D30009844E418434610930B0012913F68B01892
:100D40006744B84201DBC71BF61B10982D68C71813
:100D500049198F4202DB7F1AC11B1091002E38DD2A
:100D60001099002935DD05994C4359468F68304963
:100D7000544408686400016885684B439B185B0015
:100D8000ED18139B3F19DB0742D480235B020593C8
:100D900000230493109B5C1E139B9B0704D5230028
:100DA0004B435B00ED1849424B009946214BB0463E
:100DB0009A4643460093534638001E68059A2B0016
:100DC0000499B0475B461B684D445B00FF18013C2B
:100DD000EFD207B0F0BCBB46B246A946A046F0BD74
:100DE0005846109101681B1B129300240591614520
:100DF00000DD83E77FE7D21A002310999A4609198C
:100E00006646129B11920491002C00DB6EE7E7E727
:100E10005346F31A013B1B040493074B0593B9E7B0
:100E2000A80F0020AC0F002034190020301900203A
:100E300038190020B00F00200000FFFFF0B5DE469B
:100E400057464E464546E0B58BB00791824616A9F7
:100E500015A891461D00FFF793FE5E4E5E4F336866
:100E60005E4C03933B68169902932368159801938F
:100E70005B4B179A9B461B680093189B00F0F0F899
:100E8000002800D188E0149B1899180404F076F823
:100E900017990690280404F071F8524B169D1A68B1
:100EA0000590136892689C4690466B431598079985
:100EB0001B185B00984453461A684B4689465146B6
:100EC000534389684B44894621685B000024994458
:100ED0008D4211DA63464D1B069C6B436C435B00ED
:100EE000984423145A43189B52005B1B0D002404A2
:100EF0009144240C189316913368189AC9185619FE
:100F0000B1425EDC5B461E6800239B46B04209DAB4
:100F1000059A331A5A4393465A009044179A1596E5
:100F2000D31A17933B68179A934245DC199AD60750
:100F300005D5059A5E1E56435242B3440592199A4E
:100F4000960730D4A94227DD6246274F5200079208
:100F50005A464646BB462F004D469946089209918F
:100F60004B4600935B461B6828009846059A330061
:100F70000899C047069B01379C46079B64449C46E2
:100F800053461B68221453435B00ED18099B24044D
:100F90006644240CBB42E3D10BB0F0BCBB46B24666
:100FA000A946A046F0BD62464E1B013E5643524242
:100FB00076009446B044C5E71300199AD607BED50B
:100FC000B7E75B4631001E6800239B46B042A9DAB2
:100FD0009EE7C046A80F0020AC0F00203419002067
:100FE0003019002038190020B00F002010B5F0246F
:100FF0002401120222400F2409030A43044014432F
:101000001A01FF2313401C43A0B210BDF8B507001E
:1010100010200D00160005F0E7FB0400102200214F
:1010200005F0D6FB27606560002E02D0A660200088
:10103000F8BD7D43094B68009D420CD805F0D8FBF4
:101040000600012D03D400216A0005F0C1FB012335
:10105000A6602373EBE701204042EFE7FCFFFF3F70
:1010600030B504000598039D844665440020A542E0
:1010700011DBA218039CA2420DDB069C049AA44635
:1010800062448A4207DB049ACB180499D817D20F1E
:101090008B425041C0B230BDF0B5C646146800B5B1
:1010A000A046089C069EA44644460768B4443C19E2
:1010B000079D644500DD6446B74200DA3700E41B53
:1010C000E743FF173C4014600C681A68099FA21898
:1010D0007F19BA4200DD3A00AC4200DA2C00121B44
:1010E000D443E41722401A600368B34200DA3300A5
:1010F00003600B68AB4200DA2B000B6080BCB84683
:10110000F0BDC04610B5FFF7FFFB012010BDC04683
:10111000224BA0201A68012393402149C00510B535
:10112000445823420DD043501E490B8801331BB253
:101130000B80782B06DD012300225B420B801A4BCB
:101140001A7010BD194B1B6898680B881BB2002BD6
:1011500006DD0B881BB2013B1C01E31A1B01C01802
:101160000C883C23002C07D1A021C9058C46920194
:1011700062441060D361E4E70B8892011BB2783BB4
:1011800059424B413B215B428B43A021C9058C4610
:10119000783362441060D361D3E7C0462819002039
:1011A0000C040000C00F002016920020F4890020DB
:1011B00010B501F0E1FC10BDD021012209064B68F9
:1011C0001B0A1A42FBD1D021012209064B681B0AD7
:1011D0001A42FBD07047C046014B18787047C04692
:1011E00016920020174A1378002B00D07047012177
:1011F0001170154A1380154B1B68996813881BB230
:10120000002B06DD13881BB2013B1801C31A1B011A
:10121000C91810883C23002809D1A020C0058446A5
:101220000B4A1268920162441160D361DEE71388B1
:101230001BB2783B5A4253413B225B429343783383
:10124000EBE7C04616920020C00F0020F489002072
:1012500028190020F0B5CE46474680B5334B87B0FD
:1012600004000D0018683249984605F089FC802377
:101270005B020293C0231B030493030080271233F5
:10128000C2011B0313432B4AFF0513403B43039347
:10129000012306009946290020000093072201330C
:1012A000059705F08DFD244B244A0293049B2900E9
:1012B00013400493059A224B20001A40214B1343FC
:1012C00005930022C02305F0D3FCC0222900200092
:1012D000C02305F021FD049B07209B009B081F43B2
:1012E00043461968184B04979C4661444B1E99412C
:1012F000063100F0EDFC43461968134B06209C466E
:1013000061444B1E9941063100F0E2FC320002AB11
:101310002900200005F0A8FD4B46AB40226813438E
:10132000236007B0C0BCB946B046F0BDC40F002072
:1013300064E10010FFFFFF9F00010200FFFFF5C105
:10134000E0830FFC071810000000E0AF10B504F0B8
:10135000D3FE0B4904F085FE0A4905F05BF80A4B01
:101360000A491C6804F091FEFC21890504F076FE10
:1013700004F01CFF6040064B0004000C186010BD18
:101380000000C842333333408400054000FF7F47EC
:1013900084100540F0B5C646264B00B51E68040013
:1013A00030000F0004F0A8FE011C234804F059FE91
:1013B000051C200004F0A0FE011C281C04F051FEB6
:1013C000804604F0F3FEC5B2280004F09BFE011C29
:1013D000404604F040FE8321C90504F056FE04F0A7
:1013E000E5FE2D01154A3304C0B21B0C054395667A
:1013F0003800536704F080FE114904F032FE1149B1
:1014000005F008F8071C20000F4B70430F491D68BA
:1014100003F0DCFD04F070FE391C04F036FE04F02D
:10142000C5FE000468400A4B000C0004186080BC34
:10143000B846F0BDBC0F0020286B6E4D0000054083
:101440000000C8426666E63F7000054010270000B5
:1014500070100540D0231B065868704700B585B052
:1014600001F076F8064B074A029300230193064BDE
:10147000009301235B4201F061F905B000BDC04655
:10148000E015002018FCFFFF05110010F0B5DE4646
:1014900057464E464546002288218024E0B51A4B27
:1014A0001A4885B058509A671A5104341A511032AC
:1014B0005850DA670F3A84399A670C2000F008FC1C
:1014C000134B144A1B680D201B041B0C136002F005
:1014D0007FF80A2001F09AFA0F4803AB02AA01A98B
:1014E00000F0E2FA002803D10C480B4902F038F969
:1014F000039A0299019800F09BFAD0231B0600245E
:101500000126172798460EE000000540FFFF000067
:10151000840005408410054090D00300E8E00010EE
:101520000134202C13D03500A5402F42F8D00521DE
:10153000280000F0CDFB33004246AB40012193620E
:1015400028000022013400F0DBFB202CEBD1D02658
:10155000002404253606012C06D10521022000F0C6
:10156000B7FB01347562B5610134E4B2202CF2D1CD
:1015700005F03CFD1F211A2000F0AAFB00220021EB
:101580001A2000F0BDFB00211A2000F0CBFB9C23A9
:101590009846FE4BFE4D9B4643465A468C27EA50E2
:1015A000982000239422EB518146AB505E462B508D
:1015B00040462E5090268C38933A8246A8510421FA
:1015C000EA51023800F084FB88235846002180222B
:1015D000E850A967A9500432A950E8505046833A10
:1015E000E8670431AA67033800F072FB40465B46A7
:1015F00094212B500023EB516B50494658466B50B9
:1016000041460122685051460F20A951EA510C3938
:1016100000F05EFBDF49E04805F072FCD0270521B1
:10162000042000F055FB51463F0679626420B96101
:1016300001F0ECF951467136FF36796109200B391A
:1016400000F046FB7E620521052000F041FB7C6234
:101650000121062000F03CFB0121072000F038FBAF
:10166000012269467C61CC480A73BC6103A9BE6152
:101670000CF0EAFC7C61052001F0C8F936236946CC
:1016800001220B73C448BC6103A9BE610CF0DCFCF1
:101690007E610122C149C0480CF0D6FC3523694661
:1016A0007C6101220B73BC48BC6103A9BE610CF0D4
:1016B000CBFCBB4B7E6119000122B74898460CF069
:1016C000C3FCB22369467C6101220B73B248BC6142
:1016D00003A9BE610CF0B8FC41467E6105220431CD
:1016E000AD480CF0B1FC3A2369467C6101220B73D2
:1016F000A948BC6103A9BE610CF0A6FC7E61012271
:10170000A849A5480CF0A0FC262369467C6101226B
:101710000B73A148BC6103A9BE610CF095FCA24B00
:101720007E61190001229C4899460CF08DFCB7237C
:1017300069467C6101220B739748BC6103A9BE61B5
:101740000CF082FC7E610122984993480CF07CFCED
:10175000BB2369467C6101220B738F48BC6103A9DE
:10176000BE610CF071FC7E61012291498A480CF047
:101770006BFCC02369467C6101220B738648BC6107
:1017800003A9BE610CF060FC7E6101228949824898
:101790000CF05AFCC22369467C6101220B737E481F
:1017A000BC6103A9BE610CF04FFC49467E61012279
:1017B00079480CF049FCC32369467C6101220B7314
:1017C0007548BC6103A9BE610CF03EFC7E6101223C
:1017D000794971480CF038FCC42369467C610122C8
:1017E0000B736D48BC6103A9BE610CF02DFC7E61DA
:1017F0000122724968480CF027FCD02369467C61BD
:1018000001220B736448BC6103A9BE610CF01CFC8F
:101810007E6102226A4960480CF016FCC6236946C4
:101820007C6101220B735C48BC6103A9BE610CF0B2
:101830000BFC7E610122634957480CF005FCE02354
:1018400069467C6101220B735348BC6103A9BE61E8
:101850000CF0FAFB7E610E225B494F480CF0F4FB62
:10186000E12369467C6101220B734B48BC6103A9EB
:10187000BE610CF0E9FB7E610E22544946480CF033
:10188000E3FB212369467C6101220B734248BC6162
:1018900003A9BE610CF0D8FB7C61732001F0B6F89F
:1018A0001123694601220B733B48BC6103A9BE6149
:1018B0000CF0CAFB292369467C6101220B73364870
:1018C000BC6103A9BE610CF0BFFB2A2369467C61A1
:1018D00001220B733048BC6103A9BE610CF0B4FB5C
:1018E0000C217E61414404222B4889460CF0ACFB5C
:1018F0002B2369467C6101220B732748BC6103A935
:10190000BE610CF0A1FB49467E61042222480CF026
:101910009BFB2C2369467C6101220B731E48BC6132
:1019200003A9BE610CF090FB7C610820BC617E6164
:1019300000F00CFA80235B00254CBB62254F216828
:101940003868FFF787FC3A68234900265018411E83
:101950008841224BC0001E602368214CC018C1037F
:101960000C43A02104339B00D218C9050E604A60C5
:101970008E600C6101241B4B01211C6000F05EFA9B
:101980000B20194900F074FA30E0C046FFFF000058
:101990000000054000127A0000C003401CE1001066
:1019A00094E1001020E1001024E1001028E1001073
:1019B0002CE1001030E1001034E1001038E100109B
:1019C0003CE1001040E1001044E1001054E100103F
:1019D000208E0020C40F00200000E0AF2819002056
:1019E00019004000042400501111001001210B20A7
:1019F00000F024FA5B466E66EE662E676B67534610
:101A00000421AB660B206C6600F062F9064B074AB6
:101A10001B681B0C1B04136005B0F0BCBB46B24630
:101A2000A946A046F0BDC0467000054070100540B4
:101A3000F0B583B005000E00140000F0A5F90028F1
:101A400001D003B0F0BD154F01223B0001210097EA
:101A5000053001F07FFB33002A000094012110487B
:101A600001F060FD21002800714303F0AFFA04008B
:101A70000C4B002200930221042001F06BFB230099
:101A8000002201210094052001F064FB3B000222AA
:101A900000210097062001F05DFBD2E7006CDC021C
:101AA00000800240001BB700F0B5DE464E464546BA
:101AB0005746E0B5060085B004209A468B46019251
:101AC00001F02AFDFA21890003F080FA3223FF3366
:101AD00098467D4B850099465B4602935346824665
:101AE0002D18AD010393794BEB184B450AD901230F
:101AF0005B429C465346E044ED1A4346002BF2D12C
:101B000000208BE03121280003F060FA0724312700
:101B1000864263D0671EA34634003E005F4677438B
:101B20002800390003F052FA84424CD0731E00930F
:101B3000012E00D1B1E05B46FF1A3900280003F006
:101B400045FA844256D0B31E0093022E00D1AFE076
:101B50005B46FF1A3900280003F038FA844264D04B
:101B6000F31E0093032E66D05B46FF1A390028004F
:101B700003F02CFA844269D0331F0093042E6BD0FB
:101B80005B46FF1A3900280003F020FA84426BD02C
:101B9000052E6DD02800F91F03F018FA844200D1F9
:101BA00071E00623242128009B46242703F00EFA27
:101BB000844211D005265F4677432800390003F0A0
:101BC00005FA8442B2D10029B0D1029B5F469B4600
:101BD000039B34009A4615E026005C463900280035
:101BE00003F0F4F9002995D1029B27009B46039B43
:101BF0009A4607E00029A6D1029B5F469B46039BBD
:101C0000009C9A465B466A01521B92005219D20010
:101C10001A60019B01201F6053461C6005B0F0BC98
:101C2000BB46B246A946A046F0BD0029E4D0F31E4B
:101C30000093032E98D10323092128009B460927EE
:101C400003F0C4F98442C7D0022667E70029D3D045
:101C5000331F0093042E93D1042310279B462B0996
:101C60009C42B9D0032659E70029C5D0052E91D151
:101C700019212800192703F0A9F9A04221D0052332
:101C800004269B464AE7002900D08AE7029B5F466C
:101C90009B46039B01249A46B4E72600AC4200D041
:101CA00025E7029B01279B46039B01249A46A9E74F
:101CB000022304279B46AB089C4200D18CE70126F7
:101CC0002CE72600052489E750F80C00508EF4FF1D
:101CD000094A10B594464024830063441A68C00042
:101CE0006240803414408022520113431C60034B35
:101CF0009C466044416010BD04C00140004001406A
:101D0000074B80009C4660440368C90092000A4368
:101D10005A400C231A4080235B0103431A6070472A
:101D200004C00140084B80009C466044002905D057
:101D3000802340229B0103431A607047C023402246
:101D40009B0103431A60F8E704C001400123D0223D
:101D50008340120693629361094A402194468300AE
:101D600063441A68C0004A40803111408022520109
:101D700013431960034B9C4605236044436070473E
:101D800004C0014000400140024B18688007C00FAA
:101D90007047C04600C00640EFF3108072B6034A99
:101DA0001368002BFCD0BFF35F8F70472C0100D06D
:101DB000BFF35F8F0022024B1A6080F310887047D8
:101DC0002C0100D070B5EFF3108C72B60D4D2B685E
:101DD000002BFCD0BFF35F8F0724CB08C618C05C74
:101DE00001230C40A3401C000440034207D11843C8
:101DF0003070BFF35F8F2C608CF3108870BD1000C3
:101E000001F0AEFC2C0100D00021044B044ABFF3CA
:101E10005F8F02C39342FAD17047C046000100D0E1
:101E2000800100D0044A1078431CDBB2172B00D984
:101E3000102313707047C046C80F00200123834051
:101E4000002904D0034A1360034A13607047034A11
:101E50001360FBE780E200E000E100E080E100E0E9
:101E6000024B10309B688000C058704700ED00E0C6
:101E700070B50D00EFF3108672B60F4A1368002B91
:101E8000FCD0BFF35F8F0D4B10309B6884001B5953
:101E90000B4A934203D09D4201D001F079FC074BDD
:101EA0009B681D51BFF35F8FBFF35F8F0022024B12
:101EB0001A6086F3108870BD240100D000ED00E0A8
:101EC000CD010010F0B5DE4657464E464546E0B51A
:101ED0000C0083B0EFF3108872B65D4A1368002BD4
:101EE000FCD0BFF35F8F5B4B5B499A6803001033F4
:101EF0009F00D5598D4239D0A5424AD0574EAA1BD2
:101F00002F2A33D801229246824091464846544AAD
:101F10001268104001904846524A1060BFF35F8F2C
:101F2000EFF305829346002A35D0934201D001F0A9
:101F30002FFC2A0053469A439068844208D175E0EA
:101F40004B005B189B00F3189868A04234D01A002D
:101F5000062151560029F3DA844253D0019B002B0D
:101F600026D04A46404B1A603D4B1A60394B9B685D
:101F7000DD51BFF35F8FBFF35F8F0022344B1A60D8
:101F800088F3108803B0F0BCBB46B246A946A04611
:101F9000F0BD0D00EAE72A0053469A439068844258
:101FA000D6D1062010561300002809DA0D0031E0C2
:101FB0004A462C4B1A60D9E706201856002822DB27
:101FC00042001118890074188A46A1689960E17965
:101FD000D971062161569971002925DBA488F11A6F
:101FE0006405241554440919E0240905490D240207
:101FF0002143998013181D4A9B001178F318997199
:102000001070ABE713005946002914D1FF319171CC
:102010001749918015490A789A71164A9B1B5B41B2
:102020005A43120D0A7099E71349E2E70620105649
:1020300013000028C4DA114A1149D21A083A500292
:10204000400D014399800F4952080A43DA8085E721
:10205000240100D000ED00E0CD010010CC0F0020E5
:1020600000E100E080E100E080E200E01992002061
:1020700001BDFFFFAAAA000001BD0000061000205C
:1020800000F0FFFF00F8FFFF70B5EFF305810124BA
:102090000443EFF3108C72B6214A1368002BFCD076
:1020A000BFF35F8F1F4B05001F4AED1A6D416A4356
:1020B000120D1E4D8900AE6852B27658A6421CD051
:1020C0000621595691421CD012215956914222D0D4
:1020D0001E215956914220D02A215956032491425B
:1020E00010D0134B19781A708171BFF35F8F0022E3
:1020F0000B4B1A608CF3108870BDAB680D4C5C50B4
:10210000EFE700246100091989005B18FF2199712C
:1021100009499980E5E70124F4E70224F2E7C04683
:10212000240100D0CC0F0020AAAA000000ED00E09E
:1021300019920020CD01001001BDFFFF054B064A9A
:102140001360064A136053609360D3601361536158
:10215000936170478080808000E400E004E400E048
:10216000024B9C4661448900016070474000003486
:1021700010B50400FFF756FE01002000FFF7F0FF46
:10218000FF232371BFF35F8F10BDC04610B504005D
:10219000FFF748FE01002000FFF7E2FFFF23A380C6
:1021A000BFF35F8F10BDC04683680B4810B58446EF
:1021B000614462441201090159189B185C684A681D
:1021C0000120944201D802D00020C0B210BD1A688C
:1021D0000B689A42F9D8F7E7FFFFFF0F10B5080028
:1021E0000B690C009847002802D02068616810BD78
:1021F000E06000210020FAE70A4B1968EFF3108035
:1022000072B60A68002AFCD0BFF35F8F1B68BFF369
:102210005F8F00221A6080F3108840BF00200021E9
:102220007047C04600920020F8B5574645464E46D6
:10223000DE46E0B598460CAB1C780DAB1B7807006A
:1022400091469A460568002C59D1AC7B002C3BD0B6
:10225000660029683619033E89194B78AB73002B49
:1022600000D1EB7300238B704B700B702D4BE21879
:10227000BB6812019B184A461A6042465A600A9A85
:102280009A600B9ADA6000238B704B700B706B7B3B
:102290009B46002B26D022006B685946A8689847B9
:1022A0005B465B005B442A68033B002812D058461B
:1022B0009619B070D118D35C002B00D073705B46B8
:1022C0000C706B735C450ED0F0BCBB46B246A946A1
:1022D000A046F8BDD3189C709119925D002A1CD1BC
:1022E0005B460B706C734A464346387D00F0D8FC61
:1022F000051E0AD10E9B002BE6D01D70E4E7660098
:1023000029683619033E8919B0E75346002BF1D1ED
:102310002100386800F0E2FEECE75A705B460B7073
:102320006C73E0E7FFFFFF0FF0B5DE4657464E4601
:1023300045460023E0B58BB00893674B8200D45824
:1023400000239B46099000F017FC02000B00606818
:10235000EFF3108A72B6564601680029FCD0B246E7
:10236000BFF35F8F21684F7B8C46002F2ED0A5686E
:102370005A49A946791809018944494608684968B3
:1023800005000E00AD1A9E41002E5FDD02000B001D
:10239000099800F085FC002300229946002306924C
:1023A0000793002398466368BFF35F8F5A461A600D
:1023B0008AF310884346002B12D10028C3D10BB0FA
:1023C000F0BCBB46B246A946A046F0BD00230022A1
:1023D0009946002306920793002300209846E2E7DF
:1023E000089B494618023843C047626805000E0042
:1023F000EFF3108A72B61368002BFCD0BFF35F8F27
:10240000002E40DB2B00334302D02369002B55D133
:102410002368D97B002905D01A6848004118521852
:10242000033A57709A7B002A00D19F73DF73E268EA
:10243000013FD35D0133D3555B4623616368BFF32E
:102440005F8F5A461A608AF310887CE7002E01D10C
:10245000002D9BD10021604600F0BEFD4B461A685E
:102460005B68069207934B469B6898464B46DB6831
:102470009946E368DB19013B1B7808931B02034371
:10248000236100208FE72369002BC1D0069A079BA8
:102490008021521BB34109068B4202D30122104B0B
:1024A0005242002104910131039149460191414674
:1024B000200002970091FFF7B7FEBDE700F05CFB3C
:1024C0002A00330012184B41802109068B42E8D3C1
:1024D0000122034B5242E4E7EC910020FFFFFF0F83
:1024E000FFFFFF7F10B5144C6368002B04D00A2156
:1024F0001248FFF735FE10BD2300114A1021206855
:1025000000F086FC032000F02BFB032000F036FCDB
:1025100003200C4900F07EFBFFF784FC0A4B9C462D
:1025200003232375D0231B061B6860446375074B88
:1025300080006060DC60DAE7141000200092002068
:10254000A92100102923001040000034EC91002044
:102550000048704714100020F0B557464E464546D7
:10256000DE46E0B585B0019310AB1B7806000393FF
:1025700000239A46984600927268EFF3108B72B669
:102580001368002BFCD0BFF35F8F3568AC7B002C49
:1025900000D16DE067002B683F19033FDB195A78C3
:1025A000AA73002A00D1EA73484AA118B268090147
:1025B000521800980199106051600E9991600F991E
:1025C000D16042469A705A701A706B7B9946002B04
:1025D0006BD022006B684946A86898474B465B0061
:1025E0004B442A68033B002856D04846D719B87098
:1025F000D118D35C002B00D07B704B460C706B73F2
:102600004C4553D0F3681B19013B18787368BFF32E
:102610005F8F42461A608BF310885346002B08D117
:102620000002204305B0F0BCBB46B246A946A04616
:10263000F0BD039B002B46D00E9B00200F999847BE
:1026400003000B433FD004000D1E1ADA009A019BD1
:10265000121BAB410092019380221206934204D3D5
:1026600001231B4C5B4200930194039B9A4683E732
:102670007368BFF35F8F1C608BF3108801204042AA
:10268000D0E700F079FA8022001969411206009023
:1026900001919142E9D3E3E7D3189C70D119D25D3F
:1026A000002A00D05A704B460B706C73307D009A34
:1026B000019B00F0F5FA82460028A3D02100306883
:1026C00000F00CFD9EE70020ACE7C046FFFFFF0FC7
:1026D000FFFFFF7FF8B50B0004004168EFF31085A2
:1026E00072B60A68002AFCD0BFF35F8FFF22206811
:1026F000D9B2467B1A408E4207D006685700BF18F1
:10270000F619033EB678002E10D0E6681B0AB21800
:10271000013A1278DBB29A420DD000206368BFF311
:102720005F8F00221A6085F31088F8BD22699A42F3
:10273000F3D12661F1E700F0D1FCEFE7F0B55746A1
:102740004E46DE4645461100E0B585B006009C4683
:10275000109F194300D1E7E06146DB170193009316
:1027600053401C00019B4B401D0000980199241A06
:102770008D4163460E997B600F9BBE607B61396122
:102780003A6000F0F9F98023001969411B060090B6
:102790000191994204D30123684C5B420093019458
:1027A00000239846664B1097039300239946109B8D
:1027B0003700464698467A68EFF3108B72B6136876
:1027C000002BFCD0BFF35F8F3D68AC7B002C00D1A9
:1027D00078E063001B19033B1A00944602932B68B0
:1027E00063445A78AA73002A00D1EA73554AA118A3
:1027F000BA68090152180098019910605160039954
:1028000091604146D1604A469A705A701A706B7B4B
:102810009A46002B00D17AE022006B685146A868E6
:10282000984753465B0053442A68033B002864D012
:10283000D1188C465146029810188170D35C002B39
:1028400000D0437063461C7053466B73350054458B
:102850005ED0FB687A681B19013B1B78BFF35F8F62
:10286000494611608BF31088002D0CD147461B029E
:10287000234301352800FB6005B0F0BCBB46B246DF
:10288000A946A046F0BD434640461B699847061E30
:1028900024D043460CCB100018434BD014001D1E0F
:1028A0001FDA009A019B121BAB4100920193802218
:1028B0001206934200D27EE70123204C5B42009334
:1028C000019478E73E0047467368BFF35F8F1C6052
:1028D0008BF31088012300255B42CBE7474600239A
:1028E000C8E700F049F980220019694112060090FA
:1028F0000191914200D25EE7DEE70298D3189C7006
:102900001118125C002A00D05A7053460B706C7379
:10291000387D009A019B00F0C3F9051E99D0210073
:10292000386800F0DBFB94E7002301240025012236
:102930009C461EE74746350000239BE7FFFFFF7FCD
:10294000DD210010FFFFFF0FF0B504000D0006268B
:102950007642F717C64636196F4100B584B08F42EC
:1029600014D811D000F008F932003B00121A8B4144
:10297000002B15DC002B3ED02000290000F03AF996
:1029800004B080BCB846F0BD8642EBD900260027D3
:1029900000F0F2F832003B00121A8B41002BE9DD07
:1029A000002302930193154B3200009314483B001F
:1029B000FFF7D2FD0028DFDB00239846BC46114A12
:1029C000114F7B6A9C4504D8B96A8E42D4D99C4584
:1029D000D2D11168EFF3108072B60B68002BFCD0D7
:1029E000BFF35F8F1368BFF35F8F4146196080F3B9
:1029F000108820BFE5E7002ABED0D1E7F9210010FA
:102A000014100020009200200040054070B5060020
:102A100000F0B2F8FA2204000D000023300000217B
:102A2000920003F0FBFA8023001969411B069942CA
:102A300002D3012002494042FFF786FF70BDC04625
:102A4000FFFFFF7F70B5EFF3058305000C0084B036
:102A5000002B0FD0104A0020536AA34203D3926A7E
:102A60000130AA4201D304B070BD1B1B5A1E934112
:102A7000D8B2F8E7094E02930193094B0200009384
:102A800030000B00FFF768FD011EE3DD20BF3000C2
:102A9000FFF720FEDEE7C04600400540141000208E
:102AA000F9210010F0B5EFF30582D6464F464646B1
:102AB0001000C0B51038EFF3108872B6214C2368AF
:102AC000002BFCD0BFF35F8F0123190081401E4D06
:102AD0001F006963AA461D4D29601D4D2E78AC4626
:102AE0003500C5402F402B4215D053465F6A194B25
:102AF0008500EB589F4218D36246174B8E43EB5824
:102B00001670BFF35F8F0022226088F31088002BBD
:102B100006D0984704E0BFF35F8F276088F31088E2
:102B2000E0BCBA46B146A846F0BD0C4B92009C46AC
:102B3000624413681360BFF35F8F0023236088F340
:102B40001088EDE7280100D0004005403C700540AA
:102B50001A920020049200206C910020D03F054082
:102B600010B5034B01001800024AFFF72BF910BD06
:102B700018920020B0610110034B596A0A00986A4C
:102B8000596A8A42FAD170470040054070B5040086
:102B90000D00174A536A1900966A536A8B42FAD19C
:102BA0003000190024184D41AB4216D813D0104BF9
:102BB0002A005B6A9D4203D90D494B6A9342FCD3BC
:102BC000934207D10A4A02E0516A994202D1916ABE
:102BD000A142F9D370BDA642E9D9054B5B6A1C003E
:102BE0005A1CEFD0012201246442E5175242E3E768
:102BF00000400540064A536A9942FCD807D1044B6D
:102C000002E05A6A914202D19A6A8242F9D370472D
:102C10000040054070B504000D00EFF3108672B659
:102C20001A4A1368002BFCD0BFF35F8F002D1BD016
:102C30002000FFF715F9164981420AD02000FFF75E
:102C400017F901212000FFF7F9F80123A340114AE9
:102C50001360114BA400E550BFF35F8F00220B4BB4
:102C60001A6086F3108870BD0121A1400A4BA200B2
:102C7000D5500A4B20001A788A4305491A70FFF78D
:102C800021F900212000FFF7D9F8E5E7280100D05D
:102C9000A52A0010386005406C9100201A9200208F
:102CA000F0B54F46D6464646C0B507002E4C616A81
:102CB0000D00A66A616AA942FAD18B4208D805D0F4
:102CC0000120E0BCBA46B146A846F0BDB242F7D9F1
:102CD000EFF3108A72B6254801680029FCD0BFF3D3
:102CE0005F8F0125BD4022491F4C884609788946DF
:102CF0002943C9B28C46414660460870391D890097
:102D000065630A511B49B8004350216A00202942DB
:102D100019D0616A0800A66A616A8142FAD18B42C1
:102D200019D801D1B24216D8CC450BD00E4B1F2278
:102D30001D625D6301233A4093400F4A136043468E
:102D40004A461A700120BFF35F8F0022074B1A60BA
:102D50008AF31088B5E70020BFF35F8F0022034B92
:102D60001A608AF31088ACE700400540280100D0C3
:102D70001A9200200492002080E200E0EFF3108C11
:102D800072B60A490B68002BFCD0BFF35F8F01239A
:102D90008340074A0748136202789A430270BFF3E0
:102DA0005F8F00230B608CF310887047280100D0E0
:102DB000004005401A92002070B506000D00140076
:102DC00000291DD0002A12D07368806898476200DD
:102DD0006B0012195B193168033A033B002808D0D5
:102DE0008A189570C818CB5C002B0BD10470280092
:102DF00070BDCB189C7088188A5C002A05D10570BC
:102E00002000F5E753700470F1E75A700570F7E79A
:102E100010B583600023CCB2437301334260047366
:102E20008373C4730068421C012C05D90133DBB2E3
:102E3000137003329C42F9D1FF230B405A00D31880
:102E4000C01800230338437010BDC04670B505009C
:102E50000C1E07D0630001681B19033BCB185A787E
:102E6000002A01D1200070BD5000801803380918D5
:102E700000204E784870210058702800FFF79CFF12
:102E8000310004002800FFF7E1FF0600002C20D0ED
:102E90000028E7D0320021006B68A86898477200CC
:102EA000630092191B192968033A033B002808D0D4
:102EB0008A189470C818CB5C002B00D05370067031
:102EC000D0E7CB189E7088188A5C002A00D05A7010
:102ED00004703400C6E7C046F0B557464546DE46A6
:102EE0004E46E0B50D006F0001687F19033F0400F6
:102EF000C85D83B00192CA19002850D043001B1846
:102F0000033BCB185E78B446002E1AD1019E002EEA
:102F100042D0E67B002E04D073009B19CB18033BF4
:102F20005D70A37B002B00D1A573E57300282FD122
:102F30000023537003B0F0BCBB46B246A946A0467E
:102F4000F0BD72006244033A8A1851788846002125
:102F5000517089465970320001002000FFF72CFFA4
:102F600043468246002B07D05B0021684344033B65
:102F7000CB185A78002A16D1424651462000FFF756
:102F80001BFF2168019BCA19002BC2D10028CFD09A
:102F900043001B18033BCB1800219970C8E7019B25
:102FA000002BB6D1C4E750008018033809184878C0
:102FB000834648464870587041462000FFF7FCFEA3
:102FC000594680462000FFF741FF4146020020009D
:102FD000FFF7F2FE8046CFE7F0B557464546DE469E
:102FE0004E46E0B583B00191457B04006F00006858
:102FF0007F19033FC15DC219002952D04B005B18F5
:10300000033BC3185E78B446002E1CD1019E002EEF
:1030100044D0E67B002E04D073009B19C318033BF9
:103020005D70A37B002B00D1A573E573002931D11E
:10303000002328005370617303B0F0BCBB46B24656
:10304000A946A046F0BD72006244033A8218507847
:103050008046002050708146587032002000FFF7F3
:10306000ABFE43468246002B07D05B0021684344F9
:10307000033BCB185A78002A17D14246514620000C
:10308000FFF79AFE019B01002068C219002BC0D1F6
:103090000029CDD04B005B18033BC318002098706B
:1030A000C6E7019B002BB4D1C2E75000801803385B
:1030B00009184878834648464870587041462000B1
:1030C000FFF77AFE594680462000FFF7BFFE4146D3
:1030D00002002000FFF770FE8046CEE770B50500C5
:1030E00000292CD0437B8B422ED04C000068641802
:1030F000033C0419A278002A21D053009B18033BFB
:10310000C25CC6188A4202D11BE0002A08D05300D4
:103110009B18033BC3185A788A42F6D162785A70DA
:10312000002301222800A3706370FFF7D5FE697B9E
:1031300002002800FFF740FE6873012000E0002035
:1031400070BD63783370EBE701221900FFF7C4FE0E
:10315000F2E7C046F0B545464E46DE465746E0B576
:1031600083B016000C9A050088469A4200D973E095
:103170001A0E93461B0218000193594600230C9A1D
:1031800001F062FF354B6C009C466419A400644456
:1031900063680700834200D260602B1FDBB2994650
:1031A000012B34D9C02380229B01234312011A60D2
:1031B0002B4BAD0059599A46002905D0586901F0AA
:1031C00005FF01300138FDD1226873015340E02230
:1031D0001A4080235B0123431A604A46012A2ED9F4
:1031E000802380229B01234312011A605946002349
:1031F0003A000198676001F027FF534658510120BB
:1032000003B0F0BCBB46B246A946A046F0BD43465B
:10321000012BC7D1C02303229B0123431A60023A2A
:10322000A3681A42FCD0226873015340E0221A407E
:1032300080235B0123431A60094AAD00924642464F
:103240002168514003220A401A60012243469A40F5
:10325000A3681A42FCD0C3E70020D1E700800040F9
:10326000F815002010B50C2082B000F0BFF9FEF771
:103270008BFD002810D0864B86488649864A186008
:1032800059609860D960186159619861D961186274
:1032900059625A6202B010BD804CA06700F0AEF9CE
:1032A00001227F4B1A60636C012BFCD103227D4B02
:1032B0001A607A4A936B012BFCD1013301217A4ABF
:1032C0007A480093043300F02DF90523784A0093DF
:1032D0000121784800F026F9774B5A68FF2A02D876
:1032E000802252005A6080226E4B694C12011A6093
:1032F0002169002905D0606901F068FE01300138BC
:10330000FDD1E0226C4B6D4819680A400260022230
:103310001968514001320A40042102609A68114242
:10332000FCD08021664A09011160802252005A6057
:10333000644B2361644B5968FF2900D85A6003220B
:103340000121574B1A60604A93681942FCD0E02370
:10335000106803405D480360126803234A4002215D
:103360001340594A036093681942FCD08021584B9E
:10337000090119608021574B490051606361564B28
:103380005A68FF2A00D859608022544B12011A60F3
:10339000E169002905D0606901F018FE01300138AB
:1033A000FDD1E0234C4A11680B404D490B60802150
:1033B0004C4B090119608021364B49005160E36193
:1033C000494B5A68FF2A00D859608022474B1201A6
:1033D0001A60216A002905D0606901F0F7FD01300B
:1033E0000138FDD1E023404A11680B4040490B6091
:1033F0008021404B0901196080235B0053608022CB
:10340000244BD20223623C4B5968914200D25A604D
:1034100080223A4B12011A60616A002905D0606966
:1034200001F0D4FD01300138FDD1E023324A1168AA
:103430000B4033490B608021324B09011960802316
:10344000DB025360144B63622F4B5A68FF2A02D889
:10345000802252005A6080222C4B12011A60A1690E
:10346000002905D0606901F0B1FD01300138FDD1BE
:10347000E023254A11680B4025490B608021254B2C
:103480000901196080235B005360124BA36101E7BF
:10349000F8150020006CDC021BB700000080004023
:1034A0003CB0004030B00040002F6859008002401E
:1034B000008C864700C002403080004030900040C1
:1034C00030A00040001BB7003C8000403C90004012
:1034D0003CA00040405973075480004054B0004065
:1034E0005490004054A000406080004060B0004014
:1034F0006090004060A000406C8000406CB00040D4
:103500006C9000406CA000404880004048B00040F3
:103510004890004048A00040014B8000C0587047D0
:10352000F8150020F8B504000C2017001E000D004F
:1035300001F04CFD43011B1A9901C91AC900091871
:103540008901380001F042FD069B37041B031F432D
:103550002368002B22DB1A4B1A4EE218531E9A41A5
:1035600080239B019C465242120B174B120362446C
:103570001A60164B1A601300B1688B43FBD1C0234D
:10358000221D9B01134321222560A0601A6022683E
:10359000002AFCDA0822E7601A60F8BD3F2322689F
:1035A0001340AB42D7D1A3681B051B0D8342D2D178
:1035B000EE22E368D2021340BB42CCD1EDE7C04615
:1035C0000040FDBF00C0004000E0004000F00040AF
:1035D000044B00011B68044A5840F0230340136069
:1035E0007047C04600400640005006408023024A13
:1035F0009B000343D362704700800540AA23064A1C
:103600001B0113602F230549D360054B19605368D4
:10361000002BFCDA7047C0460040024000B0FA00C0
:10362000006002402C4B2D4A70B51A602C4A2D4B7D
:103630002D491A6014008B689C43FBD12B4D2C4EF6
:10364000B54208D2013E761BB60808CD9847230044
:103650000134B342F9D1FFF705FE264A214B1A6027
:10366000214A9368DB43DB01DD09002BF9D14022BD
:10367000214B224C224E9A675A671A67DA66B44287
:1036800008D223682000002B20D00834FEF77EFDEE
:10369000B442F6D31B4C1C4EC022B168200003F08C
:1036A0009DF8B460FEF7B0FBFEF748FDFEF71AFF89
:1036B000164C174EB44208D2013E361BB60808CC51
:1036C00098472B0001359E42F9D170BD0834FEF7B2
:1036D0004FFDB442D5D3DDE700E00040BFCDFBFE97
:1036E000FE7F3C0000F0004000C00040BC15002000
:1036F000CC150020FFFFFF0100F00140B4150020B1
:10370000BC1500200000002000ED00E0CC150020DA
:10371000DC15002000BEFDE7094A03001068002800
:1037200005D00849C3188B4207D813607047064874
:103730000449C31810608B42F7D901204042F5E7D5
:10374000C8910020000004201C9200200020704737
:10375000012040427047C04610B5FFF7DBFFC0466E
:103760000FB400B5084883B003F0E4F8049B002BC5
:1037700007D005A91800019101F0A8FB034803F048
:10378000D9F80120FFF7C6FFD4610110E4610110F0
:1037900010B50148FFF7E4FFE86101109A4200D23A
:1037A000885470477047C046F8B55746DE464E46C7
:1037B0004546E0B599460A9B07009A460D9B884608
:1037C00093460B9C9B073BD10C9B9C423DD21E1BFE
:1037D0000B9415000C005E442A004B460135210075
:1037E0002020B847B542F7D1A0460B9C002C20D032
:1037F000454636195346321B013C185D29004B469D
:10380000B847002CF6D12B00350098460D9B9B073E
:103810000FD55B46EC1A0C9BA3420AD94646984644
:103820002A004B46310020200134B8470135444579
:10383000F6D32800F0BCBB46B246A946A046F8BD68
:1038400016001500002CD3D1E0E71600002CCFD1D4
:103850001500EEE7F0B54F464646D646C0B584B0F3
:1038600098460EAB1B7894469946129B0D9C109F70
:10387000119E9A0725D4002E65D1BC4221D2012287
:103880001A409246202C00D1E9E00C9A551E3022B5
:1038900002E0202C00D17BE001342A55A742F8D861
:1038A0005246002A0DD0B4420BD20C9A551E30223B
:1038B000202C02D171E0202C2DD001342A55B442A5
:1038C000F9D1DA063CD55A052ED4002C28D10F9A0E
:1038D000102A00D1B6E0022A00D1BCE030220C9CB4
:1038E000227001244A46002A65D15A0700D499E083
:1038F0002B220C9D2A55013403930C9B62460093A6
:10390000029643460194FFF74FFF04B0E0BCBA466D
:10391000B146A846F0BD2024DA06EDD55A0503D4F9
:10392000A74266D0B44264D00F9A102A71D0022AFE
:1039300057D0202CE0D02200013430250C9FBD54FC
:10394000202CD9D0CEE7012215001D40AA461A42EC
:1039500036D04A46002A4AD10C321A4247D1BC42DC
:10396000A1D2202C91D1202E17D82024DA06C3D53D
:103970005A051BD4202F01D0202ED5D11F220F9DF8
:10398000102D6FD0022DD8D162250C9FBD54D0E7E9
:103990005246002A79D0202EBDD92024DA06ABD594
:1039A0005A0503D4202FE9D0202EE7D00F9A102AF1
:1039B000A2D12024A0E72D220C9D2A5501349BE79B
:1039C000BC4200D37DE7202C00D05EE7DA06F0D5BC
:1039D0005A05EED4202F62D0202EEAD134001F22C7
:1039E000CDE7202C00D187E722000134CCE7013E4F
:1039F000B5E7621E012CC2D10F9A102A00D06AE7E7
:103A00009A063BD558220C9C2270283A62700224F8
:103A100068E79A060ED4202CCBD078220C9D2A552C
:103A2000013486E71A0700D466E720220C9D2A5548
:103A3000013461E7202CBCD058250C9A121915705E
:103A4000013476E79A0608D558220C9C2270302261
:103A50006270022446E76032F7E77822F5E7002A31
:103A600083D1B3E7A21E013C9D0603D478250C9FA9
:103A7000BD5460E758250C9FBD545CE778220C9C30
:103A80002270483A627002242CE7DA0600D433E749
:103A90005A058BD4202F00D044E71F226FE73C004B
:103AA0001F226CE710B5002800D110BD02F0F6FE11
:103AB000FBE7C046F0B557464E464546DE46E0B504
:103AC00099B08246894690460893229A239B10001B
:103AD000190001F03CFD002800D0CDE02298239988
:103AE0000122D94B524201F02DFD002800D0C3E045
:103AF000229823990122D54B524201F015FD00284E
:103B000000D0B9E0229823990022002301F00CFD97
:103B1000002800D0F1E1229E239F8023269ADB001B
:103B20001A400D92269A1A4201D10623249380232B
:103B3000269A1B011A403B0093460996334300D056
:103B4000B3E0002A00D0C2E1002300240A930B94C2
:103B5000002304250993259B0024AB4200D95C1B5C
:103B60000223269A1A400C92269A134203D06B42E3
:103B70006B415B421C40099B002B07D00A9A0B9BB0
:103B80003000390001F06FFC06000F0022982399E5
:103B90000022002301F0C8FC002803D08021090680
:103BA0007B181F00269AAA4B009601971340089E87
:103BB0000493249B039402934246330049465046A3
:103BC00000F0AAF90400002D67D02020269A49466B
:103BD000024013005A4253415B42621C18400A9251
:103BE000330022004530D047099A6F1ED317D418EE
:103BF0005C40D30F9B46002501E0202D13D008AA7E
:103C000094461F23200063440A2101355E1901F008
:103C1000DDF93031317020000A2101F0D7F926009A
:103C20000400092EE9D805230693002304930A33E0
:103C300003935B46089E029310AB0A9A0093494691
:103C40003300504605970195FFF704FE0C9A0400D7
:103C5000002A22D04246851A259AAA421DD9B0468A
:103C60005746160022004346494620200135B847F2
:103C70000134AE42F6D810E0269B42460493259BC1
:103C800049460393249B50460293229B239C009316
:103C90000194089B00F040F90400200019B0F0BC2A
:103CA000BB46B246A946A046F0BD6A4B78009C468A
:103CB000400D604401F05EFC674A684B01F0F1FB87
:103CC000674A684B01F0C6FB674A3B031B0B1A436C
:103CD00004000D0009981100644B002201F0B1FBB3
:103CE000634A644B01F0DDFB02000B002000290059
:103CF00001F0B0FB01F056FC099001F03BFC5E4A7C
:103D00005E4B04000D0001F0CCFB00225C4B01F087
:103D1000A1FB01F047FC5B4A5B4B29000C902000A3
:103D200001F0BFFB04000C980D0001F023FC574A82
:103D3000574B01F0B6FB02000B002000290001F0F8
:103D400080FB04000D0002000B000A940B9501F0AB
:103D5000A8FB04000D000A980B9902000B0001F06B
:103D600079FB00220E900F914A4B2000290001F0B0
:103D70007AFB0022484B01F06DFB02000B00200093
:103D8000290001F070FB0022444B01F063FB0200AC
:103D90000B002000290001F066FB0A9A0B9B0D0026
:103DA00080210400C905002001F04BFB02000B003C
:103DB0002000290001F04EFB02000B000E980F9925
:103DC00001F051FB0022284B01F044FB344B0C9CCA
:103DD0009C4664442305002201F063FB04000D00AF
:103DE00002000B00300039000A940B9501F09CFB97
:103DF00000285DD123002A00C625099963318D4230
:103E0000AD4159466D420435002900D1A3E6134364
:103E100063D030003900234A234B01F08BFB00288C
:103E200007D0002230003900204B01F07DFB002834
:103E300053D1249B002B00D18DE60D9B5A1E93413C
:103E4000249AD31A249386E6FFFFEF7FFFFFEFFF4C
:103E5000FFF7FFFF01FCFFFFFB799F501344D33FA7
:103E6000B3C8608B288AC63F0000F03F0000F83FCF
:103E700061436F63A787D23F71A379094F930A40CB
:103E80000000E03F1655B5BBB16B0240EF39FAFEBA
:103E9000422EE63F00002C40000024400000184065
:103EA000FF0300002D431CEBE2361A3F80842E41B5
:103EB000099B0022013B09932000164B290001F0C9
:103EC000D2FA0A00010003000A910B9294E7002342
:103ED00000240A930B9400230993249A099B9A4285
:103EE00014DDD31A013B24938023269ADB001A4366
:103EF00000230025269209932DE68022120694467F
:103F0000229B1E00239B63441F0006E6002324938C
:103F1000EAE7C04600002440F0B54546DE464E467E
:103F20005746E0B595B08B46904699461E9A1F9B22
:103F30000A9019001000209D01F009FB002800D014
:103F4000B0E11E981F990122C74B524201F0ECFAD2
:103F5000002800D037E11E981F990122C34B52421E
:103F600001F0F0FA002800D0A7E01E981F99002267
:103F7000BF4B01F0E7FA002800D088E01E981F9997
:103F80000022BC4B01F0D0FA002800D07FE01E9840
:103F90001F990022002301F0C7FA002800D0FAE0A0
:103FA00000230B938023229C229ADB001C401A42A0
:103FB00000D102E1092D00D87CE106A98C462C0035
:103FC000172200233021093C62440133D154EF1AF7
:103FD000202B00D132E1A342F7D10022A44B06925C
:103FE00007931E981F9901F0DDFA050001F0C2FA4F
:103FF00002000B001E981F9901F023FA069A079BF6
:1040000001F04FFA0890099101F0F0FA060001F072
:10401000ADFA02000B000898099901F012FA00228B
:10402000954B0890099101F08DFA002800D1D2E05B
:104030000136300001F09AFA069A079B01F07AFAED
:10404000002801D000260135AA46002F00D098E0B4
:10405000280001F08FFA02000B001E981F9901F052
:10406000F0F9854B002206000F0001F05DFA0CAB61
:104070009A46002845D10022300039007E4B01F0DD
:1040800061FA00283DD1EB073BD5013539E0229B91
:1040900042460493219B594603930A981E9B1F9CFA
:1040A0000295009301944B46FFF704FD15B0F0BC58
:1040B000BB46B246A946A046F0BD229B5B0767D42B
:1040C00003226E4B22990192039121990291009350
:1040D00042464B4659460A98FFF766FBE6E706AAB2
:1040E00094461723280063440A2101341E1900F066
:1040F00045FF3031280031700A2100F03FFF051ED6
:1041000076D0202CEBD10323229A1340012B1DD112
:10411000219B002B1AD00B9B002B00D0BBE0229AD6
:104120000C33134200D0B6E0219BA34200D887E0B5
:1041300006AB9C4617223023624404E021990134E7
:1041400013558C4259D0202CF8D12024229B019465
:104150000393219B02935346B9E706AA944617237B
:104160000A216344300001341D1900F02FFF303163
:10417000297030000A21013F00F028FF092E46D99E
:104180000600202CE9D155460CAB20249A46B8E70E
:1041900004223B4B96E71E9A1F9B0020002101F052
:1041A00050F901230B938023229C229ADB001E905E
:1041B0001F911C401A4200D0FCE60022314B06271A
:1041C000069207930DE7229B0393219B02930423FE
:1041D00001932D4B7BE7002208980999264B01F0AB
:1041E000A3F9002800D02FE7002E4FD101362BE78E
:1041F0000323229A1340012B66D0202CA6D00B9BC0
:10420000002B1FD02D235246135501349EE75546EF
:10421000202CB9D030233A19002F08D0172006A936
:10422000013409180B55202CAED09442F6D10CABBA
:104230009A462E2352461355013462E72024CCE6D9
:10424000202C83D0229B5B0708D4229B1B0700D421
:104250007CE7202352461355013477E72B2352463F
:104260001355013472E7C046FFFFEFFFFFFFEF7FFA
:1042700065CDCD4165CDCDC10000E03FFC610110B1
:10428000F461011080842E4104620110F30700D410
:10429000DAE60136D8E6219B013B2193A34200D9FF
:1042A00046E7AAE7229B0393219B029303230193F2
:1042B000074B0CE7074BEA009B185C681B682F0054
:1042C0000693079400248CE6219B002B95D022E7CF
:1042D00000620110A8630110F0B55746DE464E4655
:1042E0004546E0B5A5B01F002E9B91460D93CA4AE6
:1042F000CA4B82468B461A60002900D129E200236E
:1043000038789846002800D12BE2C54B44460C93E0
:10431000C44B55464E460E930AE0631C9846220055
:1043200033005946A84744463878002800D187E032
:1043300001372528F1D108239A46043B9946023BD0
:104340009846013B00229C460B943878791C030068
:10435000203BDBB2102B03D80C9C9B00E3589F46FC
:104360000300303B0B9C0B92092B3AD90023984653
:104370002A2800D1DDE000239A462E284BD00300E6
:10438000683BDBB2122B1ED80E9A9B00D3589F4677
:1043900063460F001A43D8E743460F001A43D4E799
:1043A0004B460F001A43D0E710230F001A43CCE707
:1043B00053460F001A43C8E780235B000B9A7878B6
:1043C0001A430B9201310F0067284FD82428A4D933
:1043D0000300253BDBB2422B9FD893499B00CB586F
:1043E0009F46002398460B9B47469C4600E00131C0
:1043F000BB00DB195B001F180878303F0300303B1F
:10440000092BF4D963460B930023B8469A460F0054
:1044100001312E28B3D180200B9AC00002430B92A9
:1044200030225242944678780B0084446246092A2E
:1044300000D8AAE12A2800D1B9E10F0001319EE796
:10444000A046AA46B146C84503D301235B424B446C
:1044500098464B46424659460020D047200025B09A
:10446000F0BCBB46B246A946A046F0BD0100693982
:10447000C9B20F2900D950E701238B409C466B4BF2
:10448000994663464A4613400F9362464B461A428A
:1044900000D068E10A2956D0072900D03DE70D9BDE
:1044A00002CB9846002900D092E10B9B10211A0004
:1044B0008A43100011310843814680201A00C00051
:1044C0000240110003421CD114AB9C461F220F2353
:1044D00062440D959C4615000F9B0B9402E0202B27
:1044E0000CD0110064460C4020003730092C00D855
:1044F00007380133E8540A090F29F0D80B9C0D9DA9
:104500000F934B46082206935346059208320392B6
:10451000002204930F9B029201931CAB2200009394
:10452000594633002800FFF795F9434604000D93E0
:10453000FAE60D9B04CB9046002A79DB78780D9340
:104540000F00013117E70D9B02CB14930B789C46AB
:1045500018005346002B00D134E1002815D05346F3
:10456000013B013399460D940B9C89444A460B004C
:10457000A14601E0934203D05C780133002CF9D1CD
:104580004A465B1A0D9C0B920F938023DB009946E1
:104590000B9A13400D934B461A4204D00F9B534580
:1045A00001D953460F93022399460B9A13400B935C
:1045B0004B46134200D1F5E16346002B00D1D6E112
:1045C0000D9B002B00D182E10B1BD14631009A4696
:1045D0003B00A1442E005F464D4622009B46894683
:1045E00009E04B463900541CB0475346185D00287B
:1045F00000D192E122009542F3D14B465A46A9469A
:10460000BB46350017001E004C460B9B002B00D00C
:10461000ADE1149B0D9387E6D9420010D0910020A4
:104620000C620110506201109C6201104190000068
:104630000B9A283802430B924246524278789046B1
:104640000F000D93013196E678786C2800D15DE17A
:1046500080230B9A5B001A430B920131B3E680234F
:104660009B00ABE67878682800D148E180230B9A5C
:1046700001311A430B92A6E6672800D1B2E0472821
:1046800000D11AE1452800D11CE10B9A07210492C0
:1046900042460D9B0392073352468B431900029208
:1046A0000CC92800009201930D9122003300594655
:1046B000FFF700FA040037E6462800D18DE00B9A98
:1046C0000721049242460D9B0392073352468B43C7
:1046D000190002920CC92800009201930D9122004A
:1046E00033005946FFF718FC04001DE6631C98468A
:1046F0002200330059462520A847444614E60D9B66
:1047000004330F93631C99460B9B9A0700D40AE16C
:104710000D9B2200187859463300A847434644446D
:10472000012B00D86FE1B0462E0025004C46B9465B
:104730005F4622004346013439002020B047AC4296
:10474000F7D12C00BB4635004F4646460F9B0D93D4
:10475000EAE5D64B38789A4600239846002800D0E0
:10476000D3E500246FE66F2842D000D8FDE1102386
:10477000782800D19BE00B9A9A430B920A239C461F
:10478000002314930A330F9338E057460B9AB9006D
:10479000C919490001330F181878303F010030392A
:1047A0000929F4D9BA460B921F00591CE7E50D9B65
:1047B000B87804CB0237D143C9170A4092460D930B
:1047C000791CDCE5002800D1DFE602235B42C8E665
:1047D00021200B9A0243914676E620230B9A1A4336
:1047E0000B926CE780230B9A1B011A430B924CE748
:1047F00008239C460023149308330F930B988023BF
:104800000200DB001A4011000200184200D080E0D4
:104810000C239A431000802302009B001A400B9245
:10482000184200D0F1E0802302005B001A4091465C
:104830000D9A04321492184200D0C3E2430600D508
:10484000D7E0030600D421E30D9B1B880993002BBE
:1048500000D02DE110339843002900D128E1002336
:10486000994643460593534604930F9B0690039342
:10487000002302934B4601931CAB22000093594640
:1048800033002800FEF7E6FF0400C2E6582809D0EE
:10489000622800D0E3E202239C46002314930233F3
:1048A0000F93ABE720230B9A1A430B92103B9C46C5
:1048B0000023149310330F93A0E780230B9A1B015E
:1048C0001A430B9220230B9A1A430B92DDE60B1B23
:1048D0009A460F9B99463B0037005E469B46220056
:1048E0003B003100A84753460134185D0028F6D13B
:1048F0004B460F935B46B3463E001F0085E6C02340
:104900000B9AB8781A430B92F91C5CE5C0239B0004
:10491000F6E70D239A4310007DE75B463500BB4662
:104920004E461F0071E64346012B66D9631E434481
:1049300032002E001D003B00A2465F4691469B467A
:1049400022004B46013439002020B047AC42F7D159
:104950005B463500BB464E46A14654461F000D9BA4
:104960004A461878594633004444A847EEE60F9B60
:10497000A146984500D84CE64444E41AB0462E00BF
:1049800025004C46B9465F462200434601343900B3
:104990002020B047AC42F7D12C00BB4635004F4633
:1049A000464636E60F98804500D873E24346E21843
:1049B000131A32002E001D003B0091465F469B46B5
:1049C0000F9122004B46013439002020B047AC4201
:1049D000F7D15B46BB461F0043460F9901330F9347
:1049E0000B7835009C464E466046002800D0E7E52F
:1049F0000FE60D9B1B78099329E70D9B2200187881
:104A000059463300A8474C46A0E60D9AFA3BFF3BB7
:104A100007329A430133994691444B460D931368EC
:104A2000526815921A4306D110329043002209921F
:104A3000002900D083E06122810600D54122D2B254
:104A40000A9214AA91460A9A00210A3A0B92424607
:104A50001792524618925A46B24609911E001F31CB
:104A6000149B4944BB4616941A9500246746984601
:104A70008946159D19901B920AE03032D2B24B46FE
:104A800001341A55A8454CD0202C4CD006000D00FE
:104A90003A0000233000290000F0D6FAD2B2092AE9
:104AA000EBD90B9B9C466244D2B2E8E7A5370010D5
:104AB0006123820600D54123DBB20A3B0B934346B8
:104AC00014A91F228C46159353466244B2460D9496
:104AD00017974C468046A9461700099D0F9E1693CE
:104AE00008E03033DBB201343B55B5420ED3202C05
:104AF0000CD005003100280000F068FACBB209297B
:104B0000EFD90B9A94466344DBB2ECE7159B404621
:104B10009846169B4D465646A1469A460D9C179FB1
:104B20009FE6B742B0D9179B56469846189B5F46FA
:104B30009A461B9B09949B46169C19981A9D4346BE
:104B40000593534604930F9B06900393002302930F
:104B5000099B01931CAB22000093594633002800A7
:104B6000FEF778FE0400FFF7DFFB10230B9A9A4351
:104B70000F92692800D091E10B9980230A00DB0095
:104B80001A4010000A00194203D0112118008A436C
:104B90000F920F9A802311009B0019408C461A42F5
:104BA0005BD1802311005B00194089460D990431C7
:104BB0000B911A4200D0B2E013005B0600D4EDE086
:104BC0000D9B1B781A00D90F0D91002B00D1A3E08B
:104BD000100014AA944642461F231592524663447D
:104BE000A846BA464D461494B14604001F001692DA
:104BF00001E0202D0FD020000A2100F0E7F9013557
:104C00007E193031317020000A2100F0DFF92600D2
:104C10000400092EEDD8159B4E46A94645469846F8
:104C2000169B57469A46149C0F9B06934346059342
:104C3000534604930A2303930D9B02934B4601931F
:104C40001CAB22000093594633002800FEF702FEF9
:104C50000B9B04000D93FFF767FB07220D9B0733A7
:104C60009343013294469C4462460D920CCBD90F7B
:104C70000B911100194300D19BE0D91713911291A8
:104C80005140109113995940119110981199129A0D
:104C9000139B801A99411090119114AA9446424690
:104CA0000023159252469946169232001F336344F0
:104CB000A8464E46BA4614941F00109C119D91467A
:104CC00001E0202E10D0200029000A22002300F04D
:104CD000BBF9013630322B00BA550D00220004001A
:104CE000002BEED1092AECD8159B1094119545465E
:104CF00098464B46169AB14657461E009246149C5B
:104D00000F9B069343460593534604930A2303934C
:104D10000B9B02934B461CE7002885D159E70D9B5E
:104D20001B68DA0F1100002B00D1A6E0DA179818E3
:104D3000504014AA91461F2342464B44A8460D9466
:104D4000169704006546B1461F001491159201E0C4
:104D5000202D0FD020000A2100F038F901357E19EE
:104D60003031317020000A2100F030F926000400B3
:104D7000092EEDD8159BAC4645469846149B4E46E9
:104D800019000D9C169F0F9B0291069343460593B5
:104D9000534604930A230393634650E713001B060C
:104DA0006ED50D9B00229B5ED9175A184A4092B2CD
:104DB00009E7002399460028A2D10022002310927F
:104DC00011936AE70D9B1B689946002B03D11033A2
:104DD0009843002938D16123820600D54123DBB2F4
:104DE0000A3B0D9343461693534614A91F228C4643
:104DF00017932B0062444D46B2461594189780468F
:104E0000170099460B9C0F9E08E03033DBB201344B
:104E10003B55B5420ED3202C0CD0050031002800A4
:104E200000F0D4F8CBB20929EFD90D9A9446634427
:104E3000DBB2ECE7169B40469846179B56464D461C
:104E40009A460B94189F159C43460593534604932A
:104E50000F9B06900393002302930B9B0BE50B998A
:104E600080230A00DB001A4010000A00194200D01B
:104E70008BE610239A430F928BE6002883D158E7E4
:104E80000D9B1B68D9175A184A409CE60D9B1B685E
:104E90000993DCE4030001330F93A5E50B926DE465
:104EA0000EB4012230B584B007AC08CC064D010029
:104EB0000094280052420394FFF70EFA04B030BC6D
:104EC00008BC03B01847C0469D37001010B5094A0A
:104ED0000300146884B0002C08D001220091064819
:104EE000524203A9A047012004B010BD01F022FDE9
:104EF0000020F9E7D0910020A53A001001480421D4
:104F0000014B184740100020394F0010014B9B689F
:104F10001847000040100020142310B50100188825
:104F200004331B88984710BD162310B5010018885C
:104F300002331B88984710BDF8B54746CE4680B56A
:104F40000F1E19D0142399460433040000250126AE
:104F500098464B461888434621681B88984701C4E9
:104F6000431E9841013540420640AF42F1D1300026
:104F7000C0BCB946B046F8BD0126F8E7124A936FA7
:104F80009B0815D29066D166002905D0FFE7FFE7A0
:104F9000FFE7516F106F704704B580210906C217F3
:104FA0005140002800D0C84309F036F8002104BD64
:104FB000F0B5146E556E576F166FFFF7E3FF14666A
:104FC000556657671667F0BD000000D0114A936F11
:104FD0009B0813D210665166002905D0FFE7FFE752
:104FE000FFE7516F106F704704B5002801D0002013
:104FF000C04309F011F8002104BDC046F0B5146E9D
:10500000556E576F166FFFF7E5FF146655665767C5
:105010001667F0BD000000D094464A4A926F92088D
:10502000624601D228E0C046F0B5464E346E756E39
:10503000776F366F00F020F89446424A1466556642
:10504000576716676246F0BD94463E4A926F9208D3
:10505000624601D254E0C046F0B53A4E346E756EE9
:10506000776F366F00F04CF89446364A14665566F2
:10507000576716676246F0BD002B24DB11D000296C
:105080003EDA00B5C943404200D1013100F038F8A2
:10509000C943404200D10131DB43524200D10133C8
:1050A00000BD002AEBD1002801D1002905D0002045
:1050B000C90FC90701D1C043410800B508F07CFF02
:1050C0000022002300BD00B500290ADBDB43524269
:1050D00000D1013300F014F8C943404200D101313E
:1050E00000BDC943404200D10131DB43524200D1EF
:1050F000013300F005F8DB43524200D1013300BD1B
:10510000002923D1002B18D1002A0CD0BC460D4F0A
:1051100038667A6600210023FFE7FFE7FFE77A6F32
:10512000386F67467047002801D00748010000B576
:1051300008F042FF0022002300BD02000B00002007
:1051400000217047000000D0FFFFFFFF002B00D0C0
:10515000BFE0130C28D1002AE7D080B4114F396684
:105160007A66FFE7FFE730B4040C7B6F396F1B04EE
:1051700023433B667A66FFE7FFE7FFE7C04684B25A
:105180007B6F3D6F1B0423433B667A66FFE7FFE7B7
:10519000C04600232C042D0C7A6F386F001969412A
:1051A000B0BC7047000000D0F0B594460025140E46
:1051B00001D112020835140F01D112010435940FE8
:1051C00001D192000235D40F01D152000135D40B28
:1051D0000134254F7C66254C3C660E0C93B2FFE7EC
:1051E000FFE7FFE73C6F6643360C7703BE46734329
:1051F000DF0B5B04C01AB941130C7343DB18C91AE7
:10520000CE086643360CB64493B273431F0F1B019E
:10521000C01AB941130C73431F0B1B05C01AB941C7
:10522000860D8F023E436643360C092D24DB520A5D
:105230007243801A7703460A6643360C16235B1BBB
:10524000DE40DF40BF1964466643821B704604356A
:1052500006330100D940A840C01900D30131A24251
:1052600006D20023F0BD0000000000D0FFFFFFFFCA
:10527000121B0130F3D3F1E709277F1BFE40644680
:10528000A2B27243801A00D20139220C7243130C6D
:105290001204821A99410B0070460435133701003D
:1052A000F940A840801900D30131002B02D1A2425D
:1052B0000AD2F0BD013000D30131121BFAD2013BFA
:1052C000F8D1A24200D2F0BD013000D30131121B4F
:1052D000F7E7F0B51C0C00D080E00CB400251C0AE8
:1052E00004D11B02160E3343120208351C0B04D1E5
:1052F0001B01160F3343120104359C0B04D19B0094
:10530000960F334392000235DC0B02D192185B41B9
:1053100001351C00971864410134464F7C66464CA9
:105320003C660E0CFFE7FFE7FFE7C0463C6F6643B5
:10533000360C7703BE4697B27743C01B00D20139C3
:10534000C01B00D201399FB27743C91BC91B170C80
:1053500077437E04FF0B801BB941CE086643360CB1
:105360000C2D33DBB644120B1F053A431B0B97B2CF
:105370007743C01B00D201399FB27743C91B170C7A
:1053800077433E043F0C801BB941860D8F023E439C
:10539000664329277F1BFE400C3D7746AF40BF196F
:1053A00030BCA2B2ABB272437343801A9941220C53
:1053B0007243130C1204801A994102000B0001374A
:1053C000001BA941F9D2781E0021F0BD0C277F1BDC
:1053D000FE4077467F0BAF40FF19E0E700245D1CDD
:1053E00007D0144F7D663966FFE7FFE7FFE7FFE769
:1053F0003C6F95B29EB265436643401BB141150CAC
:105400001E0C6543664336042F0C3E432D04401B9F
:10541000B141994204D202000B0020000021F0BDEE
:1054200001D19042F7D3801A994101349942F2D3C5
:10543000F6E70000000000D0FFFFFFFF48404140BA
:10544000484018B41B4B5B68FC46019308BD04DF61
:105450001757001018B4174B1B68FC46019308BD82
:1054600000DF215700109446134A926F920809D228
:10547000624618B40F4BDB68FC46019308BD0CDF95
:10548000D95900100C4AF0B5146E556E576F166F4F
:105490006246FFF7EEFF084A1466556657671667BF
:1054A000F0BD18B4034B9B68FC46019308BD08DFB0
:1054B0007D58001020170020000000D0FFB550409C
:1054C0004240504059404B40594000E0FFB5154F15
:1054D0004C00640D03D0BC4204D10C0314D800204E
:1054E000090D09055C00640D03D0BC4204D11C0306
:1054F0000AD800221B0D1B0501264B4009D44B4046
:1055000003D58B4200D18242FFBD9942FCD190422B
:10551000FFBD0B43DB1803431343F5D0C9434918C0
:10552000FFBD0000FF07000000B5FFF7CFFF80417F
:1055300000BDC04600B5FFF7C1FF01D9002000BD86
:10554000012000BD00B5FFF7B9FF804100BD01207B
:1055500040054A00121804D85A00121801D8002039
:10556000704701207047002070470000002100288C
:1055700005D17047C1174840401AFAD0C90713B582
:10558000064B1B6898470CBC441CA2401005120B2C
:105590000349091B09051943114310BDFC91002063
:1055A0001F04000010B54C00620D8023D218DB00F0
:1055B000D21A5B057E2A10DD9E3A13DACC17090356
:1055C000490819435242D140640001341532202A5F
:1055D00005DAD0400843604310BD002010BD0846E6
:1055E000604310BDC80FC018013810BD18B4044B7B
:1055F0005B6AFC46019308BD24DF895B0010000054
:105600002017002018B4044BDB6FFC46019308BD43
:105610007CDF095C001000002017002018B4044B48
:10562000DB6CFC46019308BD4CDFB55D001000004B
:105630002017002018B4044B1B6DFC46019308BDD5
:1056400050DF515E0010000020170020132370B5BA
:105650001D78012D15D010DD1D48FFF765FC1D4C90
:1056600001008022200001F0B9F8022D2DD01A4847
:10567000FFF752FC194B186070BD194B154CA36411
:10568000F5E7174B134C23606360A360E36023616D
:105690006361A361E36123626362A362E3622363E4
:1056A0006363A363E36323646364A364E3642365C4
:1056B0006365A365E36523666366A366E3662367A4
:1056C0006367A367E367A364D1E7054BA364CEE7F1
:1056D00053440000201700204C330000FC910020B0
:1056E000E556001007B5604601880A0A0230DF2A35
:1056F000FAD1C9B2820804D302884088000410435A
:1057000000E00068014A5050039007BD20170020B8
:105710000FB403BC0CBCF0B50124E407634000E007
:10572000F0B50C0DCF0F661E3605891B640503D33B
:10573000C943404200D30131640D03D0661CF60A10
:1057400007D0E41B00207F00791C89078912803C68
:1057500024031D0DDF0F6E1E36059B1B6D0503D345
:10576000DB43524200D301336D0D03D06E1CF60AA9
:1057700007D0ED1B00227F007B1C9B079B12803D06
:105780002D032F1B661B58D4A446202E46DA203743
:105790001400BC401D00BD40F24033412A43801834
:1057A0005941CB0F05D0C943C04300226442504148
:1057B000514162464D0D28D10D0D07D100281FD053
:1057C000241940414941013A0D0DF9D0640006D336
:1057D000013000D30131002C01D140084000013AD2
:1057E0000BD4941CE40A04D112051144DB071944BC
:1057F000F0BDD907204B194300E0D9070020F0BDC8
:105800000029DDD1002CDBD1F0BD0132C6074008F4
:10581000CD0728434908002EE1D0D9E73C2E29DAEC
:10582000203E40371400BC4000D00124F240144315
:105830001A00BB401C43D317ACE7AC46202F08DA54
:1058400020360400B4400D00B540F84039412843EB
:10585000A5E73C2F0CDA203F40360400B44000D0CE
:105860000124F84004430800B1400C43C117EAE7A3
:1058700010001900002494E70000F07FF0B50C0D33
:10588000661E3605891BE60A6405640D02D0651C98
:10589000ED0A04D0002001210905803C2403A44620
:1058A0001C0D671E3F05DB1BE70A6405640D02D073
:1058B000651CED0A04D0002201231B05803C240353
:1058C0007740644497B484B296B27443070C7E4325
:1058D000150C6F4380B26843361802D301200004D0
:1058E0003F183004350C00197D41844688B29AB2C5
:1058F00050430C0C62431F0C7C438EB27E439219C2
:1059000002D301263604A4191604170C3618674171
:1059100001BC81B29AB25143040C62431B0C5C433C
:1059200080B25843121802D3012000042418100436
:10593000130C401863412D185E410020474106BCFE
:1059400088B293B258430C0C6343120C544389B28F
:1059500051435B1802D301210904641819041A0C7D
:10596000091862416D1856410020474118BCF902E0
:10597000720D1143F0026A0D1043ED020A0D03D1BE
:105980006D1940414941013B124E9B1B7600B342C9
:105990000ED26D0007D301300026714166463543B3
:1059A00001D1400840001B05C918E4072144F0BD9F
:1059B0000BDA013306D1013004D101314F0D01D092
:1059C0004908F2E7E1070020F0BD0136310500206B
:1059D000EBE70000FF030000F0B51C0D671E3F055C
:1059E000DB1BE70A6405640D02D0661CF60A04D0CE
:1059F000002201231B05803C2403D0252D06002610
:105A0000F6432E661E096E66CE0FF619B44649009F
:105A10004F0D02D07E1CF60A03D000200021403F2B
:105A20003F033E1BB600B444013F7F05C91B490834
:105A30002E6F013676089C02950D25437543ED13B4
:105A40007543AD1301356D10F603761B0CB4CC0213
:105A5000450D2C43A2B2B3B25A43270C7B43350CFD
:105A60006F43A4B26C431B1902D3012424043F19D1
:105A70001C041D0CA4187D4124196D41009A91B29B
:105A8000ACB26143170C7C432B0C5F4392B25A4378
:105A9000A41802D301221204BF182204230C5218A6
:105AA0007B41019C6C431B19520ED9010A434401EE
:105AB000A01A81B2B2B2514303145A43360C734355
:105AC00087B27743D617D21900277E4136049B1937
:105AD0001704160C7F185E417316ED18F3010026AB
